{"abi":[{"type":"constructor","inputs":[{"name":"_feeRecipient","type":"address","internalType":"address"},{"name":"_multisigWallet","type":"address","internalType":"address"}],"stateMutability":"nonpayable"},{"type":"function","name":"DEFAULT_ADMIN_ROLE","inputs":[],"outputs":[{"name":"","type":"bytes32","internalType":"bytes32"}],"stateMutability":"view"},{"type":"function","name":"FEE_ADMIN_ROLE","inputs":[],"outputs":[{"name":"","type":"bytes32","internalType":"bytes32"}],"stateMutability":"view"},{"type":"function","name":"ORACLE_ROLE","inputs":[],"outputs":[{"name":"","type":"bytes32","internalType":"bytes32"}],"stateMutability":"view"},{"type":"function","name":"burnFee","inputs":[],"outputs":[{"name":"","type":"uint256","internalType":"uint256"}],"stateMutability":"view"},{"type":"function","name":"calculateBurnFee","inputs":[{"name":"user","type":"address","internalType":"address"},{"name":"amount","type":"uint256","internalType":"uint256"}],"outputs":[{"name":"fee","type":"uint256","internalType":"uint256"},{"name":"net","type":"uint256","internalType":"uint256"}],"stateMutability":"view"},{"type":"function","name":"calculateLiquidationFee","inputs":[{"name":"liquidator","type":"address","internalType":"address"},{"name":"amount","type":"uint256","internalType":"uint256"}],"outputs":[{"name":"fee","type":"uint256","internalType":"uint256"},{"name":"net","type":"uint256","internalType":"uint256"}],"stateMutability":"view"},{"type":"function","name":"calculateMintFee","inputs":[{"name":"user","type":"address","internalType":"address"},{"name":"amount","type":"uint256","internalType":"uint256"}],"outputs":[{"name":"fee","type":"uint256","internalType":"uint256"},{"name":"net","type":"uint256","internalType":"uint256"}],"stateMutability":"view"},{"type":"function","name":"calculateTransferFee","inputs":[{"name":"from","type":"address","internalType":"address"},{"name":"to","type":"address","internalType":"address"},{"name":"amount","type":"uint256","internalType":"uint256"}],"outputs":[{"name":"fee","type":"uint256","internalType":"uint256"},{"name":"net","type":"uint256","internalType":"uint256"}],"stateMutability":"view"},{"type":"function","name":"collectFee","inputs":[{"name":"from","type":"address","internalType":"address"},{"name":"operation","type":"string","internalType":"string"},{"name":"feeAmount","type":"uint256","internalType":"uint256"}],"outputs":[],"stateMutability":"nonpayable"},{"type":"function","name":"emergencySetFees","inputs":[{"name":"_mintFee","type":"uint256","internalType":"uint256"},{"name":"_burnFee","type":"uint256","internalType":"uint256"},{"name":"_transferFee","type":"uint256","internalType":"uint256"},{"name":"_liquidationFee","type":"uint256","internalType":"uint256"}],"outputs":[],"stateMutability":"nonpayable"},{"type":"function","name":"feeExempted","inputs":[{"name":"","type":"address","internalType":"address"}],"outputs":[{"name":"","type":"bool","internalType":"bool"}],"stateMutability":"view"},{"type":"function","name":"feeRecipient","inputs":[],"outputs":[{"name":"","type":"address","internalType":"address"}],"stateMutability":"view"},{"type":"function","name":"feesCollectedFrom","inputs":[{"name":"","type":"address","internalType":"address"}],"outputs":[{"name":"","type":"uint256","internalType":"uint256"}],"stateMutability":"view"},{"type":"function","name":"getFeeInfo","inputs":[],"outputs":[{"name":"mintFee_","type":"uint256","internalType":"uint256"},{"name":"burnFee_","type":"uint256","internalType":"uint256"},{"name":"transferFee_","type":"uint256","internalType":"uint256"},{"name":"liquidationFee_","type":"uint256","internalType":"uint256"},{"name":"feeRecipient_","type":"address","internalType":"address"},{"name":"totalFeesCollected_","type":"uint256","internalType":"uint256"}],"stateMutability":"view"},{"type":"function","name":"getRoleAdmin","inputs":[{"name":"role","type":"bytes32","internalType":"bytes32"}],"outputs":[{"name":"","type":"bytes32","internalType":"bytes32"}],"stateMutability":"view"},{"type":"function","name":"getUserFeeStats","inputs":[{"name":"user","type":"address","internalType":"address"}],"outputs":[{"name":"feesCollectedFromUser","type":"uint256","internalType":"uint256"},{"name":"isExempted","type":"bool","internalType":"bool"}],"stateMutability":"view"},{"type":"function","name":"grantRole","inputs":[{"name":"role","type":"bytes32","internalType":"bytes32"},{"name":"account","type":"address","internalType":"address"}],"outputs":[],"stateMutability":"nonpayable"},{"type":"function","name":"hasRole","inputs":[{"name":"role","type":"bytes32","internalType":"bytes32"},{"name":"account","type":"address","internalType":"address"}],"outputs":[{"name":"","type":"bool","internalType":"bool"}],"stateMutability":"view"},{"type":"function","name":"liquidationFee","inputs":[],"outputs":[{"name":"","type":"uint256","internalType":"uint256"}],"stateMutability":"view"},{"type":"function","name":"mintFee","inputs":[],"outputs":[{"name":"","type":"uint256","internalType":"uint256"}],"stateMutability":"view"},{"type":"function","name":"renounceRole","inputs":[{"name":"role","type":"bytes32","internalType":"bytes32"},{"name":"account","type":"address","internalType":"address"}],"outputs":[],"stateMutability":"nonpayable"},{"type":"function","name":"revokeRole","inputs":[{"name":"role","type":"bytes32","internalType":"bytes32"},{"name":"account","type":"address","internalType":"address"}],"outputs":[],"stateMutability":"nonpayable"},{"type":"function","name":"setBurnFee","inputs":[{"name":"_fee","type":"uint256","internalType":"uint256"}],"outputs":[],"stateMutability":"nonpayable"},{"type":"function","name":"setFeeExemption","inputs":[{"name":"account","type":"address","internalType":"address"},{"name":"exempt","type":"bool","internalType":"bool"}],"outputs":[],"stateMutability":"nonpayable"},{"type":"function","name":"setFeeExemptionBatch","inputs":[{"name":"accounts","type":"address[]","internalType":"address[]"},{"name":"exempt","type":"bool","internalType":"bool"}],"outputs":[],"stateMutability":"nonpayable"},{"type":"function","name":"setFeeRecipient","inputs":[{"name":"_feeRecipient","type":"address","internalType":"address"}],"outputs":[],"stateMutability":"nonpayable"},{"type":"function","name":"setLiquidationFee","inputs":[{"name":"_fee","type":"uint256","internalType":"uint256"}],"outputs":[],"stateMutability":"nonpayable"},{"type":"function","name":"setMintFee","inputs":[{"name":"_fee","type":"uint256","internalType":"uint256"}],"outputs":[],"stateMutability":"nonpayable"},{"type":"function","name":"setTransferFee","inputs":[{"name":"_fee","type":"uint256","internalType":"uint256"}],"outputs":[],"stateMutability":"nonpayable"},{"type":"function","name":"supportsInterface","inputs":[{"name":"interfaceId","type":"bytes4","internalType":"bytes4"}],"outputs":[{"name":"","type":"bool","internalType":"bool"}],"stateMutability":"view"},{"type":"function","name":"totalFeesCollected","inputs":[],"outputs":[{"name":"","type":"uint256","internalType":"uint256"}],"stateMutability":"view"},{"type":"function","name":"transferFee","inputs":[],"outputs":[{"name":"","type":"uint256","internalType":"uint256"}],"stateMutability":"view"},{"type":"event","name":"FeeCollected","inputs":[{"name":"from","type":"address","indexed":true,"internalType":"address"},{"name":"operation","type":"string","indexed":false,"internalType":"string"},{"name":"feeAmount","type":"uint256","indexed":false,"internalType":"uint256"}],"anonymous":false},{"type":"event","name":"FeeExemptionUpdated","inputs":[{"name":"account","type":"address","indexed":true,"internalType":"address"},{"name":"exempt","type":"bool","indexed":false,"internalType":"bool"}],"anonymous":false},{"type":"event","name":"FeeRecipientUpdated","inputs":[{"name":"newRecipient","type":"address","indexed":true,"internalType":"address"}],"anonymous":false},{"type":"event","name":"FeeUpdated","inputs":[{"name":"operation","type":"string","indexed":false,"internalType":"string"},{"name":"newFee","type":"uint256","indexed":false,"internalType":"uint256"}],"anonymous":false},{"type":"event","name":"RoleAdminChanged","inputs":[{"name":"role","type":"bytes32","indexed":true,"internalType":"bytes32"},{"name":"previousAdminRole","type":"bytes32","indexed":true,"internalType":"bytes32"},{"name":"newAdminRole","type":"bytes32","indexed":true,"internalType":"bytes32"}],"anonymous":false},{"type":"event","name":"RoleGranted","inputs":[{"name":"role","type":"bytes32","indexed":true,"internalType":"bytes32"},{"name":"account","type":"address","indexed":true,"internalType":"address"},{"name":"sender","type":"address","indexed":true,"internalType":"address"}],"anonymous":false},{"type":"event","name":"RoleRevoked","inputs":[{"name":"role","type":"bytes32","indexed":true,"internalType":"bytes32"},{"name":"account","type":"address","indexed":true,"internalType":"address"},{"name":"sender","type":"address","indexed":true,"internalType":"address"}],"anonymous":false}],"bytecode":{"object":"0x6080346102b157601f6118ac38819003918201601f19168301916001600160401b038311848410176102b55780849260409485528339810103126102b157610052602061004b836102c9565b92016102c9565b60018055600560028181556003829055600455601e90556001600160a01b0390911690811561026c576001600160a01b031690811561022757335f9081525f51602061186c5f395f51905f52602052604090205460ff16156101ea575b335f9081525f51602061188c5f395f51905f52602052604090205460ff161561018b575b335f9081525f51602061184c5f395f51905f52602052604090205460ff161561012c575b60018060a01b031960065416176006555f52600760205260405f20600160ff1982541617905560405161154e90816102de8239f35b335f8181525f51602061184c5f395f51905f5260205260408120805460ff1916600117905581907f68e79a7bf1e0bc45d0a330c573bc367f9cf464fd326078812f301165fbda4ef1905f51602061182c5f395f51905f529080a46100f7565b335f8181525f51602061188c5f395f51905f5260205260408120805460ff1916600117905581907f349eec46d2c564a125684d1934a6120a70cc341d3a26d362e358a775e07dec17905f51602061182c5f395f51905f529080a46100d3565b335f8181525f51602061186c5f395f51905f5260205260408120805460ff1916600117905581905f51602061182c5f395f51905f528180a46100af565b60405162461bcd60e51b815260206004820152601760248201527f496e76616c6964206d756c74697369672077616c6c65740000000000000000006044820152606490fd5b60405162461bcd60e51b815260206004820152601560248201527f496e76616c69642066656520726563697069656e7400000000000000000000006044820152606490fd5b5f80fd5b634e487b7160e01b5f52604160045260245ffd5b51906001600160a01b03821682036102b15756fe6080806040526004361015610012575f80fd5b5f3560e01c90816202eab714610dc95750806301ffc9a714610d7357806307e2cea514610d3957806313966db514610d1c57806319c690d114610c185780631c51799f14610bf1578063230eaaa814610bca578063248a9ca314610ba45780632f2ff15d14610af957806336568abe14610a675780634690484014610a3f5780634bf2c7c9146109bc5780634cba593a146109955780634d3d14f21461096657806360c6d8ae14610949578063751fd179146108a75780638f02bb5b1461082057806391d14854146107d8578063a184620d14610634578063a217fddf1461061a578063a36a3630146105fd578063acb2ad6f146105e0578063b403f8e5146105ad578063c173c91914610575578063cde52834146103f7578063d2019847146103ba578063d547741f14610382578063e74b981b146102f6578063ea4869ff146102a9578063eddd0d9c14610226578063fce589d8146102095763fef0bec81461017b575f80fd5b3461020557602036600319011261020557335f9081525f5160206114f95f395f51905f5260205260409020545f5160206114d95f395f51905f5290608090600435906101c99060ff16610fac565b6101d66064821115610fe9565b806005556040519060408252600b60408301526a3634b8bab4b230ba34b7b760a91b60608301526020820152a1005b5f80fd5b34610205575f366003190112610205576020600354604051908152f35b3461020557602036600319011261020557335f9081525f5160206114f95f395f51905f5260205260409020545f5160206114d95f395f51905f5290608090600435906102749060ff16610fac565b6102816064821115610fe9565b80600255604051906040825260046040830152631b5a5b9d60e21b60608301526020820152a1005b346102055760203660031901126102055760406001600160a01b036102cc610e16565b16805f526009602052815f2054905f52600760205260ff825f205416825191825215156020820152f35b346102055760203660031901126102055761030f610e16565b335f9081525f5160206114f95f395f51905f5260205260409020546103369060ff16610fac565b6001600160a01b031661034a81151561107a565b600680546001600160a01b031916821790557f7a7b5a0a132f9e0581eb8527f66eae9ee89c2a3e79d4ac7e41a1f1f4d48a7fc25f80a2005b34610205576040366003190112610205576103b86004356103a1610e2c565b906103b36103ae82610f9b565b6111fc565b61127f565b005b34610205576020366003190112610205576001600160a01b036103db610e16565b165f526007602052602060ff60405f2054166040519015158152f35b346102055760803660031901126102055760043560443560643560243561041c611115565b60648411158061056a575b8061055f575b80610554575b1561051f57608080935f5160206114d95f395f51905f528281979482828782986002558360035586600455896005556040519060408252600e60408301526d195b595c99d95b98de57db5a5b9d60921b60608301526020820152a16040519060408252600e60408301526d32b6b2b933b2b731bcafb13ab93760911b60608301526020820152a16040519060408252601260408301527132b6b2b933b2b731bcafba3930b739b332b960711b60608301526020820152a16040519060408252601560408301527432b6b2b933b2b731bcafb634b8bab4b230ba34b7b760591b60608301526020820152a1005b60405162461bcd60e51b815260206004820152600d60248201526c08ccacae640e8dede40d0d2ced609b1b6044820152606490fd5b506064821115610433565b50606483111561042d565b506064811115610427565b34610205576020366003190112610205576001600160a01b03610596610e16565b165f526009602052602060405f2054604051908152f35b346102055760403660031901126102055760406105d46105cb610e16565b602435906110f0565b82519182526020820152f35b34610205575f366003190112610205576020600454604051908152f35b34610205575f366003190112610205576020600554604051908152f35b34610205575f3660031901126102055760206040515f8152f35b34610205576040366003190112610205576004356001600160401b03811161020557366023820112156102055760048101356001600160401b038111610205576024820191602436918360051b01011161020557610690610e94565b335f9081525f5160206114f95f395f51905f5260205260409020549091906106ba9060ff16610fac565b6064811161079f5790801515905f5b8381106106d257005b6001600160a01b036106ed6106e88387896110b8565b6110dc565b161561075f576001906001600160a01b0361070c6106e883888a6110b8565b165f52600760205261072d8360405f209060ff801983541691151516179055565b818060a01b036107416106e883888a6110b8565b165f5160206114995f395f51905f526020604051878152a2016106c9565b60405162461bcd60e51b8152602060048201526018602482015277092dcecc2d8d2c840c2c8c8e4cae6e640d2dc40c4c2e8c6d60431b6044820152606490fd5b60405162461bcd60e51b8152602060048201526011602482015270546f6f206d616e79206163636f756e747360781b6044820152606490fd5b34610205576040366003190112610205576107f1610e2c565b6004355f525f60205260405f209060018060a01b03165f52602052602060ff60405f2054166040519015158152f35b3461020557602036600319011261020557335f9081525f5160206114f95f395f51905f5260205260409020545f5160206114d95f395f51905f52906080906004359061086e9060ff16610fac565b61087b6064821115610fe9565b80600455604051906040825260086040830152673a3930b739b332b960c11b60608301526020820152a1005b34610205576040366003190112610205576108c0610e16565b5f5160206114995f395f51905f5260206108d8610e94565b5f5160206114b95f395f51905f525f908152808352604080822033835284529020549093906109099060ff16610fac565b6001600160a01b03169261091e84151561107a565b835f526007825261093e8160405f209060ff801983541691151516179055565b6040519015158152a2005b34610205575f366003190112610205576020600854604051908152f35b346102055760603660031901126102055760406105d4610984610e16565b61098c610e2c565b6044359161102c565b34610205575f3660031901126102055760206040515f5160206114b95f395f51905f528152f35b3461020557602036600319011261020557335f9081525f5160206114f95f395f51905f5260205260409020545f5160206114d95f395f51905f529060809060043590610a0a9060ff16610fac565b610a176064821115610fe9565b8060035560405190604082526004604083015263313ab93760e11b60608301526020820152a1005b34610205575f366003190112610205576006546040516001600160a01b039091168152602090f35b3461020557604036600319011261020557610a80610e2c565b336001600160a01b03821603610a9c576103b89060043561127f565b60405162461bcd60e51b815260206004820152602f60248201527f416363657373436f6e74726f6c3a2063616e206f6e6c792072656e6f756e636560448201526e103937b632b9903337b91039b2b63360891b6064820152608490fd5b3461020557604036600319011261020557600435610b15610e2c565b90610b226103ae82610f9b565b5f818152602081815260408083206001600160a01b038616845290915290205460ff1615610b4c57005b5f818152602081815260408083206001600160a01b0395909516808452949091528120805460ff19166001179055339291907f2f8788117e7eff1d82e926ec794901d17c78024a50270940304540a733656f0d9080a4005b34610205576020366003190112610205576020610bc2600435610f9b565b604051908152f35b346102055760403660031901126102055760406105d4610be8610e16565b60243590610f76565b346102055760403660031901126102055760406105d4610c0f610e16565b60243590610f11565b3461020557606036600319011261020557610c31610e16565b6024356001600160401b0381116102055736602382011215610205578060040135610c5b81610e79565b91610c696040519384610e42565b818352366024838301011161020557815f92602460209301838601378301015260443591610c95611115565b82610c9c57005b7f535d131ceb8cdaf94a2c8af29bd412da6291a90d15711e5b706ea375c4355fd891610d1191610cce8560085461123e565b60085560018060a01b031693845f526009602052610cf08160405f205461123e565b855f52600960205260405f2055604051928392604084526040840190610ea3565b9060208301520390a2005b34610205575f366003190112610205576020600254604051908152f35b34610205575f3660031901126102055760206040517f68e79a7bf1e0bc45d0a330c573bc367f9cf464fd326078812f301165fbda4ef18152f35b346102055760203660031901126102055760043563ffffffff60e01b811680910361020557602090637965db0b60e01b8114908115610db8575b506040519015158152f35b6301ffc9a760e01b14905082610dad565b34610205575f3660031901126102055760c0906002546003546004546005549060018060a01b036006541692600854948652602086015260408501526060840152608083015260a0820152f35b600435906001600160a01b038216820361020557565b602435906001600160a01b038216820361020557565b601f909101601f19168101906001600160401b03821190821017610e6557604052565b634e487b7160e01b5f52604160045260245ffd5b6001600160401b038111610e6557601f01601f191660200190565b60243590811515820361020557565b805180835260209291819084018484015e5f828201840152601f01601f1916010190565b15610ece57565b60405162461bcd60e51b815260206004820152601b60248201527a4e657420616d6f756e74206d75737420626520706f73697469766560281b6044820152606490fd5b919091600354908115908115610f55575b50610f4f57612710610f37610f3f928561125f565b048093611272565b91610f4b831515610ec7565b9190565b505f9190565b6001600160a01b03165f9081526007602052604081205460ff169150610f22565b919091600554908115908115610f555750610f4f57612710610f37610f3f928561125f565b5f525f602052600160405f20015490565b15610fb357565b60405162461bcd60e51b815260206004820152600e60248201526d27b7363c903332b29030b236b4b760911b6044820152606490fd5b15610ff057565b60405162461bcd60e51b81526020600482015260146024820152734665652063616e6e6f742065786365656420312560601b6044820152606490fd5b929192600454918215918215611059575b508115610f555750610f4f57612710610f37610f3f928561125f565b6001600160a01b03165f9081526007602052604081205460ff16925061103d565b1561108157565b60405162461bcd60e51b815260206004820152600f60248201526e496e76616c6964206164647265737360881b6044820152606490fd5b91908110156110c85760051b0190565b634e487b7160e01b5f52603260045260245ffd5b356001600160a01b03811681036102055790565b919091600254908115908115610f555750610f4f57612710610f37610f3f928561125f565b335f9081527fad3228b676f7d3cd4284a5443f17f1962b36e491b30a40b2405849e597ba5fb5602052604090205460ff161561114d57565b6111f860206111d8601161116033611310565b60378461116c5f6113f6565b60405196879476020b1b1b2b9b9a1b7b73a3937b61d1030b1b1b7bab73a1604d1b828701528051918291018587015e8401907001034b99036b4b9b9b4b733903937b6329607d1b84830152805192839101604883015e01015f838201520301601f198101835282610e42565b60405162461bcd60e51b8152602060048201529182916024830190610ea3565b0390fd5b5f8181526020818152604080832033845290915290205460ff161561121e5750565b60206111d860116111f89360378461116c61123833611310565b936113f6565b9190820180921161124b57565b634e487b7160e01b5f52601160045260245ffd5b8181029291811591840414171561124b57565b9190820391821161124b57565b5f818152602081815260408083206001600160a01b038616845290915290205460ff166112aa575050565b5f818152602081815260408083206001600160a01b0395909516808452949091528120805460ff19169055339291907ff6391f5c32d9c69d2a47ea670b442974b53935d1edc7fd64eb21e047a839171b9080a4565b9081518110156110c8570160200190565b61131a602a610e79565b906113286040519283610e42565b602a8252611336602a610e79565b6020830190601f19013682378251156110c857603090538151600110156110c8576078602183015360295b600181116113b557506113715790565b606460405162461bcd60e51b815260206004820152602060248201527f537472696e67733a20686578206c656e67746820696e73756666696369656e746044820152fd5b90600f811660108110156110c8576f181899199a1a9b1b9c1cb0b131b232b360811b901a6113e383856112ff565b5360041c90801561124b575f1901611361565b6114006042610e79565b9061140e6040519283610e42565b6042825261141c6042610e79565b6020830190601f19013682378251156110c857603090538151600110156110c8576078602183015360415b6001811161145757506113715790565b90600f811660108110156110c8576f181899199a1a9b1b9c1cb0b131b232b360811b901a61148583856112ff565b5360041c90801561124b575f190161144756fe69e34a174b4a0cce59950c4c852317e9797bdcae125fbf8b5dd8b4311384412f349eec46d2c564a125684d1934a6120a70cc341d3a26d362e358a775e07dec17c5dbbc1a39078c6d41f75645288952af1adce3154214371d76e77356656424539979a63573ae10f01f873a35d5febac454b7eb0ae2da7f29eb289e83d6e61ca0a26469706673582212200ce56a53e52832171ebf47f5af2e6fcfe3d340587fc19a9949ef59a321809e8264736f6c634300081d00332f8788117e7eff1d82e926ec794901d17c78024a50270940304540a733656f0da629f6981c2f6895a67dc766e8e03ff72d04a413d0d8773a3ca56e9e474032c1ad3228b676f7d3cd4284a5443f17f1962b36e491b30a40b2405849e597ba5fb59979a63573ae10f01f873a35d5febac454b7eb0ae2da7f29eb289e83d6e61ca0","linkReferences":{}},"methodIdentifiers":{"DEFAULT_ADMIN_ROLE()":"a217fddf","FEE_ADMIN_ROLE()":"4cba593a","ORACLE_ROLE()":"07e2cea5","burnFee()":"fce589d8","calculateBurnFee(address,uint256)":"1c51799f","calculateLiquidationFee(address,uint256)":"230eaaa8","calculateMintFee(address,uint256)":"b403f8e5","calculateTransferFee(address,address,uint256)":"4d3d14f2","collectFee(address,string,uint256)":"19c690d1","emergencySetFees(uint256,uint256,uint256,uint256)":"cde52834","feeExempted(address)":"d2019847","feeRecipient()":"46904840","feesCollectedFrom(address)":"c173c919","getFeeInfo()":"0002eab7","getRoleAdmin(bytes32)":"248a9ca3","getUserFeeStats(address)":"ea4869ff","grantRole(bytes32,address)":"2f2ff15d","hasRole(bytes32,address)":"91d14854","liquidationFee()":"a36a3630","mintFee()":"13966db5","renounceRole(bytes32,address)":"36568abe","revokeRole(bytes32,address)":"d547741f","setBurnFee(uint256)":"4bf2c7c9","setFeeExemption(address,bool)":"751fd179","setFeeExemptionBatch(address[],bool)":"a184620d","setFeeRecipient(address)":"e74b981b","setLiquidationFee(uint256)":"fef0bec8","setMintFee(uint256)":"eddd0d9c","setTransferFee(uint256)":"8f02bb5b","supportsInterface(bytes4)":"01ffc9a7","totalFeesCollected()":"60c6d8ae","transferFee()":"acb2ad6f"},"id":24}