{"abi":[{"type":"function","name":"batchSetRoleCache","inputs":[{"name":"roles","type":"bytes32[]","internalType":"bytes32[]"},{"name":"accounts","type":"address[]","internalType":"address[]"},{"name":"hasRoles","type":"bool[]","internalType":"bool[]"}],"outputs":[],"stateMutability":"nonpayable"},{"type":"function","name":"batchTransfer","inputs":[{"name":"recipients","type":"address[]","internalType":"address[]"},{"name":"amounts","type":"uint128[]","internalType":"uint128[]"}],"outputs":[],"stateMutability":"nonpayable"},{"type":"function","name":"batchTransferWithErrors","inputs":[{"name":"recipients","type":"address[]","internalType":"address[]"},{"name":"amounts","type":"uint256[]","internalType":"uint256[]"}],"outputs":[],"stateMutability":"pure"},{"type":"function","name":"emitOptimizedEvent","inputs":[{"name":"value","type":"uint256","internalType":"uint256"},{"name":"key","type":"bytes32","internalType":"bytes32"}],"outputs":[],"stateMutability":"nonpayable"},{"type":"function","name":"getOptimizedData","inputs":[{"name":"key","type":"bytes32","internalType":"bytes32"}],"outputs":[{"name":"value1","type":"uint256","internalType":"uint256"},{"name":"value2","type":"uint256","internalType":"uint256"},{"name":"addr","type":"address","internalType":"address"}],"stateMutability":"view"},{"type":"function","name":"getOptimizedStorage","inputs":[{"name":"key","type":"bytes32","internalType":"bytes32"}],"outputs":[{"name":"","type":"bytes32","internalType":"bytes32"}],"stateMutability":"view"},{"type":"function","name":"hasRoleOptimized","inputs":[{"name":"role","type":"bytes32","internalType":"bytes32"},{"name":"account","type":"address","internalType":"address"}],"outputs":[{"name":"","type":"bool","internalType":"bool"}],"stateMutability":"view"},{"type":"function","name":"initializeOptimizedStorage","inputs":[{"name":"keys","type":"bytes32[]","internalType":"bytes32[]"},{"name":"values","type":"bytes32[]","internalType":"bytes32[]"}],"outputs":[],"stateMutability":"nonpayable"},{"type":"function","name":"isZeroAddress","inputs":[{"name":"addr","type":"address","internalType":"address"}],"outputs":[{"name":"","type":"bool","internalType":"bool"}],"stateMutability":"pure"},{"type":"function","name":"optimizedAdd","inputs":[{"name":"a","type":"uint256","internalType":"uint256"},{"name":"b","type":"uint256","internalType":"uint256"}],"outputs":[{"name":"","type":"uint256","internalType":"uint256"}],"stateMutability":"pure"},{"type":"function","name":"optimizedArraySum","inputs":[{"name":"values","type":"uint256[]","internalType":"uint256[]"}],"outputs":[{"name":"sum","type":"uint256","internalType":"uint256"}],"stateMutability":"pure"},{"type":"function","name":"optimizedBitwiseAnd","inputs":[{"name":"a","type":"uint256","internalType":"uint256"},{"name":"b","type":"uint256","internalType":"uint256"}],"outputs":[{"name":"","type":"uint256","internalType":"uint256"}],"stateMutability":"pure"},{"type":"function","name":"optimizedBitwiseOr","inputs":[{"name":"a","type":"uint256","internalType":"uint256"},{"name":"b","type":"uint256","internalType":"uint256"}],"outputs":[{"name":"","type":"uint256","internalType":"uint256"}],"stateMutability":"pure"},{"type":"function","name":"optimizedBitwiseXor","inputs":[{"name":"a","type":"uint256","internalType":"uint256"},{"name":"b","type":"uint256","internalType":"uint256"}],"outputs":[{"name":"","type":"uint256","internalType":"uint256"}],"stateMutability":"pure"},{"type":"function","name":"optimizedDiv","inputs":[{"name":"a","type":"uint256","internalType":"uint256"},{"name":"b","type":"uint256","internalType":"uint256"}],"outputs":[{"name":"","type":"uint256","internalType":"uint256"}],"stateMutability":"pure"},{"type":"function","name":"optimizedMax","inputs":[{"name":"a","type":"uint256","internalType":"uint256"},{"name":"b","type":"uint256","internalType":"uint256"}],"outputs":[{"name":"","type":"uint256","internalType":"uint256"}],"stateMutability":"pure"},{"type":"function","name":"optimizedMemoryCopy","inputs":[{"name":"data","type":"bytes","internalType":"bytes"},{"name":"offset","type":"uint256","internalType":"uint256"},{"name":"length","type":"uint256","internalType":"uint256"}],"outputs":[{"name":"result","type":"bytes","internalType":"bytes"}],"stateMutability":"pure"},{"type":"function","name":"optimizedMin","inputs":[{"name":"a","type":"uint256","internalType":"uint256"},{"name":"b","type":"uint256","internalType":"uint256"}],"outputs":[{"name":"","type":"uint256","internalType":"uint256"}],"stateMutability":"pure"},{"type":"function","name":"optimizedMul","inputs":[{"name":"a","type":"uint256","internalType":"uint256"},{"name":"b","type":"uint256","internalType":"uint256"}],"outputs":[{"name":"","type":"uint256","internalType":"uint256"}],"stateMutability":"pure"},{"type":"function","name":"optimizedStringLength","inputs":[{"name":"str","type":"string","internalType":"string"}],"outputs":[{"name":"","type":"uint256","internalType":"uint256"}],"stateMutability":"pure"},{"type":"function","name":"optimizedSub","inputs":[{"name":"a","type":"uint256","internalType":"uint256"},{"name":"b","type":"uint256","internalType":"uint256"}],"outputs":[{"name":"","type":"uint256","internalType":"uint256"}],"stateMutability":"pure"},{"type":"function","name":"optimizedTransfer","inputs":[{"name":"to","type":"address","internalType":"address"},{"name":"amount","type":"uint128","internalType":"uint128"},{"name":"timestamp","type":"uint128","internalType":"uint128"}],"outputs":[],"stateMutability":"nonpayable"},{"type":"function","name":"optimizedTransferWithErrors","inputs":[{"name":"to","type":"address","internalType":"address"},{"name":"amount","type":"uint256","internalType":"uint256"}],"outputs":[],"stateMutability":"pure"},{"type":"function","name":"setOptimizedStorage","inputs":[{"name":"key","type":"bytes32","internalType":"bytes32"},{"name":"value","type":"bytes32","internalType":"bytes32"}],"outputs":[],"stateMutability":"nonpayable"},{"type":"function","name":"setRoleCache","inputs":[{"name":"role","type":"bytes32","internalType":"bytes32"},{"name":"account","type":"address","internalType":"address"},{"name":"hasRole","type":"bool","internalType":"bool"}],"outputs":[],"stateMutability":"nonpayable"},{"type":"event","name":"BatchOperation","inputs":[{"name":"operator","type":"address","indexed":true,"internalType":"address"},{"name":"batchId","type":"uint256","indexed":true,"internalType":"uint256"},{"name":"operationCount","type":"uint256","indexed":false,"internalType":"uint256"}],"anonymous":false},{"type":"event","name":"OptimizedEvent","inputs":[{"name":"sender","type":"address","indexed":true,"internalType":"address"},{"name":"value","type":"uint256","indexed":true,"internalType":"uint256"},{"name":"key","type":"bytes32","indexed":true,"internalType":"bytes32"},{"name":"timestamp","type":"uint256","indexed":false,"internalType":"uint256"}],"anonymous":false},{"type":"event","name":"OptimizedTransfer","inputs":[{"name":"from","type":"address","indexed":true,"internalType":"address"},{"name":"to","type":"address","indexed":true,"internalType":"address"},{"name":"amount","type":"uint128","indexed":false,"internalType":"uint128"},{"name":"timestamp","type":"uint128","indexed":false,"internalType":"uint128"}],"anonymous":false},{"type":"error","name":"InvalidAddress","inputs":[]},{"type":"error","name":"InvalidAmount","inputs":[]},{"type":"error","name":"LengthMismatch","inputs":[]},{"type":"error","name":"TooManyRecipients","inputs":[]}],"bytecode":{"object":"0x60808060405234601557610cbe908161001a8239f35b5f80fdfe60806040526004361015610011575f80fd5b5f3560e01c80630b28acff146101a4578063100afcd01461019f5780631081b8181461019a578063186643151461019557806323d20c911461019057806342a3b32b1461018b57806345b1c141146101865780634a5298081461018157806350c717961461017c5780635e61bd3814610177578063694f5301146101725780636b563e3b1461016d57806372c6a1681461016857806375f1f5051461016357806390a7ce3f1461015e578063985db4d114610159578063a0a5375d14610154578063a9ce48bf1461014f578063c25a176b1461014a578063dea9bf6914610145578063e061b52d14610140578063e29159691461013b578063e8c7991814610136578063e8ebfa1d146101315763f64006d91461012c575f80fd5b610ab5565b610a8f565b610a68565b610a42565b6109fc565b6109af565b61096c565b61092d565b6108f1565b6108d2565b61089b565b610876565b610817565b6107d3565b6106ca565b610676565b610635565b61060e565b6105ef565b6104b8565b61034e565b610318565b6102e8565b610227565b346101cc5760403660031901126101cc57600435602435905f52600260205260405f20555f80f35b5f80fd5b9181601f840112156101cc578235916001600160401b0383116101cc57602083818601950101116101cc57565b602060409281835280519182918282860152018484015e5f828201840152601f01601f1916010190565b346101cc5760603660031901126101cc576004356001600160401b0381116101cc576102579036906004016101d0565b602435604435918282018083116102e357116102ae5760405192828452602083850101604052015f5b828110610299576040518061029586826101fd565b0390f35b80602080928401013582828701015201610280565b60405162461bcd60e51b815260206004820152600d60248201526c496e76616c69642072616e676560981b6044820152606490fd5b610adf565b346101cc5760403660031901126101cc57600435602435165f5260205ff35b6001600160a01b038116036101cc57565b346101cc5760203660031901126101cc5760043561033581610307565b155f5260205ff35b6001600160801b038116036101cc57565b346101cc5760603660031901126101cc5760043561036b81610307565b6024356103778161033d565b604435906103848261033d565b6103986001600160a01b0384161515610af3565b6103ac6001600160801b0382161515610b33565b604051608081016001600160401b038111828210176104245760409081526001600160801b039283168083529390921660208201819052338284018190526001600160a01b0395909516606090920182905291519093925f516020610c695f395f51905f5292829161041f919083610b70565b0390a3005b634e487b7160e01b5f52604160045260245ffd5b9181601f840112156101cc578235916001600160401b0383116101cc576020808501948460051b0101116101cc57565b60406003198201126101cc576004356001600160401b0381116101cc578161049291600401610438565b90929091602435906001600160401b0382116101cc576104b491600401610438565b9091565b346101cc576104c636610468565b6104d4818495939514610b8a565b6104e16064841115610bc8565b335f908152600160205260409020936104fa8554610c1f565b94859055426001600160801b0316915f5b85811061054857604051868152879033907fe559b2a42c53dc5b56e92cef931d5e67ccc499a3c701e1572ea0725fc1c7c01990806020810161041f565b8061057761057061056461055f6001958b8b610c2d565b610c51565b6001600160a01b031690565b1515610af3565b6105a361059c61059061058b848789610c2d565b610c5e565b6001600160801b031690565b1515610b33565b6105b161055f828989610c2d565b6105bf61058b838688610c2d565b5f516020610c695f395f51905f5260405192858060a01b031692806105e68a339583610b70565b0390a30161050b565b346101cc5760403660031901126101cc57600435602435185f5260205ff35b346101cc5760403660031901126101cc5760043560243581019081106101cc575f5260205ff35b346101cc5760403660031901126101cc57602060ff61066a60243560043561065c82610307565b5f525f845260405f20610c0a565b54166040519015158152f35b346101cc5760403660031901126101cc5760043561069381610307565b602435906001600160a01b0316156106bb57156106ac57005b63162908e360e11b5f5260045ffd5b63e6c4247b60e01b5f5260045ffd5b346101cc5760603660031901126101cc576004356001600160401b0381116101cc576106fa903690600401610438565b906024356001600160401b0381116101cc5761071a903690600401610438565b90916044356001600160401b0381116101cc5761073b903690600401610438565b9093838614806107c0575b61074f90610b8a565b5f5b86811061075a57005b806107ba61076b600193868a610c2d565b35610775816107c9565b610780838b89610c2d565b355f525f6020526107a960405f20610799858b89610c2d565b35906107a482610307565b610c0a565b9060ff801983541691151516179055565b01610751565b50838214610746565b801515036101cc57565b346101cc5760603660031901126101cc576108156004356107a96024356107f981610307565b60443592610806846107c9565b5f525f60205260405f20610c0a565b005b346101cc5760203660031901126101cc576004356001600160401b0381116101cc57610847903690600401610438565b505f602082359201915f5b81811061086457602083604051908152f35b60208401933590920191600101610852565b346101cc5760403660031901126101cc5760243560043581156101cc57045f5260205ff35b346101cc5760403660031901126101cc5760043560243581156108ca57808202918204036101cc575f5260205ff35b5f805260205ff35b346101cc5760403660031901126101cc57600435602435175f5260205ff35b346101cc5760203660031901126101cc576004356001600160401b0381116101cc5761092360209136906004016101d0565b5001355f5260205ff35b346101cc5761093b36610468565b91925050810361095d5760641061094e57005b635531b49560e01b5f5260045ffd5b631fec674760e31b5f5260045ffd5b346101cc5761098661097d36610468565b90939114610b8a565b8035905f5b82811061099457005b8060019160051b60208082880101359185010135550161098b565b346101cc5760203660031901126101cc576004355f526002602052606060405f2054604051908060801c825260018060801b038116602083015260018060401b039060401c166040820152f35b346101cc5760403660031901126101cc57600435602435906040514281527f6ca3c07b463da35e0f0214cc67d4ad258a41678da061f88d44c7d4a98557606560203392a4005b346101cc5760403660031901126101cc5760043560243581810390821002015f5260205ff35b346101cc5760403660031901126101cc576004356024358082039082100290035f5260205ff35b346101cc5760403660031901126101cc576024356004358082116101cc57035f5260205ff35b346101cc5760203660031901126101cc576004355f526002602052602060405f2054604051908152f35b634e487b7160e01b5f52601160045260245ffd5b15610afa57565b60405162461bcd60e51b8152602060048201526011602482015270125b9d985b1a59081c9958da5c1a595b9d607a1b6044820152606490fd5b15610b3a57565b60405162461bcd60e51b815260206004820152600e60248201526d125b9d985b1a5908185b5bdd5b9d60921b6044820152606490fd5b6001600160801b0391821681529116602082015260400190565b15610b9157565b60405162461bcd60e51b815260206004820152600f60248201526e098cadccee8d040dad2e6dac2e8c6d608b1b6044820152606490fd5b15610bcf57565b60405162461bcd60e51b8152602060048201526013602482015272546f6f206d616e7920726563697069656e747360681b6044820152606490fd5b9060018060a01b03165f5260205260405f2090565b5f1981146102e35760010190565b9190811015610c3d5760051b0190565b634e487b7160e01b5f52603260045260245ffd5b35610c5b81610307565b90565b35610c5b8161033d56fe80de3e1aa57e31f27131fe33a68d5012f4208dd3de2b6732978992433f0429f5a264697066735822122041babc45d16986814f33253349afed6c6f8d7ae03bc3ef3971a2794aefc59ecc64736f6c634300081d0033","linkReferences":{}},"methodIdentifiers":{"batchSetRoleCache(bytes32[],address[],bool[])":"694f5301","batchTransfer(address[],uint128[])":"42a3b32b","batchTransferWithErrors(address[],uint256[])":"a9ce48bf","emitOptimizedEvent(uint256,bytes32)":"e061b52d","getOptimizedData(bytes32)":"dea9bf69","getOptimizedStorage(bytes32)":"f64006d9","hasRoleOptimized(bytes32,address)":"50c71796","initializeOptimizedStorage(bytes32[],bytes32[])":"c25a176b","isZeroAddress(address)":"18664315","optimizedAdd(uint256,uint256)":"4a529808","optimizedArraySum(uint256[])":"72c6a168","optimizedBitwiseAnd(uint256,uint256)":"1081b818","optimizedBitwiseOr(uint256,uint256)":"985db4d1","optimizedBitwiseXor(uint256,uint256)":"45b1c141","optimizedDiv(uint256,uint256)":"75f1f505","optimizedMax(uint256,uint256)":"e2915969","optimizedMemoryCopy(bytes,uint256,uint256)":"100afcd0","optimizedMin(uint256,uint256)":"e8c79918","optimizedMul(uint256,uint256)":"90a7ce3f","optimizedStringLength(string)":"a0a5375d","optimizedSub(uint256,uint256)":"e8ebfa1d","optimizedTransfer(address,uint128,uint128)":"23d20c91","optimizedTransferWithErrors(address,uint256)":"5e61bd38","setOptimizedStorage(bytes32,bytes32)":"0b28acff","setRoleCache(bytes32,address,bool)":"6b563e3b"},"id":23}