{"abi":[{"type":"constructor","inputs":[{"name":"_tokenContract","type":"address","internalType":"address"}],"stateMutability":"nonpayable"},{"type":"function","name":"DEFAULT_ADMIN_ROLE","inputs":[],"outputs":[{"name":"","type":"bytes32","internalType":"bytes32"}],"stateMutability":"view"},{"type":"function","name":"FEE_ADMIN_ROLE","inputs":[],"outputs":[{"name":"","type":"bytes32","internalType":"bytes32"}],"stateMutability":"view"},{"type":"function","name":"MAX_FEE_PERCENT","inputs":[],"outputs":[{"name":"","type":"uint256","internalType":"uint256"}],"stateMutability":"view"},{"type":"function","name":"calculateFee","inputs":[{"name":"from","type":"address","internalType":"address"},{"name":"to","type":"address","internalType":"address"},{"name":"amount","type":"uint256","internalType":"uint256"}],"outputs":[{"name":"fee","type":"uint256","internalType":"uint256"},{"name":"net","type":"uint256","internalType":"uint256"}],"stateMutability":"view"},{"type":"function","name":"collectFee","inputs":[{"name":"from","type":"address","internalType":"address"},{"name":"to","type":"address","internalType":"address"},{"name":"amount","type":"uint256","internalType":"uint256"}],"outputs":[{"name":"fee","type":"uint256","internalType":"uint256"},{"name":"net","type":"uint256","internalType":"uint256"}],"stateMutability":"nonpayable"},{"type":"function","name":"emergencySetFee","inputs":[{"name":"_feePercent","type":"uint256","internalType":"uint256"}],"outputs":[],"stateMutability":"nonpayable"},{"type":"function","name":"emergencySetRecipient","inputs":[{"name":"_feeRecipient","type":"address","internalType":"address"}],"outputs":[],"stateMutability":"nonpayable"},{"type":"function","name":"feeExempted","inputs":[{"name":"","type":"address","internalType":"address"}],"outputs":[{"name":"","type":"bool","internalType":"bool"}],"stateMutability":"view"},{"type":"function","name":"feePercent","inputs":[],"outputs":[{"name":"","type":"uint256","internalType":"uint256"}],"stateMutability":"view"},{"type":"function","name":"feeRecipient","inputs":[],"outputs":[{"name":"","type":"address","internalType":"address"}],"stateMutability":"view"},{"type":"function","name":"feeTokenContract","inputs":[],"outputs":[{"name":"","type":"address","internalType":"address"}],"stateMutability":"view"},{"type":"function","name":"feesCollectedFrom","inputs":[{"name":"","type":"address","internalType":"address"}],"outputs":[{"name":"","type":"uint256","internalType":"uint256"}],"stateMutability":"view"},{"type":"function","name":"feesCollectedTo","inputs":[{"name":"","type":"address","internalType":"address"}],"outputs":[{"name":"","type":"uint256","internalType":"uint256"}],"stateMutability":"view"},{"type":"function","name":"getAccountFeeStats","inputs":[{"name":"account","type":"address","internalType":"address"}],"outputs":[{"name":"feesCollectedFromAccount","type":"uint256","internalType":"uint256"},{"name":"feesCollectedToAccount","type":"uint256","internalType":"uint256"},{"name":"isExempted","type":"bool","internalType":"bool"}],"stateMutability":"view"},{"type":"function","name":"getFeeInfo","inputs":[],"outputs":[{"name":"currentFee","type":"uint256","internalType":"uint256"},{"name":"recipient","type":"address","internalType":"address"},{"name":"hasFee","type":"bool","internalType":"bool"}],"stateMutability":"view"},{"type":"function","name":"getFeeStats","inputs":[],"outputs":[{"name":"totalCollected","type":"uint256","internalType":"uint256"},{"name":"currentFeePercent","type":"uint256","internalType":"uint256"},{"name":"currentRecipient","type":"address","internalType":"address"},{"name":"maxFeePercent","type":"uint256","internalType":"uint256"}],"stateMutability":"view"},{"type":"function","name":"getRoleAdmin","inputs":[{"name":"role","type":"bytes32","internalType":"bytes32"}],"outputs":[{"name":"","type":"bytes32","internalType":"bytes32"}],"stateMutability":"view"},{"type":"function","name":"grantRole","inputs":[{"name":"role","type":"bytes32","internalType":"bytes32"},{"name":"account","type":"address","internalType":"address"}],"outputs":[],"stateMutability":"nonpayable"},{"type":"function","name":"hasRole","inputs":[{"name":"role","type":"bytes32","internalType":"bytes32"},{"name":"account","type":"address","internalType":"address"}],"outputs":[{"name":"","type":"bool","internalType":"bool"}],"stateMutability":"view"},{"type":"function","name":"isExempt","inputs":[{"name":"account","type":"address","internalType":"address"}],"outputs":[{"name":"","type":"bool","internalType":"bool"}],"stateMutability":"view"},{"type":"function","name":"renounceRole","inputs":[{"name":"role","type":"bytes32","internalType":"bytes32"},{"name":"account","type":"address","internalType":"address"}],"outputs":[],"stateMutability":"nonpayable"},{"type":"function","name":"revokeRole","inputs":[{"name":"role","type":"bytes32","internalType":"bytes32"},{"name":"account","type":"address","internalType":"address"}],"outputs":[],"stateMutability":"nonpayable"},{"type":"function","name":"setFee","inputs":[{"name":"_feePercent","type":"uint256","internalType":"uint256"}],"outputs":[],"stateMutability":"nonpayable"},{"type":"function","name":"setFeeExemption","inputs":[{"name":"account","type":"address","internalType":"address"},{"name":"exempt","type":"bool","internalType":"bool"}],"outputs":[],"stateMutability":"nonpayable"},{"type":"function","name":"setFeeExemptionBatch","inputs":[{"name":"accounts","type":"address[]","internalType":"address[]"},{"name":"exempt","type":"bool","internalType":"bool"}],"outputs":[],"stateMutability":"nonpayable"},{"type":"function","name":"setFeeExemptionForTesting","inputs":[{"name":"account","type":"address","internalType":"address"},{"name":"exempt","type":"bool","internalType":"bool"}],"outputs":[],"stateMutability":"nonpayable"},{"type":"function","name":"setFeeForTesting","inputs":[{"name":"_feePercent","type":"uint256","internalType":"uint256"}],"outputs":[],"stateMutability":"nonpayable"},{"type":"function","name":"setFeeRecipient","inputs":[{"name":"_feeRecipient","type":"address","internalType":"address"}],"outputs":[],"stateMutability":"nonpayable"},{"type":"function","name":"setFeeRecipientForTesting","inputs":[{"name":"_feeRecipient","type":"address","internalType":"address"}],"outputs":[],"stateMutability":"nonpayable"},{"type":"function","name":"supportsInterface","inputs":[{"name":"interfaceId","type":"bytes4","internalType":"bytes4"}],"outputs":[{"name":"","type":"bool","internalType":"bool"}],"stateMutability":"view"},{"type":"function","name":"totalFeesCollected","inputs":[],"outputs":[{"name":"","type":"uint256","internalType":"uint256"}],"stateMutability":"view"},{"type":"event","name":"FeeCollected","inputs":[{"name":"from","type":"address","indexed":true,"internalType":"address"},{"name":"to","type":"address","indexed":true,"internalType":"address"},{"name":"feeAmount","type":"uint256","indexed":false,"internalType":"uint256"}],"anonymous":false},{"type":"event","name":"FeeExemptionBatchUpdated","inputs":[{"name":"accounts","type":"address[]","indexed":false,"internalType":"address[]"},{"name":"exempt","type":"bool","indexed":false,"internalType":"bool"}],"anonymous":false},{"type":"event","name":"FeeExemptionUpdated","inputs":[{"name":"account","type":"address","indexed":true,"internalType":"address"},{"name":"exempt","type":"bool","indexed":false,"internalType":"bool"}],"anonymous":false},{"type":"event","name":"FeeRecipientUpdated","inputs":[{"name":"newRecipient","type":"address","indexed":true,"internalType":"address"}],"anonymous":false},{"type":"event","name":"FeeUpdated","inputs":[{"name":"newFeePercent","type":"uint256","indexed":false,"internalType":"uint256"}],"anonymous":false},{"type":"event","name":"RoleAdminChanged","inputs":[{"name":"role","type":"bytes32","indexed":true,"internalType":"bytes32"},{"name":"previousAdminRole","type":"bytes32","indexed":true,"internalType":"bytes32"},{"name":"newAdminRole","type":"bytes32","indexed":true,"internalType":"bytes32"}],"anonymous":false},{"type":"event","name":"RoleGranted","inputs":[{"name":"role","type":"bytes32","indexed":true,"internalType":"bytes32"},{"name":"account","type":"address","indexed":true,"internalType":"address"},{"name":"sender","type":"address","indexed":true,"internalType":"address"}],"anonymous":false},{"type":"event","name":"RoleRevoked","inputs":[{"name":"role","type":"bytes32","indexed":true,"internalType":"bytes32"},{"name":"account","type":"address","indexed":true,"internalType":"address"},{"name":"sender","type":"address","indexed":true,"internalType":"address"}],"anonymous":false}],"bytecode":{"object":"0x60803461017757601f61162738819003918201601f19168301916001600160401b0383118484101761017b5780849260209460405283398101031261017757516001600160a01b038116908190036101775760018055600280546001600160a01b031916919091179055335f9081525f5160206115e75f395f51905f52602052604090205460ff161561013a575b335f9081525f5160206116075f395f51905f52602052604090205460ff16156100db575b600480546001600160a01b031916331790555f600381905560065560405161143790816101908239f35b335f8181525f5160206116075f395f51905f5260205260408120805460ff1916600117905581907f349eec46d2c564a125684d1934a6120a70cc341d3a26d362e358a775e07dec17905f5160206115c75f395f51905f529080a46100b1565b335f8181525f5160206115e75f395f51905f5260205260408120805460ff1916600117905581905f5160206115c75f395f51905f528180a461008d565b5f80fd5b634e487b7160e01b5f52604160045260245ffdfe6080806040526004361015610012575f80fd5b5f3560e01c90816202eab714610b535750806301ffc9a714610afd578063090b60a314610ad357806319dd459114610a8c578063248a9ca314610a665780632b7695d514610a4a5780632f2ff15d1461099f57806336568abe1461090d57806346904840146108e55780634a02b556146108c95780634cba593a146108a25780635e7779bb1461083e57806360c6d8ae14610821578063651b8cb61461062d57806367d817401461061157806369fe0e2d146105df5780636d079045146105b7578063751fd179146105715780637ca87cb61461054c5780637fd6f15c1461052f57806388e5ffaa146104f757806391d14854146104af578063a184620d146102da578063a217fddf146102c0578063ad5dff7314610227578063c173c91914610288578063cd0c512c14610264578063d201984714610227578063d547741f146101f1578063e74b981b146101b25763f28ab2be14610170575f80fd5b346101ae575f3660031901126101ae57608060065460035460018060a01b036004541690604051928352602083015260408201526103e86060820152f35b5f80fd5b346101ae5760203660031901126101ae576101ef6101ce610b86565b6101d66110f0565b6101ea6001600160a01b0382161515610e2d565b610cc6565b005b346101ae5760403660031901126101ae576101ef600435610210610b9c565b9061022261021d82610c97565b611150565b61118d565b346101ae5760203660031901126101ae576001600160a01b03610248610b86565b165f526005602052602060ff60405f2054166040519015158152f35b346101ae5760203660031901126101ae576101ef610280610b86565b6101d6610ff4565b346101ae5760203660031901126101ae576001600160a01b036102a9610b86565b165f526007602052602060405f2054604051908152f35b346101ae575f3660031901126101ae5760206040515f8152f35b346101ae5760403660031901126101ae576004356001600160401b0381116101ae57366023820112156101ae5760048101356001600160401b0381116101ae576024820191602436918360051b0101116101ae57610336610bb2565b9161033f6110f0565b60648211610476575f5b8281106103d5575060405191806040840160408552526060830191905f905b80821061039f5785151560208601527ffc010cd01e4fdf44b2e93bd05c19af330af1572bc7430251c844bdc8dac3ace485850386a1005b91929091908335906001600160a01b03821682036101ae576001600160a01b039091168152602090810193019160010190610368565b6001600160a01b036103f06103eb838686610fbc565b610fe0565b1615610436576001906001600160a01b0361040f6103eb838787610fbc565b165f5260056020526104308560405f209060ff801983541691151516179055565b01610349565b60405162461bcd60e51b8152602060048201526018602482015277092dcecc2d8d2c840c2c8c8e4cae6e640d2dc40c4c2e8c6d60431b6044820152606490fd5b60405162461bcd60e51b8152602060048201526011602482015270546f6f206d616e79206163636f756e747360781b6044820152606490fd5b346101ae5760403660031901126101ae576104c8610b9c565b6004355f525f60205260405f209060018060a01b03165f52602052602060ff60405f2054166040519015158152f35b346101ae5760203660031901126101ae576001600160a01b03610518610b86565b165f526008602052602060405f2054604051908152f35b346101ae575f3660031901126101ae576020600354604051908152f35b346101ae57604061056561055f36610bc1565b91610e79565b82519182526020820152f35b346101ae5760403660031901126101ae576101ef61058d610b86565b610595610bb2565b9061059e6110f0565b6105b26001600160a01b0382161515610e2d565b610bfb565b346101ae575f3660031901126101ae576002546040516001600160a01b039091168152602090f35b346101ae5760203660031901126101ae576101ef6004356105fe6110f0565b61060c6103e8821115610c53565b610ca8565b346101ae575f3660031901126101ae5760206040516103e88152f35b346101ae5761063b36610bc1565b600254919290916001600160a01b031633036107e6576002600154146107a15760026001556001600160a01b031691610675831515610d0b565b6001600160a01b03169161068a831515610d4e565b610695821515610d8f565b60405191633e543e5b60e11b83528160048401528360248401526044830152604082606481305afa908115610796575f925f92610759575b5092604093836106ea575b50506001805582519182526020820152f35b6106f684600654610e0c565b600655805f526007602052845f2061070f858254610e0c565b9055815f526008602052845f20610727858254610e0c565b90557ff228de527fc1b9843baac03b9a04565473a263375950e63435d4138464386f4660208651868152a383806106d8565b925090506040823d60401161078e575b8161077660409383610dd5565b810103126101ae5781516020909201519060406106cd565b3d9150610769565b6040513d5f823e3d90fd5b60405162461bcd60e51b815260206004820152601f60248201527f5265656e7472616e637947756172643a207265656e7472616e742063616c6c006044820152606490fd5b60405162461bcd60e51b815260206004820152601360248201527213db9b1e481d1bdad95b8818dbdb9d1c9858dd606a1b6044820152606490fd5b346101ae575f3660031901126101ae576020600654604051908152f35b346101ae5760203660031901126101ae5760606001600160a01b03610861610b86565b16805f52600760205260405f205490805f52600860205260405f2054905f52600560205260ff60405f20541690604051928352602083015215156040820152f35b346101ae575f3660031901126101ae5760206040515f5160206113c25f395f51905f528152f35b346101ae5760203660031901126101ae576101ef6101ea610b86565b346101ae575f3660031901126101ae576004546040516001600160a01b039091168152602090f35b346101ae5760403660031901126101ae57610926610b9c565b336001600160a01b03821603610942576101ef9060043561118d565b60405162461bcd60e51b815260206004820152602f60248201527f416363657373436f6e74726f6c3a2063616e206f6e6c792072656e6f756e636560448201526e103937b632b9903337b91039b2b63360891b6064820152608490fd5b346101ae5760403660031901126101ae576004356109bb610b9c565b906109c861021d82610c97565b5f818152602081815260408083206001600160a01b038616845290915290205460ff16156109f257005b5f818152602081815260408083206001600160a01b0395909516808452949091528120805460ff19166001179055339291907f2f8788117e7eff1d82e926ec794901d17c78024a50270940304540a733656f0d9080a4005b346101ae5760203660031901126101ae576101ef600435610ca8565b346101ae5760203660031901126101ae576020610a84600435610c97565b604051908152f35b346101ae5760203660031901126101ae575f5160206113e25f395f51905f526020600435610ab8610ff4565b610ac66103e8821115610c53565b80600355604051908152a1005b346101ae5760403660031901126101ae576101ef610aef610b86565b610af7610bb2565b90610bfb565b346101ae5760203660031901126101ae5760043563ffffffff60e01b81168091036101ae57602090637965db0b60e01b8114908115610b42575b506040519015158152f35b6301ffc9a760e01b14905082610b37565b346101ae575f3660031901126101ae576003546004548183526001600160a01b0316602083015215156040820152606090f35b600435906001600160a01b03821682036101ae57565b602435906001600160a01b03821682036101ae57565b6024359081151582036101ae57565b60609060031901126101ae576004356001600160a01b03811681036101ae57906024356001600160a01b03811681036101ae579060443590565b60207f69e34a174b4a0cce59950c4c852317e9797bdcae125fbf8b5dd8b4311384412f9160018060a01b031692835f5260058252610c488160405f209060ff801983541691151516179055565b6040519015158152a2565b15610c5a57565b60405162461bcd60e51b81526020600482015260156024820152744665652063616e6e6f74206578636565642031302560581b6044820152606490fd5b5f525f602052600160405f20015490565b60205f5160206113e25f395f51905f529180600355604051908152a1565b600480546001600160a01b0319166001600160a01b039290921691821790557f7a7b5a0a132f9e0581eb8527f66eae9ee89c2a3e79d4ac7e41a1f1f4d48a7fc25f80a2565b15610d1257565b60405162461bcd60e51b8152602060048201526014602482015273496e76616c69642066726f6d206164647265737360601b6044820152606490fd5b15610d5557565b60405162461bcd60e51b8152602060048201526012602482015271496e76616c696420746f206164647265737360701b6044820152606490fd5b15610d9657565b60405162461bcd60e51b8152602060048201526017602482015276416d6f756e74206d75737420626520706f73697469766560481b6044820152606490fd5b601f909101601f19168101906001600160401b03821190821017610df857604052565b634e487b7160e01b5f52604160045260245ffd5b91908201809211610e1957565b634e487b7160e01b5f52601160045260245ffd5b15610e3457565b60405162461bcd60e51b815260206004820152601d60248201527f496e76616c696420616464726573733a207a65726f20616464726573730000006044820152606490fd5b9192916001600160a01b031690610e91821515610d0b565b6001600160a01b031690610ea6821515610d4e565b831590610eb38215610d8f565b600354928315918215610fa4575b508115610f8d575b50610f865781840291848304141715610e1957612710900480830392808411610e1957818114610f4357610efd8483610e0c565b03610f06579190565b60405162461bcd60e51b81526020600482015260156024820152742332b29031b0b631bab630ba34b7b71032b93937b960591b6044820152606490fd5b60405162461bcd60e51b815260206004820152601b60248201527a4e657420616d6f756e74206d75737420626520706f73697469766560281b6044820152606490fd5b50505f9190565b90505f52600560205260ff60405f2054165f610ec9565b5f9081526005602052604081205460ff169250610ec1565b9190811015610fcc5760051b0190565b634e487b7160e01b5f52603260045260245ffd5b356001600160a01b03811681036101ae5790565b335f9081527fad3228b676f7d3cd4284a5443f17f1962b36e491b30a40b2405849e597ba5fb5602052604090205460ff161561102c57565b61103533611239565b604460206110b860116110475f61131f565b6037604051948592818085019976020b1b1b2b9b9a1b7b73a3937b61d1030b1b1b7bab73a1604d1b8b528051918291018587015e8401907001034b99036b4b9b9b4b733903937b6329607d1b84830152805192839101604883015e01015f838201520301601f198101835282610dd5565b60405192839162461bcd60e51b8352602060048401525180918160248501528484015e5f828201840152601f01601f19168101030190fd5b335f9081527f9979a63573ae10f01f873a35d5febac454b7eb0ae2da7f29eb289e83d6e61ca0602052604090205460ff161561112857565b61113133611239565b604460206110b860116110475f5160206113c25f395f51905f5261131f565b5f8181526020818152604080832033845290915290205460ff16156111725750565b604460206110b8601161104761118733611239565b9561131f565b5f818152602081815260408083206001600160a01b038616845290915290205460ff166111b8575050565b5f818152602081815260408083206001600160a01b0395909516808452949091528120805460ff19169055339291907ff6391f5c32d9c69d2a47ea670b442974b53935d1edc7fd64eb21e047a839171b9080a4565b6001600160401b038111610df857601f01601f191660200190565b908151811015610fcc570160200190565b611243602a61120d565b906112516040519283610dd5565b602a825261125f602a61120d565b6020830190601f1901368237825115610fcc5760309053815160011015610fcc576078602183015360295b600181116112de575061129a5790565b606460405162461bcd60e51b815260206004820152602060248201527f537472696e67733a20686578206c656e67746820696e73756666696369656e746044820152fd5b90600f81166010811015610fcc576f181899199a1a9b1b9c1cb0b131b232b360811b901a61130c8385611228565b5360041c908015610e19575f190161128a565b611329604261120d565b906113376040519283610dd5565b60428252611345604261120d565b6020830190601f1901368237825115610fcc5760309053815160011015610fcc576078602183015360415b60018111611380575061129a5790565b90600f81166010811015610fcc576f181899199a1a9b1b9c1cb0b131b232b360811b901a6113ae8385611228565b5360041c908015610e19575f190161137056fe349eec46d2c564a125684d1934a6120a70cc341d3a26d362e358a775e07dec178c4d35e54a3f2ef1134138fd8ea3daee6a3c89e10d2665996babdf70261e2c76a26469706673582212207d615a4035fa76edcd71d6af98dfb39a9e0aab5087719e2171fd72a887ad07ab64736f6c634300081d00332f8788117e7eff1d82e926ec794901d17c78024a50270940304540a733656f0dad3228b676f7d3cd4284a5443f17f1962b36e491b30a40b2405849e597ba5fb59979a63573ae10f01f873a35d5febac454b7eb0ae2da7f29eb289e83d6e61ca0","linkReferences":{}},"methodIdentifiers":{"DEFAULT_ADMIN_ROLE()":"a217fddf","FEE_ADMIN_ROLE()":"4cba593a","MAX_FEE_PERCENT()":"67d81740","calculateFee(address,address,uint256)":"7ca87cb6","collectFee(address,address,uint256)":"651b8cb6","emergencySetFee(uint256)":"19dd4591","emergencySetRecipient(address)":"cd0c512c","feeExempted(address)":"d2019847","feePercent()":"7fd6f15c","feeRecipient()":"46904840","feeTokenContract()":"6d079045","feesCollectedFrom(address)":"c173c919","feesCollectedTo(address)":"88e5ffaa","getAccountFeeStats(address)":"5e7779bb","getFeeInfo()":"0002eab7","getFeeStats()":"f28ab2be","getRoleAdmin(bytes32)":"248a9ca3","grantRole(bytes32,address)":"2f2ff15d","hasRole(bytes32,address)":"91d14854","isExempt(address)":"ad5dff73","renounceRole(bytes32,address)":"36568abe","revokeRole(bytes32,address)":"d547741f","setFee(uint256)":"69fe0e2d","setFeeExemption(address,bool)":"751fd179","setFeeExemptionBatch(address[],bool)":"a184620d","setFeeExemptionForTesting(address,bool)":"090b60a3","setFeeForTesting(uint256)":"2b7695d5","setFeeRecipient(address)":"e74b981b","setFeeRecipientForTesting(address)":"4a02b556","supportsInterface(bytes4)":"01ffc9a7","totalFeesCollected()":"60c6d8ae"},"id":4}