{"abi":[{"type":"constructor","inputs":[{"name":"_usdtgToken","type":"address","internalType":"address"},{"name":"_usdcToken","type":"address","internalType":"address"},{"name":"_usdtToken","type":"address","internalType":"address"},{"name":"_wethToken","type":"address","internalType":"address"}],"stateMutability":"nonpayable"},{"type":"function","name":"BURNER_ROLE","inputs":[],"outputs":[{"name":"","type":"bytes32","internalType":"bytes32"}],"stateMutability":"view"},{"type":"function","name":"DEFAULT_ADMIN_ROLE","inputs":[],"outputs":[{"name":"","type":"bytes32","internalType":"bytes32"}],"stateMutability":"view"},{"type":"function","name":"LIQUIDATION_PENALTY","inputs":[],"outputs":[{"name":"","type":"uint256","internalType":"uint256"}],"stateMutability":"view"},{"type":"function","name":"LIQUIDATION_THRESHOLD","inputs":[],"outputs":[{"name":"","type":"uint256","internalType":"uint256"}],"stateMutability":"view"},{"type":"function","name":"LIQUIDATOR_ROLE","inputs":[],"outputs":[{"name":"","type":"bytes32","internalType":"bytes32"}],"stateMutability":"view"},{"type":"function","name":"MINTER_ROLE","inputs":[],"outputs":[{"name":"","type":"bytes32","internalType":"bytes32"}],"stateMutability":"view"},{"type":"function","name":"MIN_COLLATERALIZATION_RATIO","inputs":[],"outputs":[{"name":"","type":"uint256","internalType":"uint256"}],"stateMutability":"view"},{"type":"function","name":"ORACLE_ROLE","inputs":[],"outputs":[{"name":"","type":"bytes32","internalType":"bytes32"}],"stateMutability":"view"},{"type":"function","name":"PRICE_DEVIATION","inputs":[],"outputs":[{"name":"","type":"uint256","internalType":"uint256"}],"stateMutability":"view"},{"type":"function","name":"PRICE_PRECISION","inputs":[],"outputs":[{"name":"","type":"uint256","internalType":"uint256"}],"stateMutability":"view"},{"type":"function","name":"TARGET_PRICE","inputs":[],"outputs":[{"name":"","type":"uint256","internalType":"uint256"}],"stateMutability":"view"},{"type":"function","name":"burn","inputs":[{"name":"from","type":"address","internalType":"address"},{"name":"amount","type":"uint256","internalType":"uint256"}],"outputs":[],"stateMutability":"nonpayable"},{"type":"function","name":"burnAndWithdrawCollateral","inputs":[{"name":"collateral","type":"address","internalType":"address"},{"name":"usdtgAmount","type":"uint256","internalType":"uint256"}],"outputs":[],"stateMutability":"nonpayable"},{"type":"function","name":"collateralReserves","inputs":[{"name":"","type":"address","internalType":"address"}],"outputs":[{"name":"","type":"uint256","internalType":"uint256"}],"stateMutability":"view"},{"type":"function","name":"collateralizationRatio","inputs":[{"name":"","type":"address","internalType":"address"}],"outputs":[{"name":"","type":"uint256","internalType":"uint256"}],"stateMutability":"view"},{"type":"function","name":"emergencyPause","inputs":[],"outputs":[],"stateMutability":"nonpayable"},{"type":"function","name":"emergencyUnpause","inputs":[],"outputs":[],"stateMutability":"nonpayable"},{"type":"function","name":"getCollateralAmount","inputs":[{"name":"collateral","type":"address","internalType":"address"},{"name":"usdValue","type":"uint256","internalType":"uint256"}],"outputs":[{"name":"","type":"uint256","internalType":"uint256"}],"stateMutability":"view"},{"type":"function","name":"getCollateralValue","inputs":[{"name":"collateral","type":"address","internalType":"address"},{"name":"amount","type":"uint256","internalType":"uint256"}],"outputs":[{"name":"","type":"uint256","internalType":"uint256"}],"stateMutability":"view"},{"type":"function","name":"getRoleAdmin","inputs":[{"name":"role","type":"bytes32","internalType":"bytes32"}],"outputs":[{"name":"","type":"bytes32","internalType":"bytes32"}],"stateMutability":"view"},{"type":"function","name":"getSystemStatus","inputs":[],"outputs":[{"name":"totalCollateralValue","type":"uint256","internalType":"uint256"},{"name":"totalUsdtgMinted","type":"uint256","internalType":"uint256"},{"name":"collateralizationRatio_","type":"uint256","internalType":"uint256"},{"name":"usdcReserves","type":"uint256","internalType":"uint256"},{"name":"usdtReserves","type":"uint256","internalType":"uint256"},{"name":"wethReserves","type":"uint256","internalType":"uint256"}],"stateMutability":"view"},{"type":"function","name":"getUserPosition","inputs":[{"name":"user","type":"address","internalType":"address"}],"outputs":[{"name":"totalUsdtgMinted","type":"uint256","internalType":"uint256"},{"name":"collateralizationRatio_","type":"uint256","internalType":"uint256"},{"name":"isLiquidatable","type":"bool","internalType":"bool"},{"name":"totalCollateralValue","type":"uint256","internalType":"uint256"}],"stateMutability":"view"},{"type":"function","name":"grantRole","inputs":[{"name":"role","type":"bytes32","internalType":"bytes32"},{"name":"account","type":"address","internalType":"address"}],"outputs":[],"stateMutability":"nonpayable"},{"type":"function","name":"grantRoleForTesting","inputs":[{"name":"role","type":"bytes32","internalType":"bytes32"},{"name":"account","type":"address","internalType":"address"}],"outputs":[],"stateMutability":"nonpayable"},{"type":"function","name":"hasRole","inputs":[{"name":"role","type":"bytes32","internalType":"bytes32"},{"name":"account","type":"address","internalType":"address"}],"outputs":[{"name":"","type":"bool","internalType":"bool"}],"stateMutability":"view"},{"type":"function","name":"isEmergencyPaused","inputs":[],"outputs":[{"name":"","type":"bool","internalType":"bool"}],"stateMutability":"view"},{"type":"function","name":"liquidatePosition","inputs":[{"name":"user","type":"address","internalType":"address"}],"outputs":[],"stateMutability":"nonpayable"},{"type":"function","name":"mint","inputs":[{"name":"to","type":"address","internalType":"address"},{"name":"amount","type":"uint256","internalType":"uint256"}],"outputs":[],"stateMutability":"nonpayable"},{"type":"function","name":"mintWithCollateral","inputs":[{"name":"collateral","type":"address","internalType":"address"},{"name":"collateralAmount","type":"uint256","internalType":"uint256"}],"outputs":[],"stateMutability":"nonpayable"},{"type":"function","name":"oraclePrices","inputs":[{"name":"","type":"address","internalType":"address"}],"outputs":[{"name":"","type":"uint256","internalType":"uint256"}],"stateMutability":"view"},{"type":"function","name":"paused","inputs":[],"outputs":[{"name":"","type":"bool","internalType":"bool"}],"stateMutability":"view"},{"type":"function","name":"renounceRole","inputs":[{"name":"role","type":"bytes32","internalType":"bytes32"},{"name":"account","type":"address","internalType":"address"}],"outputs":[],"stateMutability":"nonpayable"},{"type":"function","name":"revokeRole","inputs":[{"name":"role","type":"bytes32","internalType":"bytes32"},{"name":"account","type":"address","internalType":"address"}],"outputs":[],"stateMutability":"nonpayable"},{"type":"function","name":"supportsInterface","inputs":[{"name":"interfaceId","type":"bytes4","internalType":"bytes4"}],"outputs":[{"name":"","type":"bool","internalType":"bool"}],"stateMutability":"view"},{"type":"function","name":"updateOraclePrice","inputs":[{"name":"collateral","type":"address","internalType":"address"},{"name":"price","type":"uint256","internalType":"uint256"}],"outputs":[],"stateMutability":"nonpayable"},{"type":"function","name":"updateOraclePriceForTesting","inputs":[{"name":"collateral","type":"address","internalType":"address"},{"name":"price","type":"uint256","internalType":"uint256"}],"outputs":[],"stateMutability":"nonpayable"},{"type":"function","name":"usdcToken","inputs":[],"outputs":[{"name":"","type":"address","internalType":"contract IERC20"}],"stateMutability":"view"},{"type":"function","name":"usdtToken","inputs":[],"outputs":[{"name":"","type":"address","internalType":"contract IERC20"}],"stateMutability":"view"},{"type":"function","name":"usdtgMinted","inputs":[{"name":"","type":"address","internalType":"address"}],"outputs":[{"name":"","type":"uint256","internalType":"uint256"}],"stateMutability":"view"},{"type":"function","name":"usdtgToken","inputs":[],"outputs":[{"name":"","type":"address","internalType":"contract IERC20"}],"stateMutability":"view"},{"type":"function","name":"wethToken","inputs":[],"outputs":[{"name":"","type":"address","internalType":"contract IERC20"}],"stateMutability":"view"},{"type":"event","name":"CollateralDeposited","inputs":[{"name":"user","type":"address","indexed":true,"internalType":"address"},{"name":"collateral","type":"address","indexed":false,"internalType":"address"},{"name":"amount","type":"uint256","indexed":false,"internalType":"uint256"},{"name":"usdtgMinted","type":"uint256","indexed":false,"internalType":"uint256"}],"anonymous":false},{"type":"event","name":"CollateralWithdrawn","inputs":[{"name":"user","type":"address","indexed":true,"internalType":"address"},{"name":"collateral","type":"address","indexed":false,"internalType":"address"},{"name":"amount","type":"uint256","indexed":false,"internalType":"uint256"},{"name":"usdtgBurned","type":"uint256","indexed":false,"internalType":"uint256"}],"anonymous":false},{"type":"event","name":"OraclePriceUpdated","inputs":[{"name":"collateral","type":"address","indexed":true,"internalType":"address"},{"name":"price","type":"uint256","indexed":false,"internalType":"uint256"}],"anonymous":false},{"type":"event","name":"Paused","inputs":[{"name":"account","type":"address","indexed":false,"internalType":"address"}],"anonymous":false},{"type":"event","name":"PositionLiquidated","inputs":[{"name":"user","type":"address","indexed":true,"internalType":"address"},{"name":"liquidator","type":"address","indexed":false,"internalType":"address"},{"name":"collateralSeized","type":"uint256","indexed":false,"internalType":"uint256"},{"name":"usdtgBurned","type":"uint256","indexed":false,"internalType":"uint256"}],"anonymous":false},{"type":"event","name":"RoleAdminChanged","inputs":[{"name":"role","type":"bytes32","indexed":true,"internalType":"bytes32"},{"name":"previousAdminRole","type":"bytes32","indexed":true,"internalType":"bytes32"},{"name":"newAdminRole","type":"bytes32","indexed":true,"internalType":"bytes32"}],"anonymous":false},{"type":"event","name":"RoleGranted","inputs":[{"name":"role","type":"bytes32","indexed":true,"internalType":"bytes32"},{"name":"account","type":"address","indexed":true,"internalType":"address"},{"name":"sender","type":"address","indexed":true,"internalType":"address"}],"anonymous":false},{"type":"event","name":"RoleRevoked","inputs":[{"name":"role","type":"bytes32","indexed":true,"internalType":"bytes32"},{"name":"account","type":"address","indexed":true,"internalType":"address"},{"name":"sender","type":"address","indexed":true,"internalType":"address"}],"anonymous":false},{"type":"event","name":"USDTgBurned","inputs":[{"name":"user","type":"address","indexed":true,"internalType":"address"},{"name":"amount","type":"uint256","indexed":false,"internalType":"uint256"},{"name":"collateralReturned","type":"uint256","indexed":false,"internalType":"uint256"}],"anonymous":false},{"type":"event","name":"USDTgMinted","inputs":[{"name":"user","type":"address","indexed":true,"internalType":"address"},{"name":"amount","type":"uint256","indexed":false,"internalType":"uint256"},{"name":"collateralValue","type":"uint256","indexed":false,"internalType":"uint256"}],"anonymous":false},{"type":"event","name":"Unpaused","inputs":[{"name":"account","type":"address","indexed":false,"internalType":"address"}],"anonymous":false}],"bytecode":{"object":"0x6080346104bd57601f6126ba38819003918201601f19168301916001600160401b038311848410176104c1578084926080946040528339810103126104bd57610047816104d5565b90610054602082016104d5565b9061006d6060610066604084016104d5565b92016104d5565b6001805560025490926001600160a01b03851615610478576001600160a01b031691821561043e576001600160a01b0316928315610404576001600160a01b03169384156103ca576001600160a81b031990911660089190911b610100600160a81b031617600255600380546001600160a01b03199081169290921790556004805482169290921790915560058054909116919091179055335f9081525f51602061269a5f395f51905f52602052604090205460ff161561038d575b335f9081525f51602061261a5f395f51905f52602052604090205460ff161561032e575b335f9081525f51602061267a5f395f51905f52602052604090205460ff16156102cf575b335f9081525f51602061263a5f395f51905f52602052604090205460ff1615610270575b335f9081525f51602061265a5f395f51905f52602052604090205460ff1615610211575b6003546001600160a01b039081165f90815260096020526040808220670de0b6b3a76400009081905560045484168352818320556005549092168152819020686c6b935b8bbd40000090555161211090816104ea8239f35b335f8181525f51602061265a5f395f51905f5260205260408120805460ff1916600117905581907f5e17fc5225d4a099df75359ce1f405503ca79498a8dc46a7d583235a0ee45c16905f5160206125fa5f395f51905f529080a46101b9565b335f8181525f51602061263a5f395f51905f5260205260408120805460ff1916600117905581907f68e79a7bf1e0bc45d0a330c573bc367f9cf464fd326078812f301165fbda4ef1905f5160206125fa5f395f51905f529080a4610195565b335f8181525f51602061267a5f395f51905f5260205260408120805460ff1916600117905581907f3c11d16cbaffd01df69ce1c404f6340ee057498f5f00246190ea54220576a848905f5160206125fa5f395f51905f529080a4610171565b335f8181525f51602061261a5f395f51905f5260205260408120805460ff1916600117905581907f9f2df0fed2c77648de5860a4cc508cd0818c85b8b8a1ab4ceeef8d981c8956a6905f5160206125fa5f395f51905f529080a461014d565b335f8181525f51602061269a5f395f51905f5260205260408120805460ff1916600117905581905f5160206125fa5f395f51905f528180a4610129565b60405162461bcd60e51b815260206004820152601260248201527124b73b30b634b2102ba2aa24103a37b5b2b760711b6044820152606490fd5b60405162461bcd60e51b815260206004820152601260248201527124b73b30b634b2102aa9a22a103a37b5b2b760711b6044820152606490fd5b60405162461bcd60e51b815260206004820152601260248201527124b73b30b634b2102aa9a221903a37b5b2b760711b6044820152606490fd5b60405162461bcd60e51b815260206004820152601360248201527f496e76616c696420555344546720746f6b656e000000000000000000000000006044820152606490fd5b5f80fd5b634e487b7160e01b5f52604160045260245ffd5b51906001600160a01b03821682036104bd5756fe6080806040526004361015610012575f80fd5b5f3560e01c90816301ffc9a7146118465750806302967bf11461180e57806307e2cea5146117d457806311eac855146117ac5780631638fbb11461179157806316d8887a14611757578063248a9ca314611739578063282c51f3146116ff578063290d10c414610f855780632b037c57146116d85780632f2ff15d1461168557806331ffd10b1461165957806336568abe146115c757806340c10f19146113ee578063419c3ec0146113c957806343dca0661461139a5780634437aa44146112fd5780634a4e3bd51461126a5780634b57b0be1461124257806350c1d19d146110dd57806351858e27146110845780635b7c2dad14610fa75780635c975abb14610f855780637498a0f014610b445780637e99ce5914610adc57806390a8ae9b14610b2957806391d1485414610ae157806395082d2514610adc5780639b8621d514610ac15780639dc29fac146109245780639ebcc252146106a4578063a217fddf1461068a578063a98ad46c14610662578063aa9a39da146103a7578063bc05b0621461036f578063cf31a17e14610337578063d3a24fbc146102a8578063d53913931461026e578063d547741f14610236578063d6271c6b146101fe5763edbcc146146101df575f80fd5b346101fa575f3660031901126101fa57602060405160968152f35b5f80fd5b346101fa5760203660031901126101fa576001600160a01b0361021f611899565b165f526009602052602060405f2054604051908152f35b346101fa5760403660031901126101fa5761026c6004356102556118af565b90610267610262826118e7565b611cd9565b611d16565b005b346101fa575f3660031901126101fa5760206040517f9f2df0fed2c77648de5860a4cc508cd0818c85b8b8a1ab4ceeef8d981c8956a68152f35b346101fa5760403660031901126101fa576102c1611899565b335f9081527fa629f6981c2f6895a67dc766e8e03ff72d04a413d0d8773a3ca56e9e474032c1602052604090205460ff16156103045761026c9060243590611a63565b60405162461bcd60e51b815260206004820152600b60248201526a4f6e6c79206f7261636c6560a81b6044820152606490fd5b346101fa5760203660031901126101fa576001600160a01b03610358611899565b165f526006602052602060405f2054604051908152f35b346101fa5760203660031901126101fa576001600160a01b03610390611899565b165f526008602052602060405f2054604051908152f35b346101fa5760403660031901126101fa576103c0611899565b600354602435916001600160a01b0380821692168214801561064e575b801561063a575b6103ed90611b6b565b6103f5611da3565b6103fd611e8e565b610408831515611927565b6002546040516323b872dd60e01b815290602090829060081c6001600160a01b0316815f8161043c8a303360048501611b2b565b03925af180156105bf5761061d575b506104568382611aea565b91805f5260066020528260405f2054106105de57805f52600660205260405f20548381039081116105ca57815f52600660205260405f2055335f52600760205260405f20548481039081116105ca57335f52600760205260405f20556104bb33611df9565b6020604051809263a9059cbb60e01b8252815f816104dd893360048401611a08565b03925af19081156105bf575f91610590575b501561054e577f4700a5c58c58ea6536703185e43dae38bfd4158ee5330c70988f02a65562a36e604051806105278686339684611b4d565b0390a260405191825260208201525f51602061209b5f395f51905f5260403392a260018055005b60405162461bcd60e51b815260206004820152601a60248201527910dbdb1b185d195c985b081d1c985b9cd9995c8819985a5b195960321b6044820152606490fd5b6105b2915060203d6020116105b8575b6105aa818361196d565b8101906119f0565b846104ef565b503d6105a0565b6040513d5f823e3d90fd5b634e487b7160e01b5f52601160045260245ffd5b60405162461bcd60e51b8152602060048201526017602482015276125b9cdd59999a58da595b9d0818dbdb1b185d195c985b604a1b6044820152606490fd5b6106359060203d6020116105b8576105aa818361196d565b61044b565b506005546001600160a01b031682146103e4565b506004546001600160a01b031682146103dd565b346101fa575f3660031901126101fa576004546040516001600160a01b039091168152602090f35b346101fa575f3660031901126101fa5760206040515f8152f35b346101fa5760403660031901126101fa576106bd611899565b6003546001600160a01b038083169291602435911683148015610910575b80156108fc575b6106eb90611b6b565b6106f3611da3565b6106fb611e8e565b610706811515611927565b6040516323b872dd60e01b81526020818061072685303360048501611b2b565b03815f885af180156105bf576108df575b5061074281836118f8565b6002546040516370a0823160e01b8152306004820152919491906020908290602490829060081c6001600160a01b03165afa80156105bf5785905f906108a9575b61078f925010156119a4565b805f5260066020526107a58260405f2054611d96565b905f52600660205260405f2055335f5260076020526107c88360405f2054611d96565b335f52600760205260405f20556107de33611df9565b60025460405163a9059cbb60e01b81529190602090839060081c6001600160a01b0316815f816108128a3360048401611a08565b03925af19081156105bf5761085185927f95d16db8c4932fcf5d6de67364791e7178ec505c7d3829a8b34d18959c01552c945f9161088a575b50611a23565b610862604051928392339684611b4d565b0390a26040519080825260208201525f5160206120bb5f395f51905f5260403392a260018055005b6108a3915060203d6020116105b8576105aa818361196d565b8761084b565b50506020813d6020116108d7575b816108c46020938361196d565b810103126101fa578461078f9151610783565b3d91506108b7565b6108f79060203d6020116105b8576105aa818361196d565b610737565b506005546001600160a01b031683146106e2565b506004546001600160a01b031683146106db565b346101fa5760403660031901126101fa5761093d611899565b335f9081527f6bc61e8d8a7feeba9a3dfbe950298fbca23cf0136992f9ef92f1b5529ac870ae60205260409020546024359060ff1615610a8e576001600160a01b038216918215610a57576020826109c89261099a821515611927565b60018060a01b0360025460081c16905f6040518096819582946323b872dd60e01b8452309060048501611b2b565b03925af19081156105bf575f91610a38575b50156109ff5760405f51602061209b5f395f51905f529181519081525f6020820152a2005b60405162461bcd60e51b81526020600482015260116024820152701554d11519c8189d5c9b8819985a5b1959607a1b6044820152606490fd5b610a51915060203d6020116105b8576105aa818361196d565b836109da565b60405162461bcd60e51b815260206004820152600f60248201526e496e76616c6964206164647265737360881b6044820152606490fd5b60405162461bcd60e51b815260206004820152600b60248201526a27b7363c90313ab93732b960a91b6044820152606490fd5b346101fa575f3660031901126101fa576020604051600a8152f35b6118c5565b346101fa5760403660031901126101fa57610afa6118af565b6004355f525f60205260405f209060018060a01b03165f52602052602060ff60405f2054166040519015158152f35b346101fa575f3660031901126101fa57602060405160788152f35b346101fa5760203660031901126101fa57610b5d611899565b335f9081527fbcea842b576603bd7a3cd6bbb61cb6c1908ae113af80c7a38f32f896fbaa4544602052604090205460ff1615610f4e57610b9b611da3565b60018060a01b03811690815f526008602052607860405f20541015610f0d57815f52600760205260405f2054600a8102818104600a14821517156105ca576002546040516323b872dd60e01b81526064909204929190602090829060081c6001600160a01b0316815f81610c1489303360048501611b2b565b03925af180156105bf57610ef0575b506003546001600160a01b03165f81815260066020526040812054909190610e51575b506004546001600160a01b03165f81815260066020526040902054610da8575b506005546001600160a01b03165f81815260066020526040902054909290610cf4575b509050835f52600760205260405f20548281039081116105ca577fa457abeae7105eb8bccbb20968069d940e939bc0c8d8b9c2c13aaed4755e68c393610cdb91865f52600760205260405f2055611df9565b610ceb6040519283923384611b4d565b0390a260018055005b610d1390835f526006602052610d0e8560405f2054611bac565b611bbf565b91805f52600660205260405f2054918383039283116105ca57610d4984610d73925f956020958752600686526040872055611d96565b9360018060a01b03600554169060405194858094819363a9059cbb60e01b83523360048401611a08565b03925af180156105bf57610d89575b8190610c89565b610da19060203d6020116105b8576105aa818361196d565b5084610d82565b90815f526006602052610dc383610d0e8660405f2054611bac565b91805f52600660205260405f2054918383039283116105ca57610df984610e23925f956020958752600686526040872055611d96565b9360018060a01b03600454169060405194858094819363a9059cbb60e01b83523360048401611a08565b03925af180156105bf5715610c6657610e4a9060203d6020116105b8576105aa818361196d565b5085610c66565b8091505f526006602052610e6d82610d0e8560405f2054611bac565b90805f52600660205260405f2054908282039182116105ca575f52600660205260405f20555f6020610ec28360018060a01b03600354169060405194858094819363a9059cbb60e01b83523360048401611a08565b03925af180156105bf5715610c4657610ee99060203d6020116105b8576105aa818361196d565b5085610c46565b610f089060203d6020116105b8576105aa818361196d565b610c23565b60405162461bcd60e51b8152602060048201526019602482015278506f736974696f6e206e6f74206c6971756964617461626c6560381b6044820152606490fd5b60405162461bcd60e51b815260206004820152600f60248201526e27b7363c903634b8bab4b230ba37b960891b6044820152606490fd5b346101fa575f3660031901126101fa57602060ff600254166040519015158152f35b346101fa5760203660031901126101fa576080610fc2611899565b6003546001600160a01b03165f818152600660205260409020546110399161101691610fed916118f8565b6004546001600160a01b03165f81815260066020526040902054611010916118f8565b90611d96565b6005546001600160a01b03165f81815260066020526040902054611010916118f8565b9060018060a01b031690815f526008602052607860405f205410825f52600760205260405f2054925f52600860205260405f2054604051938452602084015260408301526060820152f35b346101fa575f3660031901126101fa5761109c611bdd565b6110a4611e8e565b600160ff1960025416176002557f62e78cea01bee320cd4e420270b5ea74000d11b0c9f74754ebdbfc544b05a2586020604051338152a1005b346101fa575f3660031901126101fa576003546001600160a01b03165f8181526006602052604090205461111190826118f8565b600461113760018060a01b0382541692835f52600660205261101060405f2054856118f8565b61115c60018060a01b036005541691825f52600660205261101060405f2054846118f8565b6002546040516318160ddd60e01b815291949193602091859190829060081c6001600160a01b03165afa9283156105bf575f9361120e575b508215611204576064840294848604606414851517156105ca576111ba8460c097611bbf565b905b5f52600660205260405f2054915f52600660205260405f2054925f52600660205260405f205493604051958652602086015260408501526060840152608083015260a0820152f35b60c0945f906111bc565b9092506020813d60201161123a575b8161122a6020938361196d565b810103126101fa57519185611194565b3d915061121d565b346101fa575f3660031901126101fa576005546040516001600160a01b039091168152602090f35b346101fa575f3660031901126101fa57611282611bdd565b60025460ff8116156112c15760ff19166002557f5db9ee0a495bf2e6ff9c91a7834c1ba4fdd244a5e8aa4e537bd38aeae4b073aa6020604051338152a1005b60405162461bcd60e51b815260206004820152601460248201527314185d5cd8589b194e881b9bdd081c185d5cd95960621b6044820152606490fd5b346101fa5760403660031901126101fa576004356113196118af565b90805f525f60205260405f2060018060a01b0383165f5260205260ff60405f2054161561134257005b5f818152602081815260408083206001600160a01b0395909516808452949091528120805460ff19166001179055339291907f2f8788117e7eff1d82e926ec794901d17c78024a50270940304540a733656f0d9080a4005b346101fa5760403660031901126101fa5760206113c16113b8611899565b60243590611aea565b604051908152f35b346101fa5760403660031901126101fa5761026c6113e5611899565b60243590611a63565b346101fa5760403660031901126101fa57611407611899565b335f9081527f0781d7cac9c378efa22a7481e4d4d29704a680ddf504b3bc50b517700ee11e6c6020526040902054602435919060ff1615611594576001600160a01b03811691821561155b5761145e811515611927565b6002546040516370a0823160e01b815230600482015260089190911c6001600160a01b03169290602081602481875afa9081156105bf575f91611527575b506114ce936020926114b185809410156119a4565b5f60405180978195829463a9059cbb60e01b845260048401611a08565b03925af19081156105bf576114fa6040925f5160206120bb5f395f51905f52945f916115085750611a23565b81519081525f6020820152a2005b611521915060203d6020116105b8576105aa818361196d565b8661084b565b90506020813d602011611553575b816115426020938361196d565b810103126101fa57516114ce61149c565b3d9150611535565b60405162461bcd60e51b8152602060048201526011602482015270125b9d985b1a59081c9958da5c1a595b9d607a1b6044820152606490fd5b60405162461bcd60e51b815260206004820152600b60248201526a27b7363c9036b4b73a32b960a91b6044820152606490fd5b346101fa5760403660031901126101fa576115e06118af565b336001600160a01b038216036115fc5761026c90600435611d16565b60405162461bcd60e51b815260206004820152602f60248201527f416363657373436f6e74726f6c3a2063616e206f6e6c792072656e6f756e636560448201526e103937b632b9903337b91039b2b63360891b6064820152608490fd5b346101fa575f3660031901126101fa5760025460405160089190911c6001600160a01b03168152602090f35b346101fa5760403660031901126101fa576004356116a16118af565b906116ae610262826118e7565b5f818152602081815260408083206001600160a01b038616845290915290205460ff161561134257005b346101fa5760403660031901126101fa5760206113c16116f6611899565b602435906118f8565b346101fa575f3660031901126101fa5760206040517f3c11d16cbaffd01df69ce1c404f6340ee057498f5f00246190ea54220576a8488152f35b346101fa5760203660031901126101fa5760206113c16004356118e7565b346101fa575f3660031901126101fa5760206040517f5e17fc5225d4a099df75359ce1f405503ca79498a8dc46a7d583235a0ee45c168152f35b346101fa575f3660031901126101fa57602060405160028152f35b346101fa575f3660031901126101fa576003546040516001600160a01b039091168152602090f35b346101fa575f3660031901126101fa5760206040517f68e79a7bf1e0bc45d0a330c573bc367f9cf464fd326078812f301165fbda4ef18152f35b346101fa5760203660031901126101fa576001600160a01b0361182f611899565b165f526007602052602060405f2054604051908152f35b346101fa5760203660031901126101fa576004359063ffffffff60e01b82168092036101fa57602091637965db0b60e01b8114908115611888575b5015158152f35b6301ffc9a760e01b14905083611881565b600435906001600160a01b03821682036101fa57565b602435906001600160a01b03821682036101fa57565b346101fa575f3660031901126101fa576020604051670de0b6b3a76400008152f35b5f525f602052600160405f20015490565b6001600160a01b03165f90815260096020526040902054670de0b6b3a7640000916119239190611bac565b0490565b1561192e57565b60405162461bcd60e51b8152602060048201526017602482015276416d6f756e74206d75737420626520706f73697469766560481b6044820152606490fd5b601f909101601f19168101906001600160401b0382119082101761199057604052565b634e487b7160e01b5f52604160045260245ffd5b156119ab57565b60405162461bcd60e51b815260206004820152601d60248201527f496e73756666696369656e7420555344546720696e20726573657276650000006044820152606490fd5b908160209103126101fa575180151581036101fa5790565b6001600160a01b039091168152602081019190915260400190565b15611a2a57565b60405162461bcd60e51b81526020600482015260116024820152701554d11519c81b5a5b9d0819985a5b1959607a1b6044820152606490fd5b8115611aac5760207f77c20208cd7e01a3ac49a77a10791ff815d4994e3297d40f1762a9c5eaeb94ae9160018060a01b031692835f52600982528060405f2055604051908152a2565b60405162461bcd60e51b81526020600482015260166024820152755072696365206d75737420626520706f73697469766560501b6044820152606490fd5b60018060a01b03165f52600960205260405f2054670de0b6b3a7640000820291808304670de0b6b3a764000014901517156105ca57611b2891611bbf565b90565b6001600160a01b03918216815291166020820152604081019190915260600190565b604091949392606082019560018060a01b0316825260208201520152565b15611b7257565b60405162461bcd60e51b8152602060048201526012602482015271125b9d985b1a590818dbdb1b185d195c985b60721b6044820152606490fd5b818102929181159184041417156105ca57565b8115611bc9570490565b634e487b7160e01b5f52601260045260245ffd5b335f9081527fad3228b676f7d3cd4284a5443f17f1962b36e491b30a40b2405849e597ba5fb5602052604090205460ff1615611c1557565b611c1e33611f12565b60446020611ca16011611c305f611ff8565b6037604051948592818085019976020b1b1b2b9b9a1b7b73a3937b61d1030b1b1b7bab73a1604d1b8b528051918291018587015e8401907001034b99036b4b9b9b4b733903937b6329607d1b84830152805192839101604883015e01015f838201520301601f19810183528261196d565b60405192839162461bcd60e51b8352602060048401525180918160248501528484015e5f828201840152601f01601f19168101030190fd5b5f8181526020818152604080832033845290915290205460ff1615611cfb5750565b60446020611ca16011611c30611d1033611f12565b95611ff8565b5f818152602081815260408083206001600160a01b038616845290915290205460ff16611d41575050565b5f818152602081815260408083206001600160a01b0395909516808452949091528120805460ff19169055339291907ff6391f5c32d9c69d2a47ea670b442974b53935d1edc7fd64eb21e047a839171b9080a4565b919082018092116105ca57565b600260015414611db4576002600155565b60405162461bcd60e51b815260206004820152601f60248201527f5265656e7472616e637947756172643a207265656e7472616e742063616c6c006044820152606490fd5b6003546001600160a01b03165f81815260066020526040902054611e249161101691610fed916118f8565b6001600160a01b039091165f8181526007602052604090205490919015611e7e576064810290808204606414901517156105ca57611e6f90825f52600760205260405f205490611bbf565b905f52600860205260405f2055565b505f5260086020525f6040812055565b60ff60025416611e9a57565b60405162461bcd60e51b815260206004820152601060248201526f14185d5cd8589b194e881c185d5cd95960821b6044820152606490fd5b6001600160401b03811161199057601f01601f191660200190565b908151811015611efe570160200190565b634e487b7160e01b5f52603260045260245ffd5b611f1c602a611ed2565b90611f2a604051928361196d565b602a8252611f38602a611ed2565b6020830190601f1901368237825115611efe5760309053815160011015611efe576078602183015360295b60018111611fb75750611f735790565b606460405162461bcd60e51b815260206004820152602060248201527f537472696e67733a20686578206c656e67746820696e73756666696369656e746044820152fd5b90600f81166010811015611efe576f181899199a1a9b1b9c1cb0b131b232b360811b901a611fe58385611eed565b5360041c9080156105ca575f1901611f63565b6120026042611ed2565b90612010604051928361196d565b6042825261201e6042611ed2565b6020830190601f1901368237825115611efe5760309053815160011015611efe576078602183015360415b600181116120595750611f735790565b90600f81166010811015611efe576f181899199a1a9b1b9c1cb0b131b232b360811b901a6120878385611eed565b5360041c9080156105ca575f190161204956fe0c83e2a60e100f6142741a596165fb6dc7c969b8d8fbb545617ce3db817fd5d65f4908f65af0f08bd4987e5c2561e3f11031894ae290ff17d9a5467d4036da2da2646970667358221220ca5d4517f07177c696110b6b2f3ac6590ca9738147f61f4efe195b27c345ff5464736f6c634300081d00332f8788117e7eff1d82e926ec794901d17c78024a50270940304540a733656f0d0781d7cac9c378efa22a7481e4d4d29704a680ddf504b3bc50b517700ee11e6ca629f6981c2f6895a67dc766e8e03ff72d04a413d0d8773a3ca56e9e474032c1bcea842b576603bd7a3cd6bbb61cb6c1908ae113af80c7a38f32f896fbaa45446bc61e8d8a7feeba9a3dfbe950298fbca23cf0136992f9ef92f1b5529ac870aead3228b676f7d3cd4284a5443f17f1962b36e491b30a40b2405849e597ba5fb5","linkReferences":{}},"methodIdentifiers":{"BURNER_ROLE()":"282c51f3","DEFAULT_ADMIN_ROLE()":"a217fddf","LIQUIDATION_PENALTY()":"9b8621d5","LIQUIDATION_THRESHOLD()":"90a8ae9b","LIQUIDATOR_ROLE()":"16d8887a","MINTER_ROLE()":"d5391393","MIN_COLLATERALIZATION_RATIO()":"edbcc146","ORACLE_ROLE()":"07e2cea5","PRICE_DEVIATION()":"1638fbb1","PRICE_PRECISION()":"95082d25","TARGET_PRICE()":"7e99ce59","burn(address,uint256)":"9dc29fac","burnAndWithdrawCollateral(address,uint256)":"aa9a39da","collateralReserves(address)":"cf31a17e","collateralizationRatio(address)":"bc05b062","emergencyPause()":"51858e27","emergencyUnpause()":"4a4e3bd5","getCollateralAmount(address,uint256)":"43dca066","getCollateralValue(address,uint256)":"2b037c57","getRoleAdmin(bytes32)":"248a9ca3","getSystemStatus()":"50c1d19d","getUserPosition(address)":"5b7c2dad","grantRole(bytes32,address)":"2f2ff15d","grantRoleForTesting(bytes32,address)":"4437aa44","hasRole(bytes32,address)":"91d14854","isEmergencyPaused()":"290d10c4","liquidatePosition(address)":"7498a0f0","mint(address,uint256)":"40c10f19","mintWithCollateral(address,uint256)":"9ebcc252","oraclePrices(address)":"d6271c6b","paused()":"5c975abb","renounceRole(bytes32,address)":"36568abe","revokeRole(bytes32,address)":"d547741f","supportsInterface(bytes4)":"01ffc9a7","updateOraclePrice(address,uint256)":"d3a24fbc","updateOraclePriceForTesting(address,uint256)":"419c3ec0","usdcToken()":"11eac855","usdtToken()":"a98ad46c","usdtgMinted(address)":"02967bf1","usdtgToken()":"31ffd10b","wethToken()":"4b57b0be"},"id":19}