{"abi":[{"type":"constructor","inputs":[{"name":"_tokenContract","type":"address","internalType":"address"}],"stateMutability":"nonpayable"},{"type":"function","name":"DEFAULT_ADMIN_ROLE","inputs":[],"outputs":[{"name":"","type":"bytes32","internalType":"bytes32"}],"stateMutability":"view"},{"type":"function","name":"METADATA_ADMIN_ROLE","inputs":[],"outputs":[{"name":"","type":"bytes32","internalType":"bytes32"}],"stateMutability":"view"},{"type":"function","name":"description","inputs":[],"outputs":[{"name":"","type":"string","internalType":"string"}],"stateMutability":"view"},{"type":"function","name":"discord","inputs":[],"outputs":[{"name":"","type":"string","internalType":"string"}],"stateMutability":"view"},{"type":"function","name":"getFullMetadata","inputs":[],"outputs":[{"name":"logo","type":"string","internalType":"string"},{"name":"website_","type":"string","internalType":"string"},{"name":"description_","type":"string","internalType":"string"},{"name":"telegram_","type":"string","internalType":"string"},{"name":"twitter_","type":"string","internalType":"string"},{"name":"discord_","type":"string","internalType":"string"},{"name":"github_","type":"string","internalType":"string"}],"stateMutability":"view"},{"type":"function","name":"getRoleAdmin","inputs":[{"name":"role","type":"bytes32","internalType":"bytes32"}],"outputs":[{"name":"","type":"bytes32","internalType":"bytes32"}],"stateMutability":"view"},{"type":"function","name":"getTokenMetadata","inputs":[],"outputs":[{"name":"","type":"string","internalType":"string"}],"stateMutability":"pure"},{"type":"function","name":"getWalletMetadata","inputs":[],"outputs":[{"name":"","type":"string","internalType":"string"}],"stateMutability":"view"},{"type":"function","name":"github","inputs":[],"outputs":[{"name":"","type":"string","internalType":"string"}],"stateMutability":"view"},{"type":"function","name":"grantRole","inputs":[{"name":"role","type":"bytes32","internalType":"bytes32"},{"name":"account","type":"address","internalType":"address"}],"outputs":[],"stateMutability":"nonpayable"},{"type":"function","name":"hasRole","inputs":[{"name":"role","type":"bytes32","internalType":"bytes32"},{"name":"account","type":"address","internalType":"address"}],"outputs":[{"name":"","type":"bool","internalType":"bool"}],"stateMutability":"view"},{"type":"function","name":"logoURI","inputs":[],"outputs":[{"name":"","type":"string","internalType":"string"}],"stateMutability":"view"},{"type":"function","name":"metadataTokenContract","inputs":[],"outputs":[{"name":"","type":"address","internalType":"address"}],"stateMutability":"view"},{"type":"function","name":"renounceRole","inputs":[{"name":"role","type":"bytes32","internalType":"bytes32"},{"name":"account","type":"address","internalType":"address"}],"outputs":[],"stateMutability":"nonpayable"},{"type":"function","name":"revokeRole","inputs":[{"name":"role","type":"bytes32","internalType":"bytes32"},{"name":"account","type":"address","internalType":"address"}],"outputs":[],"stateMutability":"nonpayable"},{"type":"function","name":"supportsInterface","inputs":[{"name":"interfaceId","type":"bytes4","internalType":"bytes4"}],"outputs":[{"name":"","type":"bool","internalType":"bool"}],"stateMutability":"view"},{"type":"function","name":"telegram","inputs":[],"outputs":[{"name":"","type":"string","internalType":"string"}],"stateMutability":"view"},{"type":"function","name":"twitter","inputs":[],"outputs":[{"name":"","type":"string","internalType":"string"}],"stateMutability":"view"},{"type":"function","name":"updateLogoURI","inputs":[{"name":"logo","type":"string","internalType":"string"}],"outputs":[],"stateMutability":"nonpayable"},{"type":"function","name":"updateMetadata","inputs":[{"name":"site","type":"string","internalType":"string"},{"name":"desc","type":"string","internalType":"string"},{"name":"logo","type":"string","internalType":"string"}],"outputs":[],"stateMutability":"nonpayable"},{"type":"function","name":"updateSocialLinks","inputs":[{"name":"_telegram","type":"string","internalType":"string"},{"name":"_twitter","type":"string","internalType":"string"},{"name":"_discord","type":"string","internalType":"string"},{"name":"_github","type":"string","internalType":"string"}],"outputs":[],"stateMutability":"nonpayable"},{"type":"function","name":"website","inputs":[],"outputs":[{"name":"","type":"string","internalType":"string"}],"stateMutability":"view"},{"type":"event","name":"LogoURIUpdated","inputs":[{"name":"logo","type":"string","indexed":false,"internalType":"string"}],"anonymous":false},{"type":"event","name":"MetadataUpdated","inputs":[{"name":"logo","type":"string","indexed":false,"internalType":"string"},{"name":"website","type":"string","indexed":false,"internalType":"string"},{"name":"description","type":"string","indexed":false,"internalType":"string"}],"anonymous":false},{"type":"event","name":"RoleAdminChanged","inputs":[{"name":"role","type":"bytes32","indexed":true,"internalType":"bytes32"},{"name":"previousAdminRole","type":"bytes32","indexed":true,"internalType":"bytes32"},{"name":"newAdminRole","type":"bytes32","indexed":true,"internalType":"bytes32"}],"anonymous":false},{"type":"event","name":"RoleGranted","inputs":[{"name":"role","type":"bytes32","indexed":true,"internalType":"bytes32"},{"name":"account","type":"address","indexed":true,"internalType":"address"},{"name":"sender","type":"address","indexed":true,"internalType":"address"}],"anonymous":false},{"type":"event","name":"RoleRevoked","inputs":[{"name":"role","type":"bytes32","indexed":true,"internalType":"bytes32"},{"name":"account","type":"address","indexed":true,"internalType":"address"},{"name":"sender","type":"address","indexed":true,"internalType":"address"}],"anonymous":false},{"type":"event","name":"SocialLinksUpdated","inputs":[{"name":"telegram","type":"string","indexed":false,"internalType":"string"},{"name":"twitter","type":"string","indexed":false,"internalType":"string"},{"name":"discord","type":"string","indexed":false,"internalType":"string"},{"name":"github","type":"string","indexed":false,"internalType":"string"}],"anonymous":false}],"bytecode":{"object":"0x60803461015857601f61220438819003918201601f19168301916001600160401b0383118484101761015c5780849260209460405283398101031261015857516001600160a01b0381169081900361015857600180546001600160a01b031916919091179055335f9081525f5160206121e45f395f51905f52602052604090205460ff161561011b575b335f9081525f5160206121c45f395f51905f52602052604090205460ff16156100bc575b60405161203390816101718239f35b335f8181525f5160206121c45f395f51905f5260205260408120805460ff1916600117905581907fe02a0315b383857ac496e9d2b2546a699afaeb4e5e83a1fdef64376d0b74e5a5905f5160206121a45f395f51905f529080a46100ad565b335f8181525f5160206121e45f395f51905f5260205260408120805460ff1916600117905581905f5160206121a45f395f51905f528180a4610089565b5f80fd5b634e487b7160e01b5f52604160045260245ffdfe6080806040526004361015610012575f80fd5b5f3560e01c90816301ffc9a71461160557508063124d5ac0146114d157806319c1f93c146114aa578063248a9ca3146114845780632f2ff15d146113e757806336568abe1461136357806347ecb665146113485780635c8fa8cc14610e6357806363879c0914610ce25780636bb38b2814610cc75780637284e41614610cac57806391d1485414610c715780639bc2c27414610c565780639ddb700f146106eb578063a217fddf146106d1578063abfaeee0146106b6578063b4c96aeb146105ef578063beb0a416146105d4578063d547741f146105aa578063db2a45701461016d578063dd54753b146101455763e8bd71e11461010e575f80fd5b34610141575f3660031901126101415761013d610129611a2b565b604051918291602083526020830190611658565b0390f35b5f80fd5b34610141575f366003190112610141576001546040516001600160a01b039091168152602090f35b34610141576060366003190112610141576004356001600160401b0381116101415761019d903690600401611aad565b6024356001600160401b038111610141576101bc903690600401611aad565b9092906044356001600160401b038111610141576101de903690600401611aad565b9290936101e9611b0b565b6001600160401b0381116103fe576102026003546116a2565b601f811161055a575b50805f601f82116001146104e9575f916104de575b508160011b905f198360031b1c1916176003555b6001600160401b0383116103fe5761024d6004546116a2565b601f811161048e575b50825f601f821160011461041d575f91610412575b508360011b905f198560031b1c1916176004555b6001600160401b0384116103fe576102986002546116a2565b601f81116103ae575b505f601f8511600114610326575f516020611f5e5f395f51905f529692610316949286610308935f9161031b575b508760011b905f198960031b1c1916176002555b6102fa60405198899860608a5260608a0191611aeb565b918783036020890152611aeb565b918483036040860152611aeb565b0390a1005b90508801358a6102cf565b60025f9081525f516020611ebe5f395f51905f529190601f198716905b818110610396575092610308925f516020611f5e5f395f51905f529995928861031698961061037d575b5050600187811b016002556102e3565b8901355f1960038a901b60f8161c19169055898061036d565b9192602060018192868c013581550194019201610343565b60025f525f516020611ebe5f395f51905f52601f860160051c810191602087106103f4575b601f0160051c01905b8181106103e957506102a1565b5f81556001016103dc565b90915081906103d3565b634e487b7160e01b5f52604160045260245ffd5b90508601358761026b565b60045f9081525f516020611fbe5f395f51905f5292508590601f198216905b81811061047357501061045a575b5050600183811b0160045561027f565b8701355f19600386901b60f8161c19169055868061044a565b8a84013585556001909401936020938401938893500161043c565b60045f525f516020611fbe5f395f51905f52601f850160051c810191602086106104d4575b601f0160051c01905b8181106104c95750610256565b5f81556001016104bc565b90915081906104b3565b905082013587610220565b60035f9081525f516020611ede5f395f51905f5292508390601f198216905b81811061053f575010610526575b5050600181811b01600355610234565b8301355f19600384901b60f8161c191690558680610516565b86840135855560019094019360209384019386935001610508565b60035f525f516020611ede5f395f51905f52601f830160051c810191602084106105a0575b601f0160051c01905b818110610595575061020b565b5f8155600101610588565b909150819061057f565b34610141576105d26105bb3661167c565b906105cd6105c882611ada565b611bff565b611c41565b005b34610141575f3660031901126101415761013d6101296119a9565b34610141575f366003190112610141576106076117a1565b60e061013d6106146119a9565b6106a861061f611823565b61069a61062a6116fd565b61068c610635611927565b9161067e610641611a2b565b9561067061064d6118a5565b996106626040519e8f9e8f8181520190611658565b8d810360208f015290611658565b908b820360408d0152611658565b9089820360608b0152611658565b908782036080890152611658565b9085820360a0870152611658565b9083820360c0850152611658565b34610141575f3660031901126101415761013d610129611927565b34610141575f3660031901126101415760206040515f8152f35b34610141576080366003190112610141576004356001600160401b0381116101415761071b903690600401611aad565b906024356001600160401b0381116101415761073b903690600401611aad565b92906044356001600160401b0381116101415761075c903690600401611aad565b906064356001600160401b0381116101415761077c903690600401611aad565b929093610787611b0b565b6001600160401b0386116103fe576107a06005546116a2565b601f8111610c10575b50855f601f8211600114610b9e575f91610b93575b508660011b905f198860031b1c1916176005555b6001600160401b0388116103fe576107eb6006546116a2565b601f8111610b43575b50875f601f8211600114610ad2575f91610ac7575b508860011b905f198a60031b1c1916176006555b6001600160401b0382116103fe576108366007546116a2565b601f8111610a77575b50815f601f8211600114610a06575f916109fb575b508260011b905f198460031b1c1916176007555b6001600160401b0384116103fe576108816008546116a2565b601f81116109ab575b505f97601f851160011461091e57916108f78594926109059461031698975f516020611efe5f395f51905f529c5f91610913575b508760011b905f198960031b1c1916176008555b6108e96040519b8c9b60808d5260808d0191611aeb565b918a830360208c0152611aeb565b918783036040890152611aeb565b918483036060860152611aeb565b90508801358d6108be565b60085f9081525f516020611f7e5f395f51905f529990601f198716905b81811061099357509261090594925f516020611efe5f395f51905f529b6108f793896103169b9a99971061097a575b5050600187811b016008556108d2565b8901355f1960038a901b60f8161c191690558c8061096a565b888301358c556001909b019a6020928301920161093b565b60085f525f516020611f7e5f395f51905f52601f860160051c810191602087106109f1575b601f0160051c01905b8181106109e6575061088a565b5f81556001016109d9565b90915081906109d0565b905083013589610854565b60075f9081525f516020611f1e5f395f51905f5292508490601f198216905b818110610a5c575010610a43575b5050600182811b01600755610868565b8401355f19600385901b60f8161c191690558880610a33565b87840135855560019094019360209384019387935001610a25565b60075f525f516020611f1e5f395f51905f52601f840160051c81019160208510610abd575b601f0160051c01905b818110610ab2575061083f565b5f8155600101610aa5565b9091508190610a9c565b905081013589610809565b60065f9081525f516020611f9e5f395f51905f5292508a90601f198216905b818110610b28575010610b0f575b5050600188811b0160065561081d565b8201355f1960038b901b60f8161c191690558880610aff565b8584013585556001909401936020938401938d935001610af1565b60065f525f516020611f9e5f395f51905f52601f8a0160051c81019160208b10610b89575b601f0160051c01905b818110610b7e57506107f4565b5f8155600101610b71565b9091508190610b68565b9050870135896107be565b60055f9081525f516020611e9e5f395f51905f5292508890601f198216905b8b828210610bf657505010610bdd575b5050600186811b016005556107d2565b8801355f19600389901b60f8161c191690558880610bcd565b84013585556001909401936020938401938b935001610bbd565b60055f5260205f20601f880160051c81019160208910610c4c575b601f0160051c01905b818110610c4157506107a9565b5f8155600101610c34565b9091508190610c2b565b34610141575f3660031901126101415761013d6101296118a5565b3461014157610c7f3661167c565b905f525f60205260405f209060018060a01b03165f52602052602060ff60405f2054166040519015158152f35b34610141575f3660031901126101415761013d610129611823565b34610141575f3660031901126101415761013d6101296117a1565b34610141576020366003190112610141576004356001600160401b03811161014157610d12903690600401611aad565b90610d1b611b0b565b6001600160401b0382116103fe57610d346002546116a2565b601f8111610e13575b505f91601f8111600114610d9857805f516020611f3e5f395f51905f52935f91610d8d575b508160011b905f198360031b1c1916176002555b610316604051928392602084526020840191611aeb565b905082013584610d62565b60025f908152601f198216935f516020611ebe5f395f51905f52915b858110610dfb5750825f516020611f3e5f395f51905f529510610de2575b5050600181811b01600255610d76565b8301355f19600384901b60f8161c191690558380610dd2565b90916020600181928588013581550193019101610db4565b60025f525f516020611ebe5f395f51905f52601f840160051c81019160208510610e59575b601f0160051c01905b818110610e4e5750610d3d565b5f8155600101610e41565b9091508190610e38565b34610141575f366003190112610141576040517f7b226e616d65223a225553442065586368616e676520546f6b656e222c22737960208201527f6d626f6c223a225553447854222c22646563696d616c73223a31382c226c6f6760408201526637aaa924911d1160c91b60608201525f90600254610ee0816116a2565b906001811690811561132b57506001146112e6575b506c1116113bb2b139b4ba32911d1160991b82526003545f92610f17826116a2565b91600181169081156112c65750600114611280575b5050701116113232b9b1b934b83a34b7b7111d1160791b82526004545f92610f53826116a2565b9160018116908115611260575060011461121a575b50507811161139b7b1b4b0b639911d3d913a32b632b3b930b6911d1160391b82526005545f92610f97826116a2565b91600181169081156111fa57506001146111b4575b50506c1116113a3bb4ba3a32b9111d1160991b82526006545f92610fcf826116a2565b9160018116908115611194575060011461114e575b50506c1116113234b9b1b7b932111d1160991b82526007545f92611007826116a2565b916001811690811561112e57506001146110e8575b50506b11161133b4ba343ab1111d1160a11b82526008545f9261103e826116a2565b91600181169081156110c05750600114611076575b61013d836101296003828862227d7d60e81b815203601c198101845201826116da565b60085f908152919350905f516020611f7e5f395f51905f525b8482106110a9575050909101600c01906101296003611053565b60018160209254600c85870101520191019061108f565b61013d955084915060039261012994600c9260ff191683830152801515020101945050611053565b60075f90815292935090915f516020611f1e5f395f51905f525b83821061111757505001600d0190828061101c565b60018160209254600d858701015201910190611102565b9050600d93945060ff92919219168383015280151502010190828061101c565b60065f90815292935090915f516020611f9e5f395f51905f525b83821061117d57505001600d01908280610fe4565b60018160209254600d858701015201910190611168565b9050600d93945060ff929192191683830152801515020101908280610fe4565b60055f90815292935090915f516020611e9e5f395f51905f525b8382106111e357505001601901908280610fac565b6001816020925460198587010152019101906111ce565b9050601993945060ff929192191683830152801515020101908280610fac565b60045f90815292935090915f516020611fbe5f395f51905f525b83821061124957505001601101908280610f68565b600181602092546011858701015201910190611234565b9050601193945060ff929192191683830152801515020101908280610f68565b60035f90815292935090915f516020611ede5f395f51905f525b8382106112af57505001600d01908280610f2c565b60018160209254600d85870101520191019061129a565b9050600d93945060ff929192191683830152801515020101908280610f2c565b60025f908152919250905f516020611ebe5f395f51905f525b82821061131457505081016067019082610ef5565b6001816020925460678588010152019101906112ff565b9050606792935060ff191682840152801515028201019082610ef5565b34610141575f3660031901126101415761013d6101296116fd565b34610141576113713661167c565b336001600160a01b0382160361138a576105d291611c41565b60405162461bcd60e51b815260206004820152602f60248201527f416363657373436f6e74726f6c3a2063616e206f6e6c792072656e6f756e636560448201526e103937b632b9903337b91039b2b63360891b6064820152608490fd5b34610141576113f53661167c565b906114026105c882611ada565b5f818152602081815260408083206001600160a01b038616845290915290205460ff161561142c57005b5f818152602081815260408083206001600160a01b0395909516808452949091528120805460ff19166001179055339291907f2f8788117e7eff1d82e926ec794901d17c78024a50270940304540a733656f0d9080a4005b346101415760203660031901126101415760206114a2600435611ada565b604051908152f35b34610141575f3660031901126101415760206040515f516020611fde5f395f51905f528152f35b34610141575f36600319011261014157604051607b60f81b60208201527b089b985b59488e889554d108195e18da185b99d948151bdad95b888b60221b602182015270089cde5b589bdb088e889554d11e15088b607a1b603d8201527f226465736372697074696f6e223a2241206d756c74692d636861696e20737461604e8201527f626c65207574696c69747920746f6b656e206261636b65642062792054472047606e820152661c9bdd5c0b888b60ca1b608e8201526e08991958da5b585b1cc88e888d888b608a1b60958201527f226c6f676f555249223a2268747470733a2f2f796f7572646f6d61696e2e636f60a4820152773697b4b6b0b3b2b997bab9b23c3a2fb637b3b7973837339160411b60c4820152607d60f81b60dc82015260bd815261013d9061012960dd826116da565b34610141576020366003190112610141576004359063ffffffff60e01b821680920361014157602091637965db0b60e01b8114908115611647575b5015158152f35b6301ffc9a760e01b14905083611640565b805180835260209291819084018484015e5f828201840152601f01601f1916010190565b604090600319011261014157600435906024356001600160a01b03811681036101415790565b90600182811c921680156116d0575b60208310146116bc57565b634e487b7160e01b5f52602260045260245ffd5b91607f16916116b1565b601f909101601f19168101906001600160401b038211908210176103fe57604052565b604051905f8260055491611710836116a2565b80835292600181169081156117825750600114611736575b611734925003836116da565b565b5060055f90815290915f516020611e9e5f395f51905f525b81831061176657505090602061173492820101611728565b602091935080600191548385890101520191019091849261174e565b6020925061173494915060ff191682840152151560051b820101611728565b604051905f82600254916117b4836116a2565b808352926001811690811561178257506001146117d757611734925003836116da565b5060025f90815290915f516020611ebe5f395f51905f525b81831061180757505090602061173492820101611728565b60209193508060019154838589010152019101909184926117ef565b604051905f8260045491611836836116a2565b8083529260018116908115611782575060011461185957611734925003836116da565b5060045f90815290915f516020611fbe5f395f51905f525b81831061188957505090602061173492820101611728565b6020919350806001915483858901015201910190918492611871565b604051905f82600854916118b8836116a2565b808352926001811690811561178257506001146118db57611734925003836116da565b5060085f90815290915f516020611f7e5f395f51905f525b81831061190b57505090602061173492820101611728565b60209193508060019154838589010152019101909184926118f3565b604051905f826006549161193a836116a2565b8083529260018116908115611782575060011461195d57611734925003836116da565b5060065f90815290915f516020611f9e5f395f51905f525b81831061198d57505090602061173492820101611728565b6020919350806001915483858901015201910190918492611975565b604051905f82600354916119bc836116a2565b808352926001811690811561178257506001146119df57611734925003836116da565b5060035f90815290915f516020611ede5f395f51905f525b818310611a0f57505090602061173492820101611728565b60209193508060019154838589010152019101909184926119f7565b604051905f8260075491611a3e836116a2565b80835292600181169081156117825750600114611a6157611734925003836116da565b5060075f90815290915f516020611f1e5f395f51905f525b818310611a9157505090602061173492820101611728565b6020919350806001915483858901015201910190918492611a79565b9181601f84011215610141578235916001600160401b038311610141576020838186019501011161014157565b5f525f602052600160405f20015490565b908060209392818452848401375f828201840152601f01601f1916010190565b335f9081527f3eb9e3b7e7110efcd7b79817d72725b7ef58f2f15a26995bca2916239d424629602052604090205460ff1615611b4357565b611bfb6020611bdb6011611b5633611d01565b603784611b6f5f516020611fde5f395f51905f52611dfb565b60405196879476020b1b1b2b9b9a1b7b73a3937b61d1030b1b1b7bab73a1604d1b828701528051918291018587015e8401907001034b99036b4b9b9b4b733903937b6329607d1b84830152805192839101604883015e01015f838201520301601f1981018352826116da565b60405162461bcd60e51b8152602060048201529182916024830190611658565b0390fd5b5f8181526020818152604080832033845290915290205460ff1615611c215750565b6020611bdb6011611bfb93603784611b6f611c3b33611d01565b93611dfb565b5f818152602081815260408083206001600160a01b038616845290915290205460ff16611c6c575050565b5f818152602081815260408083206001600160a01b0395909516808452949091528120805460ff19169055339291907ff6391f5c32d9c69d2a47ea670b442974b53935d1edc7fd64eb21e047a839171b9080a4565b6001600160401b0381116103fe57601f01601f191660200190565b908151811015611ced570160200190565b634e487b7160e01b5f52603260045260245ffd5b611d0b602a611cc1565b90611d1960405192836116da565b602a8252611d27602a611cc1565b6020830190601f1901368237825115611ced5760309053815160011015611ced576078602183015360295b60018111611da65750611d625790565b606460405162461bcd60e51b815260206004820152602060248201527f537472696e67733a20686578206c656e67746820696e73756666696369656e746044820152fd5b90600f81166010811015611ced576f181899199a1a9b1b9c1cb0b131b232b360811b901a611dd48385611cdc565b5360041c908015611de7575f1901611d52565b634e487b7160e01b5f52601160045260245ffd5b611e056042611cc1565b90611e1360405192836116da565b60428252611e216042611cc1565b6020830190601f1901368237825115611ced5760309053815160011015611ced576078602183015360415b60018111611e5c5750611d625790565b90600f81166010811015611ced576f181899199a1a9b1b9c1cb0b131b232b360811b901a611e8a8385611cdc565b5360041c908015611de7575f1901611e4c56fe036b6384b5eca791c62761152d0c79bb0604c104a5fb6f4eb0703f3154bb3db0405787fa12a823e0f2b7631cc41b3ba8828b3321ca811111fa75cd3aa3bb5acec2575a0e9e593c00f959f8c92f12db2869c3395a3b0502d05e2516446f71f85b1639fb8e684b31e2c4647541fbc19339b4987ee16b48c60e904c9131aac7ea2da66cc928b5edb82af9bd49922954155ab7b0942694bea4ce44661d9a8736c68845ce412de85908f7632af95be2a35e63e22470cd4dc9ddda81bbffca05e2814f61b45807b5528344b8b2c26433a3aabead6c9dc6239e146e7ba7c812fded07d0f3f7a9fe364faab93b216da50a3214154f22a0a2b415b23a84c8169e8b636ee3f652222313e28459528d920b65115c16c04f3efc82aaedc97be59f3f377c0d3f8a35acfbc15ff81a39ae7d344fd709f28e8600b4aa8c65c6b64bfe7fe36bd19be02a0315b383857ac496e9d2b2546a699afaeb4e5e83a1fdef64376d0b74e5a5a26469706673582212200cc4feef051c68f068a2d35b01fe01f6fcd6ec0b3a764e785314271a28d66d9364736f6c634300081d00332f8788117e7eff1d82e926ec794901d17c78024a50270940304540a733656f0d3eb9e3b7e7110efcd7b79817d72725b7ef58f2f15a26995bca2916239d424629ad3228b676f7d3cd4284a5443f17f1962b36e491b30a40b2405849e597ba5fb5","linkReferences":{}},"methodIdentifiers":{"DEFAULT_ADMIN_ROLE()":"a217fddf","METADATA_ADMIN_ROLE()":"19c1f93c","description()":"7284e416","discord()":"e8bd71e1","getFullMetadata()":"b4c96aeb","getRoleAdmin(bytes32)":"248a9ca3","getTokenMetadata()":"124d5ac0","getWalletMetadata()":"5c8fa8cc","github()":"9bc2c274","grantRole(bytes32,address)":"2f2ff15d","hasRole(bytes32,address)":"91d14854","logoURI()":"6bb38b28","metadataTokenContract()":"dd54753b","renounceRole(bytes32,address)":"36568abe","revokeRole(bytes32,address)":"d547741f","supportsInterface(bytes4)":"01ffc9a7","telegram()":"47ecb665","twitter()":"abfaeee0","updateLogoURI(string)":"63879c09","updateMetadata(string,string,string)":"db2a4570","updateSocialLinks(string,string,string,string)":"9ddb700f","website()":"beb0a416"},"id":21}