{"abi":[{"type":"function","name":"balanceOf","inputs":[{"name":"","type":"address","internalType":"address"}],"outputs":[{"name":"","type":"uint256","internalType":"uint256"}],"stateMutability":"pure"},{"type":"function","name":"totalSupply","inputs":[],"outputs":[{"name":"","type":"uint256","internalType":"uint256"}],"stateMutability":"pure"},{"type":"function","name":"transfer","inputs":[{"name":"","type":"address","internalType":"address"},{"name":"","type":"uint256","internalType":"uint256"}],"outputs":[{"name":"","type":"bool","internalType":"bool"}],"stateMutability":"pure"},{"type":"function","name":"transferFrom","inputs":[{"name":"","type":"address","internalType":"address"},{"name":"","type":"address","internalType":"address"},{"name":"","type":"uint256","internalType":"uint256"}],"outputs":[{"name":"","type":"bool","internalType":"bool"}],"stateMutability":"pure"}],"bytecode":{"object":"0x6080806040523460155761011a908161001a8239f35b5f80fdfe60808060405260043610156011575f80fd5b5f3560e01c90816318160ddd1460a45750806323b872dd14608857806370a082311460685763a9059cbb146043575f80fd5b346064576040366003190112606457605860ba565b50602060405160018152f35b5f80fd5b346064576020366003190112606457607d60ba565b5060206040515f8152f35b346064576060366003190112606457609d60ba565b50605860cf565b346064575f366003190112606457805f60209252f35b600435906001600160a01b0382168203606457565b602435906001600160a01b038216820360645756fea26469706673582212202ccf82ef9ea74b0d9f5b3eafad97a61f4d2efea29da20a5f3872dccf571ce63164736f6c634300081d0033","linkReferences":{}},"methodIdentifiers":{"balanceOf(address)":"70a08231","totalSupply()":"18160ddd","transfer(address,uint256)":"a9059cbb","transferFrom(address,address,uint256)":"23b872dd"},"id":54}