{"abi":[{"type":"constructor","inputs":[{"name":"minDelay","type":"uint256","internalType":"uint256"},{"name":"proposers","type":"address[]","internalType":"address[]"},{"name":"executors","type":"address[]","internalType":"address[]"},{"name":"admin","type":"address","internalType":"address"}],"stateMutability":"nonpayable"},{"type":"function","name":"CANCELLER_ROLE","inputs":[],"outputs":[{"name":"","type":"bytes32","internalType":"bytes32"}],"stateMutability":"view"},{"type":"function","name":"DEFAULT_ADMIN_ROLE","inputs":[],"outputs":[{"name":"","type":"bytes32","internalType":"bytes32"}],"stateMutability":"view"},{"type":"function","name":"EXECUTOR_ROLE","inputs":[],"outputs":[{"name":"","type":"bytes32","internalType":"bytes32"}],"stateMutability":"view"},{"type":"function","name":"MAX_DELAY","inputs":[],"outputs":[{"name":"","type":"uint256","internalType":"uint256"}],"stateMutability":"view"},{"type":"function","name":"MIN_DELAY","inputs":[],"outputs":[{"name":"","type":"uint256","internalType":"uint256"}],"stateMutability":"view"},{"type":"function","name":"PROPOSER_ROLE","inputs":[],"outputs":[{"name":"","type":"bytes32","internalType":"bytes32"}],"stateMutability":"view"},{"type":"function","name":"cancel","inputs":[{"name":"id","type":"bytes32","internalType":"bytes32"}],"outputs":[],"stateMutability":"nonpayable"},{"type":"function","name":"execute","inputs":[{"name":"target","type":"address","internalType":"address"},{"name":"value","type":"uint256","internalType":"uint256"},{"name":"data","type":"bytes","internalType":"bytes"},{"name":"predecessor","type":"bytes32","internalType":"bytes32"},{"name":"salt","type":"bytes32","internalType":"bytes32"}],"outputs":[],"stateMutability":"payable"},{"type":"function","name":"getMinDelay","inputs":[],"outputs":[{"name":"","type":"uint256","internalType":"uint256"}],"stateMutability":"view"},{"type":"function","name":"getRoleAdmin","inputs":[{"name":"role","type":"bytes32","internalType":"bytes32"}],"outputs":[{"name":"","type":"bytes32","internalType":"bytes32"}],"stateMutability":"view"},{"type":"function","name":"getTimestamp","inputs":[{"name":"id","type":"bytes32","internalType":"bytes32"}],"outputs":[{"name":"","type":"uint256","internalType":"uint256"}],"stateMutability":"view"},{"type":"function","name":"grantRole","inputs":[{"name":"role","type":"bytes32","internalType":"bytes32"},{"name":"account","type":"address","internalType":"address"}],"outputs":[],"stateMutability":"nonpayable"},{"type":"function","name":"hasRole","inputs":[{"name":"role","type":"bytes32","internalType":"bytes32"},{"name":"account","type":"address","internalType":"address"}],"outputs":[{"name":"","type":"bool","internalType":"bool"}],"stateMutability":"view"},{"type":"function","name":"hashOperation","inputs":[{"name":"target","type":"address","internalType":"address"},{"name":"value","type":"uint256","internalType":"uint256"},{"name":"data","type":"bytes","internalType":"bytes"},{"name":"predecessor","type":"bytes32","internalType":"bytes32"},{"name":"salt","type":"bytes32","internalType":"bytes32"}],"outputs":[{"name":"","type":"bytes32","internalType":"bytes32"}],"stateMutability":"pure"},{"type":"function","name":"isOperation","inputs":[{"name":"id","type":"bytes32","internalType":"bytes32"}],"outputs":[{"name":"","type":"bool","internalType":"bool"}],"stateMutability":"view"},{"type":"function","name":"isOperationDone","inputs":[{"name":"id","type":"bytes32","internalType":"bytes32"}],"outputs":[{"name":"","type":"bool","internalType":"bool"}],"stateMutability":"view"},{"type":"function","name":"isOperationPending","inputs":[{"name":"id","type":"bytes32","internalType":"bytes32"}],"outputs":[{"name":"","type":"bool","internalType":"bool"}],"stateMutability":"view"},{"type":"function","name":"isOperationReady","inputs":[{"name":"id","type":"bytes32","internalType":"bytes32"}],"outputs":[{"name":"","type":"bool","internalType":"bool"}],"stateMutability":"view"},{"type":"function","name":"renounceRole","inputs":[{"name":"role","type":"bytes32","internalType":"bytes32"},{"name":"account","type":"address","internalType":"address"}],"outputs":[],"stateMutability":"nonpayable"},{"type":"function","name":"revokeRole","inputs":[{"name":"role","type":"bytes32","internalType":"bytes32"},{"name":"account","type":"address","internalType":"address"}],"outputs":[],"stateMutability":"nonpayable"},{"type":"function","name":"schedule","inputs":[{"name":"target","type":"address","internalType":"address"},{"name":"value","type":"uint256","internalType":"uint256"},{"name":"data","type":"bytes","internalType":"bytes"},{"name":"predecessor","type":"bytes32","internalType":"bytes32"},{"name":"salt","type":"bytes32","internalType":"bytes32"},{"name":"delay","type":"uint256","internalType":"uint256"}],"outputs":[],"stateMutability":"nonpayable"},{"type":"function","name":"supportsInterface","inputs":[{"name":"interfaceId","type":"bytes4","internalType":"bytes4"}],"outputs":[{"name":"","type":"bool","internalType":"bool"}],"stateMutability":"view"},{"type":"event","name":"CallExecuted","inputs":[{"name":"id","type":"bytes32","indexed":true,"internalType":"bytes32"},{"name":"index","type":"uint256","indexed":true,"internalType":"uint256"},{"name":"target","type":"address","indexed":false,"internalType":"address"},{"name":"value","type":"uint256","indexed":false,"internalType":"uint256"},{"name":"data","type":"bytes","indexed":false,"internalType":"bytes"}],"anonymous":false},{"type":"event","name":"CallScheduled","inputs":[{"name":"id","type":"bytes32","indexed":true,"internalType":"bytes32"},{"name":"index","type":"uint256","indexed":true,"internalType":"uint256"},{"name":"target","type":"address","indexed":false,"internalType":"address"},{"name":"value","type":"uint256","indexed":false,"internalType":"uint256"},{"name":"data","type":"bytes","indexed":false,"internalType":"bytes"},{"name":"predecessor","type":"bytes32","indexed":false,"internalType":"bytes32"},{"name":"delay","type":"uint256","indexed":false,"internalType":"uint256"}],"anonymous":false},{"type":"event","name":"Cancelled","inputs":[{"name":"id","type":"bytes32","indexed":true,"internalType":"bytes32"}],"anonymous":false},{"type":"event","name":"MinDelayChange","inputs":[{"name":"oldDuration","type":"uint256","indexed":false,"internalType":"uint256"},{"name":"newDuration","type":"uint256","indexed":false,"internalType":"uint256"}],"anonymous":false},{"type":"event","name":"RoleAdminChanged","inputs":[{"name":"role","type":"bytes32","indexed":true,"internalType":"bytes32"},{"name":"previousAdminRole","type":"bytes32","indexed":true,"internalType":"bytes32"},{"name":"newAdminRole","type":"bytes32","indexed":true,"internalType":"bytes32"}],"anonymous":false},{"type":"event","name":"RoleGranted","inputs":[{"name":"role","type":"bytes32","indexed":true,"internalType":"bytes32"},{"name":"account","type":"address","indexed":true,"internalType":"address"},{"name":"sender","type":"address","indexed":true,"internalType":"address"}],"anonymous":false},{"type":"event","name":"RoleRevoked","inputs":[{"name":"role","type":"bytes32","indexed":true,"internalType":"bytes32"},{"name":"account","type":"address","indexed":true,"internalType":"address"},{"name":"sender","type":"address","indexed":true,"internalType":"address"}],"anonymous":false}],"bytecode":{"object":"0x60806040523461040a57611666803803806100198161040e565b92833981019060808183031261040a57805160208201519092906001600160401b03811161040a578161004d91840161045b565b604083015190916001600160401b03821161040a5761007360609161007a93860161045b565b9301610447565b5f5160206116265f395f51905f525f81815260208190527fc3ad33e20b0c56a223ad5104fff154aa010f8715b9c981fd38fdc60a4d1a52fc8054908390559082905f5160206115865f395f51905f529080a45f5160206115e65f395f51905f525f81815260208190527f3412d5605ac6cd444957cedb533e5dacad6378b4bc819ebe3652188a665066d680545f5160206116265f395f51905f5291829055909290915f5160206115865f395f51905f529080a45f5160206116065f395f51905f525f81815260208190527fdae2aa361dfd1ca020a396615627d436107c35eff9fe7738a3512819782d706a80545f5160206116265f395f51905f5291829055909290915f5160206115865f395f51905f529080a46001600160a01b03168061033b575b505f5b815181101561024a576001906001600160a01b036101be82856104c5565b511660a083901b83900381165f9081525f5160206115665f395f51905f52602052604090205460ff16156101f4575b50016101a0565b60a083901b83900381165f9081525f5160206115665f395f51905f5260205260408120805460ff1916851790553391905f5160206115e65f395f51905f52905f5160206115465f395f51905f529080a45f6101ed565b50505f5b81518110156102f8576001906001600160a01b0361026c82856104c5565b511660a083901b83900381165f9081525f5160206115a65f395f51905f52602052604090205460ff16156102a2575b500161024e565b60a083901b83900381165f9081525f5160206115a65f395f51905f5260205260408120805460ff1916851790553391905f5160206116065f395f51905f52905f5160206115465f395f51905f529080a45f61029b565b7f11c24f4ead16507c69ac467fbd5e4eed5fb5c699626d2cc6d66421df253886d5604084806002558151905f82526020820152a160405161105890816104ee8239f35b5f8181525f5160206116465f395f51905f52602052604090205460ff16156103cc575b5f8181525f5160206115c65f395f51905f52602052604090205460ff1661019d575f8181525f5160206115c65f395f51905f5260205260408120805460ff191660011790553391905f5160206116265f395f51905f52905f5160206115465f395f51905f529080a45f61019d565b5f8181525f5160206116465f395f51905f5260205260408120805460ff19166001179055339082905f5160206115465f395f51905f528180a461035e565b5f80fd5b6040519190601f01601f191682016001600160401b0381118382101761043357604052565b634e487b7160e01b5f52604160045260245ffd5b51906001600160a01b038216820361040a57565b9080601f8301121561040a578151916001600160401b038311610433578260051b9060208061048b81850161040e565b80968152019282010192831161040a57602001905b8282106104ad5750505090565b602080916104ba84610447565b8152019101906104a0565b80518210156104d95760209160051b010190565b634e487b7160e01b5f52603260045260245ffdfe60806040526004361015610011575f80fd5b5f3560e01c806301d5062a1461091e57806301ffc9a7146108c957806307bd0265146108a2578063134008d31461064f57806313bc9f2014610631578063248a9ca3146106135780632ab0f529146105e85780632f2ff15d1461053d57806331d507501461051557806336568abe146104835780634125ff9014610466578063584b153e146104245780638065657f146103fd5780638f61f4f5146103d657806391d148541461038e5780639f81aed714610374578063a217fddf14610374578063b08e51c01461034d578063c4d252f514610190578063d45c443514610166578063d547741f1461012c5763f27a0c921461010b575f80fd5b34610128575f366003190112610128576020600254604051908152f35b5f80fd5b346101285760403660031901126101285761016460043561014b610b2d565b9061015f61015882610bff565b3390610cad565b610d75565b005b34610128576020366003190112610128576004355f526001602052602060405f2054604051908152f35b3461012857602036600319011261012857335f9081527fc3ad33e20b0c56a223ad5104fff154aa010f8715b9c981fd38fdc60a4d1a52fb60205260409020546004359060ff161561027c576101e481610c10565b1561021d57805f5260016020525f60408120557fbaa1eb22f2a492ba1a5fea61b8df4d27c6c8b5f3971e63bb58fa14ff72eedb705f80a2005b60405162461bcd60e51b815260206004820152603160248201527f54696d656c6f636b436f6e74726f6c6c65723a206f7065726174696f6e2063616044820152701b9b9bdd0818994818d85b98d95b1b1959607a1b6064820152608490fd5b61028533610e1a565b6044602061031560116102a45f5160206110035f395f51905f52610f00565b6037604051948592818085019976020b1b1b2b9b9a1b7b73a3937b61d1030b1b1b7bab73a1604d1b8b528051918291018587015e8401907001034b99036b4b9b9b4b733903937b6329607d1b84830152805192839101604883015e01015f838201520301601f198101835282610c21565b60405192839162461bcd60e51b8352602060048401525180918160248501528484015e5f828201840152601f01601f19168101030190fd5b34610128575f3660031901126101285760206040515f5160206110035f395f51905f528152f35b34610128575f3660031901126101285760206040515f8152f35b34610128576040366003190112610128576103a7610b2d565b6004355f525f60205260405f209060018060a01b03165f52602052602060ff60405f2054166040519015158152f35b34610128575f3660031901126101285760206040515f516020610fc35f395f51905f528152f35b3461012857602061041c61041036610b70565b94939093929192610c58565b604051908152f35b3461012857602036600319011261012857602060043561044381610c10565b9081610455575b506040519015158152f35b61045f9150610bde565b158261044a565b34610128575f36600319011261012857602060405162278d008152f35b346101285760403660031901126101285761049c610b2d565b336001600160a01b038216036104b85761016490600435610d75565b60405162461bcd60e51b815260206004820152602f60248201527f416363657373436f6e74726f6c3a2063616e206f6e6c792072656e6f756e636560448201526e103937b632b9903337b91039b2b63360891b6064820152608490fd5b34610128576020366003190112610128576020610533600435610c10565b6040519015158152f35b3461012857604036600319011261012857600435610559610b2d565b9061056661015882610bff565b5f818152602081815260408083206001600160a01b038616845290915290205460ff161561059057005b5f818152602081815260408083206001600160a01b0395909516808452949091528120805460ff19166001179055339291907f2f8788117e7eff1d82e926ec794901d17c78024a50270940304540a733656f0d9080a4005b346101285760203660031901126101285760206105336004355f526001602052600160405f20541490565b3461012857602036600319011261012857602061041c600435610bff565b34610128576020366003190112610128576020610533600435610bde565b61065836610b70565b5f80525f516020610fa35f395f51905f526020527f5ba6852781629bcdcd4bdaa6de76d786f1c64b16acdac474e55bebc0ea157951549195949293929160ff1615610858575b6106ac908685858589610c58565b94801590811561083b575b50156107e7576106ce6106c986610bde565b610cfb565b5f806040518585823780868101838152039084885af13d156107e2573d6106f481610d5a565b906107026040519283610c21565b81525f60203d92013e5b15610781575f936107607fc2617efa69bab66782fa219543714338489c4e9e178271560a91b82c3f612b5893879560405194859460018060a01b031685526020850152606060408501526060840191610bbe565b0390a361076f6106c982610bde565b5f526001602052600160405f20555f80f35b60405162461bcd60e51b815260206004820152603360248201527f54696d656c6f636b436f6e74726f6c6c65723a20756e6465726c79696e6720746044820152721c985b9cd858dd1a5bdb881c995d995c9d1959606a1b6064820152608490fd5b61070c565b60405162461bcd60e51b815260206004820152602660248201527f54696d656c6f636b436f6e74726f6c6c65723a206d697373696e6720646570656044820152656e64656e637960d01b6064820152608490fd5b61085291505f526001602052600160405f20541490565b866106b7565b335f9081525f516020610fa35f395f51905f52602052604090205460ff1661069e5761088333610e1a565b6044602061031560116102a45f516020610fe35f395f51905f52610f00565b34610128575f3660031901126101285760206040515f516020610fe35f395f51905f528152f35b346101285760203660031901126101285760043563ffffffff60e01b811680910361012857602090637965db0b60e01b811490811561090d57506040519015158152f35b6301ffc9a760e01b1490508261044a565b346101285760c0366003190112610128576004356001600160a01b03811690818103610128576024356044356001600160401b03811161012857610966903690600401610b43565b335f9081527f3412d5605ac6cd444957cedb533e5dacad6378b4bc819ebe3652188a665066d56020526040902054919460a4359491939290916064359160ff1615610b05576109bc908286898760843594610c58565b946109c686610c10565b610aa8576002548110610a5457804201804211610a40575f977f4cf4410cc57040e44862ef0f45f3dd5a5e02db8eb8add648d4b0e236f1d07dca96610a3092898b52600160205260408b20556040519687968752602087015260a0604087015260a0860191610bbe565b91606084015260808301520390a3005b634e487b7160e01b5f52601160045260245ffd5b60405162461bcd60e51b815260206004820152602660248201527f54696d656c6f636b436f6e74726f6c6c65723a20696e73756666696369656e746044820152652064656c617960d01b6064820152608490fd5b60405162461bcd60e51b815260206004820152602f60248201527f54696d656c6f636b436f6e74726f6c6c65723a206f7065726174696f6e20616c60448201526e1c9958591e481cd8da19591d5b1959608a1b6064820152608490fd5b610b0e33610e1a565b6044602061031560116102a45f516020610fc35f395f51905f52610f00565b602435906001600160a01b038216820361012857565b9181601f84011215610128578235916001600160401b038311610128576020838186019501011161012857565b60a0600319820112610128576004356001600160a01b0381168103610128579160243591604435906001600160401b03821161012857610bb291600401610b43565b90916064359060843590565b908060209392818452848401375f828201840152601f01601f1916010190565b5f52600160205260405f20548015159081610bf7575090565b905042101590565b5f525f602052600160405f20015490565b5f52600160205260405f2054151590565b601f909101601f19168101906001600160401b03821190821017610c4457604052565b634e487b7160e01b5f52604160045260245ffd5b94610c8e610ca794959293604051968795602087019960018060a01b03168a52604087015260a0606087015260c0860191610bbe565b91608084015260a083015203601f198101835282610c21565b51902090565b90815f525f60205260405f2060018060a01b0382165f5260205260ff60405f20541615610cd8575050565b602061031560116102a4610cf560449560018060a01b0316610e1a565b95610f00565b15610d0257565b60405162461bcd60e51b815260206004820152602a60248201527f54696d656c6f636b436f6e74726f6c6c65723a206f7065726174696f6e206973604482015269206e6f7420726561647960b01b6064820152608490fd5b6001600160401b038111610c4457601f01601f191660200190565b5f818152602081815260408083206001600160a01b038616845290915290205460ff16610da0575050565b5f818152602081815260408083206001600160a01b0395909516808452949091528120805460ff19169055339291907ff6391f5c32d9c69d2a47ea670b442974b53935d1edc7fd64eb21e047a839171b9080a4565b908151811015610e06570160200190565b634e487b7160e01b5f52603260045260245ffd5b610e24602a610d5a565b90610e326040519283610c21565b602a8252610e40602a610d5a565b6020830190601f1901368237825115610e065760309053815160011015610e06576078602183015360295b60018111610ebf5750610e7b5790565b606460405162461bcd60e51b815260206004820152602060248201527f537472696e67733a20686578206c656e67746820696e73756666696369656e746044820152fd5b90600f81166010811015610e06576f181899199a1a9b1b9c1cb0b131b232b360811b901a610eed8385610df5565b5360041c908015610a40575f1901610e6b565b610f0a6042610d5a565b90610f186040519283610c21565b60428252610f266042610d5a565b6020830190601f1901368237825115610e065760309053815160011015610e06576078602183015360415b60018111610f615750610e7b5790565b90600f81166010811015610e06576f181899199a1a9b1b9c1cb0b131b232b360811b901a610f8f8385610df5565b5360041c908015610a40575f1901610f5156fedae2aa361dfd1ca020a396615627d436107c35eff9fe7738a3512819782d7069b09aa5aeb3702cfd50b6b62bc4532604938f21248a27a1d5ca736082b6819cc1d8aa0f3194971a2a116679f7c2090f6939c8d4e01a2a8d7e41d55e5351469e63fd643c72710c63c0180259aba6b2d05451e3591a24e58b62239378085726f783a2646970667358221220d7b1e9053d2f36defbc354e4cac56147ad9010e63c3fbf11e1b4721a99be4bcd64736f6c634300081d00332f8788117e7eff1d82e926ec794901d17c78024a50270940304540a733656f0d3412d5605ac6cd444957cedb533e5dacad6378b4bc819ebe3652188a665066d5bd79b86ffe0ab8e8776151514217cd7cacd52c909f66475c3af44e129f0b00ffdae2aa361dfd1ca020a396615627d436107c35eff9fe7738a3512819782d7069c3ad33e20b0c56a223ad5104fff154aa010f8715b9c981fd38fdc60a4d1a52fbb09aa5aeb3702cfd50b6b62bc4532604938f21248a27a1d5ca736082b6819cc1d8aa0f3194971a2a116679f7c2090f6939c8d4e01a2a8d7e41d55e5351469e63fd643c72710c63c0180259aba6b2d05451e3591a24e58b62239378085726f783ad3228b676f7d3cd4284a5443f17f1962b36e491b30a40b2405849e597ba5fb5","linkReferences":{}},"methodIdentifiers":{"CANCELLER_ROLE()":"b08e51c0","DEFAULT_ADMIN_ROLE()":"a217fddf","EXECUTOR_ROLE()":"07bd0265","MAX_DELAY()":"4125ff90","MIN_DELAY()":"9f81aed7","PROPOSER_ROLE()":"8f61f4f5","cancel(bytes32)":"c4d252f5","execute(address,uint256,bytes,bytes32,bytes32)":"134008d3","getMinDelay()":"f27a0c92","getRoleAdmin(bytes32)":"248a9ca3","getTimestamp(bytes32)":"d45c4435","grantRole(bytes32,address)":"2f2ff15d","hasRole(bytes32,address)":"91d14854","hashOperation(address,uint256,bytes,bytes32,bytes32)":"8065657f","isOperation(bytes32)":"31d50750","isOperationDone(bytes32)":"2ab0f529","isOperationPending(bytes32)":"584b153e","isOperationReady(bytes32)":"13bc9f20","renounceRole(bytes32,address)":"36568abe","revokeRole(bytes32,address)":"d547741f","schedule(address,uint256,bytes,bytes32,bytes32,uint256)":"01d5062a","supportsInterface(bytes4)":"01ffc9a7"},"id":5}