{"abi":[{"type":"constructor","inputs":[{"name":"_admin","type":"address","internalType":"address"}],"stateMutability":"nonpayable"},{"type":"function","name":"addFeeTier","inputs":[{"name":"_minAmount","type":"uint256","internalType":"uint256"},{"name":"_maxAmount","type":"uint256","internalType":"uint256"},{"name":"_feePercent","type":"uint256","internalType":"uint256"}],"outputs":[],"stateMutability":"nonpayable"},{"type":"function","name":"addFeeTierForTesting","inputs":[{"name":"_minAmount","type":"uint256","internalType":"uint256"},{"name":"_maxAmount","type":"uint256","internalType":"uint256"},{"name":"_feePercent","type":"uint256","internalType":"uint256"}],"outputs":[],"stateMutability":"nonpayable"},{"type":"function","name":"admin","inputs":[],"outputs":[{"name":"","type":"address","internalType":"address"}],"stateMutability":"view"},{"type":"function","name":"dynamicFeesEnabled","inputs":[],"outputs":[{"name":"","type":"bool","internalType":"bool"}],"stateMutability":"view"},{"type":"function","name":"feeTiers","inputs":[{"name":"","type":"uint256","internalType":"uint256"}],"outputs":[{"name":"minAmount","type":"uint256","internalType":"uint256"},{"name":"maxAmount","type":"uint256","internalType":"uint256"},{"name":"feePercent","type":"uint256","internalType":"uint256"}],"stateMutability":"view"},{"type":"function","name":"getFeeTiers","inputs":[],"outputs":[{"name":"","type":"tuple[]","internalType":"struct FeeTier[]","components":[{"name":"minAmount","type":"uint256","internalType":"uint256"},{"name":"maxAmount","type":"uint256","internalType":"uint256"},{"name":"feePercent","type":"uint256","internalType":"uint256"}]}],"stateMutability":"view"},{"type":"function","name":"isDynamicFeesEnabled","inputs":[],"outputs":[{"name":"","type":"bool","internalType":"bool"}],"stateMutability":"view"},{"type":"function","name":"removeFeeTier","inputs":[{"name":"index","type":"uint256","internalType":"uint256"}],"outputs":[],"stateMutability":"nonpayable"},{"type":"function","name":"removeFeeTierForTesting","inputs":[{"name":"index","type":"uint256","internalType":"uint256"}],"outputs":[],"stateMutability":"nonpayable"},{"type":"function","name":"toggleDynamicFees","inputs":[],"outputs":[],"stateMutability":"nonpayable"},{"type":"function","name":"toggleDynamicFeesForTesting","inputs":[],"outputs":[],"stateMutability":"nonpayable"},{"type":"event","name":"DynamicFeesToggled","inputs":[{"name":"enabled","type":"bool","indexed":false,"internalType":"bool"}],"anonymous":false},{"type":"event","name":"FeeTierAdded","inputs":[{"name":"minAmount","type":"uint256","indexed":false,"internalType":"uint256"},{"name":"maxAmount","type":"uint256","indexed":false,"internalType":"uint256"},{"name":"feePercent","type":"uint256","indexed":false,"internalType":"uint256"}],"anonymous":false},{"type":"event","name":"FeeTierRemoved","inputs":[{"name":"index","type":"uint256","indexed":false,"internalType":"uint256"}],"anonymous":false}],"bytecode":{"object":"0x60803460b357601f61076b38819003918201601f19168301916001600160401b0383118484101760b75780849260209460405283398101031260b357516001600160a01b0381169081900360b35760ff19600254166002558015607e575f80546001600160a01b03191691909117905560405161069f90816100cc8239f35b60405162461bcd60e51b815260206004820152600d60248201526c24b73b30b634b21030b236b4b760991b6044820152606490fd5b5f80fd5b634e487b7160e01b5f52604160045260245ffdfe6080806040526004361015610012575f80fd5b5f3560e01c90816309bbf00b1461032057508063230ed44a146102d957806342b53e5f146102a9578063474043881461027d5780634de4421e1461026657806358a3a1c31461023b57806399a19a1414610223578063b1edb51214610205578063c9211ba6146101e3578063e9a4d24f146100c05763f851a44014610095575f80fd5b346100bc575f3660031901126100bc575f546040516001600160a01b039091168152602090f35b5f80fd5b346100bc575f3660031901126100bc576001546001600160401b0381116101cf5760405190600581901b603f01601f191682016001600160401b038111838210176101cf5760405280825260015f9081526020830191907fb10e2d527612073b26eecdfd717e6a320cf44b4afac2b0732d9fcbe2b7fa0cf6835b83831061019c578486604051918291602083019060208452518091526040830191905f5b81811061016c575050500390f35b9193509160206060600192604087518051835284810151858401520151604082015201940191019184939261015e565b600360206001926101ab61053e565b8554815284860154838201526002860154604082015281520192019201919061013a565b634e487b7160e01b5f52604160045260245ffd5b346100bc575f3660031901126100bc57602060ff600254166040519015158152f35b346100bc5760203660031901126100bc576102216004356103d8565b005b346100bc575f3660031901126100bc576102216104fc565b346100bc5761022161024c36610385565b9161026160018060a01b035f5416331461039f565b61055d565b346100bc5761022161027736610385565b9161055d565b346100bc575f3660031901126100bc576102a160018060a01b035f5416331461039f565b6102216104fc565b346100bc5760203660031901126100bc576102ce60018060a01b035f5416331461039f565b6102216004356103d8565b346100bc5760203660031901126100bc576004356001548110156100bc576103009061033f565b50805461031c600260018401549301546040519384938461036f565b0390f35b346100bc575f3660031901126100bc5760209060ff6002541615158152f35b60015481101561035b5760015f52600360205f20910201905f90565b634e487b7160e01b5f52603260045260245ffd5b6040919493926060820195825260208201520152565b60609060031901126100bc57600435906024359060443590565b156103a657565b60405162461bcd60e51b815260206004820152600a60248201526927b7363c9030b236b4b760b11b6044820152606490fd5b600154808210156104c7575f1981019081116104b3576103f79061033f565b506104018261033f565b91909161046e57808203610495575b50506001548015610481575f1901906104288261033f565b91909161046e577f2b4584016031d9a0d1fc722a5f384f606370058bfcc1354c24264dbd139d67da925f60028482602096558260018201550155600155604051908152a1565b634e487b7160e01b5f525f60045260245ffd5b634e487b7160e01b5f52603160045260245ffd5b60028181925484556001810154600185015501549101555f80610410565b634e487b7160e01b5f52601160045260245ffd5b60405162461bcd60e51b815260206004820152600d60248201526c092dcecc2d8d2c840d2dcc8caf609b1b6044820152606490fd5b7f98645470aff75851a3de50bed5de905279f69b50247f600a9c8a2343b6efb08c602060025460ff8082161516809160ff1916176002556040519015158152a1565b60405190606082016001600160401b038111838210176101cf57604052565b8181101561062b576103e883116105f75761057661053e565b9281845260208401908382526040850194818652600154600160401b8110156101cf578060016105a9920160015561033f565b91909161046e577f7434b2ba108c2d5390fa8fd1246e89fb9b211e8aae41878e8685cd7f5ff99a80966105f294600292518455516001840155519101556040519384938461036f565b0390a1565b60405162461bcd60e51b815260206004820152600c60248201526b08ccaca40e8dede40d0d2ced60a31b6044820152606490fd5b60405162461bcd60e51b8152602060048201526016602482015275496e76616c69642066656520746965722072616e676560501b6044820152606490fdfea264697066735822122053de4c2df2098df134b8000782f031f2f0d794f8cc40167b8b587956fb95c69064736f6c634300081d0033","linkReferences":{}},"methodIdentifiers":{"addFeeTier(uint256,uint256,uint256)":"58a3a1c3","addFeeTierForTesting(uint256,uint256,uint256)":"4de4421e","admin()":"f851a440","dynamicFeesEnabled()":"09bbf00b","feeTiers(uint256)":"230ed44a","getFeeTiers()":"e9a4d24f","isDynamicFeesEnabled()":"c9211ba6","removeFeeTier(uint256)":"42b53e5f","removeFeeTierForTesting(uint256)":"b1edb512","toggleDynamicFees()":"47404388","toggleDynamicFeesForTesting()":"99a19a14"},"id":3}