{"abi":[{"type":"constructor","inputs":[{"name":"_admin","type":"address","internalType":"address"}],"stateMutability":"nonpayable"},{"type":"function","name":"admin","inputs":[],"outputs":[{"name":"","type":"address","internalType":"address"}],"stateMutability":"view"},{"type":"function","name":"checkFlashLoan","inputs":[{"name":"account","type":"address","internalType":"address"}],"outputs":[{"name":"","type":"bool","internalType":"bool"}],"stateMutability":"view"},{"type":"function","name":"checkFlashLoanForTesting","inputs":[{"name":"account","type":"address","internalType":"address"}],"outputs":[{"name":"","type":"bool","internalType":"bool"}],"stateMutability":"view"},{"type":"function","name":"checkMinAmount","inputs":[{"name":"amount","type":"uint256","internalType":"uint256"}],"outputs":[{"name":"","type":"bool","internalType":"bool"}],"stateMutability":"view"},{"type":"function","name":"checkRateLimit","inputs":[{"name":"account","type":"address","internalType":"address"}],"outputs":[{"name":"","type":"bool","internalType":"bool"}],"stateMutability":"view"},{"type":"function","name":"getLastTransferBlock","inputs":[{"name":"account","type":"address","internalType":"address"}],"outputs":[{"name":"","type":"uint256","internalType":"uint256"}],"stateMutability":"view"},{"type":"function","name":"getLastTransferTime","inputs":[{"name":"account","type":"address","internalType":"address"}],"outputs":[{"name":"","type":"uint256","internalType":"uint256"}],"stateMutability":"view"},{"type":"function","name":"getMinTransferAmount","inputs":[],"outputs":[{"name":"","type":"uint256","internalType":"uint256"}],"stateMutability":"view"},{"type":"function","name":"getTransferCooldown","inputs":[],"outputs":[{"name":"","type":"uint256","internalType":"uint256"}],"stateMutability":"view"},{"type":"function","name":"isRateLimitingEnabled","inputs":[],"outputs":[{"name":"","type":"bool","internalType":"bool"}],"stateMutability":"view"},{"type":"function","name":"lastTransferBlock","inputs":[{"name":"","type":"address","internalType":"address"}],"outputs":[{"name":"","type":"uint256","internalType":"uint256"}],"stateMutability":"view"},{"type":"function","name":"lastTransferTime","inputs":[{"name":"","type":"address","internalType":"address"}],"outputs":[{"name":"","type":"uint256","internalType":"uint256"}],"stateMutability":"view"},{"type":"function","name":"minTransferAmount","inputs":[],"outputs":[{"name":"","type":"uint256","internalType":"uint256"}],"stateMutability":"view"},{"type":"function","name":"rateLimitingEnabled","inputs":[],"outputs":[{"name":"","type":"bool","internalType":"bool"}],"stateMutability":"view"},{"type":"function","name":"setMinTransferAmount","inputs":[{"name":"newMinAmount","type":"uint256","internalType":"uint256"}],"outputs":[],"stateMutability":"nonpayable"},{"type":"function","name":"setMinTransferAmountForTesting","inputs":[{"name":"newMinAmount","type":"uint256","internalType":"uint256"}],"outputs":[],"stateMutability":"nonpayable"},{"type":"function","name":"setTransferCooldown","inputs":[{"name":"newCooldown","type":"uint256","internalType":"uint256"}],"outputs":[],"stateMutability":"nonpayable"},{"type":"function","name":"setTransferCooldownForTesting","inputs":[{"name":"newCooldown","type":"uint256","internalType":"uint256"}],"outputs":[],"stateMutability":"nonpayable"},{"type":"function","name":"toggleRateLimiting","inputs":[],"outputs":[],"stateMutability":"nonpayable"},{"type":"function","name":"toggleRateLimitingForTesting","inputs":[],"outputs":[],"stateMutability":"nonpayable"},{"type":"function","name":"transferCooldown","inputs":[],"outputs":[{"name":"","type":"uint256","internalType":"uint256"}],"stateMutability":"view"},{"type":"function","name":"updateLastTransferBlock","inputs":[{"name":"account","type":"address","internalType":"address"}],"outputs":[],"stateMutability":"nonpayable"},{"type":"function","name":"updateLastTransferTime","inputs":[{"name":"account","type":"address","internalType":"address"}],"outputs":[],"stateMutability":"nonpayable"},{"type":"event","name":"MinTransferAmountUpdated","inputs":[{"name":"newMinAmount","type":"uint256","indexed":false,"internalType":"uint256"}],"anonymous":false},{"type":"event","name":"RateLimitingToggled","inputs":[{"name":"enabled","type":"bool","indexed":false,"internalType":"bool"}],"anonymous":false},{"type":"event","name":"TransferCooldownUpdated","inputs":[{"name":"newCooldown","type":"uint256","indexed":false,"internalType":"uint256"}],"anonymous":false}],"bytecode":{"object":"0x60803460b657601f61078638819003918201601f19168301916001600160401b0383118484101760ba5780849260209460405283398101031260b657516001600160a01b0381169081900360b6575f54603c600155670de0b6b3a764000060025581156081576001600160a81b031916175f556040516106b790816100cf8239f35b60405162461bcd60e51b815260206004820152600d60248201526c24b73b30b634b21030b236b4b760991b6044820152606490fd5b5f80fd5b634e487b7160e01b5f52604160045260245ffdfe60806040526004361015610011575f80fd5b5f3560e01c8062a5317c146103f45780630d2d8a311461028c5780631555acae146103b55780632f359004146102e45780634dbb15e414610389578063688414311461024c57806368f162931461022f5780636934535e146103505780637d6a1d4a14610320578063804af83a1461030857806384409670146102e45780638712523e1461019557806387410ac5146102c85780638df667dc1461028c5780638e5ae8ec14610269578063913a4bc51461024c57806398fb0bb01461022f578063a31c95e214610201578063b92e6396146101d1578063dd6c133514610195578063f851a4401461016e578063f925f41c146101505763fe629fb214610115575f80fd5b3461014c57602036600319011261014c576004356001600160a01b0381169081900361014c575f5260036020524260405f20555f80f35b5f80fd5b3461014c57602036600319011261014c5761016c6004356105bc565b005b3461014c575f36600319011261014c575f546040516001600160a01b039091168152602090f35b3461014c57602036600319011261014c576004356001600160a01b0381169081900361014c575f526004602052602060405f2054604051908152f35b3461014c57602036600319011261014c576101f660018060a01b035f5416331461042b565b61016c6004356105bc565b3461014c57602036600319011261014c576004356001600160a01b0381160361014c57602060405160018152f35b3461014c575f36600319011261014c576020600154604051908152f35b3461014c575f36600319011261014c576020600254604051908152f35b3461014c57602036600319011261014c5760206002546004351015604051908152f35b3461014c57602036600319011261014c576004356001600160a01b0381169081900361014c575f526003602052602060405f2054604051908152f35b3461014c57602036600319011261014c5761016c600435610507565b3461014c575f36600319011261014c57602060ff5f5460a01c166040519015158152f35b3461014c575f36600319011261014c5761016c610464565b3461014c57602036600319011261014c5761034560018060a01b035f5416331461042b565b61016c600435610507565b3461014c57602036600319011261014c576004356001600160a01b038116810361014c5761037f6020916104b7565b6040519015158152f35b3461014c575f36600319011261014c576103ad60018060a01b035f5416331461042b565b61016c610464565b3461014c57602036600319011261014c576004356001600160a01b0381169081900361014c575f526004602052602060405f2054604051904314158152f35b3461014c57602036600319011261014c576004356001600160a01b0381169081900361014c575f5260046020524360405f20555f80f35b1561043257565b60405162461bcd60e51b815260206004820152600a60248201526927b7363c9030b236b4b760b11b6044820152606490fd5b7ff6348546fb9b3c4fdd69f4b06a9f992fa96e74648f0b89b69778985121944c9360205f5460ff60a01b60ff8260a01c161560a01b169060ff60a01b191617805f5560ff6040519160a01c1615158152a1565b60ff5f5460a01c1615610501576001600160a01b03165f9081526003602052604090205460015481019081106104ed5742101590565b634e487b7160e01b5f52601160045260245ffd5b50600190565b610e10811161058357603c8110610549576020817fbdeb5b148682195e793ea827403b84cb7379e9b84e1659c8d1a292caa130c8ce92600155604051908152a1565b60405162461bcd60e51b815260206004820152601260248201527110dbdbdb191bdddb881d1bdbc81cda1bdc9d60721b6044820152606490fd5b60405162461bcd60e51b8152602060048201526011602482015270436f6f6c646f776e20746f6f206c6f6e6760781b6044820152606490fd5b801561063e57683635c9adc5dea000008111610603576020817f0a01011e33954268bca01b8f217e146211743bcccf0db3b9799ccc5f89740f1492600255604051908152a1565b60405162461bcd60e51b815260206004820152601360248201527209ad2dc40c2dadeeadce840e8dede40d0d2ced606b1b6044820152606490fd5b60405162461bcd60e51b815260206004820152601b60248201527a4d696e20616d6f756e74206d75737420626520706f73697469766560281b6044820152606490fdfea26469706673582212201f54222a519dce7b254be52c56095716ccf62b27c5aa43b7049cc819786d03f864736f6c634300081d0033","linkReferences":{}},"methodIdentifiers":{"admin()":"f851a440","checkFlashLoan(address)":"1555acae","checkFlashLoanForTesting(address)":"a31c95e2","checkMinAmount(uint256)":"8e5ae8ec","checkRateLimit(address)":"6934535e","getLastTransferBlock(address)":"dd6c1335","getLastTransferTime(address)":"8df667dc","getMinTransferAmount()":"913a4bc5","getTransferCooldown()":"98fb0bb0","isRateLimitingEnabled()":"2f359004","lastTransferBlock(address)":"8712523e","lastTransferTime(address)":"0d2d8a31","minTransferAmount()":"68841431","rateLimitingEnabled()":"84409670","setMinTransferAmount(uint256)":"b92e6396","setMinTransferAmountForTesting(uint256)":"f925f41c","setTransferCooldown(uint256)":"7d6a1d4a","setTransferCooldownForTesting(uint256)":"87410ac5","toggleRateLimiting()":"4dbb15e4","toggleRateLimitingForTesting()":"804af83a","transferCooldown()":"68f16293","updateLastTransferBlock(address)":"00a5317c","updateLastTransferTime(address)":"fe629fb2"},"id":17}