{"abi":[{"type":"function","name":"add","inputs":[{"name":"value","type":"uint256","internalType":"uint256"}],"outputs":[{"name":"","type":"uint256","internalType":"uint256"}],"stateMutability":"nonpayable"},{"type":"function","name":"current","inputs":[],"outputs":[{"name":"","type":"uint256","internalType":"uint256"}],"stateMutability":"view"},{"type":"function","name":"decrement","inputs":[],"outputs":[{"name":"","type":"uint256","internalType":"uint256"}],"stateMutability":"nonpayable"},{"type":"function","name":"increment","inputs":[],"outputs":[{"name":"","type":"uint256","internalType":"uint256"}],"stateMutability":"nonpayable"},{"type":"function","name":"reset","inputs":[],"outputs":[],"stateMutability":"nonpayable"},{"type":"function","name":"set","inputs":[{"name":"value","type":"uint256","internalType":"uint256"}],"outputs":[],"stateMutability":"nonpayable"},{"type":"function","name":"subtract","inputs":[{"name":"value","type":"uint256","internalType":"uint256"}],"outputs":[{"name":"","type":"uint256","internalType":"uint256"}],"stateMutability":"nonpayable"}],"bytecode":{"object":"0x60808060405234601557610299908161001a8239f35b5f80fdfe6080806040526004361015610012575f80fd5b5f3560e01c9081631003e2d2146101dc575080631dc05f17146101395780632baeceb71461011557806360fe47b1146100d25780639fa6a6e3146100b6578063d09de08a146100945763d826f88f14610069575f80fd5b34610090575f366003190112610090575b5f541561008e57610089610211565b61007a565b005b5f80fd5b34610090575f36600319011261009057602060015f5401805f55604051908152f35b34610090575f3660031901126100905760205f54604051908152f35b34610090576020366003190112610090576004355b5f54156100fb576100f6610211565b6100e7565b5f5b81811061010657005b600190815f54015f55016100fd565b34610090575f3660031901126100905761012d610211565b60205f54604051908152f35b3461009057602036600319011261009057600435805f541061017b575f5b81811061016a5760205f54604051908152f35b600190610175610211565b01610157565b60405162461bcd60e51b815260206004820152603360248201527f436f756e7465723a207375627472616374696f6e20776f756c6420726573756c6044820152727420696e206e656761746976652076616c756560681b6064820152608490fd5b34610090576020366003190112610090576004355f5b818110610202576020835f548152f35b600190815f54015f55016101f2565b5f548015610220575f19015f55565b60405162461bcd60e51b815260206004820152601b60248201527a436f756e7465723a2064656372656d656e74206f766572666c6f7760281b6044820152606490fdfea26469706673582212209ba0dcacad532cac0168acbc7aa012048333fc0ba1b1a11b8ffb0f8857cca19864736f6c634300081d0033","linkReferences":{}},"methodIdentifiers":{"add(uint256)":"1003e2d2","current()":"9fa6a6e3","decrement()":"2baeceb7","increment()":"d09de08a","reset()":"d826f88f","set(uint256)":"60fe47b1","subtract(uint256)":"1dc05f17"},"id":26}