{"abi":[{"type":"constructor","inputs":[{"name":"_tokenContract","type":"address","internalType":"address"}],"stateMutability":"nonpayable"},{"type":"function","name":"BLACKLIST_MANAGER_ROLE","inputs":[],"outputs":[{"name":"","type":"bytes32","internalType":"bytes32"}],"stateMutability":"view"},{"type":"function","name":"BURNER_ROLE","inputs":[],"outputs":[{"name":"","type":"bytes32","internalType":"bytes32"}],"stateMutability":"view"},{"type":"function","name":"DEFAULT_ADMIN_ROLE","inputs":[],"outputs":[{"name":"","type":"bytes32","internalType":"bytes32"}],"stateMutability":"view"},{"type":"function","name":"EMERGENCY_ROLE","inputs":[],"outputs":[{"name":"","type":"bytes32","internalType":"bytes32"}],"stateMutability":"view"},{"type":"function","name":"FEE_MANAGER_ROLE","inputs":[],"outputs":[{"name":"","type":"bytes32","internalType":"bytes32"}],"stateMutability":"view"},{"type":"function","name":"GOVERNANCE_MANAGER_ROLE","inputs":[],"outputs":[{"name":"","type":"bytes32","internalType":"bytes32"}],"stateMutability":"view"},{"type":"function","name":"METADATA_MANAGER_ROLE","inputs":[],"outputs":[{"name":"","type":"bytes32","internalType":"bytes32"}],"stateMutability":"view"},{"type":"function","name":"MINTER_ROLE","inputs":[],"outputs":[{"name":"","type":"bytes32","internalType":"bytes32"}],"stateMutability":"view"},{"type":"function","name":"OWNER_ROLE","inputs":[],"outputs":[{"name":"","type":"bytes32","internalType":"bytes32"}],"stateMutability":"view"},{"type":"function","name":"PAUSER_ROLE","inputs":[],"outputs":[{"name":"","type":"bytes32","internalType":"bytes32"}],"stateMutability":"view"},{"type":"function","name":"SECURITY_MANAGER_ROLE","inputs":[],"outputs":[{"name":"","type":"bytes32","internalType":"bytes32"}],"stateMutability":"view"},{"type":"function","name":"STABLECOIN_MANAGER_ROLE","inputs":[],"outputs":[{"name":"","type":"bytes32","internalType":"bytes32"}],"stateMutability":"view"},{"type":"function","name":"VESTING_MANAGER_ROLE","inputs":[],"outputs":[{"name":"","type":"bytes32","internalType":"bytes32"}],"stateMutability":"view"},{"type":"function","name":"getAccountRoles","inputs":[{"name":"account","type":"address","internalType":"address"}],"outputs":[{"name":"","type":"bytes32[]","internalType":"bytes32[]"}],"stateMutability":"view"},{"type":"function","name":"getRoleAdmin","inputs":[{"name":"role","type":"bytes32","internalType":"bytes32"}],"outputs":[{"name":"","type":"bytes32","internalType":"bytes32"}],"stateMutability":"view"},{"type":"function","name":"getRoleMembers","inputs":[{"name":"role","type":"bytes32","internalType":"bytes32"}],"outputs":[{"name":"","type":"address[]","internalType":"address[]"}],"stateMutability":"pure"},{"type":"function","name":"grantMultipleRoles","inputs":[{"name":"roles","type":"bytes32[]","internalType":"bytes32[]"},{"name":"account","type":"address","internalType":"address"}],"outputs":[],"stateMutability":"nonpayable"},{"type":"function","name":"grantMultipleRolesForTesting","inputs":[{"name":"roles","type":"bytes32[]","internalType":"bytes32[]"},{"name":"account","type":"address","internalType":"address"}],"outputs":[],"stateMutability":"nonpayable"},{"type":"function","name":"grantRole","inputs":[{"name":"role","type":"bytes32","internalType":"bytes32"},{"name":"account","type":"address","internalType":"address"}],"outputs":[],"stateMutability":"nonpayable"},{"type":"function","name":"grantRoleForTesting","inputs":[{"name":"role","type":"bytes32","internalType":"bytes32"},{"name":"account","type":"address","internalType":"address"}],"outputs":[],"stateMutability":"nonpayable"},{"type":"function","name":"hasAllRoles","inputs":[{"name":"account","type":"address","internalType":"address"},{"name":"roles","type":"bytes32[]","internalType":"bytes32[]"}],"outputs":[{"name":"","type":"bool","internalType":"bool"}],"stateMutability":"view"},{"type":"function","name":"hasAnyRole","inputs":[{"name":"account","type":"address","internalType":"address"},{"name":"roles","type":"bytes32[]","internalType":"bytes32[]"}],"outputs":[{"name":"","type":"bool","internalType":"bool"}],"stateMutability":"view"},{"type":"function","name":"hasRole","inputs":[{"name":"role","type":"bytes32","internalType":"bytes32"},{"name":"account","type":"address","internalType":"address"}],"outputs":[{"name":"","type":"bool","internalType":"bool"}],"stateMutability":"view"},{"type":"function","name":"isBlacklistManager","inputs":[{"name":"account","type":"address","internalType":"address"}],"outputs":[{"name":"","type":"bool","internalType":"bool"}],"stateMutability":"view"},{"type":"function","name":"isBurner","inputs":[{"name":"account","type":"address","internalType":"address"}],"outputs":[{"name":"","type":"bool","internalType":"bool"}],"stateMutability":"view"},{"type":"function","name":"isEmergencyRole","inputs":[{"name":"account","type":"address","internalType":"address"}],"outputs":[{"name":"","type":"bool","internalType":"bool"}],"stateMutability":"view"},{"type":"function","name":"isMinter","inputs":[{"name":"account","type":"address","internalType":"address"}],"outputs":[{"name":"","type":"bool","internalType":"bool"}],"stateMutability":"view"},{"type":"function","name":"isOwner","inputs":[{"name":"account","type":"address","internalType":"address"}],"outputs":[{"name":"","type":"bool","internalType":"bool"}],"stateMutability":"view"},{"type":"function","name":"isPauser","inputs":[{"name":"account","type":"address","internalType":"address"}],"outputs":[{"name":"","type":"bool","internalType":"bool"}],"stateMutability":"view"},{"type":"function","name":"renounceRole","inputs":[{"name":"role","type":"bytes32","internalType":"bytes32"},{"name":"account","type":"address","internalType":"address"}],"outputs":[],"stateMutability":"nonpayable"},{"type":"function","name":"revokeMultipleRoles","inputs":[{"name":"roles","type":"bytes32[]","internalType":"bytes32[]"},{"name":"account","type":"address","internalType":"address"}],"outputs":[],"stateMutability":"nonpayable"},{"type":"function","name":"revokeRole","inputs":[{"name":"role","type":"bytes32","internalType":"bytes32"},{"name":"account","type":"address","internalType":"address"}],"outputs":[],"stateMutability":"nonpayable"},{"type":"function","name":"roleHierarchy","inputs":[{"name":"","type":"bytes32","internalType":"bytes32"},{"name":"","type":"uint256","internalType":"uint256"}],"outputs":[{"name":"","type":"bytes32","internalType":"bytes32"}],"stateMutability":"view"},{"type":"function","name":"supportsInterface","inputs":[{"name":"interfaceId","type":"bytes4","internalType":"bytes4"}],"outputs":[{"name":"","type":"bool","internalType":"bool"}],"stateMutability":"view"},{"type":"function","name":"tokenContract","inputs":[],"outputs":[{"name":"","type":"address","internalType":"address"}],"stateMutability":"view"},{"type":"event","name":"RoleAdminChanged","inputs":[{"name":"role","type":"bytes32","indexed":true,"internalType":"bytes32"},{"name":"previousAdminRole","type":"bytes32","indexed":true,"internalType":"bytes32"},{"name":"newAdminRole","type":"bytes32","indexed":true,"internalType":"bytes32"}],"anonymous":false},{"type":"event","name":"RoleGranted","inputs":[{"name":"role","type":"bytes32","indexed":true,"internalType":"bytes32"},{"name":"account","type":"address","indexed":true,"internalType":"address"},{"name":"sender","type":"address","indexed":true,"internalType":"address"}],"anonymous":false},{"type":"event","name":"RoleHierarchyUpdated","inputs":[{"name":"role","type":"bytes32","indexed":true,"internalType":"bytes32"},{"name":"newHierarchy","type":"bytes32[]","indexed":false,"internalType":"bytes32[]"}],"anonymous":false},{"type":"event","name":"RoleRevoked","inputs":[{"name":"role","type":"bytes32","indexed":true,"internalType":"bytes32"},{"name":"account","type":"address","indexed":true,"internalType":"address"},{"name":"sender","type":"address","indexed":true,"internalType":"address"}],"anonymous":false}],"bytecode":{"object":"0x60806040523461084a57604051601f61217238819003918201601f19168301916001600160401b0383118484101761042e5780849260209460405283398101031261084a57516001600160a01b0381169081900361084a57600180546001600160a01b031916919091179055335f9081525f5160206120f25f395f51905f52602052604090205460ff161561080d575b335f9081525f516020611e925f395f51905f52602052604090205460ff16156107c1575b335f9081525f516020611eb25f395f51905f52602052604090205460ff1615610775575b335f9081525f5160206120d25f395f51905f52602052604090205460ff1615610729575b335f9081525f516020611f725f395f51905f52602052604090205460ff16156106dd575b335f9081525f5160206120725f395f51905f52602052604090205460ff1615610691575b335f9081525f5160206121125f395f51905f52602052604090205460ff1615610645575b335f9081525f5160206121525f395f51905f52602052604090205460ff16156105f9575b335f9081525f516020611ff25f395f51905f52602052604090205460ff16156105ad575b335f9081525f5160206121325f395f51905f52602052604090205460ff1615610561575b335f9081525f516020611f525f395f51905f52602052604090205460ff1615610515575b335f9081525f516020611f325f395f51905f52602052604090205460ff16156104c9575b335f9081525f5160206120b25f395f51905f52602052604090205460ff161561047d575b60405161016081016001600160401b0381118282101761042e576040525f5160206120525f395f51905f5281525f516020611e525f395f51905f5260208201525f5160206120325f395f51905f5260408201525f516020611ef25f395f51905f5260608201525f516020611f925f395f51905f5260808201525f5160206120925f395f51905f5260a08201525f516020611e725f395f51905f5260c08201525f5160206120125f395f51905f5260e08201525f516020611fd25f395f51905f526101008201525f516020611fb25f395f51905f526101208201525f516020611ed25f395f51905f526101408201525f516020611f125f395f51905f525f52600260205260405f20908154600b835580600b10610456575b50905f5260205f20905f5b600b811061044257604080519081016001600160401b0381118282101761042e576040525f5160206120325f395f51905f5281525f516020611ef25f395f51905f5260208201525f516020611ed25f395f51905f525f52600260205260405f209081546002835580600210610407575b50905f5260205f20905f5b600281106103f3576040516115e3908161084f8239f35b6001906020835193019281850155016103dc565b825f52600260205f2091820191015b81811061042357506103d1565b5f8155600101610416565b634e487b7160e01b5f52604160045260245ffd5b600190602083519301928185015501610361565b825f52600b60205f2091820191015b8181106104725750610356565b5f8155600101610465565b335f8181525f5160206120b25f395f51905f5260205260408120805460ff1916600117905581905f516020611ed25f395f51905f52905f516020611e325f395f51905f529080a461023f565b335f8181525f516020611f325f395f51905f5260205260408120805460ff1916600117905581905f516020611fb25f395f51905f52905f516020611e325f395f51905f529080a461021b565b335f8181525f516020611f525f395f51905f5260205260408120805460ff1916600117905581905f516020611fd25f395f51905f52905f516020611e325f395f51905f529080a46101f7565b335f8181525f5160206121325f395f51905f5260205260408120805460ff1916600117905581905f5160206120125f395f51905f52905f516020611e325f395f51905f529080a46101d3565b335f8181525f516020611ff25f395f51905f5260205260408120805460ff1916600117905581905f516020611e725f395f51905f52905f516020611e325f395f51905f529080a46101af565b335f8181525f5160206121525f395f51905f5260205260408120805460ff1916600117905581905f5160206120925f395f51905f52905f516020611e325f395f51905f529080a461018b565b335f8181525f5160206121125f395f51905f5260205260408120805460ff1916600117905581905f516020611f925f395f51905f52905f516020611e325f395f51905f529080a4610167565b335f8181525f5160206120725f395f51905f5260205260408120805460ff1916600117905581905f516020611ef25f395f51905f52905f516020611e325f395f51905f529080a4610143565b335f8181525f516020611f725f395f51905f5260205260408120805460ff1916600117905581905f5160206120325f395f51905f52905f516020611e325f395f51905f529080a461011f565b335f8181525f5160206120d25f395f51905f5260205260408120805460ff1916600117905581905f516020611e525f395f51905f52905f516020611e325f395f51905f529080a46100fb565b335f8181525f516020611eb25f395f51905f5260205260408120805460ff1916600117905581905f5160206120525f395f51905f52905f516020611e325f395f51905f529080a46100d7565b335f8181525f516020611e925f395f51905f5260205260408120805460ff1916600117905581905f516020611f125f395f51905f52905f516020611e325f395f51905f529080a46100b3565b335f8181525f5160206120f25f395f51905f5260205260408120805460ff1916600117905581905f516020611e325f395f51905f528180a461008f565b5f80fdfe6080806040526004361015610012575f80fd5b5f3560e01c90816301ffc9a714610c325750806305db2f4114610c0b5780630a1cb38e14610be457806318989def14610bc557806320df435914610b9e578063248a9ca314610b78578063280ce3e714610b51578063282c51f314610b2a5780632b9c018114610aec5780632bbe969914610a8b5780632f2ff15d14610a5a5780632f54bf6e146109f957806336568abe1461096757806339c5fe5b14610906578063410b2424146108df5780634334614a1461087e5780634437aa44146107e657806346fbf68e14610785578063529470e81461075e57806355a373d61461073657806368ca78f91461071d5780636fcc9146146106fa57806391d14854146106b2578063a217fddf14610698578063a3246ad31461062f578063aa271e1a146105ce578063b8664dca146105a7578063bd15cd6814610580578063cacebadc146102b5578063d53913931461028e578063d547741f1461025a578063d7474a4d14610241578063e58378bb1461021a578063e63ab1e9146101f35763f66d8fe51461019d575f80fd5b346101ef576101ab36610ce1565b90916101b56110a0565b5f5b8381106101c057005b806101e9846101d26001948887610d66565b356101e46101df82610e13565b61119c565b6111d9565b016101b7565b5f80fd5b346101ef575f3660031901126101ef5760206040515f51602061154e5f395f51905f528152f35b346101ef575f3660031901126101ef5760206040515f5160206114ae5f395f51905f528152f35b346101ef5761025861025236610ce1565b91610d76565b005b346101ef5760403660031901126101ef57610258600435610279610ccb565b906102826110a0565b6101e46101df82610e13565b346101ef575f3660031901126101ef5760206040515f51602061156e5f395f51905f528152f35b346101ef5760203660031901126101ef576102ce610cb5565b6101a0906040516102df8382610eb8565b600c8152601f19830192833660208401375f936102ff6040519283610eb8565b600c8252602082019036823781511561056c575f5160206114ae5f395f51905f52905280516001101561056c575f51602061156e5f395f51905f52604082015280516002101561056c575f51602061142e5f395f51905f52606082015280516003101561056c575f51602061154e5f395f51905f52608082015280516004101561056c575f51602061148e5f395f51905f5260a082015280516005101561056c575f5160206114ce5f395f51905f5260c082015280516006101561056c575f51602061158e5f395f51905f5260e082015280516007101561056c575f51602061144e5f395f51905f5261010082015280516008101561056c575f51602061152e5f395f51905f5261012082015280516009101561056c575f51602061150e5f395f51905f526101408201528051600a101561056c575f5160206114ee5f395f51905f526101608201528051600b101561056c575f51602061146e5f395f51905f526101808201525f5b81518110156104ce576104858461047f838561108c565b51610e95565b610492575b600101610468565b9361049d858361108c565b516104a8828561108c565b525f1981146104ba576001019361048a565b634e487b7160e01b5f52601160045260245ffd5b84836104d982610eef565b916104e76040519384610eb8565b8083526104f381610eef565b602084019290601f19013684375f5b82811061054d578385604051918291602083019060208452518091526040830191905f5b818110610534575050500390f35b8251845285945060209384019390920191600101610526565b8061055a6001928461108c565b51610565828861108c565b5201610502565b634e487b7160e01b5f52603260045260245ffd5b346101ef575f3660031901126101ef5760206040515f5160206114ee5f395f51905f528152f35b346101ef575f3660031901126101ef5760206040515f51602061150e5f395f51905f528152f35b346101ef5760203660031901126101ef576105e7610cb5565b6001600160a01b03165f9081527f0781d7cac9c378efa22a7481e4d4d29704a680ddf504b3bc50b517700ee11e6c602090815260409182902054915160ff9092161515825290f35b346101ef5760203660031901126101ef5761064b600435610f06565b6040518091602082016020835281518091526020604084019201905f5b818110610676575050500390f35b82516001600160a01b0316845285945060209384019390920191600101610668565b346101ef575f3660031901126101ef5760206040515f8152f35b346101ef5760403660031901126101ef576106cb610ccb565b6004355f525f60205260405f209060018060a01b03165f52602052602060ff60405f2054166040519015158152f35b346101ef57602061071361070d36610d23565b91610e5f565b6040519015158152f35b346101ef57602061071361073036610d23565b91610e24565b346101ef575f3660031901126101ef576001546040516001600160a01b039091168152602090f35b346101ef575f3660031901126101ef5760206040515f51602061144e5f395f51905f528152f35b346101ef5760203660031901126101ef5761079e610cb5565b6001600160a01b03165f9081527ff7c9542c591017a21c74b6f3fab6263c7952fc0aaf9db4c22a2a04ddc7f8674f602090815260409182902054915160ff9092161515825290f35b346101ef5760403660031901126101ef57600435610802610ccb565b9061080f6101df82610e13565b5f818152602081815260408083206001600160a01b038616845290915290205460ff161561083957005b5f818152602081815260408083206001600160a01b0395909516808452949091528120805460ff19166001179055339291905f51602061140e5f395f51905f529080a4005b346101ef5760203660031901126101ef57610897610cb5565b6001600160a01b03165f9081527f6bc61e8d8a7feeba9a3dfbe950298fbca23cf0136992f9ef92f1b5529ac870ae602090815260409182902054915160ff9092161515825290f35b346101ef575f3660031901126101ef5760206040515f51602061148e5f395f51905f528152f35b346101ef5760203660031901126101ef5761091f610cb5565b6001600160a01b03165f9081527f77ee143005ee4d306026f84966aed6ca2870dbfd51d5df9909fea84498c30ff8602090815260409182902054915160ff9092161515825290f35b346101ef5760403660031901126101ef57610980610ccb565b336001600160a01b0382160361099c57610258906004356111d9565b60405162461bcd60e51b815260206004820152602f60248201527f416363657373436f6e74726f6c3a2063616e206f6e6c792072656e6f756e636560448201526e103937b632b9903337b91039b2b63360891b6064820152608490fd5b346101ef5760203660031901126101ef57610a12610cb5565b6001600160a01b03165f9081527fd329ff8a035c3ce5df2b0dae604d660c0d8783bf7e64be00c1d10db96c0b87b4602090815260409182902054915160ff9092161515825290f35b346101ef5760403660031901126101ef57600435610a76610ccb565b90610a7f6110a0565b61080f6101df82610e13565b346101ef5760203660031901126101ef57610aa4610cb5565b6001600160a01b03165f9081527f3c1b1854ab1360abbb06c8d4c6b2672d4b8cedc5eff522ab19e51d5cb8fdbd46602090815260409182902054915160ff9092161515825290f35b346101ef5760403660031901126101ef576024356004355f52600260205260405f209081548110156101ef576020915f52815f200154604051908152f35b346101ef575f3660031901126101ef5760206040515f51602061142e5f395f51905f528152f35b346101ef575f3660031901126101ef5760206040515f51602061152e5f395f51905f528152f35b346101ef5760203660031901126101ef576020610b96600435610e13565b604051908152f35b346101ef575f3660031901126101ef5760206040515f51602061146e5f395f51905f528152f35b346101ef57610258610bd636610ce1565b91610bdf6110a0565b610d76565b346101ef575f3660031901126101ef5760206040515f51602061158e5f395f51905f528152f35b346101ef575f3660031901126101ef5760206040515f5160206114ce5f395f51905f528152f35b346101ef5760203660031901126101ef576004359063ffffffff60e01b82168092036101ef57602091637965db0b60e01b8114908115610c74575b5015158152f35b6301ffc9a760e01b14905083610c6d565b9181601f840112156101ef578235916001600160401b0383116101ef576020808501948460051b0101116101ef57565b600435906001600160a01b03821682036101ef57565b602435906001600160a01b03821682036101ef57565b60406003198201126101ef57600435906001600160401b0382116101ef57610d0b91600401610c85565b90916024356001600160a01b03811681036101ef5790565b9060406003198301126101ef576004356001600160a01b03811681036101ef5791602435906001600160401b0382116101ef57610d6291600401610c85565b9091565b919081101561056c5760051b0190565b91905f5b818110610d875750505050565b80610d956001928487610d66565b35610da26101df82610e13565b805f525f60205260405f20838060a01b0386165f5260205260ff60405f20541615610dcf575b5001610d7a565b5f8181526020818152604080832060a087901b879003891680855292528220805460ff191686179055339290915f51602061140e5f395f51905f529080a45f610dc8565b5f525f602052600160405f20015490565b5f5b838110610e3557505050505f90565b610e4a82610e44838787610d66565b35610e95565b610e5657600101610e26565b50505050600190565b5f5b838110610e715750505050600190565b610e8082610e44838787610d66565b15610e8d57600101610e61565b505050505f90565b5f525f60205260405f209060018060a01b03165f5260205260ff60405f20541690565b601f909101601f19168101906001600160401b03821190821017610edb57604052565b634e487b7160e01b5f52604160045260245ffd5b6001600160401b038111610edb5760051b60200190565b5f5160206114ae5f395f51905f528114908115611075575b811561105e575b8115611047575b8115611030575b8115611019575b8115611002575b8115610feb575b8115610fd4575b8115610fbd575b8115610fa6575b8115610f8f575b50610f8157604051610f77602082610eb8565b5f81525f36813790565b604051610f77602082610eb8565b5f51602061146e5f395f51905f529150145f610f64565b5f5160206114ee5f395f51905f5281149150610f5d565b5f51602061150e5f395f51905f5281149150610f56565b5f51602061152e5f395f51905f5281149150610f4f565b5f51602061144e5f395f51905f5281149150610f48565b5f51602061158e5f395f51905f5281149150610f41565b5f5160206114ce5f395f51905f5281149150610f3a565b5f51602061148e5f395f51905f5281149150610f33565b5f51602061154e5f395f51905f5281149150610f2c565b5f51602061142e5f395f51905f5281149150610f25565b5f51602061156e5f395f51905f5281149150610f1e565b805182101561056c5760209160051b010190565b335f9081527fad3228b676f7d3cd4284a5443f17f1962b36e491b30a40b2405849e597ba5fb5602052604090205460ff16156110d857565b6110e133611285565b6044602061116460116110f35f61136b565b6037604051948592818085019976020b1b1b2b9b9a1b7b73a3937b61d1030b1b1b7bab73a1604d1b8b528051918291018587015e8401907001034b99036b4b9b9b4b733903937b6329607d1b84830152805192839101604883015e01015f838201520301601f198101835282610eb8565b60405192839162461bcd60e51b8352602060048401525180918160248501528484015e5f828201840152601f01601f19168101030190fd5b5f8181526020818152604080832033845290915290205460ff16156111be5750565b6044602061116460116110f36111d333611285565b9561136b565b5f818152602081815260408083206001600160a01b038616845290915290205460ff16611204575050565b5f818152602081815260408083206001600160a01b0395909516808452949091528120805460ff19169055339291907ff6391f5c32d9c69d2a47ea670b442974b53935d1edc7fd64eb21e047a839171b9080a4565b6001600160401b038111610edb57601f01601f191660200190565b90815181101561056c570160200190565b61128f602a611259565b9061129d6040519283610eb8565b602a82526112ab602a611259565b6020830190601f190136823782511561056c576030905381516001101561056c576078602183015360295b6001811161132a57506112e65790565b606460405162461bcd60e51b815260206004820152602060248201527f537472696e67733a20686578206c656e67746820696e73756666696369656e746044820152fd5b90600f8116601081101561056c576f181899199a1a9b1b9c1cb0b131b232b360811b901a6113588385611274565b5360041c9080156104ba575f19016112d6565b6113756042611259565b906113836040519283610eb8565b604282526113916042611259565b6020830190601f190136823782511561056c576030905381516001101561056c576078602183015360415b600181116113cc57506112e65790565b90600f8116601081101561056c576f181899199a1a9b1b9c1cb0b131b232b360811b901a6113fa8385611274565b5360041c9080156104ba575f19016113bc56fe2f8788117e7eff1d82e926ec794901d17c78024a50270940304540a733656f0d3c11d16cbaffd01df69ce1c404f6340ee057498f5f00246190ea54220576a84821e141d29efe528175baa3d6b347407f49288a1a3c0aebcc3160cd2b50b2a9c1bf233dd2aafeb4d50879c4aa5c81e96d92f6e6945c906a58f9f2d1c1631b4b26f988e4fb62b8e14f4820fed03192306ddf4d7dbfa215595ba1c6ba4b76b369eeb19546dff01e856fb3f010c267a7b1c60363cf8a4664e21cc89c26224620214e6c0757dc3e6b28b2580c03fd9e96c274acf4f99d91fbec9b418fa1d70604ff1ce489f09bb7cda4b1160593eaaa360f9d84657d847ee753f36bce59881a0aa0d1d810f479110c9771ec744414e571d78468b4e92a20f345df2ffbdc5f927a182e279623621afe3738d696a40e2fe21cd35b0eb4dffe14071f60ea8de8a9aac31c65d7a28e3265b37a6474929f336521b332c1681b933f6cb9f3376673440d862a9f2df0fed2c77648de5860a4cc508cd0818c85b8b8a1ab4ceeef8d981c8956a688105101a15b6e9875df50bc22b8d91915d0f59639253ed3bdbcdc22bf25d929a26469706673582212206aa8577bfda47fa7569e476abeddc7bf13bb58751033395585b6337489600f6164736f6c634300081d00332f8788117e7eff1d82e926ec794901d17c78024a50270940304540a733656f0d3c11d16cbaffd01df69ce1c404f6340ee057498f5f00246190ea54220576a84821e141d29efe528175baa3d6b347407f49288a1a3c0aebcc3160cd2b50b2a9c1d329ff8a035c3ce5df2b0dae604d660c0d8783bf7e64be00c1d10db96c0b87b40781d7cac9c378efa22a7481e4d4d29704a680ddf504b3bc50b517700ee11e6cbf233dd2aafeb4d50879c4aa5c81e96d92f6e6945c906a58f9f2d1c1631b4b26f988e4fb62b8e14f4820fed03192306ddf4d7dbfa215595ba1c6ba4b76b369eeb19546dff01e856fb3f010c267a7b1c60363cf8a4664e21cc89c26224620214e02d3ca5241454754a94a6a94e36d1e9473f06ad4c1b481be2b83f59728b869eac1e0611f017bc89a6e131c4015b1aaaee4f35da061155f625a9519c6af4ad7b9f7c9542c591017a21c74b6f3fab6263c7952fc0aaf9db4c22a2a04ddc7f8674f6c0757dc3e6b28b2580c03fd9e96c274acf4f99d91fbec9b418fa1d70604ff1ce489f09bb7cda4b1160593eaaa360f9d84657d847ee753f36bce59881a0aa0d1d810f479110c9771ec744414e571d78468b4e92a20f345df2ffbdc5f927a182e72216137b965008f62d76c2cd9357533cbefd5f05ece68f22f9c56bf775a2019279623621afe3738d696a40e2fe21cd35b0eb4dffe14071f60ea8de8a9aac31c65d7a28e3265b37a6474929f336521b332c1681b933f6cb9f3376673440d862a9f2df0fed2c77648de5860a4cc508cd0818c85b8b8a1ab4ceeef8d981c8956a677ee143005ee4d306026f84966aed6ca2870dbfd51d5df9909fea84498c30ff888105101a15b6e9875df50bc22b8d91915d0f59639253ed3bdbcdc22bf25d9293c1b1854ab1360abbb06c8d4c6b2672d4b8cedc5eff522ab19e51d5cb8fdbd466bc61e8d8a7feeba9a3dfbe950298fbca23cf0136992f9ef92f1b5529ac870aead3228b676f7d3cd4284a5443f17f1962b36e491b30a40b2405849e597ba5fb5175e50102ecf9cfc73f21ab2786f3296b7cae96dee56a3f6a84b3c656d591ada349e1dae356c2f9482c88b5cdfc91f4880d1f07c48d23edc2da001aaa340a0703e673afe4021ba7652e38b2f886969625fd39fb53f444ba72a29730ee3bc1795","linkReferences":{}},"methodIdentifiers":{"BLACKLIST_MANAGER_ROLE()":"410b2424","BURNER_ROLE()":"282c51f3","DEFAULT_ADMIN_ROLE()":"a217fddf","EMERGENCY_ROLE()":"20df4359","FEE_MANAGER_ROLE()":"05db2f41","GOVERNANCE_MANAGER_ROLE()":"280ce3e7","METADATA_MANAGER_ROLE()":"529470e8","MINTER_ROLE()":"d5391393","OWNER_ROLE()":"e58378bb","PAUSER_ROLE()":"e63ab1e9","SECURITY_MANAGER_ROLE()":"0a1cb38e","STABLECOIN_MANAGER_ROLE()":"bd15cd68","VESTING_MANAGER_ROLE()":"b8664dca","getAccountRoles(address)":"cacebadc","getRoleAdmin(bytes32)":"248a9ca3","getRoleMembers(bytes32)":"a3246ad3","grantMultipleRoles(bytes32[],address)":"18989def","grantMultipleRolesForTesting(bytes32[],address)":"d7474a4d","grantRole(bytes32,address)":"2f2ff15d","grantRoleForTesting(bytes32,address)":"4437aa44","hasAllRoles(address,bytes32[])":"6fcc9146","hasAnyRole(address,bytes32[])":"68ca78f9","hasRole(bytes32,address)":"91d14854","isBlacklistManager(address)":"39c5fe5b","isBurner(address)":"4334614a","isEmergencyRole(address)":"2bbe9699","isMinter(address)":"aa271e1a","isOwner(address)":"2f54bf6e","isPauser(address)":"46fbf68e","renounceRole(bytes32,address)":"36568abe","revokeMultipleRoles(bytes32[],address)":"f66d8fe5","revokeRole(bytes32,address)":"d547741f","roleHierarchy(bytes32,uint256)":"2b9c0181","supportsInterface(bytes4)":"01ffc9a7","tokenContract()":"55a373d6"},"id":1}