{"abi":[{"type":"constructor","inputs":[{"name":"_tokenContract","type":"address","internalType":"address"},{"name":"_signers","type":"address[]","internalType":"address[]"},{"name":"_requiredSignatures","type":"uint256","internalType":"uint256"}],"stateMutability":"nonpayable"},{"type":"receive","stateMutability":"payable"},{"type":"function","name":"DEFAULT_ADMIN_ROLE","inputs":[],"outputs":[{"name":"","type":"bytes32","internalType":"bytes32"}],"stateMutability":"view"},{"type":"function","name":"addSigner","inputs":[{"name":"signer","type":"address","internalType":"address"}],"outputs":[],"stateMutability":"nonpayable"},{"type":"function","name":"addSignersBatch","inputs":[{"name":"newSigners","type":"address[]","internalType":"address[]"}],"outputs":[],"stateMutability":"nonpayable"},{"type":"function","name":"confirmTransaction","inputs":[{"name":"txId","type":"uint256","internalType":"uint256"}],"outputs":[],"stateMutability":"nonpayable"},{"type":"function","name":"confirmations","inputs":[{"name":"","type":"uint256","internalType":"uint256"},{"name":"","type":"address","internalType":"address"}],"outputs":[{"name":"","type":"bool","internalType":"bool"}],"stateMutability":"view"},{"type":"function","name":"emergencyPause","inputs":[],"outputs":[],"stateMutability":"nonpayable"},{"type":"function","name":"emergencyUnpause","inputs":[],"outputs":[],"stateMutability":"nonpayable"},{"type":"function","name":"executeTransaction","inputs":[{"name":"txId","type":"uint256","internalType":"uint256"}],"outputs":[],"stateMutability":"nonpayable"},{"type":"function","name":"getPendingTransactions","inputs":[],"outputs":[{"name":"","type":"uint256[]","internalType":"uint256[]"}],"stateMutability":"view"},{"type":"function","name":"getRoleAdmin","inputs":[{"name":"role","type":"bytes32","internalType":"bytes32"}],"outputs":[{"name":"","type":"bytes32","internalType":"bytes32"}],"stateMutability":"view"},{"type":"function","name":"getSignerInfo","inputs":[],"outputs":[{"name":"allSigners","type":"address[]","internalType":"address[]"},{"name":"totalSigners_","type":"uint256","internalType":"uint256"},{"name":"requiredSignatures_","type":"uint256","internalType":"uint256"},{"name":"isOwner","type":"bool","internalType":"bool"}],"stateMutability":"view"},{"type":"function","name":"getSignerStatus","inputs":[{"name":"signer","type":"address","internalType":"address"}],"outputs":[{"name":"isSigner_","type":"bool","internalType":"bool"},{"name":"signerIndex","type":"uint256","internalType":"uint256"},{"name":"isOwner_","type":"bool","internalType":"bool"}],"stateMutability":"view"},{"type":"function","name":"getSigners","inputs":[],"outputs":[{"name":"","type":"address[]","internalType":"address[]"}],"stateMutability":"view"},{"type":"function","name":"getTransaction","inputs":[{"name":"txId","type":"uint256","internalType":"uint256"}],"outputs":[{"name":"target","type":"address","internalType":"address"},{"name":"value","type":"uint256","internalType":"uint256"},{"name":"data","type":"bytes","internalType":"bytes"},{"name":"executed","type":"bool","internalType":"bool"},{"name":"confirmationCount","type":"uint256","internalType":"uint256"},{"name":"timestamp","type":"uint256","internalType":"uint256"},{"name":"description","type":"string","internalType":"string"}],"stateMutability":"view"},{"type":"function","name":"getTransactionConfirmations","inputs":[{"name":"txId","type":"uint256","internalType":"uint256"}],"outputs":[{"name":"","type":"address[]","internalType":"address[]"}],"stateMutability":"view"},{"type":"function","name":"grantRole","inputs":[{"name":"role","type":"bytes32","internalType":"bytes32"},{"name":"account","type":"address","internalType":"address"}],"outputs":[],"stateMutability":"nonpayable"},{"type":"function","name":"hasRole","inputs":[{"name":"role","type":"bytes32","internalType":"bytes32"},{"name":"account","type":"address","internalType":"address"}],"outputs":[{"name":"","type":"bool","internalType":"bool"}],"stateMutability":"view"},{"type":"function","name":"isConfirmed","inputs":[{"name":"txId","type":"uint256","internalType":"uint256"},{"name":"signer","type":"address","internalType":"address"}],"outputs":[{"name":"","type":"bool","internalType":"bool"}],"stateMutability":"view"},{"type":"function","name":"isSigner","inputs":[{"name":"","type":"address","internalType":"address"}],"outputs":[{"name":"","type":"bool","internalType":"bool"}],"stateMutability":"view"},{"type":"function","name":"removeSigner","inputs":[{"name":"signer","type":"address","internalType":"address"}],"outputs":[],"stateMutability":"nonpayable"},{"type":"function","name":"removeSignersBatch","inputs":[{"name":"signersToRemove","type":"address[]","internalType":"address[]"}],"outputs":[],"stateMutability":"nonpayable"},{"type":"function","name":"renounceRole","inputs":[{"name":"role","type":"bytes32","internalType":"bytes32"},{"name":"account","type":"address","internalType":"address"}],"outputs":[],"stateMutability":"nonpayable"},{"type":"function","name":"requiredSignatures","inputs":[],"outputs":[{"name":"","type":"uint256","internalType":"uint256"}],"stateMutability":"view"},{"type":"function","name":"revokeConfirmation","inputs":[{"name":"txId","type":"uint256","internalType":"uint256"}],"outputs":[],"stateMutability":"nonpayable"},{"type":"function","name":"revokeRole","inputs":[{"name":"role","type":"bytes32","internalType":"bytes32"},{"name":"account","type":"address","internalType":"address"}],"outputs":[],"stateMutability":"nonpayable"},{"type":"function","name":"signers","inputs":[{"name":"","type":"uint256","internalType":"uint256"}],"outputs":[{"name":"","type":"address","internalType":"address"}],"stateMutability":"view"},{"type":"function","name":"submitTransaction","inputs":[{"name":"target","type":"address","internalType":"address"},{"name":"value","type":"uint256","internalType":"uint256"},{"name":"data","type":"bytes","internalType":"bytes"},{"name":"description","type":"string","internalType":"string"}],"outputs":[{"name":"txId","type":"uint256","internalType":"uint256"}],"stateMutability":"nonpayable"},{"type":"function","name":"supportsInterface","inputs":[{"name":"interfaceId","type":"bytes4","internalType":"bytes4"}],"outputs":[{"name":"","type":"bool","internalType":"bool"}],"stateMutability":"view"},{"type":"function","name":"tokenContract","inputs":[],"outputs":[{"name":"","type":"address","internalType":"address"}],"stateMutability":"view"},{"type":"function","name":"totalSigners","inputs":[],"outputs":[{"name":"","type":"uint256","internalType":"uint256"}],"stateMutability":"view"},{"type":"function","name":"transactionCount","inputs":[],"outputs":[{"name":"","type":"uint256","internalType":"uint256"}],"stateMutability":"view"},{"type":"function","name":"transactions","inputs":[{"name":"","type":"uint256","internalType":"uint256"}],"outputs":[{"name":"target","type":"address","internalType":"address"},{"name":"value","type":"uint256","internalType":"uint256"},{"name":"data","type":"bytes","internalType":"bytes"},{"name":"executed","type":"bool","internalType":"bool"},{"name":"confirmations","type":"uint256","internalType":"uint256"},{"name":"timestamp","type":"uint256","internalType":"uint256"},{"name":"description","type":"string","internalType":"string"}],"stateMutability":"view"},{"type":"function","name":"updateRequiredSignatures","inputs":[{"name":"newRequired","type":"uint256","internalType":"uint256"}],"outputs":[],"stateMutability":"nonpayable"},{"type":"event","name":"RequiredSignaturesUpdated","inputs":[{"name":"newRequired","type":"uint256","indexed":false,"internalType":"uint256"}],"anonymous":false},{"type":"event","name":"RoleAdminChanged","inputs":[{"name":"role","type":"bytes32","indexed":true,"internalType":"bytes32"},{"name":"previousAdminRole","type":"bytes32","indexed":true,"internalType":"bytes32"},{"name":"newAdminRole","type":"bytes32","indexed":true,"internalType":"bytes32"}],"anonymous":false},{"type":"event","name":"RoleGranted","inputs":[{"name":"role","type":"bytes32","indexed":true,"internalType":"bytes32"},{"name":"account","type":"address","indexed":true,"internalType":"address"},{"name":"sender","type":"address","indexed":true,"internalType":"address"}],"anonymous":false},{"type":"event","name":"RoleRevoked","inputs":[{"name":"role","type":"bytes32","indexed":true,"internalType":"bytes32"},{"name":"account","type":"address","indexed":true,"internalType":"address"},{"name":"sender","type":"address","indexed":true,"internalType":"address"}],"anonymous":false},{"type":"event","name":"SignerAdded","inputs":[{"name":"signer","type":"address","indexed":true,"internalType":"address"}],"anonymous":false},{"type":"event","name":"SignerRemoved","inputs":[{"name":"signer","type":"address","indexed":true,"internalType":"address"}],"anonymous":false},{"type":"event","name":"TransactionConfirmed","inputs":[{"name":"txId","type":"uint256","indexed":true,"internalType":"uint256"},{"name":"signer","type":"address","indexed":true,"internalType":"address"}],"anonymous":false},{"type":"event","name":"TransactionExecuted","inputs":[{"name":"txId","type":"uint256","indexed":true,"internalType":"uint256"},{"name":"target","type":"address","indexed":true,"internalType":"address"},{"name":"value","type":"uint256","indexed":false,"internalType":"uint256"}],"anonymous":false},{"type":"event","name":"TransactionRevoked","inputs":[{"name":"txId","type":"uint256","indexed":true,"internalType":"uint256"},{"name":"signer","type":"address","indexed":true,"internalType":"address"}],"anonymous":false},{"type":"event","name":"TransactionSubmitted","inputs":[{"name":"txId","type":"uint256","indexed":true,"internalType":"uint256"},{"name":"target","type":"address","indexed":true,"internalType":"address"},{"name":"value","type":"uint256","indexed":false,"internalType":"uint256"},{"name":"description","type":"string","indexed":false,"internalType":"string"}],"anonymous":false}],"bytecode":{"object":"0x6080604052346103aa576126b780380380610019816103ae565b9283398101906060818303126103aa57610032816103d3565b60208201519091906001600160401b0381116103aa5781019280601f850112156103aa578351936001600160401b0385116101e3578460051b9060208061007a8185016103ae565b8098815201928201019283116103aa57602001905b828210610392575050506040015160018055600280546001600160a01b0319166001600160a01b0390931692909217909155600381905581511561034d578015159081610341575b50156102fc575f5b8151811015610274576001600160a01b036100fa82846103e7565b51161561022f576001600160a01b0361011382846103e7565b51165f52600560205260ff60405f2054166101f7576001600160a01b0361013a82846103e7565b51165f908152600560205260409020805460ff191660011790556001600160a01b0361016682846103e7565b51169060065491680100000000000000008310156101e35760018301806006558310156101cf5760065f527ff652222313e28459528d920b65115c16c04f3efc82aaedc97be59f3f377c0d3f90920180546001600160a01b0319169092179091556001016100df565b634e487b7160e01b5f52603260045260245ffd5b634e487b7160e01b5f52604160045260245ffd5b60405162461bcd60e51b815260206004820152601060248201526f223ab83634b1b0ba329039b4b3b732b960811b6044820152606490fd5b60405162461bcd60e51b815260206004820152601660248201527f496e76616c6964207369676e65722061646472657373000000000000000000006044820152606490fd5b5051600455335f9081525f5160206126975f395f51905f52602052604090205460ff16156102ac575b60405161229b90816103fc8239f35b335f8181525f5160206126975f395f51905f5260205260408120805460ff1916600117905581907f2f8788117e7eff1d82e926ec794901d17c78024a50270940304540a733656f0d8180a461029d565b60405162461bcd60e51b815260206004820152601b60248201527f496e76616c6964207265717569726564207369676e61747572657300000000006044820152606490fd5b9050815110155f6100d7565b60405162461bcd60e51b815260206004820152601c60248201527f4174206c65617374206f6e65207369676e6572207265717569726564000000006044820152606490fd5b6020809161039f846103d3565b81520191019061008f565b5f80fd5b6040519190601f01601f191682016001600160401b038111838210176101e357604052565b51906001600160a01b03821682036103aa57565b80518210156101cf5760209160051b01019056fe608080604052600436101561001c575b50361561001a575f80fd5b005b5f3560e01c90816301ffc9a714611824575080630d60432e146117775780630e316ab7146116725780632079fb9a1461163057806320ea8d8614611501578063248a9ca3146114db5780632f2ff15d1461143057806333ea3dc8146113b95780633411c81c14610dd157806336568abe1461132757806346e24b0814610f845780634a4e3bd514610f6c57806351858e2714610f6c57806355a373d614610f44578063739cc0dc14610e575780637df73e2714610e1a57806380f59a6514610dd1578063869e13ba14610bea5780638d06804314610bcd57806391d1485414610b8557806394cf795e14610b565780639ace38c214610ac9578063a217fddf14610aaf578063b77bf60014610a92578063c01a8c8414610838578063ce136bd1146106fb578063d11db83f14610619578063d1a62648146105fc578063d547741f146105c6578063e3c710bd14610547578063e695402a1461049b578063eb12d61e146104075763ee22610b14610193575f61000f565b3461040357602036600319011261040357600435335f5260056020526101bf60ff60405f205416611c19565b5f818152600760205260409020546101e1906001600160a01b03161515611c53565b805f5260076020526101fd60ff600360405f2001541615611c9c565b6002600154146103be576002600155805f52600760205260405f209060048201546003541161037c5760038201600160ff1982541617905560018060a01b0382541691600181019283546002830190604051915f9080549061025e82611a12565b91600181169081156103655750600114610333575b5050915f939181859403925af13d1561032e573d61029081611d06565b9061029e6040519283611acb565b81525f60203d92013e5b156102ea5760207fda19024f6708ce28e75d9c0ec389fb05a8e5cc9dfe520f61239c10d51a11e59c9160018060a01b039054169354604051908152a360018055005b60405162461bcd60e51b815260206004820152601c60248201527b151c985b9cd858dd1a5bdb88195e1958dd5d1a5bdb8819985a5b195960221b6044820152606490fd5b6102a8565b9091505f5260205f205f905b82821061035157505082018183610273565b60018160209254848801520191019061033f565b60ff19168652505080151502830190508183610273565b60405162461bcd60e51b815260206004820152601a602482015279496e73756666696369656e7420636f6e6669726d6174696f6e7360301b6044820152606490fd5b60405162461bcd60e51b815260206004820152601f60248201527f5265656e7472616e637947756172643a207265656e7472616e742063616c6c006044820152606490fd5b5f80fd5b3461040357602036600319011261040357610420611877565b61042b303314611aee565b6001600160a01b0381169061047a90610445831515611e60565b825f52600560205261045e60ff60405f20541615611ea5565b825f52600560205260405f20600160ff19825416179055611ee4565b610485600454611cf8565b6004555f5160206122065f395f51905f525f80a2005b34610403576020366003190112610403576104b4611877565b600654906001600160a01b03165f195f5b838110610512575b60608383815f52600560205260ff60405f205416915f80525f60205260405f20905f5260205260ff60405f205416906040519215158352602083015215156040820152f35b8261051c826118a3565b905460039190911b1c6001600160a01b03161461053b576001016104c5565b905060609250836104cd565b34610403575f36600319011261040357600454600354335f9081527fad3228b676f7d3cd4284a5443f17f1962b36e491b30a40b2405849e597ba5fb560205260409020546105b0929060ff1661059b611e0f565b92604051948594608086526080860190611984565b9260208501526040840152151560608301520390f35b346104035760403660031901126104035761001a6004356105e561188d565b906105f76105f282611ce7565b611f3b565b612174565b34610403575f366003190112610403576020600454604051908152f35b34610403575f3660031901126104035760095461063581611f09565b905f905f5b8181106106ba57505061064c81611f09565b915f5b82811061069b57836040518091602082016020835281518091526020604084019201905f5b818110610682575050500390f35b8251845285945060209384019390920191600101610674565b806106a860019284611dd7565b516106b38287611dd7565b520161064f565b805f52600760205260ff600360405f20015416156106db575b60010161063a565b916106f381846106ed60019488611dd7565b52611cf8565b9290506106d3565b3461040357610709366119c0565b90610715303314611aee565b600a82116107f8575f5b82811061072857005b6001906107516001600160a01b03610749610744848888611deb565b611dfb565b161515611e60565b818060a01b03610765610744838787611deb565b165f52600560205261077e60ff60405f20541615611ea5565b818060a01b03610792610744838787611deb565b165f52600560205260405f208260ff198254161790556107be6107b9610744838787611deb565b611ee4565b6107c9600454611cf8565b600455818060a01b036107e0610744838787611deb565b165f5160206122065f395f51905f525f80a20161071f565b60405162461bcd60e51b8152602060048201526018602482015277546f6f206d616e79207369676e657273206174206f6e636560401b6044820152606490fd5b3461040357602036600319011261040357600435335f52600560205261086460ff60405f205416611c19565b5f81815260076020526040902054610886906001600160a01b03161515611c53565b805f5260076020526108a260ff600360405f2001541615611c9c565b5f81815260086020908152604080832033845290915290205460ff16610a4d57805f526007602052600460405f20016108db8154611cf8565b81555f8281526008602090815260408083203380855292528220805460ff191660011790559083907f15c2f311c9e0f53b50388279894aeff029a3457884a6601e924fca879e12adcc9080a354906003548092101561093657005b335f52600560205261094e60ff60405f205416611c19565b5f81815260076020526040902054610970906001600160a01b03161515611c53565b805f52600760205261098c60ff600360405f2001541615611c9c565b6002600154146103be576002600155805f52600760205260405f209160048301541061037c5760038201600160ff1982541617905560018060a01b0382541691600181019283546002830190604051915f908054906109ea82611a12565b91600181169081156103655750600114610a1b575050915f939181859403925af13d1561032e573d61029081611d06565b9091505f5260205f205f905b828210610a3957505082018183610273565b600181602092548488015201910190610a27565b60405162461bcd60e51b815260206004820152601d60248201527f5472616e73616374696f6e20616c726561647920636f6e6669726d65640000006044820152606490fd5b34610403575f366003190112610403576020600954604051908152f35b34610403575f3660031901126104035760206040515f8152f35b34610403576020366003190112610403576004355f52600760205260405f2060018060a01b03815416610b526006600184015493604051610b1881610b118160028601611a4a565b0382611acb565b60ff600383015416600483015491610b46600585015494610b3f6040518098819301611a4a565b0386611acb565b60405197889788611908565b0390f35b34610403575f36600319011261040357610b52610b71611e0f565b604051918291602083526020830190611984565b3461040357604036600319011261040357610b9e61188d565b6004355f525f60205260405f209060018060a01b03165f52602052602060ff60405f2054166040519015158152f35b34610403575f366003190112610403576020600354604051908152f35b3461040357610bf8366119c0565b90610c04303314611aee565b60058211610d81575f905b828210610c1857005b6001600160a01b03610c2e610744848685611deb565b165f526005602052610c4660ff60405f205416611b33565b610c5560045460035410611b6e565b6001600160a01b03610c6b610744848685611deb565b165f52600560205260405f2060ff198154169055610c8a600454611bca565b6004555f5b60065480821015610d7657610ca3826118a3565b90546001600160a01b0360039290921b1c811690610cc5610744878988611deb565b1614610cd45750600101610c8f565b919290915f198101908111610d6257600192610d09610cf5610d2d936118a3565b868060a01b0391549060031b1c16916118a3565b9080546001600160a01b0360039390931b83811b199091169290931690921b179055565b610d35611bd6565b818060a01b03610d49610744838787611deb565b165f5160206122265f395f51905f525f80a20190610c0f565b634e487b7160e01b5f52601160045260245ffd5b505090600190610d35565b60405162461bcd60e51b815260206004820152602260248201527f546f6f206d616e79207369676e65727320746f2072656d6f7665206174206f6e604482015261636560f01b6064820152608490fd5b3461040357604036600319011261040357610dea61188d565b6004355f52600860205260405f209060018060a01b03165f52602052602060ff60405f2054166040519015158152f35b34610403576020366003190112610403576001600160a01b03610e3b611877565b165f526005602052602060ff60405f2054166040519015158152f35b3461040357602036600319011261040357600435805f526007602052600460405f20015490610e8582611dc0565b91610e936040519384611acb565b808352610ea2601f1991611dc0565b013660208401375f5f91600654925b838110610ece5760405160208082528190610b5290820188611984565b815f52600860205260405f20610ee3826118a3565b905460039190911b1c6001600160a01b03165f908152602091909152604090205460ff16610f14575b600101610eb1565b91610f3c600191610f24856118a3565b848060a01b0391549060031b1c166106ed8289611dd7565b929050610f0c565b34610403575f366003190112610403576002546040516001600160a01b039091168152602090f35b34610403575f3660031901126104035761001a611da6565b3461040357608036600319011261040357610f9d611877565b602435906044356001600160401b03811161040357610fc0903690600401611957565b9290916064356001600160401b03811161040357610fe2903690600401611957565b91335f526005602052610ffb60ff60405f205416611c19565b6001600160a01b03169283156112e9576009549461101886611cf8565b6009556040519060e08201906001600160401b038211838310176112605761104f916040528683526020830198848a523691611d21565b60408201908152606082015f815260808301905f825260a0840192428452611078368989611d21565b60c086019081525f8b8152600760205260409020955186546001600160a01b0319166001600160a01b03919091161786559a51600186015551805160028601916001600160401b038211611260576110da826110d48554611a12565b85611d57565b602090601f831160011461127f5791806111119260069998979695945f92611274575b50508160011b915f199060031b1c19161790565b90555b600384019051151560ff801983541691161790555160048301555160058201550195519283519660018060401b0388116112605787879561115b60209a6110d48554611a12565b8990601f83116001146111e05782606095935f5160206122465f395f51905f529897959361119d935f926111d55750508160011b915f199060031b1c19161790565b90555b80604051948593845260408b850152816040850152848401375f828201840152601f01601f19168101030190a3604051908152f35b015190508d806110fd565b601f979695949392919719821690835f52885f20915f5b8181106112465750915f5160206122465f395f51905f52989984926060989796956001951061122e575b505050811b0190556111a0565b01515f1960f88460031b161c191690558c8080611221565b828b01518455998d01998c99506001909301928d016111f7565b634e487b7160e01b5f52604160045260245ffd5b015190508f806110fd565b90601f19831691845f52815f20925f5b8181106112d1575091600193918560069b9a9998979694106112b9575b505050811b019055611114565b01515f1960f88460031b161c191690558e80806112ac565b9293602060018192878601518155019501930161128f565b60405162461bcd60e51b8152602060048201526016602482015275496e76616c696420746172676574206164647265737360501b6044820152606490fd5b346104035760403660031901126104035761134061188d565b336001600160a01b0382160361135c5761001a90600435612174565b60405162461bcd60e51b815260206004820152602f60248201527f416363657373436f6e74726f6c3a2063616e206f6e6c792072656e6f756e636560448201526e103937b632b9903337b91039b2b63360891b6064820152608490fd5b34610403576020366003190112610403576004355f52600760205260405f2060018060a01b03815416610b52600660018401549360ff600382015416600482015490600583015492610b4660405191611420836114198160028501611a4a565b0384611acb565b610b3f6040518098819301611a4a565b346104035760403660031901126104035760043561144c61188d565b906114596105f282611ce7565b5f818152602081815260408083206001600160a01b038616845290915290205460ff161561148357005b5f818152602081815260408083206001600160a01b0395909516808452949091528120805460ff19166001179055339291907f2f8788117e7eff1d82e926ec794901d17c78024a50270940304540a733656f0d9080a4005b346104035760203660031901126104035760206114f9600435611ce7565b604051908152f35b3461040357602036600319011261040357600435335f52600560205261152d60ff60405f205416611c19565b5f8181526007602052604090205461154f906001600160a01b03161515611c53565b805f52600760205261156b60ff600360405f2001541615611c9c565b5f81815260086020908152604080832033845290915290205460ff16156115ef57805f526007602052600460405f20016115a58154611bca565b90555f8181526008602090815260408083203380855292528220805460ff1916905591907f4cd471041f6b9ff47536a54a3d3ab62d0fa9dd5e36c0418b294b1673acb318819080a3005b60405162461bcd60e51b8152602060048201526019602482015278151c985b9cd858dd1a5bdb881b9bdd0818dbdb999a5c9b5959603a1b6044820152606490fd5b3461040357602036600319011261040357600435600654811015610403576116596020916118a3565b905460405160039290921b1c6001600160a01b03168152f35b346104035760203660031901126104035761168b611877565b611696303314611aee565b6001600160a01b03165f818152600560205260409020546116b99060ff16611b33565b6116c860045460035410611b6e565b805f52600560205260405f2060ff1981541690556116e7600454611bca565b6004555f5b60065490818110156117705782611702826118a3565b905460039190911b1c6001600160a01b0316146117235760019150016116ec565b5f198201918211610d6257610d0961173d611755936118a3565b905460039190911b1c6001600160a01b0316916118a3565b61175d611bd6565b5f5160206122265f395f51905f525f80a2005b505061175d565b3461040357602036600319011261040357600435611796303314611aee565b80151580611818575b156117d5576020817f2d465bb3608d42a9f6601f7adf1e33540314b62582a6cd3e329dd32ff8b5d19592600355604051908152a1005b60405162461bcd60e51b815260206004820152601b60248201527a496e76616c6964207265717569726564207369676e61747572657360281b6044820152606490fd5b5060045481111561179f565b34610403576020366003190112610403576004359063ffffffff60e01b821680920361040357602091637965db0b60e01b8114908115611866575b5015158152f35b6301ffc9a760e01b1490508361185f565b600435906001600160a01b038216820361040357565b602435906001600160a01b038216820361040357565b6006548110156118bb5760065f5260205f2001905f90565b634e487b7160e01b5f52603260045260245ffd5b80548210156118bb575f5260205f2001905f90565b805180835260209291819084018484015e5f828201840152601f01601f1916010190565b9395926119549795926119359260018060a01b03168652602086015260e0604086015260e08501906118e4565b9415156060840152608083015260a082015260c08184039101526118e4565b90565b9181601f84011215610403578235916001600160401b038311610403576020838186019501011161040357565b90602080835192838152019201905f5b8181106119a15750505090565b82516001600160a01b0316845260209384019390920191600101611994565b906020600319830112610403576004356001600160401b0381116104035782602382011215610403576004810135926001600160401b0384116104035760248460051b83010111610403576024019190565b90600182811c92168015611a40575b6020831014611a2c57565b634e487b7160e01b5f52602260045260245ffd5b91607f1691611a21565b5f9291815491611a5983611a12565b8083529260018116908115611aae5750600114611a7557505050565b5f9081526020812093945091925b838310611a94575060209250010190565b600181602092949394548385870101520191019190611a83565b915050602093945060ff929192191683830152151560051b010190565b601f909101601f19168101906001600160401b0382119082101761126057604052565b15611af557565b60405162461bcd60e51b815260206004820152601660248201527513db9b1e481b5d5b1d1a5cda59c818d85b8818d85b1b60521b6044820152606490fd5b15611b3a57565b60405162461bcd60e51b815260206004820152600c60248201526b2737ba10309039b4b3b732b960a11b6044820152606490fd5b15611b7557565b60405162461bcd60e51b815260206004820152602760248201527f43616e6e6f742072656d6f7665207369676e65723a20746f6f206665772072656044820152666d61696e696e6760c81b6064820152608490fd5b8015610d62575f190190565b6006548015611c05575f1901611bed8160066118cf565b81549060018060a01b039060031b1b19169055600655565b634e487b7160e01b5f52603160045260245ffd5b15611c2057565b60405162461bcd60e51b815260206004820152600b60248201526a27b7363c9039b4b3b732b960a91b6044820152606490fd5b15611c5a57565b60405162461bcd60e51b815260206004820152601a602482015279151c985b9cd858dd1a5bdb88191bd95cc81b9bdd08195e1a5cdd60321b6044820152606490fd5b15611ca357565b60405162461bcd60e51b815260206004820152601c60248201527b151c985b9cd858dd1a5bdb88185b1c9958591e48195e1958dd5d195960221b6044820152606490fd5b5f525f602052600160405f20015490565b5f198114610d625760010190565b6001600160401b03811161126057601f01601f191660200190565b929192611d2d82611d06565b91611d3b6040519384611acb565b829481845281830111610403578281602093845f960137010152565b601f8211611d6457505050565b5f5260205f20906020601f840160051c83019310611d9c575b601f0160051c01905b818110611d91575050565b5f8155600101611d86565b9091508190611d7d565b335f526005602052611dbe60ff60405f205416611c19565b565b6001600160401b0381116112605760051b60200190565b80518210156118bb5760209160051b010190565b91908110156118bb5760051b0190565b356001600160a01b03811681036104035790565b60405190600654808352826020810160065f5260205f20925f5b818110611e3e575050611dbe92500383611acb565b84546001600160a01b0316835260019485019487945060209093019201611e29565b15611e6757565b60405162461bcd60e51b8152602060048201526016602482015275496e76616c6964207369676e6572206164647265737360501b6044820152606490fd5b15611eac57565b60405162461bcd60e51b815260206004820152601060248201526f20b63932b0b23c90309039b4b3b732b960811b6044820152606490fd5b60065490600160401b82101561126057610d09826001611dbe940160065560066118cf565b90611f1382611dc0565b611f206040519182611acb565b8281528092611f31601f1991611dc0565b0190602036910137565b5f8181526020818152604080832033845290915290205460ff1615611f5d5750565b33611f68602a611d06565b91611f766040519384611acb565b602a8352611f84602a611d06565b602084019290601f19013684378351156118bb57603083538351600110156118bb576078602185015360295b6001811161213c57506120b657611fc76042611d06565b90611fd56040519283611acb565b60428252611fe36042611d06565b602083019190601f19013683378251156118bb57603082538251600110156118bb576078602184015360415b600181116120fa57506120b6576120b293603760119284612092955060405196879476020b1b1b2b9b9a1b7b73a3937b61d1030b1b1b7bab73a1604d1b60208701525180918587015e8401907001034b99036b4b9b9b4b733903937b6329607d1b84830152518092604883015e01015f838201520301601f198101835282611acb565b60405162461bcd60e51b81526020600482015291829160248301906118e4565b0390fd5b606460405162461bcd60e51b815260206004820152602060248201527f537472696e67733a20686578206c656e67746820696e73756666696369656e746044820152fd5b90600f81169060108210156118bb57612137916f181899199a1a9b1b9c1cb0b131b232b360811b901a61212d84876121f4565b5360041c91611bca565b61200f565b90600f81169060108210156118bb5761216f916f181899199a1a9b1b9c1cb0b131b232b360811b901a61212d84886121f4565b611fb0565b5f818152602081815260408083206001600160a01b038616845290915290205460ff1661219f575050565b5f818152602081815260408083206001600160a01b0395909516808452949091528120805460ff19169055339291907ff6391f5c32d9c69d2a47ea670b442974b53935d1edc7fd64eb21e047a839171b9080a4565b9081518110156118bb57016020019056fe47d1c22a25bb3a5d4e481b9b1e6944c2eade3181a0a20b495ed61d35b5323f243525e22824a8a7df2c9a6029941c824cf95b6447f1e13d5128fd3826d35afe8b543b9305d30bac0554326209618541e9ead6edf28ced1ee069f681bd6b911741a264697066735822122099230a758bc4b1b2b75d108958f8401b34c732f87299ac6a193a35c49e7547ca64736f6c634300081d0033ad3228b676f7d3cd4284a5443f17f1962b36e491b30a40b2405849e597ba5fb5","linkReferences":{}},"methodIdentifiers":{"DEFAULT_ADMIN_ROLE()":"a217fddf","addSigner(address)":"eb12d61e","addSignersBatch(address[])":"ce136bd1","confirmTransaction(uint256)":"c01a8c84","confirmations(uint256,address)":"3411c81c","emergencyPause()":"51858e27","emergencyUnpause()":"4a4e3bd5","executeTransaction(uint256)":"ee22610b","getPendingTransactions()":"d11db83f","getRoleAdmin(bytes32)":"248a9ca3","getSignerInfo()":"e3c710bd","getSignerStatus(address)":"e695402a","getSigners()":"94cf795e","getTransaction(uint256)":"33ea3dc8","getTransactionConfirmations(uint256)":"739cc0dc","grantRole(bytes32,address)":"2f2ff15d","hasRole(bytes32,address)":"91d14854","isConfirmed(uint256,address)":"80f59a65","isSigner(address)":"7df73e27","removeSigner(address)":"0e316ab7","removeSignersBatch(address[])":"869e13ba","renounceRole(bytes32,address)":"36568abe","requiredSignatures()":"8d068043","revokeConfirmation(uint256)":"20ea8d86","revokeRole(bytes32,address)":"d547741f","signers(uint256)":"2079fb9a","submitTransaction(address,uint256,bytes,string)":"46e24b08","supportsInterface(bytes4)":"01ffc9a7","tokenContract()":"55a373d6","totalSigners()":"d1a62648","transactionCount()":"b77bf600","transactions(uint256)":"9ace38c2","updateRequiredSignatures(uint256)":"0d60432e"},"id":16}