{"abi":[{"type":"constructor","inputs":[{"name":"_tokenContract","type":"address","internalType":"address"}],"stateMutability":"nonpayable"},{"type":"function","name":"ADMIN_ROLE","inputs":[],"outputs":[{"name":"","type":"bytes32","internalType":"bytes32"}],"stateMutability":"view"},{"type":"function","name":"DEFAULT_ADMIN_ROLE","inputs":[],"outputs":[{"name":"","type":"bytes32","internalType":"bytes32"}],"stateMutability":"view"},{"type":"function","name":"EXECUTOR_ROLE","inputs":[],"outputs":[{"name":"","type":"bytes32","internalType":"bytes32"}],"stateMutability":"view"},{"type":"function","name":"cancelProposal","inputs":[{"name":"proposalId","type":"uint256","internalType":"uint256"}],"outputs":[],"stateMutability":"nonpayable"},{"type":"function","name":"createProposal","inputs":[{"name":"proposalDescription","type":"string","internalType":"string"}],"outputs":[{"name":"","type":"uint256","internalType":"uint256"}],"stateMutability":"nonpayable"},{"type":"function","name":"executeProposal","inputs":[{"name":"proposalId","type":"uint256","internalType":"uint256"}],"outputs":[],"stateMutability":"nonpayable"},{"type":"function","name":"getProposal","inputs":[{"name":"proposalId","type":"uint256","internalType":"uint256"}],"outputs":[{"name":"id","type":"uint256","internalType":"uint256"},{"name":"proposer","type":"address","internalType":"address"},{"name":"description","type":"string","internalType":"string"},{"name":"forVotes","type":"uint256","internalType":"uint256"},{"name":"againstVotes","type":"uint256","internalType":"uint256"},{"name":"startTime","type":"uint256","internalType":"uint256"},{"name":"endTime","type":"uint256","internalType":"uint256"},{"name":"executed","type":"bool","internalType":"bool"},{"name":"canceled","type":"bool","internalType":"bool"}],"stateMutability":"view"},{"type":"function","name":"getRoleAdmin","inputs":[{"name":"role","type":"bytes32","internalType":"bytes32"}],"outputs":[{"name":"","type":"bytes32","internalType":"bytes32"}],"stateMutability":"view"},{"type":"function","name":"getVote","inputs":[{"name":"proposalId","type":"uint256","internalType":"uint256"},{"name":"voter","type":"address","internalType":"address"}],"outputs":[{"name":"support","type":"bool","internalType":"bool"}],"stateMutability":"view"},{"type":"function","name":"governanceExecutor","inputs":[],"outputs":[{"name":"","type":"address","internalType":"address"}],"stateMutability":"view"},{"type":"function","name":"grantRole","inputs":[{"name":"role","type":"bytes32","internalType":"bytes32"},{"name":"account","type":"address","internalType":"address"}],"outputs":[],"stateMutability":"nonpayable"},{"type":"function","name":"hasRole","inputs":[{"name":"role","type":"bytes32","internalType":"bytes32"},{"name":"account","type":"address","internalType":"address"}],"outputs":[{"name":"","type":"bool","internalType":"bool"}],"stateMutability":"view"},{"type":"function","name":"hasVoted","inputs":[{"name":"proposalId","type":"uint256","internalType":"uint256"},{"name":"voter","type":"address","internalType":"address"}],"outputs":[{"name":"","type":"bool","internalType":"bool"}],"stateMutability":"view"},{"type":"function","name":"minDelay","inputs":[],"outputs":[{"name":"","type":"uint256","internalType":"uint256"}],"stateMutability":"view"},{"type":"function","name":"multisig","inputs":[],"outputs":[{"name":"","type":"address","internalType":"address"}],"stateMutability":"view"},{"type":"function","name":"proposalCount","inputs":[],"outputs":[{"name":"","type":"uint256","internalType":"uint256"}],"stateMutability":"view"},{"type":"function","name":"proposals","inputs":[{"name":"","type":"uint256","internalType":"uint256"}],"outputs":[{"name":"id","type":"uint256","internalType":"uint256"},{"name":"proposer","type":"address","internalType":"address"},{"name":"description","type":"string","internalType":"string"},{"name":"forVotes","type":"uint256","internalType":"uint256"},{"name":"againstVotes","type":"uint256","internalType":"uint256"},{"name":"startTime","type":"uint256","internalType":"uint256"},{"name":"endTime","type":"uint256","internalType":"uint256"},{"name":"executed","type":"bool","internalType":"bool"},{"name":"canceled","type":"bool","internalType":"bool"}],"stateMutability":"view"},{"type":"function","name":"renounceRole","inputs":[{"name":"role","type":"bytes32","internalType":"bytes32"},{"name":"account","type":"address","internalType":"address"}],"outputs":[],"stateMutability":"nonpayable"},{"type":"function","name":"revokeRole","inputs":[{"name":"role","type":"bytes32","internalType":"bytes32"},{"name":"account","type":"address","internalType":"address"}],"outputs":[],"stateMutability":"nonpayable"},{"type":"function","name":"setGovernanceExecutor","inputs":[{"name":"executor","type":"address","internalType":"address"}],"outputs":[],"stateMutability":"nonpayable"},{"type":"function","name":"setMinDelay","inputs":[{"name":"_minDelay","type":"uint256","internalType":"uint256"}],"outputs":[],"stateMutability":"nonpayable"},{"type":"function","name":"setMultisig","inputs":[{"name":"_multisig","type":"address","internalType":"address"}],"outputs":[],"stateMutability":"nonpayable"},{"type":"function","name":"setTimelock","inputs":[{"name":"_timelock","type":"address","internalType":"address"}],"outputs":[],"stateMutability":"nonpayable"},{"type":"function","name":"supportsInterface","inputs":[{"name":"interfaceId","type":"bytes4","internalType":"bytes4"}],"outputs":[{"name":"","type":"bool","internalType":"bool"}],"stateMutability":"view"},{"type":"function","name":"timelock","inputs":[],"outputs":[{"name":"","type":"address","internalType":"address"}],"stateMutability":"view"},{"type":"function","name":"tokenContract","inputs":[],"outputs":[{"name":"","type":"address","internalType":"address"}],"stateMutability":"view"},{"type":"function","name":"vote","inputs":[{"name":"proposalId","type":"uint256","internalType":"uint256"},{"name":"support","type":"bool","internalType":"bool"}],"outputs":[],"stateMutability":"nonpayable"},{"type":"event","name":"GovernanceUpdated","inputs":[{"name":"executor","type":"address","indexed":false,"internalType":"address"},{"name":"multisig","type":"address","indexed":false,"internalType":"address"},{"name":"timelock","type":"address","indexed":false,"internalType":"address"}],"anonymous":false},{"type":"event","name":"ProposalCanceled","inputs":[{"name":"proposalId","type":"uint256","indexed":true,"internalType":"uint256"}],"anonymous":false},{"type":"event","name":"ProposalCreated","inputs":[{"name":"proposalId","type":"uint256","indexed":true,"internalType":"uint256"},{"name":"proposer","type":"address","indexed":true,"internalType":"address"},{"name":"description","type":"string","indexed":false,"internalType":"string"}],"anonymous":false},{"type":"event","name":"ProposalExecuted","inputs":[{"name":"proposalId","type":"uint256","indexed":true,"internalType":"uint256"}],"anonymous":false},{"type":"event","name":"ProposalVoted","inputs":[{"name":"proposalId","type":"uint256","indexed":true,"internalType":"uint256"},{"name":"voter","type":"address","indexed":true,"internalType":"address"},{"name":"support","type":"bool","indexed":false,"internalType":"bool"},{"name":"weight","type":"uint256","indexed":false,"internalType":"uint256"}],"anonymous":false},{"type":"event","name":"RoleAdminChanged","inputs":[{"name":"role","type":"bytes32","indexed":true,"internalType":"bytes32"},{"name":"previousAdminRole","type":"bytes32","indexed":true,"internalType":"bytes32"},{"name":"newAdminRole","type":"bytes32","indexed":true,"internalType":"bytes32"}],"anonymous":false},{"type":"event","name":"RoleGranted","inputs":[{"name":"role","type":"bytes32","indexed":true,"internalType":"bytes32"},{"name":"account","type":"address","indexed":true,"internalType":"address"},{"name":"sender","type":"address","indexed":true,"internalType":"address"}],"anonymous":false},{"type":"event","name":"RoleRevoked","inputs":[{"name":"role","type":"bytes32","indexed":true,"internalType":"bytes32"},{"name":"account","type":"address","indexed":true,"internalType":"address"},{"name":"sender","type":"address","indexed":true,"internalType":"address"}],"anonymous":false}],"bytecode":{"object":"0x60803461020e57601f6117b838819003918201601f19168301916001600160401b038311848410176102125780849260209460405283398101031261020e57516001600160a01b0381169081900361020e5762015180600655600180546001600160a01b031916919091179055335f9081525f5160206117985f395f51905f52602052604090205460ff16156101d1575b335f9081525f5160206117585f395f51905f52602052604090205460ff1615610172575b335f9081525f5160206117785f395f51905f52602052604090205460ff1615610113575b60028054336001600160a01b031991821681179092556003805482168317905560048054909116909117905560405161151190816102278239f35b335f8181525f5160206117785f395f51905f5260205260408120805460ff1916600117905581907fd8aa0f3194971a2a116679f7c2090f6939c8d4e01a2a8d7e41d55e5351469e63905f5160206117385f395f51905f529080a46100d8565b335f8181525f5160206117585f395f51905f5260205260408120805460ff1916600117905581907fa49807205ce4d355092ef5a8a18f56e8913cf4a201fbe287825b095693c21775905f5160206117385f395f51905f529080a46100b4565b335f8181525f5160206117985f395f51905f5260205260408120805460ff1916600117905581905f5160206117385f395f51905f528180a4610090565b5f80fd5b634e487b7160e01b5f52604160045260245ffdfe60806040526004361015610011575f80fd5b5f3560e01c8063013cf08b14610e6e57806301ffc9a714610e1857806307bd026514610df15780630d61b51914610bb45780630f30030014610b37578063248a9ca314610b115780632f2ff15d14610a6657806336568abe146109d457806343859632146109885780634783c35b1461096057806349c2a1a61461072f57806355a373d61461070757806375b238fc146106e05780638fc98386146106b857806391d1485414610670578063a217fddf14610656578063ba29482f14610635578063bc3f931f146105e9578063bdacb3031461056e578063c63c4e9b14610551578063c7f758a8146104db578063c9d27afe146102fe578063d33219b4146102d6578063d547741f1461029e578063da35c66414610281578063e0a8f6f5146101c75763f3283fba14610142575f80fd5b346101c35760203660031901126101c3575f5160206114bc5f395f51905f5261016961106a565b61017161118d565b6001600160a01b03811661018681151561111b565b600380546001600160a01b0319169190911790556002546004546040519283926101be926001600160a01b0390811692911684611159565b0390a1005b5f80fd5b346101c35760203660031901126101c3576004356101e361118d565b805f526007602052600760405f206101fd83825414611096565b01805461020d60ff8216156110dc565b60ff8160081c166102495761ff0019166101001790557f789cf55be980739dad1d0699b93b58e806b51c9d96619bfa8fe0a28abaa7b30c5f80a2005b60405162461bcd60e51b815260206004820152601060248201526f105b1c9958591e4818d85b98d95b195960821b6044820152606490fd5b346101c3575f3660031901126101c3576020600554604051908152f35b346101c35760403660031901126101c3576102d46004356102bd611080565b906102cf6102ca8261117c565b6111f1565b611233565b005b346101c3575f3660031901126101c3576004546040516001600160a01b039091168152602090f35b346101c35760403660031901126101c35760043560243590811515918281036101c357815f52600760205260405f209061033a83835414611096565b600682015442116104a057335f90815260088301602081905260409091205460ff1661046b57600783015460ff811615908161045c575b501561042157335f908152602091825260408082208054600160ff1991821617909155600986019093529020805490911660ff86161790551561040a57600301805490600182018092116103f657555b604051918252600160208301527f78975aaf742630489badd22949b88ac50eaaea576339ee05440b671a33bfb6a960403393a3005b634e487b7160e01b5f52601160045260245ffd5b600401805490600182018092116103f657556103c1565b60405162461bcd60e51b815260206004820152601360248201527250726f706f73616c206e6f742061637469766560681b6044820152606490fd5b60ff915060081c161586610371565b60405162461bcd60e51b815260206004820152600d60248201526c105b1c9958591e481d9bdd1959609a1b6044820152606490fd5b60405162461bcd60e51b8152602060048201526013602482015272159bdd1a5b99c81c195c9a5bd908195b991959606a1b6044820152606490fd5b346101c35760203660031901126101c3576004355f52600760205260405f2080549061054d60018060a01b036001830154169160038101549360048201546005830154600684015491610535600260078701549601610f50565b9760405198899860ff808960081c169816968a611014565b0390f35b346101c3575f3660031901126101c3576020600654604051908152f35b346101c35760203660031901126101c3575f5160206114bc5f395f51905f5261059561106a565b61059d61118d565b6001600160a01b0381166105b281151561111b565b600480546001600160a01b0319169190911790556002546003546040519283926101be926001600160a01b03908116911684611159565b346101c35760403660031901126101c357610602611080565b6004355f526007602052600960405f20019060018060a01b03165f52602052602060ff60405f2054166040519015158152f35b346101c35760203660031901126101c35761064e61118d565b600435600655005b346101c3575f3660031901126101c35760206040515f8152f35b346101c35760403660031901126101c357610689611080565b6004355f525f60205260405f209060018060a01b03165f52602052602060ff60405f2054166040519015158152f35b346101c3575f3660031901126101c3576002546040516001600160a01b039091168152602090f35b346101c3575f3660031901126101c35760206040515f51602061149c5f395f51905f528152f35b346101c3575f3660031901126101c3576001546040516001600160a01b039091168152602090f35b346101c35760203660031901126101c3576004356001600160401b0381116101c357366023820112156101c35760048101356001600160401b0381116101c35736602482840101116101c3578015610927576005545f1981146103f6576001019081600555815f52600760205260405f20828155600181013360018060a01b0319825416179055600281016107c48154610ee1565b601f81116108e2575b50825f601f8211600114610878575f9161086a575b508360011b905f198560031b1c19161790555b4260058201556006544201908142116103f657602094849260067f7585f467599d0f008985f231af99293be388626ac16ca59505c2f8f88969cd639301558360246040519288845282898501520160408301375f604085830101526040813395601f80199101168101030190a3604051908152f35b6024915086010135866107e2565b5f8381526020812092508590601f198216905b8181106108c45750106108a8575b5050600183811b0190556107f5565b8601602401355f19600386901b60f8161c191690558580610899565b8984016024013585556001909401936020938401938893500161088b565b815f5260205f20601f850160051c8101916020861061091d575b601f0160051c01905b81811061091257506107cd565b5f8155600101610905565b90915081906108fc565b60405162461bcd60e51b815260206004820152601160248201527022b6b83a3c903232b9b1b934b83a34b7b760791b6044820152606490fd5b346101c3575f3660031901126101c3576003546040516001600160a01b039091168152602090f35b346101c35760403660031901126101c3576109a1611080565b6004355f526007602052600860405f20019060018060a01b03165f52602052602060ff60405f2054166040519015158152f35b346101c35760403660031901126101c3576109ed611080565b336001600160a01b03821603610a09576102d490600435611233565b60405162461bcd60e51b815260206004820152602f60248201527f416363657373436f6e74726f6c3a2063616e206f6e6c792072656e6f756e636560448201526e103937b632b9903337b91039b2b63360891b6064820152608490fd5b346101c35760403660031901126101c357600435610a82611080565b90610a8f6102ca8261117c565b5f818152602081815260408083206001600160a01b038616845290915290205460ff1615610ab957005b5f818152602081815260408083206001600160a01b0395909516808452949091528120805460ff19166001179055339291907f2f8788117e7eff1d82e926ec794901d17c78024a50270940304540a733656f0d9080a4005b346101c35760203660031901126101c3576020610b2f60043561117c565b604051908152f35b346101c35760203660031901126101c3575f5160206114bc5f395f51905f52610b5e61106a565b610b6661118d565b6001600160a01b038116610b7b81151561111b565b600280546001600160a01b0319169190911790556003546004546040519283926101be926001600160a01b039081169291169084611159565b346101c35760203660031901126101c357335f9081527fdae2aa361dfd1ca020a396615627d436107c35eff9fe7738a3512819782d706960205260409020546004359060ff1615610d3557805f52600760205260405f20610c1782825414611096565b6006810154421115610cf6576007810190815490610c3860ff8316156110dc565b60ff8260081c16610cbd57600460038201549101541015610c825760ff191660011790557f712ae1383f79ac853f8d882153778e0260ef8f03b504e2866e0593e04d2b291f5f80a2005b60405162461bcd60e51b8152602060048201526013602482015272141c9bdc1bdcd85b081b9bdd081c185cdcd959606a1b6044820152606490fd5b60405162461bcd60e51b8152602060048201526011602482015270141c9bdc1bdcd85b0818d85b98d95b1959607a1b6044820152606490fd5b60405162461bcd60e51b8152602060048201526017602482015276159bdd1a5b99c81c195c9a5bd9081b9bdd08195b991959604a1b6044820152606490fd5b610ded6020610dcd6011610d48336112f3565b603784610d615f51602061147c5f395f51905f526113d9565b60405196879476020b1b1b2b9b9a1b7b73a3937b61d1030b1b1b7bab73a1604d1b828701528051918291018587015e8401907001034b99036b4b9b9b4b733903937b6329607d1b84830152805192839101604883015e01015f838201520301601f198101835282610f19565b60405162461bcd60e51b8152602060048201529182916024830190610ff0565b0390fd5b346101c3575f3660031901126101c35760206040515f51602061147c5f395f51905f528152f35b346101c35760203660031901126101c35760043563ffffffff60e01b81168091036101c357602090637965db0b60e01b8114908115610e5d575b506040519015158152f35b6301ffc9a760e01b14905082610e52565b346101c35760203660031901126101c3576004355f52600760205260405f2080549061054d60018060a01b0360018301541691610ead60028201610f50565b936003820154916004810154600582015490600760068401549301549460405198899860ff808960081c169816968a611014565b90600182811c92168015610f0f575b6020831014610efb57565b634e487b7160e01b5f52602260045260245ffd5b91607f1691610ef0565b601f909101601f19168101906001600160401b03821190821017610f3c57604052565b634e487b7160e01b5f52604160045260245ffd5b9060405191825f825492610f6384610ee1565b8084529360018116908115610fce5750600114610f8a575b50610f8892500383610f19565b565b90505f9291925260205f20905f915b818310610fb2575050906020610f88928201015f610f7b565b6020919350806001915483858901015201910190918492610f99565b905060209250610f8894915060ff191682840152151560051b8201015f610f7b565b805180835260209291819084018484015e5f828201840152601f01601f1916010190565b9794919261010097949a999693611047928a5260018060a01b031660208a015261012060408a0152610120890190610ff0565b986060880152608087015260a086015260c0850152151560e08401521515910152565b600435906001600160a01b03821682036101c357565b602435906001600160a01b03821682036101c357565b1561109d57565b60405162461bcd60e51b8152602060048201526017602482015276141c9bdc1bdcd85b08191bd95cc81b9bdd08195e1a5cdd604a1b6044820152606490fd5b156110e357565b60405162461bcd60e51b815260206004820152601060248201526f105b1c9958591e48195e1958dd5d195960821b6044820152606490fd5b1561112257565b60405162461bcd60e51b815260206004820152600f60248201526e496e76616c6964206164647265737360881b6044820152606490fd5b6001600160a01b0391821681529181166020830152909116604082015260600190565b5f525f602052600160405f20015490565b335f9081527f7d7ffb7a348e1c6a02869081a26547b49160dd3df72d1d75a570eb9b698292ec602052604090205460ff16156111c557565b610ded6020610dcd60116111d8336112f3565b603784610d615f51602061149c5f395f51905f526113d9565b5f8181526020818152604080832033845290915290205460ff16156112135750565b6020610dcd6011610ded93603784610d6161122d336112f3565b936113d9565b5f818152602081815260408083206001600160a01b038616845290915290205460ff1661125e575050565b5f818152602081815260408083206001600160a01b0395909516808452949091528120805460ff19169055339291907ff6391f5c32d9c69d2a47ea670b442974b53935d1edc7fd64eb21e047a839171b9080a4565b6001600160401b038111610f3c57601f01601f191660200190565b9081518110156112df570160200190565b634e487b7160e01b5f52603260045260245ffd5b6112fd602a6112b3565b9061130b6040519283610f19565b602a8252611319602a6112b3565b6020830190601f19013682378251156112df57603090538151600110156112df576078602183015360295b6001811161139857506113545790565b606460405162461bcd60e51b815260206004820152602060248201527f537472696e67733a20686578206c656e67746820696e73756666696369656e746044820152fd5b90600f811660108110156112df576f181899199a1a9b1b9c1cb0b131b232b360811b901a6113c683856112ce565b5360041c9080156103f6575f1901611344565b6113e360426112b3565b906113f16040519283610f19565b604282526113ff60426112b3565b6020830190601f19013682378251156112df57603090538151600110156112df576078602183015360415b6001811161143a57506113545790565b90600f811660108110156112df576f181899199a1a9b1b9c1cb0b131b232b360811b901a61146883856112ce565b5360041c9080156103f6575f190161142a56fed8aa0f3194971a2a116679f7c2090f6939c8d4e01a2a8d7e41d55e5351469e63a49807205ce4d355092ef5a8a18f56e8913cf4a201fbe287825b095693c2177590b375664e9a43804c99f7ca56c286994784847fd2f8084bb1510522ad774b93a264697066735822122070ded63552e675c5926da450655906fcf601c6ebb84899d0cd5b317ac542de7d64736f6c634300081d00332f8788117e7eff1d82e926ec794901d17c78024a50270940304540a733656f0d7d7ffb7a348e1c6a02869081a26547b49160dd3df72d1d75a570eb9b698292ecdae2aa361dfd1ca020a396615627d436107c35eff9fe7738a3512819782d7069ad3228b676f7d3cd4284a5443f17f1962b36e491b30a40b2405849e597ba5fb5","linkReferences":{}},"methodIdentifiers":{"ADMIN_ROLE()":"75b238fc","DEFAULT_ADMIN_ROLE()":"a217fddf","EXECUTOR_ROLE()":"07bd0265","cancelProposal(uint256)":"e0a8f6f5","createProposal(string)":"49c2a1a6","executeProposal(uint256)":"0d61b519","getProposal(uint256)":"c7f758a8","getRoleAdmin(bytes32)":"248a9ca3","getVote(uint256,address)":"bc3f931f","governanceExecutor()":"8fc98386","grantRole(bytes32,address)":"2f2ff15d","hasRole(bytes32,address)":"91d14854","hasVoted(uint256,address)":"43859632","minDelay()":"c63c4e9b","multisig()":"4783c35b","proposalCount()":"da35c664","proposals(uint256)":"013cf08b","renounceRole(bytes32,address)":"36568abe","revokeRole(bytes32,address)":"d547741f","setGovernanceExecutor(address)":"0f300300","setMinDelay(uint256)":"ba29482f","setMultisig(address)":"f3283fba","setTimelock(address)":"bdacb303","supportsInterface(bytes4)":"01ffc9a7","timelock()":"d33219b4","tokenContract()":"55a373d6","vote(uint256,bool)":"c9d27afe"},"id":7}