{"abi":[{"type":"constructor","inputs":[{"name":"_token","type":"address","internalType":"address"},{"name":"_minter","type":"address","internalType":"address"},{"name":"_admin","type":"address","internalType":"address"}],"stateMutability":"nonpayable"},{"type":"function","name":"admin","inputs":[],"outputs":[{"name":"","type":"address","internalType":"address"}],"stateMutability":"view"},{"type":"function","name":"batchMint","inputs":[{"name":"recipients","type":"address[]","internalType":"address[]"},{"name":"amounts","type":"uint256[]","internalType":"uint256[]"}],"outputs":[],"stateMutability":"nonpayable"},{"type":"function","name":"batchTransfer","inputs":[{"name":"sender","type":"address","internalType":"address"},{"name":"recipients","type":"address[]","internalType":"address[]"},{"name":"amounts","type":"uint256[]","internalType":"uint256[]"}],"outputs":[],"stateMutability":"nonpayable"},{"type":"function","name":"minter","inputs":[],"outputs":[{"name":"","type":"address","internalType":"address"}],"stateMutability":"view"},{"type":"function","name":"token","inputs":[],"outputs":[{"name":"","type":"address","internalType":"address"}],"stateMutability":"view"},{"type":"event","name":"BatchMint","inputs":[{"name":"recipients","type":"address[]","indexed":false,"internalType":"address[]"},{"name":"amounts","type":"uint256[]","indexed":false,"internalType":"uint256[]"}],"anonymous":false},{"type":"event","name":"BatchTransfer","inputs":[{"name":"sender","type":"address","indexed":true,"internalType":"address"},{"name":"recipients","type":"address[]","indexed":false,"internalType":"address[]"},{"name":"amounts","type":"uint256[]","indexed":false,"internalType":"uint256[]"}],"anonymous":false}],"bytecode":{"object":"0x60803461013257601f6108f838819003918201601f19168301916001600160401b0383118484101761013657808492606094604052833981010312610132576100478161014a565b9061006060406100596020840161014a565b920161014a565b6001600160a01b039091169081156100fc576001600160a01b03169182156100c75760018060a01b031660018060a01b03195f5416175f5560018060a01b0319600154161760015560018060a01b03196002541617600255604051610799908161015f8239f35b60405162461bcd60e51b815260206004820152600d60248201526c24b73b30b634b21030b236b4b760991b6044820152606490fd5b60405162461bcd60e51b815260206004820152600e60248201526d24b73b30b634b21036b4b73a32b960911b6044820152606490fd5b5f80fd5b634e487b7160e01b5f52604160045260245ffd5b51906001600160a01b03821682036101325756fe6080806040526004361015610012575f80fd5b5f3560e01c90816307546172146104d5575080631239ec8c1461025b57806368573107146100a6578063f851a4401461007e5763fc0c546a14610053575f80fd5b3461007a575f36600319011261007a575f546040516001600160a01b039091168152602090f35b5f80fd5b3461007a575f36600319011261007a576002546040516001600160a01b039091168152602090f35b3461007a57604036600319011261007a576004356001600160401b03811161007a576100d69036906004016104f8565b6024356001600160401b03811161007a576100f59036906004016104f8565b9061010b60018060a01b03600154163314610528565b610116828414610562565b61012360648411156105a0565b5f805b83821061023b5750505f5b83811061017157507ffaf57cfa9b203e1595c4252f7c567602ab45cd94ac5800f44b647a543703fb8b939161016c91604051948594856106ef565b0390a1005b6101976001600160a01b0361018f61018a84888a6105e2565b61065e565b161515610672565b6101ad6101a58285856105e2565b3515156106b2565b5f546001600160a01b0316906101c761018a8287896105e2565b6101d28286866105e2565b35833b1561007a576040516340c10f1960e01b81526001600160a01b0390921660048301526024820152915f908390604490829084905af191821561023057600192610220575b5001610131565b5f61022a91610627565b86610219565b6040513d5f823e3d90fd5b61025360019161024c8487876105e2565b3590610606565b910190610126565b3461007a57606036600319011261007a576004356001600160a01b0381169081900361007a576024356001600160401b03811161007a576102a09036906004016104f8565b9091906044356001600160401b03811161007a576102c29036906004016104f8565b6102da60018060a09794971b03600154163314610528565b6102e5818414610562565b6102f260328411156105a0565b5f5f5b8281106104bc57505f546040516370a0823160e01b81526004810187905290602090829060249082906001600160a01b03165afa908115610230575f9161048a575b501061044e575f5b83811061037f575061037a907fd76871a3b9b205c530f73884df11af482cc4ac28f71bdb2f15a98e79a3a790769495604051948594856106ef565b0390a2005b6103986001600160a01b0361018f61018a8488886105e2565b6103a66101a58284896105e2565b5f546001600160a01b031660206103c161018a8488886105e2565b60646103ce85878c6105e2565b6040516323b872dd60e01b8152600481018b90526001600160a01b039093166024840152356044830152909283919082905f905af1801561023057610417575b5060010161033f565b6020813d8211610446575b8161042f60209383610627565b8101031261007a57518015150361007a578661040e565b3d9150610422565b60405162461bcd60e51b8152602060048201526014602482015273496e73756666696369656e742062616c616e636560601b6044820152606490fd5b90506020813d6020116104b4575b816104a560209383610627565b8101031261007a575187610337565b3d9150610498565b906104ce60019161024c84868b6105e2565b91016102f5565b3461007a575f36600319011261007a576001546001600160a01b03168152602090f35b9181601f8401121561007a578235916001600160401b03831161007a576020808501948460051b01011161007a57565b1561052f57565b60405162461bcd60e51b815260206004820152600b60248201526a27b7363c9036b4b73a32b960a91b6044820152606490fd5b1561056957565b60405162461bcd60e51b815260206004820152600f60248201526e098cadccee8d040dad2e6dac2e8c6d608b1b6044820152606490fd5b156105a757565b60405162461bcd60e51b8152602060048201526013602482015272546f6f206d616e7920726563697069656e747360681b6044820152606490fd5b91908110156105f25760051b0190565b634e487b7160e01b5f52603260045260245ffd5b9190820180921161061357565b634e487b7160e01b5f52601160045260245ffd5b601f909101601f19168101906001600160401b0382119082101761064a57604052565b634e487b7160e01b5f52604160045260245ffd5b356001600160a01b038116810361007a5790565b1561067957565b60405162461bcd60e51b8152602060048201526011602482015270125b9d985b1a59081c9958da5c1a595b9d607a1b6044820152606490fd5b156106b957565b60405162461bcd60e51b815260206004820152600e60248201526d125b9d985b1a5908185b5bdd5b9d60921b6044820152606490fd5b9091806040830160408452526060820192905f905b808210610739575050508082036020909101528281526001600160fb1b03831161007a5760209260051b809284830137010190565b90919384359060018060a01b03821680920361007a5760208160019382935201950192019061070456fea2646970667358221220b4e0e0c957fc9ba195c685705f73edc3934b427786b277929bf9fa30b61f625664736f6c634300081d0033","linkReferences":{}},"methodIdentifiers":{"admin()":"f851a440","batchMint(address[],uint256[])":"68573107","batchTransfer(address,address[],uint256[])":"1239ec8c","minter()":"07546172","token()":"fc0c546a"},"id":13}