{"abi":[{"type":"constructor","inputs":[{"name":"_rewardToken","type":"address","internalType":"address"},{"name":"_lpToken","type":"address","internalType":"address"}],"stateMutability":"nonpayable"},{"type":"function","name":"ADMIN_ROLE","inputs":[],"outputs":[{"name":"","type":"bytes32","internalType":"bytes32"}],"stateMutability":"view"},{"type":"function","name":"DAILY_REWARDS","inputs":[],"outputs":[{"name":"","type":"uint256","internalType":"uint256"}],"stateMutability":"view"},{"type":"function","name":"DEFAULT_ADMIN_ROLE","inputs":[],"outputs":[{"name":"","type":"bytes32","internalType":"bytes32"}],"stateMutability":"view"},{"type":"function","name":"LOCK_PERIOD","inputs":[],"outputs":[{"name":"","type":"uint256","internalType":"uint256"}],"stateMutability":"view"},{"type":"function","name":"MINING_DURATION","inputs":[],"outputs":[{"name":"","type":"uint256","internalType":"uint256"}],"stateMutability":"view"},{"type":"function","name":"REWARD_MANAGER_ROLE","inputs":[],"outputs":[{"name":"","type":"bytes32","internalType":"bytes32"}],"stateMutability":"view"},{"type":"function","name":"TOTAL_REWARDS","inputs":[],"outputs":[{"name":"","type":"uint256","internalType":"uint256"}],"stateMutability":"view"},{"type":"function","name":"claimRewards","inputs":[],"outputs":[],"stateMutability":"nonpayable"},{"type":"function","name":"emergencyPause","inputs":[],"outputs":[],"stateMutability":"nonpayable"},{"type":"function","name":"emergencyWithdraw","inputs":[],"outputs":[],"stateMutability":"nonpayable"},{"type":"function","name":"endMining","inputs":[],"outputs":[],"stateMutability":"nonpayable"},{"type":"function","name":"getMiningInfo","inputs":[],"outputs":[{"name":"totalStaked_","type":"uint256","internalType":"uint256"},{"name":"totalRewardsDistributed_","type":"uint256","internalType":"uint256"},{"name":"remainingRewards_","type":"uint256","internalType":"uint256"},{"name":"miningProgress_","type":"uint256","internalType":"uint256"},{"name":"timeRemaining_","type":"uint256","internalType":"uint256"},{"name":"dailyRewards_","type":"uint256","internalType":"uint256"}],"stateMutability":"view"},{"type":"function","name":"getPendingRewards","inputs":[{"name":"user","type":"address","internalType":"address"}],"outputs":[{"name":"","type":"uint256","internalType":"uint256"}],"stateMutability":"view"},{"type":"function","name":"getRoleAdmin","inputs":[{"name":"role","type":"bytes32","internalType":"bytes32"}],"outputs":[{"name":"","type":"bytes32","internalType":"bytes32"}],"stateMutability":"view"},{"type":"function","name":"getUserInfo","inputs":[{"name":"user","type":"address","internalType":"address"}],"outputs":[{"name":"stakedAmount","type":"uint256","internalType":"uint256"},{"name":"pendingRewards","type":"uint256","internalType":"uint256"},{"name":"lockTime","type":"uint256","internalType":"uint256"},{"name":"unlockTime","type":"uint256","internalType":"uint256"},{"name":"canUnstake","type":"bool","internalType":"bool"}],"stateMutability":"view"},{"type":"function","name":"grantRole","inputs":[{"name":"role","type":"bytes32","internalType":"bytes32"},{"name":"account","type":"address","internalType":"address"}],"outputs":[],"stateMutability":"nonpayable"},{"type":"function","name":"hasRole","inputs":[{"name":"role","type":"bytes32","internalType":"bytes32"},{"name":"account","type":"address","internalType":"address"}],"outputs":[{"name":"","type":"bool","internalType":"bool"}],"stateMutability":"view"},{"type":"function","name":"lastRewardTime","inputs":[],"outputs":[{"name":"","type":"uint256","internalType":"uint256"}],"stateMutability":"view"},{"type":"function","name":"lpToken","inputs":[],"outputs":[{"name":"","type":"address","internalType":"contract IERC20"}],"stateMutability":"view"},{"type":"function","name":"miningEndTime","inputs":[],"outputs":[{"name":"","type":"uint256","internalType":"uint256"}],"stateMutability":"view"},{"type":"function","name":"miningStartTime","inputs":[],"outputs":[{"name":"","type":"uint256","internalType":"uint256"}],"stateMutability":"view"},{"type":"function","name":"paused","inputs":[],"outputs":[{"name":"","type":"bool","internalType":"bool"}],"stateMutability":"view"},{"type":"function","name":"renounceRole","inputs":[{"name":"role","type":"bytes32","internalType":"bytes32"},{"name":"account","type":"address","internalType":"address"}],"outputs":[],"stateMutability":"nonpayable"},{"type":"function","name":"revokeRole","inputs":[{"name":"role","type":"bytes32","internalType":"bytes32"},{"name":"account","type":"address","internalType":"address"}],"outputs":[],"stateMutability":"nonpayable"},{"type":"function","name":"rewardPerToken","inputs":[],"outputs":[{"name":"","type":"uint256","internalType":"uint256"}],"stateMutability":"view"},{"type":"function","name":"rewardToken","inputs":[],"outputs":[{"name":"","type":"address","internalType":"contract IERC20"}],"stateMutability":"view"},{"type":"function","name":"setPaused","inputs":[{"name":"_paused","type":"bool","internalType":"bool"}],"outputs":[],"stateMutability":"nonpayable"},{"type":"function","name":"stake","inputs":[{"name":"amount","type":"uint256","internalType":"uint256"}],"outputs":[],"stateMutability":"nonpayable"},{"type":"function","name":"stakeAndClaim","inputs":[{"name":"amount","type":"uint256","internalType":"uint256"}],"outputs":[],"stateMutability":"nonpayable"},{"type":"function","name":"startMining","inputs":[],"outputs":[],"stateMutability":"nonpayable"},{"type":"function","name":"supportsInterface","inputs":[{"name":"interfaceId","type":"bytes4","internalType":"bytes4"}],"outputs":[{"name":"","type":"bool","internalType":"bool"}],"stateMutability":"view"},{"type":"function","name":"totalRewardsDistributed","inputs":[],"outputs":[{"name":"","type":"uint256","internalType":"uint256"}],"stateMutability":"view"},{"type":"function","name":"totalStaked","inputs":[],"outputs":[{"name":"","type":"uint256","internalType":"uint256"}],"stateMutability":"view"},{"type":"function","name":"unstake","inputs":[{"name":"amount","type":"uint256","internalType":"uint256"}],"outputs":[],"stateMutability":"nonpayable"},{"type":"function","name":"updateDailyRewards","inputs":[{"name":"newDailyRewards","type":"uint256","internalType":"uint256"}],"outputs":[],"stateMutability":"nonpayable"},{"type":"function","name":"userLockTime","inputs":[{"name":"","type":"address","internalType":"address"}],"outputs":[{"name":"","type":"uint256","internalType":"uint256"}],"stateMutability":"view"},{"type":"function","name":"userRewardDebt","inputs":[{"name":"","type":"address","internalType":"address"}],"outputs":[{"name":"","type":"uint256","internalType":"uint256"}],"stateMutability":"view"},{"type":"function","name":"userStakes","inputs":[{"name":"","type":"address","internalType":"address"}],"outputs":[{"name":"","type":"uint256","internalType":"uint256"}],"stateMutability":"view"},{"type":"function","name":"withdrawLPTokens","inputs":[],"outputs":[],"stateMutability":"nonpayable"},{"type":"function","name":"withdrawRewardTokens","inputs":[],"outputs":[],"stateMutability":"nonpayable"},{"type":"event","name":"MiningEnded","inputs":[{"name":"totalRewardsDistributed","type":"uint256","indexed":false,"internalType":"uint256"}],"anonymous":false},{"type":"event","name":"MiningStarted","inputs":[{"name":"startTime","type":"uint256","indexed":false,"internalType":"uint256"},{"name":"endTime","type":"uint256","indexed":false,"internalType":"uint256"}],"anonymous":false},{"type":"event","name":"Paused","inputs":[{"name":"account","type":"address","indexed":false,"internalType":"address"}],"anonymous":false},{"type":"event","name":"RewardsClaimed","inputs":[{"name":"user","type":"address","indexed":true,"internalType":"address"},{"name":"amount","type":"uint256","indexed":false,"internalType":"uint256"}],"anonymous":false},{"type":"event","name":"RoleAdminChanged","inputs":[{"name":"role","type":"bytes32","indexed":true,"internalType":"bytes32"},{"name":"previousAdminRole","type":"bytes32","indexed":true,"internalType":"bytes32"},{"name":"newAdminRole","type":"bytes32","indexed":true,"internalType":"bytes32"}],"anonymous":false},{"type":"event","name":"RoleGranted","inputs":[{"name":"role","type":"bytes32","indexed":true,"internalType":"bytes32"},{"name":"account","type":"address","indexed":true,"internalType":"address"},{"name":"sender","type":"address","indexed":true,"internalType":"address"}],"anonymous":false},{"type":"event","name":"RoleRevoked","inputs":[{"name":"role","type":"bytes32","indexed":true,"internalType":"bytes32"},{"name":"account","type":"address","indexed":true,"internalType":"address"},{"name":"sender","type":"address","indexed":true,"internalType":"address"}],"anonymous":false},{"type":"event","name":"Staked","inputs":[{"name":"user","type":"address","indexed":true,"internalType":"address"},{"name":"amount","type":"uint256","indexed":false,"internalType":"uint256"},{"name":"lockTime","type":"uint256","indexed":false,"internalType":"uint256"}],"anonymous":false},{"type":"event","name":"Unpaused","inputs":[{"name":"account","type":"address","indexed":false,"internalType":"address"}],"anonymous":false},{"type":"event","name":"Unstaked","inputs":[{"name":"user","type":"address","indexed":true,"internalType":"address"},{"name":"amount","type":"uint256","indexed":false,"internalType":"uint256"}],"anonymous":false}],"bytecode":{"object":"0x6080346102a057601f61200b38819003918201601f19168301916001600160401b038311848410176102a45780849260409485528339810103126102a057610052602061004b836102b8565b92016102b8565b60018055600254906001600160a01b0383161561025b576001600160a01b0316918215610223576001600160a81b031990911660089190911b610100600160a81b031617600255600380546001600160a01b031916919091179055335f9081525f516020611feb5f395f51905f52602052604090205460ff16156101e6575b335f9081525f516020611fab5f395f51905f52602052604090205460ff1615610187575b335f9081525f516020611fcb5f395f51905f52602052604090205460ff1615610128575b604051611cbe90816102cd8239f35b335f8181525f516020611fcb5f395f51905f5260205260408120805460ff1916600117905581907f0f51adb3f49e4a9bbb17b3783f025995eaf8c24be2c8eefff214bdfda05ef94d905f516020611f8b5f395f51905f529080a4610119565b335f8181525f516020611fab5f395f51905f5260205260408120805460ff1916600117905581907fa49807205ce4d355092ef5a8a18f56e8913cf4a201fbe287825b095693c21775905f516020611f8b5f395f51905f529080a46100f5565b335f8181525f516020611feb5f395f51905f5260205260408120805460ff1916600117905581905f516020611f8b5f395f51905f528180a46100d1565b60405162461bcd60e51b815260206004820152601060248201526f24b73b30b634b2102628103a37b5b2b760811b6044820152606490fd5b60405162461bcd60e51b815260206004820152601460248201527f496e76616c69642072657761726420746f6b656e0000000000000000000000006044820152606490fd5b5f80fd5b634e487b7160e01b5f52604160045260245ffd5b51906001600160a01b03821682036102a05756fe6080806040526004361015610012575f80fd5b5f3560e01c90816301f88d26146114585750806301ffc9a71461140257806309cf6091146113dd57806315b56ed5146112c4578063161d04441461121857806316c38b3c146111255780631820cabb1461110857806321b79d9814611041578063248a9ca3146110235780632736b391146110065780632e17de7814610e885780632f2ff15d14610ddd57806332590c5c14610dc057806336568abe14610d2e578063370243dc14610c19578063372500ab14610b045780634b9afa8014610ae05780634bf6f9e714610aa857806351858e2714610a0a5780635a9a93fc146109d25780635c975abb146109b05780635fcbd285146109885780636386c1c7146109045780636d750d80146108ca57806375b238fc14610890578063817b1cd2146108735780638da7ad231461083b57806391d14854146107f35780639231cf74146107d6578063a217fddf146107bc578063a694fc3a14610700578063b26ae8b5146104f3578063c9186ddc14610429578063cd3daf9d1461040c578063d547741f146103d6578063db2e21bc1461039f578063edf8bc131461024c578063ee1725461461022f578063f6ed2017146102045763f7c618c1146101d4575f80fd5b34610200575f3660031901126102005760025460405160089190911c6001600160a01b03168152602090f35b5f80fd5b34610200576020366003190112610200576020610227610222611488565b6116fe565b604051908152f35b34610200575f366003190112610200576020600754604051908152f35b34610200575f36600319011261020057335f9081525f516020611c295f395f51905f5260205260409020546102839060ff1661149e565b6003546040516370a0823160e01b8152306004820152906001600160a01b0316602082602481845afa918215610320575f9261036b575b50811561032b576102e66020915f9360405194858094819363a9059cbb60e01b83523360048401611597565b03925af18015610320576102f657005b6103179060203d602011610319575b61030f8183611548565b81019061157f565b005b503d610305565b6040513d5f823e3d90fd5b60405162461bcd60e51b81526020600482015260186024820152774e6f204c5020746f6b656e7320746f20776974686472617760401b6044820152606490fd5b9091506020813d602011610397575b8161038760209383611548565b81010312610200575190826102ba565b3d915061037a565b34610200575f36600319011261020057335f9081525f516020611c295f395f51905f5260205260409020546103179060ff1661149e565b34610200576040366003190112610200576103176004356103f5611472565b90610407610402826114e4565b611914565b611b7c565b34610200575f366003190112610200576020600b54604051908152f35b34610200575f36600319011261020057600754806a0c685fa11e01ec6f00000003906a0c685fa11e01ec6f00000082116104df576064810291818304606414821517156104df5760c0925f906005548042106104c0575b506a0c685fa11e01ec6f0000009192600a549460405195865260208601526040850152046060830152608082015269152d02c7e14af680000060a0820152f35b6a0c685fa11e01ec6f00000092506104d990429061153b565b91610480565b634e487b7160e01b5f52601160045260245ffd5b3461020057602036600319011261020057600435610515600454421015611621565b610523600554421115611662565b61053260ff600254161561169d565b61053a611810565b6105458115156114f5565b6003546040516323b872dd60e01b81529060209082906001600160a01b0316815f81610576883033600485016116dc565b03925af1801561032057610591915f916106e1575b506115b2565b610599611866565b6105a2336116fe565b80610617575b50335f52600860205260405f206105c08282546114d7565b90556105ce81600a546114d7565b600a55335f52600c6020524260405f20556040519081524260208201527f1449c6dd7851abc30abf37f57715f492010519147cc2652fbc38202c18a6ee9060403392a260018055005b335f526008602052670de0b6b3a764000061063960405f2054600b54906115f0565b04335f52600960205260405f2055610653816007546114d7565b60075560025460405163a9059cbb60e01b815290602090829060081c6001600160a01b0316815f81610689883360048401611597565b03925af18015610320576106a3915f916106c257506115b2565b6040519081525f516020611c495f395f51905f5260203392a2816105a8565b6106db915060203d6020116103195761030f8183611548565b8461058b565b6106fa915060203d6020116103195761030f8183611548565b8361058b565b3461020057602036600319011261020057600435610722600454421015611621565b610730600554421115611662565b61073f60ff600254161561169d565b610747611810565b6107528115156114f5565b6003546040516323b872dd60e01b81529060209082906001600160a01b0316815f81610783883033600485016116dc565b03925af180156103205761079d915f916106e157506115b2565b6107a5611866565b335f52600860205260405f206105c08282546114d7565b34610200575f3660031901126102005760206040515f8152f35b34610200575f366003190112610200576020600654604051908152f35b346102005760403660031901126102005761080c611472565b6004355f525f60205260405f209060018060a01b03165f52602052602060ff60405f2054166040519015158152f35b34610200576020366003190112610200576001600160a01b0361085c611488565b165f526008602052602060405f2054604051908152f35b34610200575f366003190112610200576020600a54604051908152f35b34610200575f3660031901126102005760206040517fa49807205ce4d355092ef5a8a18f56e8913cf4a201fbe287825b095693c217758152f35b34610200575f3660031901126102005760206040517f0f51adb3f49e4a9bbb17b3783f025995eaf8c24be2c8eefff214bdfda05ef94d8152f35b346102005760203660031901126102005761091d611488565b60018060a01b03811690815f52600c60205260405f205462278d0081018091116104df578260a0935f52600860205261095a60405f2054936116fe565b905f52600c60205260405f205490604051938452602084015260408301528060608301524210156080820152f35b34610200575f366003190112610200576003546040516001600160a01b039091168152602090f35b34610200575f36600319011261020057602060ff600254166040519015158152f35b34610200576020366003190112610200576001600160a01b036109f3611488565b165f52600c602052602060405f2054604051908152f35b34610200575f36600319011261020057335f9081525f516020611c295f395f51905f526020526040902054610a419060ff1661149e565b60025460ff8116610a705760019060ff1916176002555f516020611c695f395f51905f526020604051338152a1005b60405162461bcd60e51b815260206004820152601060248201526f14185d5cd8589b194e881c185d5cd95960821b6044820152606490fd5b34610200576020366003190112610200576001600160a01b03610ac9611488565b165f526009602052602060405f2054604051908152f35b34610200575f36600319011261020057602060405169152d02c7e14af68000008152f35b34610200575f36600319011261020057610b1c611810565b610b25336116fe565b8015610bde57610b33611866565b335f526008602052670de0b6b3a7640000610b5560405f2054600b54906115f0565b04335f52600960205260405f2055610b6f816007546114d7565b60075560025460405163a9059cbb60e01b815290602090829060081c6001600160a01b0316815f81610ba5883360048401611597565b03925af1801561032057610bbf915f916106e157506115b2565b6040519081525f516020611c495f395f51905f5260203392a260018055005b60405162461bcd60e51b81526020600482015260136024820152724e6f207265776172647320746f20636c61696d60681b6044820152606490fd5b34610200575f36600319011261020057335f9081525f516020611c295f395f51905f526020526040902054610c509060ff1661149e565b6002546040516370a0823160e01b81523060048201529060081c6001600160a01b0316602082602481845afa918215610320575f92610cfa575b508115610cb6576102e66020915f9360405194858094819363a9059cbb60e01b83523360048401611597565b60405162461bcd60e51b815260206004820152601c60248201527b4e6f2072657761726420746f6b656e7320746f20776974686472617760201b6044820152606490fd5b9091506020813d602011610d26575b81610d1660209383611548565b8101031261020057519082610c8a565b3d9150610d09565b3461020057604036600319011261020057610d47611472565b336001600160a01b03821603610d635761031790600435611b7c565b60405162461bcd60e51b815260206004820152602f60248201527f416363657373436f6e74726f6c3a2063616e206f6e6c792072656e6f756e636560448201526e103937b632b9903337b91039b2b63360891b6064820152608490fd5b34610200575f36600319011261020057602060405162c5c1008152f35b3461020057604036600319011261020057600435610df9611472565b90610e06610402826114e4565b5f818152602081815260408083206001600160a01b038616845290915290205460ff1615610e3057005b5f818152602081815260408083206001600160a01b0395909516808452949091528120805460ff19166001179055339291907f2f8788117e7eff1d82e926ec794901d17c78024a50270940304540a733656f0d9080a4005b3461020057602036600319011261020057600435335f52600c60205260405f205462278d0081018091116104df574210610fc857610ec4611810565b610ecf8115156114f5565b335f5260086020528060405f205410610f8e57610eea611866565b335f52600860205260405f20610f0182825461153b565b9055610f0f81600a5461153b565b600a5560035460405163a9059cbb60e01b81529060209082906001600160a01b0316815f81610f42883360048401611597565b03925af1801561032057610f5c915f916106e157506115b2565b6040519081527f0f5bb82176feb1b5e747e28471aa92156a04d9f3ab9f45f28e2d704232b93f7560203392a260018055005b60405162461bcd60e51b8152602060048201526012602482015271496e73756666696369656e74207374616b6560701b6044820152606490fd5b60405162461bcd60e51b8152602060048201526016602482015275131bd8dac81c195c9a5bd9081b9bdd081c185cdcd95960521b6044820152606490fd5b34610200575f366003190112610200576020600554604051908152f35b346102005760203660031901126102005760206102276004356114e4565b34610200575f36600319011261020057335f9081525f516020611c295f395f51905f5260205260409020546110789060ff1661149e565b6004546110ca574260045562c5c10042018042116104df576040817f9ed1c202e57db11ee58a1654c590e9dcaf884e0ba35a45dde4532a99047170e292600555426006558151904282526020820152a1005b60405162461bcd60e51b8152602060048201526016602482015275135a5b9a5b99c8185b1c9958591e481cdd185c9d195960521b6044820152606490fd5b34610200575f36600319011261020057602060405162278d008152f35b3461020057602036600319011261020057600435801515810361020057335f9081525f516020611c295f395f51905f5260205260409020546111699060ff1661149e565b1561119d5760025460ff8116610a705760019060ff1916176002555f516020611c695f395f51905f526020604051338152a1005b60025460ff8116156111dc5760ff19166002557f5db9ee0a495bf2e6ff9c91a7834c1ba4fdd244a5e8aa4e537bd38aeae4b073aa6020604051338152a1005b60405162461bcd60e51b815260206004820152601460248201527314185d5cd8589b194e881b9bdd081c185d5cd95960621b6044820152606490fd5b34610200575f36600319011261020057335f9081525f516020611c295f395f51905f52602052604090205461124f9060ff1661149e565b600554421115611288577fa4e0548490c5e3efcda90aff5a7135bb6b693fbb8c4f0e3e30cae65e4cd2308e6020600754604051908152a1005b60405162461bcd60e51b8152602060048201526014602482015273135a5b9a5b99c81b9bdd08195b991959081e595d60621b6044820152606490fd5b3461020057602036600319011261020057335f9081527f24dd81cb06a77d03151b0c6e201bb9b511e8b8eca33d88c60c6b7fabca24177560205260409020546004359060ff16156113a2578015611365576a0c685fa11e01ec6f0000001061132857005b60405162461bcd60e51b81526020600482015260156024820152744578636565647320746f74616c207265776172647360581b6044820152606490fd5b60405162461bcd60e51b8152602060048201526015602482015274496e76616c6964206461696c79207265776172647360581b6044820152606490fd5b60405162461bcd60e51b815260206004820152601360248201527227b7363c903932bbb0b9321036b0b730b3b2b960691b6044820152606490fd5b34610200575f3660031901126102005760206040516a0c685fa11e01ec6f0000008152f35b346102005760203660031901126102005760043563ffffffff60e01b811680910361020057602090637965db0b60e01b8114908115611447575b506040519015158152f35b6301ffc9a760e01b1490508261143c565b34610200575f366003190112610200576020906004548152f35b602435906001600160a01b038216820361020057565b600435906001600160a01b038216820361020057565b156114a557565b60405162461bcd60e51b815260206004820152600a60248201526927b7363c9030b236b4b760b11b6044820152606490fd5b919082018092116104df57565b5f525f602052600160405f20015490565b156114fc57565b60405162461bcd60e51b8152602060048201526017602482015276416d6f756e74206d75737420626520706f73697469766560481b6044820152606490fd5b919082039182116104df57565b601f909101601f19168101906001600160401b0382119082101761156b57604052565b634e487b7160e01b5f52604160045260245ffd5b90816020910312610200575180151581036102005790565b6001600160a01b039091168152602081019190915260400190565b156115b957565b60405162461bcd60e51b815260206004820152600f60248201526e151c985b9cd9995c8819985a5b1959608a1b6044820152606490fd5b818102929181159184041417156104df57565b811561160d570490565b634e487b7160e01b5f52601260045260245ffd5b1561162857565b60405162461bcd60e51b8152602060048201526012602482015271135a5b9a5b99c81b9bdd081cdd185c9d195960721b6044820152606490fd5b1561166957565b60405162461bcd60e51b815260206004820152600c60248201526b135a5b9a5b99c8195b99195960a21b6044820152606490fd5b156116a457565b60405162461bcd60e51b815260206004820152601060248201526f135a5b9a5b99c81a5cc81c185d5cd95960821b6044820152606490fd5b6001600160a01b03918216815291166020820152604081019190915260600190565b6001600160a01b03165f818152600860205260409020541561180b57600b5490600a54801515806117ff575b806117f3575b61176f575b50670de0b6b3a764000061175861176c93835f52600860205260405f20546115f0565b04905f52600960205260405f20549061153b565b90565b9161177c6006544261153b565b69152d02c7e14af680000081029080820469152d02c7e14af680000014901517156104df57620151809004670de0b6b3a7640000810290808204670de0b6b3a764000014901517156104df576117eb670de0b6b3a7640000926117e561176c9661175894611603565b906114d7565b935050611735565b50600554421115611730565b5060045442101561172a565b505f90565b600260015414611821576002600155565b60405162461bcd60e51b815260206004820152601f60248201527f5265656e7472616e637947756172643a207265656e7472616e742063616c6c006044820152606490fd5b600a54801561190d5760065480421180611901575b611883575050565b61188d904261153b565b69152d02c7e14af680000081029080820469152d02c7e14af680000014901517156104df57620151809004801580156118c557505050565b670de0b6b3a76400008202918204670de0b6b3a76400001417156104df576118f8916118f091611603565b600b546114d7565b600b5542600655565b5060055442111561187b565b5042600655565b5f8181526020818152604080832033845290915290205460ff16156119365750565b33611941602a611bfc565b9161194f6040519384611548565b602a835261195d602a611bfc565b602084019290601f1901368437835115611b275760308353835160011015611b27576078602185015360295b60018111611b3b5750611aa257906119a16042611bfc565b906119af6040519283611548565b604282526119bd6042611bfc565b602083019390601f1901368537825115611b275760308453825160011015611b27576078602184015360415b60018111611ae65750611aa2576011611a6a916037604495604051958693602085019976020b1b1b2b9b9a1b7b73a3937b61d1030b1b1b7bab73a1604d1b8b525180918587015e8401907001034b99036b4b9b9b4b733903937b6329607d1b84830152518092604883015e01015f838201520301601f198101835282611548565b60405192839162461bcd60e51b8352602060048401525180918160248501528484015e5f828201840152601f01601f19168101030190fd5b606460405162461bcd60e51b815260206004820152602060248201527f537472696e67733a20686578206c656e67746820696e73756666696369656e746044820152fd5b90600f81166010811015611b27576f181899199a1a9b1b9c1cb0b131b232b360811b901a611b148386611c17565b5360041c9080156104df575f19016119e9565b634e487b7160e01b5f52603260045260245ffd5b90600f81166010811015611b27576f181899199a1a9b1b9c1cb0b131b232b360811b901a611b698387611c17565b5360041c9080156104df575f1901611989565b5f818152602081815260408083206001600160a01b038616845290915290205460ff16611ba7575050565b5f818152602081815260408083206001600160a01b0395909516808452949091528120805460ff19169055339291907ff6391f5c32d9c69d2a47ea670b442974b53935d1edc7fd64eb21e047a839171b9080a4565b6001600160401b03811161156b57601f01601f191660200190565b908151811015611b2757016020019056fe7d7ffb7a348e1c6a02869081a26547b49160dd3df72d1d75a570eb9b698292ecfc30cddea38e2bf4d6ea7d3f9ed3b6ad7f176419f4963bd81318067a4aee73fe62e78cea01bee320cd4e420270b5ea74000d11b0c9f74754ebdbfc544b05a258a2646970667358221220017f534c7bf79c6ce5584a142905ac6303ce19c5e2d667eed845eedeb801e39564736f6c634300081d00332f8788117e7eff1d82e926ec794901d17c78024a50270940304540a733656f0d7d7ffb7a348e1c6a02869081a26547b49160dd3df72d1d75a570eb9b698292ec24dd81cb06a77d03151b0c6e201bb9b511e8b8eca33d88c60c6b7fabca241775ad3228b676f7d3cd4284a5443f17f1962b36e491b30a40b2405849e597ba5fb5","linkReferences":{}},"methodIdentifiers":{"ADMIN_ROLE()":"75b238fc","DAILY_REWARDS()":"4b9afa80","DEFAULT_ADMIN_ROLE()":"a217fddf","LOCK_PERIOD()":"1820cabb","MINING_DURATION()":"32590c5c","REWARD_MANAGER_ROLE()":"6d750d80","TOTAL_REWARDS()":"09cf6091","claimRewards()":"372500ab","emergencyPause()":"51858e27","emergencyWithdraw()":"db2e21bc","endMining()":"161d0444","getMiningInfo()":"c9186ddc","getPendingRewards(address)":"f6ed2017","getRoleAdmin(bytes32)":"248a9ca3","getUserInfo(address)":"6386c1c7","grantRole(bytes32,address)":"2f2ff15d","hasRole(bytes32,address)":"91d14854","lastRewardTime()":"9231cf74","lpToken()":"5fcbd285","miningEndTime()":"2736b391","miningStartTime()":"01f88d26","paused()":"5c975abb","renounceRole(bytes32,address)":"36568abe","revokeRole(bytes32,address)":"d547741f","rewardPerToken()":"cd3daf9d","rewardToken()":"f7c618c1","setPaused(bool)":"16c38b3c","stake(uint256)":"a694fc3a","stakeAndClaim(uint256)":"b26ae8b5","startMining()":"21b79d98","supportsInterface(bytes4)":"01ffc9a7","totalRewardsDistributed()":"ee172546","totalStaked()":"817b1cd2","unstake(uint256)":"2e17de78","updateDailyRewards(uint256)":"15b56ed5","userLockTime(address)":"5a9a93fc","userRewardDebt(address)":"4bf6f9e7","userStakes(address)":"8da7ad23","withdrawLPTokens()":"edf8bc13","withdrawRewardTokens()":"370243dc"},"id":17}