{"abi":[{"type":"constructor","inputs":[{"name":"_tokenContract","type":"address","internalType":"address"},{"name":"_roleManager","type":"address","internalType":"address"}],"stateMutability":"nonpayable"},{"type":"function","name":"ADMIN_ROLE","inputs":[],"outputs":[{"name":"","type":"bytes32","internalType":"bytes32"}],"stateMutability":"view"},{"type":"function","name":"DEFAULT_ADMIN_ROLE","inputs":[],"outputs":[{"name":"","type":"bytes32","internalType":"bytes32"}],"stateMutability":"view"},{"type":"function","name":"MAX_TRANSFERS_PER_DAY","inputs":[],"outputs":[{"name":"","type":"uint256","internalType":"uint256"}],"stateMutability":"view"},{"type":"function","name":"MIN_TRANSFER_INTERVAL","inputs":[],"outputs":[{"name":"","type":"uint256","internalType":"uint256"}],"stateMutability":"view"},{"type":"function","name":"SECURITY_ROLE","inputs":[],"outputs":[{"name":"","type":"bytes32","internalType":"bytes32"}],"stateMutability":"view"},{"type":"function","name":"checkTransferRestrictions","inputs":[{"name":"from","type":"address","internalType":"address"},{"name":"to","type":"address","internalType":"address"},{"name":"amount","type":"uint256","internalType":"uint256"},{"name":"balance","type":"uint256","internalType":"uint256"}],"outputs":[{"name":"","type":"bool","internalType":"bool"}],"stateMutability":"view"},{"type":"function","name":"dailyTransferLimit","inputs":[{"name":"","type":"address","internalType":"address"}],"outputs":[{"name":"","type":"uint256","internalType":"uint256"}],"stateMutability":"view"},{"type":"function","name":"dailyTransferUsed","inputs":[{"name":"","type":"address","internalType":"address"}],"outputs":[{"name":"","type":"uint256","internalType":"uint256"}],"stateMutability":"view"},{"type":"function","name":"emergencyBlacklist","inputs":[{"name":"account","type":"address","internalType":"address"}],"outputs":[],"stateMutability":"nonpayable"},{"type":"function","name":"emergencyUnblacklist","inputs":[{"name":"account","type":"address","internalType":"address"}],"outputs":[],"stateMutability":"nonpayable"},{"type":"function","name":"getDailyTransferUsed","inputs":[{"name":"account","type":"address","internalType":"address"}],"outputs":[{"name":"","type":"uint256","internalType":"uint256"}],"stateMutability":"view"},{"type":"function","name":"getLockedBalanceInfo","inputs":[{"name":"account","type":"address","internalType":"address"}],"outputs":[{"name":"amount","type":"uint256","internalType":"uint256"},{"name":"unlockTime","type":"uint256","internalType":"uint256"},{"name":"isLocked","type":"bool","internalType":"bool"}],"stateMutability":"view"},{"type":"function","name":"getRoleAdmin","inputs":[{"name":"role","type":"bytes32","internalType":"bytes32"}],"outputs":[{"name":"","type":"bytes32","internalType":"bytes32"}],"stateMutability":"view"},{"type":"function","name":"getSecurityInfo","inputs":[{"name":"account","type":"address","internalType":"address"}],"outputs":[{"name":"blacklisted","type":"bool","internalType":"bool"},{"name":"isBotAccount","type":"bool","internalType":"bool"},{"name":"locked","type":"bool","internalType":"bool"},{"name":"transferLimit","type":"uint256","internalType":"uint256"},{"name":"dailyLimit","type":"uint256","internalType":"uint256"}],"stateMutability":"view"},{"type":"function","name":"getTransferStats","inputs":[{"name":"account","type":"address","internalType":"address"}],"outputs":[{"name":"totalTransfers","type":"uint256","internalType":"uint256"},{"name":"dailyUsed","type":"uint256","internalType":"uint256"},{"name":"lastTransfer","type":"uint256","internalType":"uint256"},{"name":"lastReset","type":"uint256","internalType":"uint256"},{"name":"isExempt","type":"bool","internalType":"bool"}],"stateMutability":"view"},{"type":"function","name":"globalDailyTransferLimit","inputs":[],"outputs":[{"name":"","type":"uint256","internalType":"uint256"}],"stateMutability":"view"},{"type":"function","name":"globalLimitsEnabled","inputs":[],"outputs":[{"name":"","type":"bool","internalType":"bool"}],"stateMutability":"view"},{"type":"function","name":"globalMaxTransferAmount","inputs":[],"outputs":[{"name":"","type":"uint256","internalType":"uint256"}],"stateMutability":"view"},{"type":"function","name":"grantRole","inputs":[{"name":"role","type":"bytes32","internalType":"bytes32"},{"name":"account","type":"address","internalType":"address"}],"outputs":[],"stateMutability":"nonpayable"},{"type":"function","name":"hasRole","inputs":[{"name":"role","type":"bytes32","internalType":"bytes32"},{"name":"account","type":"address","internalType":"address"}],"outputs":[{"name":"","type":"bool","internalType":"bool"}],"stateMutability":"view"},{"type":"function","name":"isBot","inputs":[{"name":"","type":"address","internalType":"address"}],"outputs":[{"name":"","type":"bool","internalType":"bool"}],"stateMutability":"view"},{"type":"function","name":"isExemptFromLimits","inputs":[{"name":"","type":"address","internalType":"address"}],"outputs":[{"name":"","type":"bool","internalType":"bool"}],"stateMutability":"view"},{"type":"function","name":"isSecurityBlacklisted","inputs":[{"name":"account","type":"address","internalType":"address"}],"outputs":[{"name":"","type":"bool","internalType":"bool"}],"stateMutability":"view"},{"type":"function","name":"lockTokens","inputs":[{"name":"account","type":"address","internalType":"address"},{"name":"amount","type":"uint256","internalType":"uint256"},{"name":"unlockTimestamp","type":"uint256","internalType":"uint256"}],"outputs":[],"stateMutability":"nonpayable"},{"type":"function","name":"lockWallet","inputs":[{"name":"wallet","type":"address","internalType":"address"},{"name":"lock_","type":"bool","internalType":"bool"}],"outputs":[],"stateMutability":"nonpayable"},{"type":"function","name":"lockedBalances","inputs":[{"name":"","type":"address","internalType":"address"}],"outputs":[{"name":"amount","type":"uint256","internalType":"uint256"},{"name":"unlockTimestamp","type":"uint256","internalType":"uint256"},{"name":"isLocked","type":"bool","internalType":"bool"}],"stateMutability":"view"},{"type":"function","name":"lockedWallets","inputs":[{"name":"","type":"address","internalType":"address"}],"outputs":[{"name":"","type":"bool","internalType":"bool"}],"stateMutability":"view"},{"type":"function","name":"maxTransferAmount","inputs":[{"name":"","type":"address","internalType":"address"}],"outputs":[{"name":"","type":"uint256","internalType":"uint256"}],"stateMutability":"view"},{"type":"function","name":"renounceRole","inputs":[{"name":"role","type":"bytes32","internalType":"bytes32"},{"name":"account","type":"address","internalType":"address"}],"outputs":[],"stateMutability":"nonpayable"},{"type":"function","name":"resetDailyUsage","inputs":[{"name":"account","type":"address","internalType":"address"}],"outputs":[],"stateMutability":"nonpayable"},{"type":"function","name":"revokeRole","inputs":[{"name":"role","type":"bytes32","internalType":"bytes32"},{"name":"account","type":"address","internalType":"address"}],"outputs":[],"stateMutability":"nonpayable"},{"type":"function","name":"roleManager","inputs":[],"outputs":[{"name":"","type":"address","internalType":"contract RoleManager"}],"stateMutability":"view"},{"type":"function","name":"securityBlacklisted","inputs":[{"name":"","type":"address","internalType":"address"}],"outputs":[{"name":"","type":"bool","internalType":"bool"}],"stateMutability":"view"},{"type":"function","name":"setBotStatus","inputs":[{"name":"account","type":"address","internalType":"address"},{"name":"status","type":"bool","internalType":"bool"}],"outputs":[],"stateMutability":"nonpayable"},{"type":"function","name":"setDailyTransferLimit","inputs":[{"name":"account","type":"address","internalType":"address"},{"name":"limit","type":"uint256","internalType":"uint256"}],"outputs":[],"stateMutability":"nonpayable"},{"type":"function","name":"setExemptFromLimits","inputs":[{"name":"account","type":"address","internalType":"address"},{"name":"exempt","type":"bool","internalType":"bool"}],"outputs":[],"stateMutability":"nonpayable"},{"type":"function","name":"setGlobalLimits","inputs":[{"name":"maxTransfer","type":"uint256","internalType":"uint256"},{"name":"dailyLimit","type":"uint256","internalType":"uint256"},{"name":"enabled","type":"bool","internalType":"bool"}],"outputs":[],"stateMutability":"nonpayable"},{"type":"function","name":"setSecurityBlacklistStatus","inputs":[{"name":"account","type":"address","internalType":"address"},{"name":"value","type":"bool","internalType":"bool"}],"outputs":[],"stateMutability":"nonpayable"},{"type":"function","name":"setSecurityBlacklistStatusBatch","inputs":[{"name":"accounts","type":"address[]","internalType":"address[]"},{"name":"value","type":"bool","internalType":"bool"}],"outputs":[],"stateMutability":"nonpayable"},{"type":"function","name":"setSecurityBlacklistStatusForTesting","inputs":[{"name":"account","type":"address","internalType":"address"},{"name":"value","type":"bool","internalType":"bool"}],"outputs":[],"stateMutability":"nonpayable"},{"type":"function","name":"setTransferLimit","inputs":[{"name":"account","type":"address","internalType":"address"},{"name":"limit","type":"uint256","internalType":"uint256"}],"outputs":[],"stateMutability":"nonpayable"},{"type":"function","name":"supportsInterface","inputs":[{"name":"interfaceId","type":"bytes4","internalType":"bytes4"}],"outputs":[{"name":"","type":"bool","internalType":"bool"}],"stateMutability":"view"},{"type":"function","name":"tokenContract","inputs":[],"outputs":[{"name":"","type":"address","internalType":"address"}],"stateMutability":"view"},{"type":"function","name":"transferCount","inputs":[{"name":"","type":"address","internalType":"address"}],"outputs":[{"name":"","type":"uint256","internalType":"uint256"}],"stateMutability":"view"},{"type":"function","name":"unlockTokens","inputs":[{"name":"account","type":"address","internalType":"address"}],"outputs":[],"stateMutability":"nonpayable"},{"type":"function","name":"updateTransferStats","inputs":[{"name":"from","type":"address","internalType":"address"},{"name":"amount","type":"uint256","internalType":"uint256"}],"outputs":[],"stateMutability":"nonpayable"},{"type":"event","name":"BatchBlacklistUpdated","inputs":[{"name":"accounts","type":"address[]","indexed":false,"internalType":"address[]"},{"name":"blacklisted","type":"bool","indexed":false,"internalType":"bool"}],"anonymous":false},{"type":"event","name":"BotStatusUpdated","inputs":[{"name":"account","type":"address","indexed":true,"internalType":"address"},{"name":"isBot","type":"bool","indexed":false,"internalType":"bool"}],"anonymous":false},{"type":"event","name":"DailyLimitSet","inputs":[{"name":"account","type":"address","indexed":true,"internalType":"address"},{"name":"limit","type":"uint256","indexed":false,"internalType":"uint256"}],"anonymous":false},{"type":"event","name":"GlobalLimitsUpdated","inputs":[{"name":"maxTransfer","type":"uint256","indexed":false,"internalType":"uint256"},{"name":"dailyLimit","type":"uint256","indexed":false,"internalType":"uint256"},{"name":"enabled","type":"bool","indexed":false,"internalType":"bool"}],"anonymous":false},{"type":"event","name":"RoleAdminChanged","inputs":[{"name":"role","type":"bytes32","indexed":true,"internalType":"bytes32"},{"name":"previousAdminRole","type":"bytes32","indexed":true,"internalType":"bytes32"},{"name":"newAdminRole","type":"bytes32","indexed":true,"internalType":"bytes32"}],"anonymous":false},{"type":"event","name":"RoleGranted","inputs":[{"name":"role","type":"bytes32","indexed":true,"internalType":"bytes32"},{"name":"account","type":"address","indexed":true,"internalType":"address"},{"name":"sender","type":"address","indexed":true,"internalType":"address"}],"anonymous":false},{"type":"event","name":"RoleRevoked","inputs":[{"name":"role","type":"bytes32","indexed":true,"internalType":"bytes32"},{"name":"account","type":"address","indexed":true,"internalType":"address"},{"name":"sender","type":"address","indexed":true,"internalType":"address"}],"anonymous":false},{"type":"event","name":"SecurityBlacklistUpdated","inputs":[{"name":"account","type":"address","indexed":true,"internalType":"address"},{"name":"blacklisted","type":"bool","indexed":false,"internalType":"bool"}],"anonymous":false},{"type":"event","name":"TokensLocked","inputs":[{"name":"account","type":"address","indexed":true,"internalType":"address"},{"name":"amount","type":"uint256","indexed":false,"internalType":"uint256"},{"name":"unlockTime","type":"uint256","indexed":false,"internalType":"uint256"}],"anonymous":false},{"type":"event","name":"TokensUnlocked","inputs":[{"name":"account","type":"address","indexed":true,"internalType":"address"}],"anonymous":false},{"type":"event","name":"TransferLimitSet","inputs":[{"name":"account","type":"address","indexed":true,"internalType":"address"},{"name":"limit","type":"uint256","indexed":false,"internalType":"uint256"}],"anonymous":false},{"type":"event","name":"WalletLocked","inputs":[{"name":"wallet","type":"address","indexed":true,"internalType":"address"},{"name":"locked","type":"bool","indexed":false,"internalType":"bool"}],"anonymous":false}],"bytecode":{"object":"0x60803461029057601f61206138819003918201601f19168301916001600160401b0383118484101761029457808492604094855283398101031261029057610052602061004b836102a8565b92016102a8565b60018055906001600160a01b0382161561024b57600280546001600160a01b0319166001600160a01b039290921691909117905560108054610100600160a81b03191660089290921b610100600160a81b0316919091179055335f9081525f5160206120415f395f51905f52602052604090205460ff161561020e575b335f9081525f5160206120015f395f51905f52602052604090205460ff16156101af575b335f9081525f5160206120215f395f51905f52602052604090205460ff1615610150575b69d3c21bcecceda1000000600e556a084595161401484a000000600f55600160ff196010541617601055604051611d2490816102bd8239f35b335f8181525f5160206120215f395f51905f5260205260408120805460ff1916600117905581907f4698baa05b306e3e5e3fa66d29891e203a1418ef5bee962e2c9b109f129e8920905f516020611fe15f395f51905f529080a4610117565b335f8181525f5160206120015f395f51905f5260205260408120805460ff1916600117905581907fa49807205ce4d355092ef5a8a18f56e8913cf4a201fbe287825b095693c21775905f516020611fe15f395f51905f529080a46100f3565b335f8181525f5160206120415f395f51905f5260205260408120805460ff1916600117905581905f516020611fe15f395f51905f528180a46100cf565b60405162461bcd60e51b815260206004820152601460248201527f496e76616c696420726f6c65206d616e616765720000000000000000000000006044820152606490fd5b5f80fd5b634e487b7160e01b5f52604160045260245ffd5b51906001600160a01b03821682036102905756fe6080806040526004361015610012575f80fd5b5f3560e01c908162435da51461147f5750806301ffc9a7146114295780630222a5b31461140c578063031770e5146113ea5780630483a7f61461139f5780630e0ab0b614611367578063113069bb1461131357806313e32124146112cb578063248a9ca3146112ad57806325d0545f1461123a5780632dc74c20146112025780632f2ff15d14611157578063312a45b41461113c57806336568abe146110aa5780633bbac5791461106d5780633cb177eb146110525780633dc6baeb14610f865780634048f1c114610ef35780634addca5d14610dce57806353b7d2791461053857806354e1839214610d5557806355a373d614610d2d5780635cc61d0d14610cef5780636ce35d1114610a9757806375b238fc14610a705780637e3479c214610a385780637e3b6451146109bb5780637ef2ff171461094557806391d14854146108fd5780639533d8d4146108c05780639f64694e146108955780639f9a81c21461085d578063a13d1a2b1461080c578063a217fddf146107f2578063a25983e514610658578063b171e257146105f6578063b3d618db14610575578063c000383e14610538578063cb67f9481461042c578063cd2c6a99146103ef578063d136fc4914610389578063d547741f14610351578063dbe1065514610317578063e09f29b0146102a9578063f0b6e33f146102365763fc454d7a14610215575f80fd5b34610232575f366003190112610232576020600f54604051908152f35b5f80fd5b346102325760403660031901126102325761024f6114a5565b7fc4e2ac733c379cc940639bd2080726efb8cdc6061d39ed7d4a821210a3c0ea2d60206024359261027e6118e1565b6001600160a01b0316926102938415156114f9565b835f52600582528060405f2055604051908152a2005b34610232576020366003190112610232576001600160a01b036102ca6114a5565b165f52600a60205260405f206040516102e2816115ba565b610313604083549283815260ff600260018701549687602085015201541615159182910152604051938493846114d1565b0390f35b34610232575f3660031901126102325760206040517f4698baa05b306e3e5e3fa66d29891e203a1418ef5bee962e2c9b109f129e89208152f35b34610232576040366003190112610232576103876004356103706114bb565b9061038261037d8261159c565b611a3d565b611a7a565b005b34610232576020366003190112610232576103a26114a5565b6103aa6119ea565b6001600160a01b03166103be8115156114f9565b805f52600360205260405f20600160ff198254161790555f516020611caf5f395f51905f52602060405160018152a2005b34610232576020366003190112610232576001600160a01b036104106114a5565b165f526008602052602060ff60405f2054166040519015158152f35b34610232576020366003190112610232576104456114a5565b61044d6118e1565b6001600160a01b03166104618115156114f9565b805f52600a60205260ff600260405f200154161561050057805f52600a602052600160405f20015442106104cf57805f52600a6020525f60026040822082815582600182015501557fcf96a7404357442bbc147c389fc2942cb6eedcaf1aad90bb8eb4b67ce43d4fb25f80a2005b60405162461bcd60e51b8152602060048201526009602482015268546f6f206561726c7960b81b6044820152606490fd5b60405162461bcd60e51b815260206004820152601060248201526f4e6f206c6f636b656420746f6b656e7360801b6044820152606490fd5b34610232576020366003190112610232576001600160a01b036105596114a5565b165f526003602052602060ff60405f2054166040519015158152f35b346102325760403660031901126102325761058e6114a5565b7f066e0c23b9ae0bb92a88e9b0985bb7d85fce062730057312b99a9e243fde5ee160206105b96114ea565b926105c26118e1565b6001600160a01b0316926105d78415156114f9565b835f52600482526105eb8160405f2061158b565b6040519015158152a2005b346102325760203660031901126102325761060f6114a5565b6106176119ea565b6001600160a01b031661062b8115156114f9565b805f52600360205260405f2060ff1981541690555f516020611caf5f395f51905f5260206040515f8152a2005b34610232576060366003190112610232576106716114a5565b602435604435916106806118e1565b6001600160a01b0316916106958315156114f9565b81156107b35742811115610779576301e13380420180421161076557811161072a577fd741e738a23fd18a03a26522320d9fc6cac1fed483e215ea9150fbc2fc43385d9160409161071d83516106ea816115ba565b8381526002602082018481528683019060018252895f52600a602052875f2093518455516001840155511515910161158b565b82519182526020820152a2005b60405162461bcd60e51b81526020600482015260136024820152722ab73637b1b5903a34b6b2903a37b7903330b960691b6044820152606490fd5b634e487b7160e01b5f52601160045260245ffd5b60405162461bcd60e51b815260206004820152601260248201527146757475726520756e6c6f636b206f6e6c7960701b6044820152606490fd5b60405162461bcd60e51b8152602060048201526017602482015276416d6f756e74206d75737420626520706f73697469766560481b6044820152606490fd5b34610232575f3660031901126102325760206040515f8152f35b34610232576040366003190112610232576103876108286114a5565b6108306114ea565b906108396118e1565b6001600160a01b031661084d8115156114f9565b5f52600860205260405f2061158b565b34610232576020366003190112610232576001600160a01b0361087e6114a5565b165f526005602052602060405f2054604051908152f35b346102325760203660031901126102325760206108b86108b36114a5565b6118a2565b604051908152f35b34610232576020366003190112610232576001600160a01b036108e16114a5565b165f526009602052602060ff60405f2054166040519015158152f35b34610232576040366003190112610232576109166114bb565b6004355f525f60205260405f209060018060a01b03165f52602052602060ff60405f2054166040519015158152f35b346102325760403660031901126102325761095e6114a5565b7f52eb1c9a27e64a39bd5f27d11cbe4ad1fe1f1ed5c6f9e544d8894ccba33e916f60206109896114ea565b926109926118e1565b6001600160a01b0316926109a78415156114f9565b835f52600982526105eb8160405f2061158b565b346102325760203660031901126102325760a06001600160a01b036109de6114a5565b165f908152600b60209081526040808320546007835281842054600c845282852054600d85528386205460088652958490205484519384529483019190915291810191909152606081019290925260ff1615156080820152f35b34610232576020366003190112610232576001600160a01b03610a596114a5565b165f526006602052602060405f2054604051908152f35b34610232575f3660031901126102325760206040515f516020611ccf5f395f51905f528152f35b34610232576040366003190112610232576004356001600160401b03811161023257366023820112156102325760048101356001600160401b038111610232576024820191602436918360051b01011161023257610af36114ea565b9160018060a01b0360105460081c16604051631042c90960e21b8152602081600481855afa908115610cb0575f91610cbb575b50602090610b4b926040518080958194632474521560e21b8352339060048401611624565b03915afa8015610cb057610b66915f91610c81575b5061163d565b60648211610c48575f5b828110610bf0575060405191806040840160408552526060830191905f905b808210610bc65785151560208601527fffbd0267db706b23a5b9a76b5318e5c068ff754607f203a3591eb81c1eb0597c85850386a1005b90919283359060018060a01b03821680920361023257602081600193829352019401920190610b8f565b600190610c196001600160a01b03610c11610c0c84888861186a565b61188e565b161515611545565b818060a01b03610c2d610c0c83878761186a565b165f526003602052610c428560405f2061158b565b01610b70565b60405162461bcd60e51b8152602060048201526011602482015270546f6f206d616e79206163636f756e747360781b6044820152606490fd5b610ca3915060203d602011610ca9575b610c9b81836115e9565b81019061160c565b85610b60565b503d610c91565b6040513d5f823e3d90fd5b90506020813d602011610ce7575b81610cd6602093836115e9565b810103126102325751610b4b610b26565b3d9150610cc9565b34610232576080366003190112610232576020610d23610d0d6114a5565b610d156114bb565b906064359160443591611681565b6040519015158152f35b34610232575f366003190112610232576002546040516001600160a01b039091168152602090f35b3461023257606036600319011261023257604435602435600435821515808403610232577fb5e3ef1b509f0499cbfcf411ff2f6ad06e94f2ddbdf9de58d4cdf7744972b67e93610dc991610da76118e1565b83600e5584600f5560ff801960105416911617601055604051938493846114d1565b0390a1005b3461023257604036600319011261023257610de76114a5565b610def6114ea565b601054604051631042c90960e21b8152919260089190911c6001600160a01b031691602081600481865afa908115610cb0575f91610ebf575b50602090610e4d936040518080968194632474521560e21b8352339060048401611624565b03915afa908115610cb057610e796020925f516020611caf5f395f51905f52945f91610ea2575061163d565b6001600160a01b031692610e8e841515611545565b835f52600382526105eb8160405f2061158b565b610eb99150843d8611610ca957610c9b81836115e9565b86610b60565b90506020813d602011610eeb575b81610eda602093836115e9565b810103126102325751610e4d610e28565b3d9150610ecd565b346102325760203660031901126102325760a06001600160a01b03610f166114a5565b16805f52600360205260ff60405f20541690805f52600460205260ff60405f20541690805f52600960205260ff60405f205416815f52600560205260405f2054915f52600660205260405f2054926040519415158552151560208501521515604084015260608301526080820152f35b3461023257604036600319011261023257610f9f6114a5565b6002546001600160a01b03163303611017576001600160a01b03165f818152600b6020526040902080545f198114610765576001019055805f52600c6020524260405f2055805f52600860205260ff60405f20541615610ffb57005b5f52600760205260405f2061101360243582546115ad565b9055005b60405162461bcd60e51b815260206004820152601360248201527213db9b1e481d1bdad95b8818dbdb9d1c9858dd606a1b6044820152606490fd5b34610232575f366003190112610232576020604051603c8152f35b34610232576020366003190112610232576001600160a01b0361108e6114a5565b165f526004602052602060ff60405f2054166040519015158152f35b34610232576040366003190112610232576110c36114bb565b336001600160a01b038216036110df5761038790600435611a7a565b60405162461bcd60e51b815260206004820152602f60248201527f416363657373436f6e74726f6c3a2063616e206f6e6c792072656e6f756e636560448201526e103937b632b9903337b91039b2b63360891b6064820152608490fd5b34610232575f36600319011261023257602060405160648152f35b34610232576040366003190112610232576004356111736114bb565b9061118061037d8261159c565b5f818152602081815260408083206001600160a01b038616845290915290205460ff16156111aa57005b5f818152602081815260408083206001600160a01b0395909516808452949091528120805460ff19166001179055339291907f2f8788117e7eff1d82e926ec794901d17c78024a50270940304540a733656f0d9080a4005b34610232576020366003190112610232576001600160a01b036112236114a5565b165f52600b602052602060405f2054604051908152f35b34610232576040366003190112610232576112536114a5565b7fd3d22ffd28b02735cf411bd7f925bd8da01212c7028153e0d632e2953ac3088e6020602435926112826118e1565b6001600160a01b0316926112978415156114f9565b835f52600682528060405f2055604051908152a2005b346102325760203660031901126102325760206108b860043561159c565b34610232576040366003190112610232576112e46114a5565b5f516020611caf5f395f51905f5260206112fc6114ea565b6001600160a01b0390931692610e8e841515611545565b346102325760203660031901126102325761132c6114a5565b6113346118e1565b6001600160a01b03166113488115156114f9565b805f5260076020525f60408120555f52600d6020524260405f20555f80f35b34610232576020366003190112610232576001600160a01b036113886114a5565b165f526007602052602060405f2054604051908152f35b34610232576020366003190112610232576001600160a01b036113c06114a5565b165f52600a60205260405f20805461031360ff6002600185015494015416604051938493846114d1565b34610232575f36600319011261023257602060ff601054166040519015158152f35b34610232575f366003190112610232576020600e54604051908152f35b346102325760203660031901126102325760043563ffffffff60e01b811680910361023257602090637965db0b60e01b811490811561146e575b506040519015158152f35b6301ffc9a760e01b14905082611463565b34610232575f3660031901126102325760105460081c6001600160a01b03168152602090f35b600435906001600160a01b038216820361023257565b602435906001600160a01b038216820361023257565b9081526020810191909152901515604082015260600190565b60243590811515820361023257565b1561150057565b60405162461bcd60e51b815260206004820152601d60248201527f496e76616c696420616464726573733a207a65726f20616464726573730000006044820152606490fd5b1561154c57565b60405162461bcd60e51b8152602060048201526017602482015276496e76616c6964206163636f756e74206164647265737360481b6044820152606490fd5b9060ff801983541691151516179055565b5f525f602052600160405f20015490565b9190820180921161076557565b606081019081106001600160401b038211176115d557604052565b634e487b7160e01b5f52604160045260245ffd5b601f909101601f19168101906001600160401b038211908210176115d557604052565b90816020910312610232575180151581036102325790565b9081526001600160a01b03909116602082015260400190565b1561164457565b60405162461bcd60e51b81526020600482015260156024820152742737ba10313630b1b5b634b9ba1036b0b730b3b2b960591b6044820152606490fd5b6001600160a01b0381165f81815260036020526040902054919490929160ff168015611849575b61181f57825f52600960205260ff60405f2054168015611828575b61181f57825f52600a60205260ff600260405f200154166117fd575b50815f52600460205260ff60405f2054169081156117dc575b506117ad57805f52600860205260ff60405f2054161561171b575b505050600190565b805f52600560205260405f20541515806117c7575b6117ad5760105460ff169081806117bc575b6117b457805f52600660205260405f2054611788575b50611764575b80611713565b611770611775926118a2565b6115ad565b600f5410611784575f8061175e565b5f90565b61179583611770866118a2565b905f52600660205260405f2054106117ad575f611758565b5050505f90565b505050505f90565b50600e548311611742565b50805f52600560205260405f20548211611730565b6001600160a01b03165f9081526004602052604081205460ff1691506116f8565b825f52600a60205260405f205481039081116107655783116117b4575f6116df565b50505050505f90565b506001600160a01b0382165f9081526009602052604090205460ff166116c3565b506001600160a01b0382165f9081526003602052604090205460ff166116a8565b919081101561187a5760051b0190565b634e487b7160e01b5f52603260045260245ffd5b356001600160a01b03811681036102325790565b6001600160a01b03165f818152600d6020526040902054620151808101908110610765574210156118dc575f52600760205260405f205490565b505f90565b335f9081527f7d7ffb7a348e1c6a02869081a26547b49160dd3df72d1d75a570eb9b698292ec602052604090205460ff161561191957565b61192233611b26565b604460206119b260116119415f516020611ccf5f395f51905f52611c0c565b6037604051948592818085019976020b1b1b2b9b9a1b7b73a3937b61d1030b1b1b7bab73a1604d1b8b528051918291018587015e8401907001034b99036b4b9b9b4b733903937b6329607d1b84830152805192839101604883015e01015f838201520301601f1981018352826115e9565b60405192839162461bcd60e51b8352602060048401525180918160248501528484015e5f828201840152601f01601f19168101030190fd5b335f9081527fad3228b676f7d3cd4284a5443f17f1962b36e491b30a40b2405849e597ba5fb5602052604090205460ff1615611a2257565b611a2b33611b26565b604460206119b260116119415f611c0c565b5f8181526020818152604080832033845290915290205460ff1615611a5f5750565b604460206119b26011611941611a7433611b26565b95611c0c565b5f818152602081815260408083206001600160a01b038616845290915290205460ff16611aa5575050565b5f818152602081815260408083206001600160a01b0395909516808452949091528120805460ff19169055339291907ff6391f5c32d9c69d2a47ea670b442974b53935d1edc7fd64eb21e047a839171b9080a4565b6001600160401b0381116115d557601f01601f191660200190565b90815181101561187a570160200190565b611b30602a611afa565b90611b3e60405192836115e9565b602a8252611b4c602a611afa565b6020830190601f190136823782511561187a576030905381516001101561187a576078602183015360295b60018111611bcb5750611b875790565b606460405162461bcd60e51b815260206004820152602060248201527f537472696e67733a20686578206c656e67746820696e73756666696369656e746044820152fd5b90600f8116601081101561187a576f181899199a1a9b1b9c1cb0b131b232b360811b901a611bf98385611b15565b5360041c908015610765575f1901611b77565b611c166042611afa565b90611c2460405192836115e9565b60428252611c326042611afa565b6020830190601f190136823782511561187a576030905381516001101561187a576078602183015360415b60018111611c6d5750611b875790565b90600f8116601081101561187a576f181899199a1a9b1b9c1cb0b131b232b360811b901a611c9b8385611b15565b5360041c908015610765575f1901611c5d56fe0f8c248f109b49110dd98b7d6dfd9b0c4dd45731bf2a86f5d05c478ebbbe8a13a49807205ce4d355092ef5a8a18f56e8913cf4a201fbe287825b095693c21775a2646970667358221220c0fb74b4931c4e7f9883dfab4957a48a34f982a79603583f5c235633aeda139164736f6c634300081d00332f8788117e7eff1d82e926ec794901d17c78024a50270940304540a733656f0d7d7ffb7a348e1c6a02869081a26547b49160dd3df72d1d75a570eb9b698292ecf78416e789d1f8adb355fc72d837800807f82feb566399bb1bc40da785b034dcad3228b676f7d3cd4284a5443f17f1962b36e491b30a40b2405849e597ba5fb5","linkReferences":{}},"methodIdentifiers":{"ADMIN_ROLE()":"75b238fc","DEFAULT_ADMIN_ROLE()":"a217fddf","MAX_TRANSFERS_PER_DAY()":"312a45b4","MIN_TRANSFER_INTERVAL()":"3cb177eb","SECURITY_ROLE()":"dbe10655","checkTransferRestrictions(address,address,uint256,uint256)":"5cc61d0d","dailyTransferLimit(address)":"7e3479c2","dailyTransferUsed(address)":"0e0ab0b6","emergencyBlacklist(address)":"d136fc49","emergencyUnblacklist(address)":"b171e257","getDailyTransferUsed(address)":"9f64694e","getLockedBalanceInfo(address)":"e09f29b0","getRoleAdmin(bytes32)":"248a9ca3","getSecurityInfo(address)":"4048f1c1","getTransferStats(address)":"7e3b6451","globalDailyTransferLimit()":"fc454d7a","globalLimitsEnabled()":"031770e5","globalMaxTransferAmount()":"0222a5b3","grantRole(bytes32,address)":"2f2ff15d","hasRole(bytes32,address)":"91d14854","isBot(address)":"3bbac579","isExemptFromLimits(address)":"cd2c6a99","isSecurityBlacklisted(address)":"53b7d279","lockTokens(address,uint256,uint256)":"a25983e5","lockWallet(address,bool)":"7ef2ff17","lockedBalances(address)":"0483a7f6","lockedWallets(address)":"9533d8d4","maxTransferAmount(address)":"9f9a81c2","renounceRole(bytes32,address)":"36568abe","resetDailyUsage(address)":"113069bb","revokeRole(bytes32,address)":"d547741f","roleManager()":"00435da5","securityBlacklisted(address)":"c000383e","setBotStatus(address,bool)":"b3d618db","setDailyTransferLimit(address,uint256)":"25d0545f","setExemptFromLimits(address,bool)":"a13d1a2b","setGlobalLimits(uint256,uint256,bool)":"54e18392","setSecurityBlacklistStatus(address,bool)":"4addca5d","setSecurityBlacklistStatusBatch(address[],bool)":"6ce35d11","setSecurityBlacklistStatusForTesting(address,bool)":"13e32124","setTransferLimit(address,uint256)":"f0b6e33f","supportsInterface(bytes4)":"01ffc9a7","tokenContract()":"55a373d6","transferCount(address)":"2dc74c20","unlockTokens(address)":"cb67f948","updateTransferStats(address,uint256)":"3dc6baeb"},"id":18}