{"abi":[{"type":"constructor","inputs":[{"name":"_token","type":"address","internalType":"address"},{"name":"_lpToken","type":"address","internalType":"address"}],"stateMutability":"nonpayable"},{"type":"receive","stateMutability":"payable"},{"type":"function","name":"DEFAULT_ADMIN_ROLE","inputs":[],"outputs":[{"name":"","type":"bytes32","internalType":"bytes32"}],"stateMutability":"view"},{"type":"function","name":"EMERGENCY_ROLE","inputs":[],"outputs":[{"name":"","type":"bytes32","internalType":"bytes32"}],"stateMutability":"view"},{"type":"function","name":"EMERGENCY_UNLOCK_LIMIT","inputs":[],"outputs":[{"name":"","type":"uint256","internalType":"uint256"}],"stateMutability":"view"},{"type":"function","name":"GOVERNANCE_ROLE","inputs":[],"outputs":[{"name":"","type":"bytes32","internalType":"bytes32"}],"stateMutability":"view"},{"type":"function","name":"LOCK_DURATION","inputs":[],"outputs":[{"name":"","type":"uint256","internalType":"uint256"}],"stateMutability":"view"},{"type":"function","name":"emergencyUnlock","inputs":[{"name":"amount","type":"uint256","internalType":"uint256"}],"outputs":[],"stateMutability":"nonpayable"},{"type":"function","name":"getCurrentLockedAmount","inputs":[],"outputs":[{"name":"","type":"uint256","internalType":"uint256"}],"stateMutability":"view"},{"type":"function","name":"getLockInfo","inputs":[],"outputs":[{"name":"totalLocked_","type":"uint256","internalType":"uint256"},{"name":"currentLocked_","type":"uint256","internalType":"uint256"},{"name":"unlocked_","type":"uint256","internalType":"uint256"},{"name":"unlockPercentage_","type":"uint256","internalType":"uint256"},{"name":"timeRemaining_","type":"uint256","internalType":"uint256"},{"name":"nextUnlockTime_","type":"uint256","internalType":"uint256"}],"stateMutability":"view"},{"type":"function","name":"getRoleAdmin","inputs":[{"name":"role","type":"bytes32","internalType":"bytes32"}],"outputs":[{"name":"","type":"bytes32","internalType":"bytes32"}],"stateMutability":"view"},{"type":"function","name":"getUnlockPercentage","inputs":[{"name":"timePassed","type":"uint256","internalType":"uint256"}],"outputs":[{"name":"","type":"uint256","internalType":"uint256"}],"stateMutability":"view"},{"type":"function","name":"grantRole","inputs":[{"name":"role","type":"bytes32","internalType":"bytes32"},{"name":"account","type":"address","internalType":"address"}],"outputs":[],"stateMutability":"nonpayable"},{"type":"function","name":"hasRole","inputs":[{"name":"role","type":"bytes32","internalType":"bytes32"},{"name":"account","type":"address","internalType":"address"}],"outputs":[{"name":"","type":"bool","internalType":"bool"}],"stateMutability":"view"},{"type":"function","name":"lockLiquidity","inputs":[{"name":"amount","type":"uint256","internalType":"uint256"}],"outputs":[],"stateMutability":"nonpayable"},{"type":"function","name":"lpToken","inputs":[],"outputs":[{"name":"","type":"address","internalType":"address"}],"stateMutability":"view"},{"type":"function","name":"paused","inputs":[],"outputs":[{"name":"","type":"bool","internalType":"bool"}],"stateMutability":"view"},{"type":"function","name":"renounceRole","inputs":[{"name":"role","type":"bytes32","internalType":"bytes32"},{"name":"account","type":"address","internalType":"address"}],"outputs":[],"stateMutability":"nonpayable"},{"type":"function","name":"revokeRole","inputs":[{"name":"role","type":"bytes32","internalType":"bytes32"},{"name":"account","type":"address","internalType":"address"}],"outputs":[],"stateMutability":"nonpayable"},{"type":"function","name":"setPaused","inputs":[{"name":"_paused","type":"bool","internalType":"bool"}],"outputs":[],"stateMutability":"nonpayable"},{"type":"function","name":"supportsInterface","inputs":[{"name":"interfaceId","type":"bytes4","internalType":"bytes4"}],"outputs":[{"name":"","type":"bool","internalType":"bool"}],"stateMutability":"view"},{"type":"function","name":"token","inputs":[],"outputs":[{"name":"","type":"address","internalType":"contract IERC20"}],"stateMutability":"view"},{"type":"function","name":"totalLocked","inputs":[],"outputs":[{"name":"","type":"uint256","internalType":"uint256"}],"stateMutability":"view"},{"type":"function","name":"unlockLiquidity","inputs":[],"outputs":[],"stateMutability":"nonpayable"},{"type":"function","name":"unlockSchedule","inputs":[{"name":"","type":"uint256","internalType":"uint256"}],"outputs":[{"name":"","type":"uint256","internalType":"uint256"}],"stateMutability":"view"},{"type":"function","name":"unlockStartTime","inputs":[],"outputs":[{"name":"","type":"uint256","internalType":"uint256"}],"stateMutability":"view"},{"type":"function","name":"updateUnlockSchedule","inputs":[{"name":"period","type":"uint256","internalType":"uint256"},{"name":"percentage","type":"uint256","internalType":"uint256"}],"outputs":[],"stateMutability":"nonpayable"},{"type":"function","name":"withdrawETH","inputs":[],"outputs":[],"stateMutability":"nonpayable"},{"type":"function","name":"withdrawTokens","inputs":[{"name":"tokenAddress","type":"address","internalType":"address"},{"name":"amount","type":"uint256","internalType":"uint256"}],"outputs":[],"stateMutability":"nonpayable"},{"type":"event","name":"EmergencyUnlock","inputs":[{"name":"lpToken","type":"address","indexed":true,"internalType":"address"},{"name":"amount","type":"uint256","indexed":false,"internalType":"uint256"},{"name":"unlockTime","type":"uint256","indexed":false,"internalType":"uint256"}],"anonymous":false},{"type":"event","name":"LiquidityLocked","inputs":[{"name":"lpToken","type":"address","indexed":true,"internalType":"address"},{"name":"amount","type":"uint256","indexed":false,"internalType":"uint256"},{"name":"lockTime","type":"uint256","indexed":false,"internalType":"uint256"}],"anonymous":false},{"type":"event","name":"LiquidityUnlocked","inputs":[{"name":"lpToken","type":"address","indexed":true,"internalType":"address"},{"name":"amount","type":"uint256","indexed":false,"internalType":"uint256"},{"name":"unlockTime","type":"uint256","indexed":false,"internalType":"uint256"}],"anonymous":false},{"type":"event","name":"RoleAdminChanged","inputs":[{"name":"role","type":"bytes32","indexed":true,"internalType":"bytes32"},{"name":"previousAdminRole","type":"bytes32","indexed":true,"internalType":"bytes32"},{"name":"newAdminRole","type":"bytes32","indexed":true,"internalType":"bytes32"}],"anonymous":false},{"type":"event","name":"RoleGranted","inputs":[{"name":"role","type":"bytes32","indexed":true,"internalType":"bytes32"},{"name":"account","type":"address","indexed":true,"internalType":"address"},{"name":"sender","type":"address","indexed":true,"internalType":"address"}],"anonymous":false},{"type":"event","name":"RoleRevoked","inputs":[{"name":"role","type":"bytes32","indexed":true,"internalType":"bytes32"},{"name":"account","type":"address","indexed":true,"internalType":"address"},{"name":"sender","type":"address","indexed":true,"internalType":"address"}],"anonymous":false},{"type":"event","name":"UnlockScheduleUpdated","inputs":[{"name":"period","type":"uint256","indexed":false,"internalType":"uint256"},{"name":"percentage","type":"uint256","indexed":false,"internalType":"uint256"}],"anonymous":false}],"bytecode":{"object":"0x6080346103c357601f61182638819003918201601f19168301916001600160401b038311848410176103c75780849260409485528339810103126103c357610052602061004b836103db565b92016103db565b600180556001600160a01b0390911690811561037e576001600160a01b031690811561033957600280546001600160a01b03199081169290921790556003805490911691909117905542600555335f9081525f5160206117e65f395f51905f52602052604090205460ff16156102fc575b335f9081525f5160206117a65f395f51905f52602052604090205460ff161561029d575b335f9081525f5160206117c65f395f51905f52602052604090205460ff161561023e575b6006602090815260147f24ad5144b90bb77b33be2c336a80779ec4ee3ca95d955c6fb346d7de3e4f499781905560287f39721793a5b023d2a0dcfaaffcf2642937d2fc891b3ee67fd2c27232084e44c455603c7fa9ffd3701b8daaec8a95528190f75d9da123e16181e3f286e80f71a079c8e63f556303b538005f5260507fda0f3ad2a2343c311d2926851a6a8626436f544f3edd83d540ee0fbfe2171643556040805162ed4e008152928301919091525f5160206118065f395f51905f5291a15f5160206118065f395f51905f52604080516301da9c00815260286020820152a15f5160206118065f395f51905f52604080516302c7ea008152603c6020820152a15f5160206118065f395f51905f52604080516303b53800815260506020820152a160405161139690816103f08239f35b335f8181525f5160206117c65f395f51905f5260205260408120805460ff1916600117905581907fbf233dd2aafeb4d50879c4aa5c81e96d92f6e6945c906a58f9f2d1c1631b4b26905f5160206117865f395f51905f529080a461010b565b335f8181525f5160206117a65f395f51905f5260205260408120805460ff1916600117905581907f71840dc4906352362b0cdaf79870196c8e42acafade72d5d5a6d59291253ceb1905f5160206117865f395f51905f529080a46100e7565b335f8181525f5160206117e65f395f51905f5260205260408120805460ff1916600117905581905f5160206117865f395f51905f528180a46100c3565b60405162461bcd60e51b815260206004820152601860248201527f496e76616c6964204c5020746f6b656e206164647265737300000000000000006044820152606490fd5b60405162461bcd60e51b815260206004820152601560248201527f496e76616c696420746f6b656e206164647265737300000000000000000000006044820152606490fd5b5f80fd5b634e487b7160e01b5f52604160045260245ffd5b51906001600160a01b03821682036103c35756fe608080604052600436101561001c575b50361561001a575f80fd5b005b5f3560e01c90816301ffc9a714610d1d5750806302ef4afc14610cf357806306b091f914610c2357806316c38b3c14610beb57806320df435914610bb1578063248a9ca314610b93578063257476df14610b795780632bfbd9cf14610a945780632f2ff15d146109e957806336568abe14610957578063485d383414610939578063568914121461091c57806359d07c5c146108f65780635c975abb146108d45780635fcbd285146108ac5780636b54acd91461071e57806391d14854146106d65780639849de41146105db578063a217fddf146105c1578063b0426a3f1461047f578063b079331314610268578063c9aa47681461024b578063d547741f14610215578063e086e5ec146101d2578063f11daa1a146101b7578063f36c8f5c1461017d5763fc0c546a14610151575f61000f565b34610179575f366003190112610179576002546040516001600160a01b039091168152602090f35b5f80fd5b34610179575f3660031901126101795760206040517f71840dc4906352362b0cdaf79870196c8e42acafade72d5d5a6d59291253ceb18152f35b34610179575f36600319011261017957602060405160058152f35b34610179575f366003190112610179576101ea610f69565b5f8080804781811561020c575b3390f11561020157005b6040513d5f823e3d90fd5b506108fc6101f7565b346101795760403660031901126101795761001a600435610234610d70565b9061024661024182610df0565b611065565b6110a2565b34610179575f366003190112610179576020600554604051908152f35b3461017957602036600319011261017957335f9081527f3c1b1854ab1360abbb06c8d4c6b2672d4b8cedc5eff522ab19e51d5cb8fdbd4660205260409020546004359060ff1615610444576102bb611122565b6102c6811515610e9c565b600454600581029080820460051490151715610430576064900481116103f1576102ee610e21565b81116103af5760025460405163a9059cbb60e01b81529060209082906001600160a01b0316815f81610324883360048401610dd5565b03925af180156102015761033f915f91610380575b50610ee2565b7f31d5930a8758c507df18dd1b3e98eedbc0cdf46a599091d08d9cac86fdd5b311604060018060a01b0360035416928151908152426020820152a260018055005b6103a2915060203d6020116103a8575b61039a8183610d86565b810190610dbd565b83610339565b503d610390565b60405162461bcd60e51b815260206004820152601a602482015279125b9cdd59999a58da595b9d081b1bd8dad95908185b5bdd5b9d60321b6044820152606490fd5b60405162461bcd60e51b8152602060048201526017602482015276115e18d959591cc8195b595c99d95b98de481b1a5b5a5d604a1b6044820152606490fd5b634e487b7160e01b5f52601160045260245ffd5b60405162461bcd60e51b81526020600482015260136024820152724f6e6c7920656d657267656e637920726f6c6560681b6044820152606490fd5b34610179575f3660031901126101795760055461049c8142610e01565b6104a581610f20565b6104ad610e21565b915f8062ed4e0083101561050e57505062ed4e000362ed4e0081116104305762ed4e0084018094116104305760c093915b600454936104ec8186610e01565b90604051958652602086015260408501526060840152608083015260a0820152f35b6301da9c008310156105445750506301da9c00036301da9c008111610430576301da9c0084018094116104305760c093916104de565b6302c7ea0083101561057a5750506302c7ea00036302c7ea008111610430576302c7ea0084018094116104305760c093916104de565b916303b538008194929410610594575b5060c094506104de565b915091506303b53800036303b538008111610430576303b5380084018094116104305760c093918561058a565b34610179575f3660031901126101795760206040515f8152f35b3461017957604036600319011261017957335f9081525f5160206113415f395f51905f526020526040902054600435906024359061061b9060ff16610e5e565b81156106a0576064811161066657816040917d825ddbdd23a57af70cfcf731bb278fddd7f92e24944d777840f74b825af6935f52600660205280835f205582519182526020820152a1005b60405162461bcd60e51b8152602060048201526012602482015271496e76616c69642070657263656e7461676560701b6044820152606490fd5b60405162461bcd60e51b815260206004820152600e60248201526d125b9d985b1a59081c195c9a5bd960921b6044820152606490fd5b34610179576040366003190112610179576106ef610d70565b6004355f525f60205260405f209060018060a01b03165f52602052602060ff60405f2054166040519015158152f35b34610179575f36600319011261017957335f9081525f5160206113415f395f51905f5260205260409020546107559060ff16610e5e565b61075d611122565b61077161076c60055442610e01565b610f20565b801561086d5761079d90610797606461078d6004549384610e0e565b0491610797610e21565b90610e01565b801561082e5760025460405163a9059cbb60e01b81529060209082906001600160a01b0316815f816107d3883360048401610dd5565b03925af18015610201576107ed915f916103805750610ee2565b7fa219ed960eef85ed4cd072d3a9f240ea94727c0d6fb15e9a91a8cd4bf18ee3a6604060018060a01b0360035416928151908152426020820152a260018055005b60405162461bcd60e51b81526020600482015260176024820152764e6f206e657720756e6c6f636b20617661696c61626c6560481b6044820152606490fd5b60405162461bcd60e51b8152602060048201526017602482015276139bc81d5b9b1bd8dac8185d985a5b18589b19481e595d604a1b6044820152606490fd5b34610179575f366003190112610179576003546040516001600160a01b039091168152602090f35b34610179575f36600319011261017957602060ff600754166040519015158152f35b34610179576020366003190112610179576020610914600435610f20565b604051908152f35b34610179575f366003190112610179576020600454604051908152f35b34610179575f3660031901126101795760206040516303b538008152f35b3461017957604036600319011261017957610970610d70565b336001600160a01b0382160361098c5761001a906004356110a2565b60405162461bcd60e51b815260206004820152602f60248201527f416363657373436f6e74726f6c3a2063616e206f6e6c792072656e6f756e636560448201526e103937b632b9903337b91039b2b63360891b6064820152608490fd5b3461017957604036600319011261017957600435610a05610d70565b90610a1261024182610df0565b5f818152602081815260408083206001600160a01b038616845290915290205460ff1615610a3c57005b5f818152602081815260408083206001600160a01b0395909516808452949091528120805460ff19166001179055339291907f2f8788117e7eff1d82e926ec794901d17c78024a50270940304540a733656f0d9080a4005b3461017957602036600319011261017957335f9081525f5160206113415f395f51905f52602052604090205460043590610ad09060ff16610e5e565b610adb811515610e9c565b6002546040516323b872dd60e01b81523360048201523060248201526044810183905290602090829060649082905f906001600160a01b03165af1801561020157610b2c915f916103805750610ee2565b600454818101809111610430576004557fe3afae9ec63e6f2e914c17bab8493b603680a72d9e6dfacf25ac6a4806555d41604060018060a01b0360035416928151908152426020820152a2005b34610179575f366003190112610179576020610914610e21565b34610179576020366003190112610179576020610914600435610df0565b34610179575f3660031901126101795760206040517fbf233dd2aafeb4d50879c4aa5c81e96d92f6e6945c906a58f9f2d1c1631b4b268152f35b346101795760203660031901126101795760043580151580910361017957610c11610f69565b60ff8019600754169116176007555f80f35b34610179576040366003190112610179576004356001600160a01b0381169081900361017957610c51610f69565b6002546001600160a01b03168114610caf576020604051809263a9059cbb60e01b8252815f81610c876024353360048401610dd5565b03925af1801561020157610c9757005b61001a9060203d6020116103a85761039a8183610d86565b60405162461bcd60e51b815260206004820152601c60248201527b21b0b73737ba103bb4ba34323930bb903637b1b5b2b2103a37b5b2b760211b6044820152606490fd5b34610179576020366003190112610179576004355f526006602052602060405f2054604051908152f35b34610179576020366003190112610179576004359063ffffffff60e01b821680920361017957602091637965db0b60e01b8114908115610d5f575b5015158152f35b6301ffc9a760e01b14905083610d58565b602435906001600160a01b038216820361017957565b601f909101601f19168101906001600160401b03821190821017610da957604052565b634e487b7160e01b5f52604160045260245ffd5b90816020910312610179575180151581036101795790565b6001600160a01b039091168152602081019190915260400190565b5f525f602052600160405f20015490565b9190820391821161043057565b8181029291811591840414171561043057565b610e3061076c60055442610e01565b6064811015610e595760045490606403906064821161043057606491610e5591610e0e565b0490565b505f90565b15610e6557565b60405162461bcd60e51b815260206004820152600f60248201526e4f6e6c7920676f7665726e616e636560881b6044820152606490fd5b15610ea357565b60405162461bcd60e51b8152602060048201526017602482015276416d6f756e74206d75737420626520706f73697469766560481b6044820152606490fd5b15610ee957565b60405162461bcd60e51b815260206004820152600f60248201526e151c985b9cd9995c8819985a5b1959608a1b6044820152606490fd5b62ed4e00811015610f3057505f90565b6301da9c00811015610f425750601490565b6302c7ea00811015610f545750602890565b6303b538001115610f6457603c90565b605090565b335f9081527fad3228b676f7d3cd4284a5443f17f1962b36e491b30a40b2405849e597ba5fb5602052604090205460ff1615610fa157565b610faa336111b8565b6044602061102d6011610fbc5f61129e565b6037604051948592818085019976020b1b1b2b9b9a1b7b73a3937b61d1030b1b1b7bab73a1604d1b8b528051918291018587015e8401907001034b99036b4b9b9b4b733903937b6329607d1b84830152805192839101604883015e01015f838201520301601f198101835282610d86565b60405192839162461bcd60e51b8352602060048401525180918160248501528484015e5f828201840152601f01601f19168101030190fd5b5f8181526020818152604080832033845290915290205460ff16156110875750565b6044602061102d6011610fbc61109c336111b8565b9561129e565b5f818152602081815260408083206001600160a01b038616845290915290205460ff166110cd575050565b5f818152602081815260408083206001600160a01b0395909516808452949091528120805460ff19169055339291907ff6391f5c32d9c69d2a47ea670b442974b53935d1edc7fd64eb21e047a839171b9080a4565b600260015414611133576002600155565b60405162461bcd60e51b815260206004820152601f60248201527f5265656e7472616e637947756172643a207265656e7472616e742063616c6c006044820152606490fd5b6001600160401b038111610da957601f01601f191660200190565b9081518110156111a4570160200190565b634e487b7160e01b5f52603260045260245ffd5b6111c2602a611178565b906111d06040519283610d86565b602a82526111de602a611178565b6020830190601f19013682378251156111a457603090538151600110156111a4576078602183015360295b6001811161125d57506112195790565b606460405162461bcd60e51b815260206004820152602060248201527f537472696e67733a20686578206c656e67746820696e73756666696369656e746044820152fd5b90600f811660108110156111a4576f181899199a1a9b1b9c1cb0b131b232b360811b901a61128b8385611193565b5360041c908015610430575f1901611209565b6112a86042611178565b906112b66040519283610d86565b604282526112c46042611178565b6020830190601f19013682378251156111a457603090538151600110156111a4576078602183015360415b600181116112ff57506112195790565b90600f811660108110156111a4576f181899199a1a9b1b9c1cb0b131b232b360811b901a61132d8385611193565b5360041c908015610430575f19016112ef56fe316a51056d8b2401ab04c48d9973add294eadde229c785c6d19cde93785467efa264697066735822122081409b95439750a289ce4fdb1e695a3e0444089252b866769aea62b68c95cedc64736f6c634300081d00332f8788117e7eff1d82e926ec794901d17c78024a50270940304540a733656f0d316a51056d8b2401ab04c48d9973add294eadde229c785c6d19cde93785467ef3c1b1854ab1360abbb06c8d4c6b2672d4b8cedc5eff522ab19e51d5cb8fdbd46ad3228b676f7d3cd4284a5443f17f1962b36e491b30a40b2405849e597ba5fb50000825ddbdd23a57af70cfcf731bb278fddd7f92e24944d777840f74b825af6","linkReferences":{}},"methodIdentifiers":{"DEFAULT_ADMIN_ROLE()":"a217fddf","EMERGENCY_ROLE()":"20df4359","EMERGENCY_UNLOCK_LIMIT()":"f11daa1a","GOVERNANCE_ROLE()":"f36c8f5c","LOCK_DURATION()":"485d3834","emergencyUnlock(uint256)":"b0793313","getCurrentLockedAmount()":"257476df","getLockInfo()":"b0426a3f","getRoleAdmin(bytes32)":"248a9ca3","getUnlockPercentage(uint256)":"59d07c5c","grantRole(bytes32,address)":"2f2ff15d","hasRole(bytes32,address)":"91d14854","lockLiquidity(uint256)":"2bfbd9cf","lpToken()":"5fcbd285","paused()":"5c975abb","renounceRole(bytes32,address)":"36568abe","revokeRole(bytes32,address)":"d547741f","setPaused(bool)":"16c38b3c","supportsInterface(bytes4)":"01ffc9a7","token()":"fc0c546a","totalLocked()":"56891412","unlockLiquidity()":"6b54acd9","unlockSchedule(uint256)":"02ef4afc","unlockStartTime()":"c9aa4768","updateUnlockSchedule(uint256,uint256)":"9849de41","withdrawETH()":"e086e5ec","withdrawTokens(address,uint256)":"06b091f9"},"id":20}