{"abi":[{"type":"constructor","inputs":[{"name":"_token","type":"address","internalType":"address"}],"stateMutability":"nonpayable"},{"type":"receive","stateMutability":"payable"},{"type":"function","name":"ADMIN_ROLE","inputs":[],"outputs":[{"name":"","type":"bytes32","internalType":"bytes32"}],"stateMutability":"view"},{"type":"function","name":"DEFAULT_ADMIN_ROLE","inputs":[],"outputs":[{"name":"","type":"bytes32","internalType":"bytes32"}],"stateMutability":"view"},{"type":"function","name":"MAX_PURCHASE","inputs":[],"outputs":[{"name":"","type":"uint256","internalType":"uint256"}],"stateMutability":"view"},{"type":"function","name":"MAX_WHITELIST","inputs":[],"outputs":[{"name":"","type":"uint256","internalType":"uint256"}],"stateMutability":"view"},{"type":"function","name":"MIN_PURCHASE","inputs":[],"outputs":[{"name":"","type":"uint256","internalType":"uint256"}],"stateMutability":"view"},{"type":"function","name":"SALE_AMOUNT","inputs":[],"outputs":[{"name":"","type":"uint256","internalType":"uint256"}],"stateMutability":"view"},{"type":"function","name":"SALE_DURATION","inputs":[],"outputs":[{"name":"","type":"uint256","internalType":"uint256"}],"stateMutability":"view"},{"type":"function","name":"TOKEN_PRICE","inputs":[],"outputs":[{"name":"","type":"uint256","internalType":"uint256"}],"stateMutability":"view"},{"type":"function","name":"VESTING_CLIFF","inputs":[],"outputs":[{"name":"","type":"uint256","internalType":"uint256"}],"stateMutability":"view"},{"type":"function","name":"VESTING_DURATION","inputs":[],"outputs":[{"name":"","type":"uint256","internalType":"uint256"}],"stateMutability":"view"},{"type":"function","name":"WHITELIST_MANAGER_ROLE","inputs":[],"outputs":[{"name":"","type":"bytes32","internalType":"bytes32"}],"stateMutability":"view"},{"type":"function","name":"addBatchToWhitelist","inputs":[{"name":"users","type":"address[]","internalType":"address[]"}],"outputs":[],"stateMutability":"nonpayable"},{"type":"function","name":"addToWhitelist","inputs":[{"name":"user","type":"address","internalType":"address"}],"outputs":[],"stateMutability":"nonpayable"},{"type":"function","name":"claimTokens","inputs":[],"outputs":[],"stateMutability":"nonpayable"},{"type":"function","name":"endSale","inputs":[],"outputs":[],"stateMutability":"nonpayable"},{"type":"function","name":"getClaimableAmount","inputs":[{"name":"user","type":"address","internalType":"address"}],"outputs":[{"name":"","type":"uint256","internalType":"uint256"}],"stateMutability":"view"},{"type":"function","name":"getRoleAdmin","inputs":[{"name":"role","type":"bytes32","internalType":"bytes32"}],"outputs":[{"name":"","type":"bytes32","internalType":"bytes32"}],"stateMutability":"view"},{"type":"function","name":"getSaleInfo","inputs":[],"outputs":[{"name":"totalSold_","type":"uint256","internalType":"uint256"},{"name":"totalRaised_","type":"uint256","internalType":"uint256"},{"name":"remainingTokens_","type":"uint256","internalType":"uint256"},{"name":"saleProgress_","type":"uint256","internalType":"uint256"},{"name":"timeRemaining_","type":"uint256","internalType":"uint256"}],"stateMutability":"view"},{"type":"function","name":"getUserVestingInfo","inputs":[{"name":"user","type":"address","internalType":"address"}],"outputs":[{"name":"totalAmount","type":"uint256","internalType":"uint256"},{"name":"claimedAmount","type":"uint256","internalType":"uint256"},{"name":"claimableAmount","type":"uint256","internalType":"uint256"},{"name":"startTime","type":"uint256","internalType":"uint256"},{"name":"isActive","type":"bool","internalType":"bool"}],"stateMutability":"view"},{"type":"function","name":"grantRole","inputs":[{"name":"role","type":"bytes32","internalType":"bytes32"},{"name":"account","type":"address","internalType":"address"}],"outputs":[],"stateMutability":"nonpayable"},{"type":"function","name":"hasRole","inputs":[{"name":"role","type":"bytes32","internalType":"bytes32"},{"name":"account","type":"address","internalType":"address"}],"outputs":[{"name":"","type":"bool","internalType":"bool"}],"stateMutability":"view"},{"type":"function","name":"paused","inputs":[],"outputs":[{"name":"","type":"bool","internalType":"bool"}],"stateMutability":"view"},{"type":"function","name":"purchaseTokens","inputs":[],"outputs":[],"stateMutability":"payable"},{"type":"function","name":"removeFromWhitelist","inputs":[{"name":"user","type":"address","internalType":"address"}],"outputs":[],"stateMutability":"nonpayable"},{"type":"function","name":"renounceRole","inputs":[{"name":"role","type":"bytes32","internalType":"bytes32"},{"name":"account","type":"address","internalType":"address"}],"outputs":[],"stateMutability":"nonpayable"},{"type":"function","name":"revokeRole","inputs":[{"name":"role","type":"bytes32","internalType":"bytes32"},{"name":"account","type":"address","internalType":"address"}],"outputs":[],"stateMutability":"nonpayable"},{"type":"function","name":"saleEndTime","inputs":[],"outputs":[{"name":"","type":"uint256","internalType":"uint256"}],"stateMutability":"view"},{"type":"function","name":"saleStartTime","inputs":[],"outputs":[{"name":"","type":"uint256","internalType":"uint256"}],"stateMutability":"view"},{"type":"function","name":"setPaused","inputs":[{"name":"_paused","type":"bool","internalType":"bool"}],"outputs":[],"stateMutability":"nonpayable"},{"type":"function","name":"startSale","inputs":[],"outputs":[],"stateMutability":"nonpayable"},{"type":"function","name":"supportsInterface","inputs":[{"name":"interfaceId","type":"bytes4","internalType":"bytes4"}],"outputs":[{"name":"","type":"bool","internalType":"bool"}],"stateMutability":"view"},{"type":"function","name":"token","inputs":[],"outputs":[{"name":"","type":"address","internalType":"contract IERC20"}],"stateMutability":"view"},{"type":"function","name":"totalRaised","inputs":[],"outputs":[{"name":"","type":"uint256","internalType":"uint256"}],"stateMutability":"view"},{"type":"function","name":"totalSold","inputs":[],"outputs":[{"name":"","type":"uint256","internalType":"uint256"}],"stateMutability":"view"},{"type":"function","name":"updateSaleParameters","inputs":[{"name":"_minPurchase","type":"uint256","internalType":"uint256"},{"name":"_maxPurchase","type":"uint256","internalType":"uint256"}],"outputs":[],"stateMutability":"nonpayable"},{"type":"function","name":"userPurchases","inputs":[{"name":"","type":"address","internalType":"address"}],"outputs":[{"name":"","type":"uint256","internalType":"uint256"}],"stateMutability":"view"},{"type":"function","name":"vestingInfo","inputs":[{"name":"","type":"address","internalType":"address"}],"outputs":[{"name":"totalAmount","type":"uint256","internalType":"uint256"},{"name":"claimedAmount","type":"uint256","internalType":"uint256"},{"name":"startTime","type":"uint256","internalType":"uint256"},{"name":"isActive","type":"bool","internalType":"bool"}],"stateMutability":"view"},{"type":"function","name":"whitelist","inputs":[{"name":"","type":"address","internalType":"address"}],"outputs":[{"name":"","type":"bool","internalType":"bool"}],"stateMutability":"view"},{"type":"function","name":"whitelistCount","inputs":[],"outputs":[{"name":"","type":"uint256","internalType":"uint256"}],"stateMutability":"view"},{"type":"function","name":"withdrawETH","inputs":[],"outputs":[],"stateMutability":"nonpayable"},{"type":"function","name":"withdrawTokens","inputs":[],"outputs":[],"stateMutability":"nonpayable"},{"type":"event","name":"Paused","inputs":[{"name":"account","type":"address","indexed":false,"internalType":"address"}],"anonymous":false},{"type":"event","name":"RoleAdminChanged","inputs":[{"name":"role","type":"bytes32","indexed":true,"internalType":"bytes32"},{"name":"previousAdminRole","type":"bytes32","indexed":true,"internalType":"bytes32"},{"name":"newAdminRole","type":"bytes32","indexed":true,"internalType":"bytes32"}],"anonymous":false},{"type":"event","name":"RoleGranted","inputs":[{"name":"role","type":"bytes32","indexed":true,"internalType":"bytes32"},{"name":"account","type":"address","indexed":true,"internalType":"address"},{"name":"sender","type":"address","indexed":true,"internalType":"address"}],"anonymous":false},{"type":"event","name":"RoleRevoked","inputs":[{"name":"role","type":"bytes32","indexed":true,"internalType":"bytes32"},{"name":"account","type":"address","indexed":true,"internalType":"address"},{"name":"sender","type":"address","indexed":true,"internalType":"address"}],"anonymous":false},{"type":"event","name":"SaleEnded","inputs":[{"name":"totalSold","type":"uint256","indexed":false,"internalType":"uint256"},{"name":"totalRaised","type":"uint256","indexed":false,"internalType":"uint256"}],"anonymous":false},{"type":"event","name":"SaleStarted","inputs":[{"name":"startTime","type":"uint256","indexed":false,"internalType":"uint256"},{"name":"endTime","type":"uint256","indexed":false,"internalType":"uint256"}],"anonymous":false},{"type":"event","name":"TokensClaimed","inputs":[{"name":"buyer","type":"address","indexed":true,"internalType":"address"},{"name":"amount","type":"uint256","indexed":false,"internalType":"uint256"}],"anonymous":false},{"type":"event","name":"TokensPurchased","inputs":[{"name":"buyer","type":"address","indexed":true,"internalType":"address"},{"name":"amount","type":"uint256","indexed":false,"internalType":"uint256"},{"name":"cost","type":"uint256","indexed":false,"internalType":"uint256"}],"anonymous":false},{"type":"event","name":"Unpaused","inputs":[{"name":"account","type":"address","indexed":false,"internalType":"address"}],"anonymous":false},{"type":"event","name":"WhitelistAdded","inputs":[{"name":"user","type":"address","indexed":true,"internalType":"address"}],"anonymous":false},{"type":"event","name":"WhitelistRemoved","inputs":[{"name":"user","type":"address","indexed":true,"internalType":"address"}],"anonymous":false}],"bytecode":{"object":"0x60803461023957601f611fcf38819003918201601f19168301916001600160401b0383118484101761023d5780849260209460405283398101031261023957516001600160a01b03811690818103610239576001805560025491156101f4576001600160a81b031990911660089190911b610100600160a81b031617600255335f9081525f516020611faf5f395f51905f52602052604090205460ff16156101b7575b335f9081525f516020611f6f5f395f51905f52602052604090205460ff1615610158575b335f9081525f516020611f8f5f395f51905f52602052604090205460ff16156100f9575b604051611cfd90816102528239f35b335f8181525f516020611f8f5f395f51905f5260205260408120805460ff1916600117905581907f2a3dab589bcc9747970dd85ac3f222668741ae51f2a1bbb8f8355be28dd8a868905f516020611f4f5f395f51905f529080a46100ea565b335f8181525f516020611f6f5f395f51905f5260205260408120805460ff1916600117905581907fa49807205ce4d355092ef5a8a18f56e8913cf4a201fbe287825b095693c21775905f516020611f4f5f395f51905f529080a46100c6565b335f8181525f516020611faf5f395f51905f5260205260408120805460ff1916600117905581905f516020611f4f5f395f51905f528180a46100a2565b60405162461bcd60e51b815260206004820152601560248201527f496e76616c696420746f6b656e206164647265737300000000000000000000006044820152606490fd5b5f80fd5b634e487b7160e01b5f52604160045260245ffdfe608080604052600436101561001c575b50361561001a575f80fd5b005b5f3560e01c90816301ffc9a71461167a5750806316c38b3c1461153c5780631cbaee2d1461151f578063248a9ca3146115015780632f2ff15d146114565780633290ce29146110f257806336568abe14611060578063380d831b14610faf57806339f65c0914610f7757806348c54b9d14610d9c5780634cfc4d3014610d7e5780635c975abb14610d5c578063635b1a7b14610d3757806363f3dbe514610d1a5780636d79207c14610cfd5780637146bd0814610cd95780637295ed9314610c9f57806375b238fc14610c655780638ab1d68114610bba5780638d8f2adb14610a745780639106d7ba14610a5757806391d1485414610a0f57806395f61c48146109f35780639b19251a146109b6578063a19ecb45146108f1578063a217fddf146108d7578063a3d19d8c1461073d578063b66a0e5d1461067c578063c5c4744c1461065f578063c70c4e7a146105f3578063d2d8cb67146105d2578063d439390c146105af578063d547741f14610579578063db83694c146104c0578063e086e5ec1461042e578063e12f3a6114610403578063e43252d7146102b4578063ed338ff114610297578063f2624b5d1461027a578063f78e633d1461021b5763fc0c546a146101eb575f61000f565b34610217575f3660031901126102175760025460405160089190911c6001600160a01b03168152602090f35b5f80fd5b34610217576020366003190112610217576001600160a01b0361023c6116e3565b165f526009602052608060405f2080549060018101549060ff6003600283015492015416916040519384526020840152604083015215156060820152f35b34610217575f366003190112610217576020600a54604051908152f35b34610217575f366003190112610217576020600454604051908152f35b34610217576020366003190112610217576102cd6116e3565b335f9081525f516020611ca85f395f51905f5260205260409020546102f49060ff166117e4565b6001600160a01b031680156103cc57805f52600860205260ff60405f20541661039157612710600a54101561035b57805f52600860205260405f20600160ff19825416179055610345600a5461186d565b600a555f516020611c885f395f51905f525f80a2005b60405162461bcd60e51b815260206004820152600e60248201526d15da1a5d195b1a5cdd08199d5b1b60921b6044820152606490fd5b60405162461bcd60e51b8152602060048201526013602482015272105b1c9958591e481dda1a5d195b1a5cdd1959606a1b6044820152606490fd5b60405162461bcd60e51b815260206004820152600f60248201526e496e76616c6964206164647265737360881b6044820152606490fd5b346102175760203660031901126102175760206104266104216116e3565b611888565b604051908152f35b34610217575f36600319011261021757335f9081525f516020611c685f395f51905f5260205260409020546104659060ff166116f9565b478015610486575f808080933382f11561047b57005b6040513d5f823e3d90fd5b60405162461bcd60e51b81526020600482015260126024820152714e6f2045544820746f20776974686472617760701b6044820152606490fd5b34610217575f36600319011261021757600554806a108b2a2c2802909400000003906a108b2a2c280290940000008211610565576064810291818304606414821517156105655760a0925f90600454804210610546575b506a108b2a2c280290940000009192600654604051958652602086015260408501520460608301526080820152f35b6a108b2a2c28029094000000925061055f90429061187b565b91610517565b634e487b7160e01b5f52601160045260245ffd5b346102175760403660031901126102175761001a6004356105986116cd565b906105aa6105a582611732565b611919565b611bbb565b34610217575f36600319011261021757602060405168056bc75e2d631000008152f35b34610217575f366003190112610217576020604051662386f26fc100008152f35b346102175760203660031901126102175760a061060e6116e3565b600180831b0381165f52600960205261062a60405f2091611888565b81549160018101549160ff60036002840154930154169260405194855260208501526040840152606083015215156080820152f35b34610217575f366003190112610217576020600654604051908152f35b34610217575f36600319011261021757335f9081525f516020611c685f395f51905f5260205260409020546106b39060ff166116f9565b600354610701574260035562278d004201804211610565576040817f87d03dcfa12666a6f670d52387c414c3147775a8cc623d78088c0e23b4a90346926004558151904282526020820152a1005b60405162461bcd60e51b815260206004820152601460248201527314d85b1948185b1c9958591e481cdd185c9d195960621b6044820152606490fd5b34610217576020366003190112610217576004356001600160401b0381116102175736602382011215610217576004810135906001600160401b038211610217576024810190602436918460051b01011161021757335f9081525f516020611ca85f395f51905f5260205260409020546107b99060ff166117e4565b6127106107c883600a54611781565b11610898575f5b8281106107d857005b6001906001600160a01b036107f66107f1838787611835565b611859565b165f52600860205260ff60405f205416158061087b575b610818575b016107cf565b818060a01b0361082c6107f1838787611835565b165f52600860205260405f208260ff1982541617905561084d600a5461186d565b600a55818060a01b036108646107f1838787611835565b165f516020611c885f395f51905f525f80a2610812565b50818060a01b036108906107f1838787611835565b16151561080d565b60405162461bcd60e51b815260206004820152601760248201527615da1a5d195b1a5cdd081ddbdd5b1908189948199d5b1b604a1b6044820152606490fd5b34610217575f3660031901126102175760206040515f8152f35b3461021757604036600319011261021757335f9081525f516020611c685f395f51905f5260205260409020546004359061092d9060ff166116f9565b801561097a57602435111561093e57005b60405162461bcd60e51b8152602060048201526014602482015273496e76616c6964206d617820707572636861736560601b6044820152606490fd5b60405162461bcd60e51b8152602060048201526014602482015273496e76616c6964206d696e20707572636861736560601b6044820152606490fd5b34610217576020366003190112610217576001600160a01b036109d76116e3565b165f526008602052602060ff60405f2054166040519015158152f35b34610217575f3660031901126102175760206040516127108152f35b3461021757604036600319011261021757610a286116cd565b6004355f525f60205260405f209060018060a01b03165f52602052602060ff60405f2054166040519015158152f35b34610217575f366003190112610217576020600554604051908152f35b34610217575f36600319011261021757335f9081525f516020611c685f395f51905f526020526040902054610aab9060ff166116f9565b6002546040516370a0823160e01b81523060048201529060081c6001600160a01b0316602082602481845afa91821561047b575f92610b86575b508115610b4957610b116020915f9360405194858094819363a9059cbb60e01b835233600484016117c9565b03925af1801561047b57610b2157005b61001a9060203d602011610b42575b610b3a818361178e565b8101906117b1565b503d610b30565b60405162461bcd60e51b81526020600482015260156024820152744e6f20746f6b656e7320746f20776974686472617760581b6044820152606490fd5b9091506020813d602011610bb2575b81610ba26020938361178e565b8101031261021757519082610ae5565b3d9150610b95565b3461021757602036600319011261021757610bd36116e3565b335f9081525f516020611ca85f395f51905f526020526040902054610bfa9060ff166117e4565b6001600160a01b03165f81815260086020526040902054610c1d9060ff16611743565b805f52600860205260405f2060ff198154169055610c3c600a54611829565b600a557fde8cf212af7ce38b2840785a2768d97ff2dbf3c21b516961cec0061e134c2a1e5f80a2005b34610217575f3660031901126102175760206040517fa49807205ce4d355092ef5a8a18f56e8913cf4a201fbe287825b095693c217758152f35b34610217575f3660031901126102175760206040517f2a3dab589bcc9747970dd85ac3f222668741ae51f2a1bbb8f8355be28dd8a8688152f35b34610217575f36600319011261021757602060405169021e19e0c9bab24000008152f35b34610217575f36600319011261021757602060405162278d008152f35b34610217575f36600319011261021757602060405162ed4e008152f35b34610217575f3660031901126102175760206040516a108b2a2c280290940000008152f35b34610217575f36600319011261021757602060ff600254166040519015158152f35b34610217575f3660031901126102175760206040516301da9c008152f35b34610217575f36600319011261021757610db4611b65565b335f52600960205260405f2060ff60038201541615610f405760028101544210610f0557610de133611888565b908115610ecb57600101610df6828254611781565b905560025460405163a9059cbb60e01b815290602090829060081c6001600160a01b0316815f81610e2b8833600484016117c9565b03925af190811561047b575f91610eac575b5015610e75576040519081527f896e034966eaaf1adc54acc0f257056febbd300c9e47182cf761982cf1f5e43060203392a260018055005b60405162461bcd60e51b815260206004820152600f60248201526e151c985b9cd9995c8819985a5b1959608a1b6044820152606490fd5b610ec5915060203d602011610b4257610b3a818361178e565b82610e3d565b60405162461bcd60e51b81526020600482015260126024820152714e6f20746f6b656e7320746f20636c61696d60701b6044820152606490fd5b60405162461bcd60e51b815260206004820152601360248201527215995cdd1a5b99c81b9bdd081cdd185c9d1959606a1b6044820152606490fd5b60405162461bcd60e51b815260206004820152600f60248201526e4e6f2076657374696e6720696e666f60881b6044820152606490fd5b34610217576020366003190112610217576001600160a01b03610f986116e3565b165f526007602052602060405f2054604051908152f35b34610217575f36600319011261021757335f9081525f516020611c685f395f51905f526020526040902054610fe69060ff166116f9565b600454421115611026577fce4010416b0dec196298b584ceebdd43ecf89e6c03007517c3a7f4403db6c212604060055460065482519182526020820152a1005b60405162461bcd60e51b815260206004820152601260248201527114d85b19481b9bdd08195b991959081e595d60721b6044820152606490fd5b34610217576040366003190112610217576110796116cd565b336001600160a01b038216036110955761001a90600435611bbb565b60405162461bcd60e51b815260206004820152602f60248201527f416363657373436f6e74726f6c3a2063616e206f6e6c792072656e6f756e636560448201526e103937b632b9903337b91039b2b63360891b6064820152608490fd5b5f36600319011261021757600354421061141e5760045442116113ec5760ff600254166113b657335f52600860205261113160ff60405f205416611743565b611139611b65565b68056bc75e2d6310000034106113785769021e19e0c9bab2400000341161133a57335f52600760205269021e19e0c9bab240000061117b3460405f2054611781565b116112fc57670de0b6b3a76400003402348104670de0b6b3a7640000143415171561056557662386f26fc1000090046005546a108b2a2c280290940000006111c38383611781565b116112c157816111d291611781565b6005556111e134600654611781565b600655335f52600760205260405f206111fb348254611781565b905560045462ed4e0081018091116105655760405160808101906001600160401b038211818310176112ad5760039160405283815260208101925f845260408201908152606082019360018552335f52600960205260405f2092518355516001830155516002820155019051151560ff801983541691161790556040519081523460208201527f8fafebcaf9d154343dad25669bfa277f4fbacd7ac6b0c4fed522580e040a0f3360403392a260018055005b634e487b7160e01b5f52604160045260245ffd5b60405162461bcd60e51b8152602060048201526013602482015272115e18d959591cc81cd85b1948185b5bdd5b9d606a1b6044820152606490fd5b60405162461bcd60e51b8152602060048201526016602482015275115e18d959591cc81c195c9cdbdb985b081b1a5b5a5d60521b6044820152606490fd5b60405162461bcd60e51b815260206004820152601660248201527541626f7665206d6178696d756d20707572636861736560501b6044820152606490fd5b60405162461bcd60e51b815260206004820152601660248201527542656c6f77206d696e696d756d20707572636861736560501b6044820152606490fd5b60405162461bcd60e51b815260206004820152600e60248201526d14d85b19481a5cc81c185d5cd95960921b6044820152606490fd5b60405162461bcd60e51b815260206004820152600a60248201526914d85b1948195b99195960b21b6044820152606490fd5b60405162461bcd60e51b815260206004820152601060248201526f14d85b19481b9bdd081cdd185c9d195960821b6044820152606490fd5b34610217576040366003190112610217576004356114726116cd565b9061147f6105a582611732565b5f818152602081815260408083206001600160a01b038616845290915290205460ff16156114a957005b5f818152602081815260408083206001600160a01b0395909516808452949091528120805460ff19166001179055339291907f2f8788117e7eff1d82e926ec794901d17c78024a50270940304540a733656f0d9080a4005b34610217576020366003190112610217576020610426600435611732565b34610217575f366003190112610217576020600354604051908152f35b3461021757602036600319011261021757600435801515810361021757335f9081525f516020611c685f395f51905f5260205260409020546115809060ff166116f9565b156115ff5760025460ff81166115c75760019060ff1916176002557f62e78cea01bee320cd4e420270b5ea74000d11b0c9f74754ebdbfc544b05a2586020604051338152a1005b60405162461bcd60e51b815260206004820152601060248201526f14185d5cd8589b194e881c185d5cd95960821b6044820152606490fd5b60025460ff81161561163e5760ff19166002557f5db9ee0a495bf2e6ff9c91a7834c1ba4fdd244a5e8aa4e537bd38aeae4b073aa6020604051338152a1005b60405162461bcd60e51b815260206004820152601460248201527314185d5cd8589b194e881b9bdd081c185d5cd95960621b6044820152606490fd5b34610217576020366003190112610217576004359063ffffffff60e01b821680920361021757602091637965db0b60e01b81149081156116bc575b5015158152f35b6301ffc9a760e01b149050836116b5565b602435906001600160a01b038216820361021757565b600435906001600160a01b038216820361021757565b1561170057565b60405162461bcd60e51b815260206004820152600a60248201526927b7363c9030b236b4b760b11b6044820152606490fd5b5f525f602052600160405f20015490565b1561174a57565b60405162461bcd60e51b815260206004820152600f60248201526e139bdd081dda1a5d195b1a5cdd1959608a1b6044820152606490fd5b9190820180921161056557565b601f909101601f19168101906001600160401b038211908210176112ad57604052565b90816020910312610217575180151581036102175790565b6001600160a01b039091168152602081019190915260400190565b156117eb57565b60405162461bcd60e51b815260206004820152601660248201527527b7363c903bb434ba32b634b9ba1036b0b730b3b2b960511b6044820152606490fd5b8015610565575f190190565b91908110156118455760051b0190565b634e487b7160e01b5f52603260045260245ffd5b356001600160a01b03811681036102175790565b5f1981146105655760010190565b9190820391821161056557565b6001600160a01b03165f908152600960205260409020600381015460ff1615801561190c575b611907576118c060028201544261187b565b6301da9c008110156118f5578154818102918183041490151715610565576301da9c0060016118f2930154910461187b565b90565b508060016118f292549101549061187b565b505f90565b50600281015442106118ae565b5f8181526020818152604080832033845290915290205460ff161561193b5750565b33611946602a611c3b565b91611954604051938461178e565b602a8352611962602a611c3b565b602084019290601f19013684378351156118455760308353835160011015611845576078602185015360295b60018111611b2d5750611aa757906119a66042611c3b565b906119b4604051928361178e565b604282526119c26042611c3b565b602083019390601f19013685378251156118455760308453825160011015611845576078602184015360415b60018111611aeb5750611aa7576011611a6f916037604495604051958693602085019976020b1b1b2b9b9a1b7b73a3937b61d1030b1b1b7bab73a1604d1b8b525180918587015e8401907001034b99036b4b9b9b4b733903937b6329607d1b84830152518092604883015e01015f838201520301601f19810183528261178e565b60405192839162461bcd60e51b8352602060048401525180918160248501528484015e5f828201840152601f01601f19168101030190fd5b606460405162461bcd60e51b815260206004820152602060248201527f537472696e67733a20686578206c656e67746820696e73756666696369656e746044820152fd5b90600f811690601082101561184557611b28916f181899199a1a9b1b9c1cb0b131b232b360811b901a611b1e8487611c56565b5360041c91611829565b6119ee565b90600f811690601082101561184557611b60916f181899199a1a9b1b9c1cb0b131b232b360811b901a611b1e8488611c56565b61198e565b600260015414611b76576002600155565b60405162461bcd60e51b815260206004820152601f60248201527f5265656e7472616e637947756172643a207265656e7472616e742063616c6c006044820152606490fd5b5f818152602081815260408083206001600160a01b038616845290915290205460ff16611be6575050565b5f818152602081815260408083206001600160a01b0395909516808452949091528120805460ff19169055339291907ff6391f5c32d9c69d2a47ea670b442974b53935d1edc7fd64eb21e047a839171b9080a4565b6001600160401b0381116112ad57601f01601f191660200190565b90815181101561184557016020019056fe7d7ffb7a348e1c6a02869081a26547b49160dd3df72d1d75a570eb9b698292ec4790a4adb426ca2345bb5108f6e454eae852a7bf687544cd66a7270dff3a41d6b5ba3787543ad6c173598159348a4a928021a98f804854cb89ce97f5d3e2c45ea2646970667358221220d4af0b96c0f74274934fc158e5acddebcaeed98cca79752895acb670767491d564736f6c634300081d00332f8788117e7eff1d82e926ec794901d17c78024a50270940304540a733656f0d7d7ffb7a348e1c6a02869081a26547b49160dd3df72d1d75a570eb9b698292ecb5ba3787543ad6c173598159348a4a928021a98f804854cb89ce97f5d3e2c45ead3228b676f7d3cd4284a5443f17f1962b36e491b30a40b2405849e597ba5fb5","linkReferences":{}},"methodIdentifiers":{"ADMIN_ROLE()":"75b238fc","DEFAULT_ADMIN_ROLE()":"a217fddf","MAX_PURCHASE()":"7146bd08","MAX_WHITELIST()":"95f61c48","MIN_PURCHASE()":"d439390c","SALE_AMOUNT()":"635b1a7b","SALE_DURATION()":"6d79207c","TOKEN_PRICE()":"d2d8cb67","VESTING_CLIFF()":"63f3dbe5","VESTING_DURATION()":"4cfc4d30","WHITELIST_MANAGER_ROLE()":"7295ed93","addBatchToWhitelist(address[])":"a3d19d8c","addToWhitelist(address)":"e43252d7","claimTokens()":"48c54b9d","endSale()":"380d831b","getClaimableAmount(address)":"e12f3a61","getRoleAdmin(bytes32)":"248a9ca3","getSaleInfo()":"db83694c","getUserVestingInfo(address)":"c70c4e7a","grantRole(bytes32,address)":"2f2ff15d","hasRole(bytes32,address)":"91d14854","paused()":"5c975abb","purchaseTokens()":"3290ce29","removeFromWhitelist(address)":"8ab1d681","renounceRole(bytes32,address)":"36568abe","revokeRole(bytes32,address)":"d547741f","saleEndTime()":"ed338ff1","saleStartTime()":"1cbaee2d","setPaused(bool)":"16c38b3c","startSale()":"b66a0e5d","supportsInterface(bytes4)":"01ffc9a7","token()":"fc0c546a","totalRaised()":"c5c4744c","totalSold()":"9106d7ba","updateSaleParameters(uint256,uint256)":"a19ecb45","userPurchases(address)":"39f65c09","vestingInfo(address)":"f78e633d","whitelist(address)":"9b19251a","whitelistCount()":"f2624b5d","withdrawETH()":"e086e5ec","withdrawTokens()":"8d8f2adb"},"id":19}