{"abi":[{"type":"constructor","inputs":[{"name":"_roleManager","type":"address","internalType":"address"},{"name":"_feeManager","type":"address","internalType":"address"},{"name":"_multisigWallet","type":"address","internalType":"address"},{"name":"_metadataManager","type":"address","internalType":"address"},{"name":"_securityManager","type":"address","internalType":"address"},{"name":"_timelock","type":"address","internalType":"address"},{"name":"_priceOracle","type":"address","internalType":"address"},{"name":"_stakingManager","type":"address","internalType":"address"},{"name":"_batchManager","type":"address","internalType":"address"},{"name":"_advancedFeeManager","type":"address","internalType":"address"},{"name":"_rateLimitManager","type":"address","internalType":"address"}],"stateMutability":"nonpayable"},{"type":"function","name":"COLLATERAL_RESERVE","inputs":[],"outputs":[{"name":"","type":"uint256","internalType":"uint256"}],"stateMutability":"view"},{"type":"function","name":"COMMUNITY_REWARDS","inputs":[],"outputs":[{"name":"","type":"uint256","internalType":"uint256"}],"stateMutability":"view"},{"type":"function","name":"DEFAULT_ADMIN_ROLE","inputs":[],"outputs":[{"name":"","type":"bytes32","internalType":"bytes32"}],"stateMutability":"view"},{"type":"function","name":"ECOSYSTEM_FUND","inputs":[],"outputs":[{"name":"","type":"uint256","internalType":"uint256"}],"stateMutability":"view"},{"type":"function","name":"EMERGENCY_ROLE","inputs":[],"outputs":[{"name":"","type":"bytes32","internalType":"bytes32"}],"stateMutability":"view"},{"type":"function","name":"INITIAL_DISTRIBUTION","inputs":[],"outputs":[{"name":"","type":"uint256","internalType":"uint256"}],"stateMutability":"view"},{"type":"function","name":"LIQUIDITY_MINING","inputs":[],"outputs":[{"name":"","type":"uint256","internalType":"uint256"}],"stateMutability":"view"},{"type":"function","name":"MAX_SUPPLY","inputs":[],"outputs":[{"name":"","type":"uint256","internalType":"uint256"}],"stateMutability":"view"},{"type":"function","name":"MINTER_ROLE","inputs":[],"outputs":[{"name":"","type":"bytes32","internalType":"bytes32"}],"stateMutability":"view"},{"type":"function","name":"PAUSER_ROLE","inputs":[],"outputs":[{"name":"","type":"bytes32","internalType":"bytes32"}],"stateMutability":"view"},{"type":"function","name":"RESERVE_FUND","inputs":[],"outputs":[{"name":"","type":"uint256","internalType":"uint256"}],"stateMutability":"view"},{"type":"function","name":"TEAM_VESTING","inputs":[],"outputs":[{"name":"","type":"uint256","internalType":"uint256"}],"stateMutability":"view"},{"type":"function","name":"TOKEN_SALE","inputs":[],"outputs":[{"name":"","type":"uint256","internalType":"uint256"}],"stateMutability":"view"},{"type":"function","name":"_notEntered","inputs":[],"outputs":[{"name":"","type":"bool","internalType":"bool"}],"stateMutability":"view"},{"type":"function","name":"addFeeTier","inputs":[{"name":"_minAmount","type":"uint256","internalType":"uint256"},{"name":"_maxAmount","type":"uint256","internalType":"uint256"},{"name":"_feePercent","type":"uint256","internalType":"uint256"}],"outputs":[],"stateMutability":"nonpayable"},{"type":"function","name":"addFeeTierForTesting","inputs":[{"name":"_minAmount","type":"uint256","internalType":"uint256"},{"name":"_maxAmount","type":"uint256","internalType":"uint256"},{"name":"_feePercent","type":"uint256","internalType":"uint256"}],"outputs":[],"stateMutability":"nonpayable"},{"type":"function","name":"addToStakingPool","inputs":[{"name":"amount","type":"uint256","internalType":"uint256"}],"outputs":[],"stateMutability":"nonpayable"},{"type":"function","name":"addToStakingPoolForTesting","inputs":[{"name":"amount","type":"uint256","internalType":"uint256"}],"outputs":[],"stateMutability":"nonpayable"},{"type":"function","name":"advancedFeeManager","inputs":[],"outputs":[{"name":"","type":"address","internalType":"contract IAdvancedFeeManager"}],"stateMutability":"view"},{"type":"function","name":"allowance","inputs":[{"name":"owner","type":"address","internalType":"address"},{"name":"spender","type":"address","internalType":"address"}],"outputs":[{"name":"","type":"uint256","internalType":"uint256"}],"stateMutability":"view"},{"type":"function","name":"approve","inputs":[{"name":"spender","type":"address","internalType":"address"},{"name":"amount","type":"uint256","internalType":"uint256"}],"outputs":[{"name":"","type":"bool","internalType":"bool"}],"stateMutability":"nonpayable"},{"type":"function","name":"balanceOf","inputs":[{"name":"account","type":"address","internalType":"address"}],"outputs":[{"name":"","type":"uint256","internalType":"uint256"}],"stateMutability":"view"},{"type":"function","name":"batchManager","inputs":[],"outputs":[{"name":"","type":"address","internalType":"contract IBatchManager"}],"stateMutability":"view"},{"type":"function","name":"batchMint","inputs":[{"name":"recipients","type":"address[]","internalType":"address[]"},{"name":"amounts","type":"uint256[]","internalType":"uint256[]"}],"outputs":[],"stateMutability":"nonpayable"},{"type":"function","name":"batchTransfer","inputs":[{"name":"recipients","type":"address[]","internalType":"address[]"},{"name":"amounts","type":"uint256[]","internalType":"uint256[]"}],"outputs":[],"stateMutability":"nonpayable"},{"type":"function","name":"burn","inputs":[{"name":"amount","type":"uint256","internalType":"uint256"}],"outputs":[],"stateMutability":"nonpayable"},{"type":"function","name":"burnFrom","inputs":[{"name":"account","type":"address","internalType":"address"},{"name":"amount","type":"uint256","internalType":"uint256"}],"outputs":[],"stateMutability":"nonpayable"},{"type":"function","name":"checkFlashLoanForTesting","inputs":[{"name":"account","type":"address","internalType":"address"}],"outputs":[{"name":"","type":"bool","internalType":"bool"}],"stateMutability":"view"},{"type":"function","name":"claimStakingRewards","inputs":[],"outputs":[],"stateMutability":"nonpayable"},{"type":"function","name":"claimStakingRewardsForTesting","inputs":[],"outputs":[],"stateMutability":"nonpayable"},{"type":"function","name":"decimals","inputs":[],"outputs":[{"name":"","type":"uint8","internalType":"uint8"}],"stateMutability":"view"},{"type":"function","name":"decreaseAllowance","inputs":[{"name":"spender","type":"address","internalType":"address"},{"name":"subtractedValue","type":"uint256","internalType":"uint256"}],"outputs":[{"name":"","type":"bool","internalType":"bool"}],"stateMutability":"nonpayable"},{"type":"function","name":"emergencyPause","inputs":[],"outputs":[],"stateMutability":"nonpayable"},{"type":"function","name":"emergencyUnpause","inputs":[],"outputs":[],"stateMutability":"nonpayable"},{"type":"function","name":"feeManager","inputs":[],"outputs":[{"name":"","type":"address","internalType":"contract IFeeManager"}],"stateMutability":"view"},{"type":"function","name":"getFeeInfo","inputs":[],"outputs":[{"name":"currentFee","type":"uint256","internalType":"uint256"},{"name":"recipient","type":"address","internalType":"address"},{"name":"hasFee","type":"bool","internalType":"bool"}],"stateMutability":"view"},{"type":"function","name":"getFeeTiers","inputs":[],"outputs":[{"name":"","type":"tuple[]","internalType":"struct FeeTier[]","components":[{"name":"minAmount","type":"uint256","internalType":"uint256"},{"name":"maxAmount","type":"uint256","internalType":"uint256"},{"name":"feePercent","type":"uint256","internalType":"uint256"}]}],"stateMutability":"view"},{"type":"function","name":"getFounderInfo","inputs":[],"outputs":[{"name":"stakingPool","type":"uint256","internalType":"uint256"},{"name":"stakingLimit","type":"uint256","internalType":"uint256"},{"name":"ecosystemLimit","type":"uint256","internalType":"uint256"},{"name":"stakingRewardRate","type":"uint256","internalType":"uint256"},{"name":"pendingRewards","type":"uint256","internalType":"uint256"}],"stateMutability":"view"},{"type":"function","name":"getSecurityStatus","inputs":[{"name":"account","type":"address","internalType":"address"}],"outputs":[{"name":"blacklisted","type":"bool","internalType":"bool"},{"name":"locked","type":"bool","internalType":"bool"},{"name":"lastTransfer","type":"uint256","internalType":"uint256"}],"stateMutability":"view"},{"type":"function","name":"getTimelockInfo","inputs":[],"outputs":[{"name":"enabled","type":"bool","internalType":"bool"},{"name":"timelockAddress","type":"address","internalType":"address"}],"stateMutability":"view"},{"type":"function","name":"getTokenEconomics","inputs":[],"outputs":[{"name":"maxSupply","type":"uint256","internalType":"uint256"},{"name":"initialDistribution","type":"uint256","internalType":"uint256"},{"name":"collateralReserve","type":"uint256","internalType":"uint256"},{"name":"tokenSale","type":"uint256","internalType":"uint256"},{"name":"liquidityMining","type":"uint256","internalType":"uint256"},{"name":"ecosystemFund","type":"uint256","internalType":"uint256"},{"name":"teamVesting","type":"uint256","internalType":"uint256"},{"name":"communityRewards","type":"uint256","internalType":"uint256"},{"name":"reserveFund","type":"uint256","internalType":"uint256"},{"name":"currentCirculating","type":"uint256","internalType":"uint256"}],"stateMutability":"view"},{"type":"function","name":"increaseAllowance","inputs":[{"name":"spender","type":"address","internalType":"address"},{"name":"addedValue","type":"uint256","internalType":"uint256"}],"outputs":[{"name":"","type":"bool","internalType":"bool"}],"stateMutability":"nonpayable"},{"type":"function","name":"isEmergencyPaused","inputs":[],"outputs":[{"name":"","type":"bool","internalType":"bool"}],"stateMutability":"view"},{"type":"function","name":"isPaused","inputs":[],"outputs":[{"name":"","type":"bool","internalType":"bool"}],"stateMutability":"view"},{"type":"function","name":"isRateLimitingEnabled","inputs":[],"outputs":[{"name":"","type":"bool","internalType":"bool"}],"stateMutability":"view"},{"type":"function","name":"isTimelockEnabled","inputs":[],"outputs":[{"name":"","type":"bool","internalType":"bool"}],"stateMutability":"view"},{"type":"function","name":"isTransferAllowed","inputs":[{"name":"from","type":"address","internalType":"address"},{"name":"to","type":"address","internalType":"address"},{"name":"amount","type":"uint256","internalType":"uint256"}],"outputs":[{"name":"","type":"bool","internalType":"bool"}],"stateMutability":"view"},{"type":"function","name":"metadataManager","inputs":[],"outputs":[{"name":"","type":"address","internalType":"contract IMetadataManager"}],"stateMutability":"view"},{"type":"function","name":"mint","inputs":[{"name":"to","type":"address","internalType":"address"},{"name":"amount","type":"uint256","internalType":"uint256"}],"outputs":[],"stateMutability":"nonpayable"},{"type":"function","name":"multisigWallet","inputs":[],"outputs":[{"name":"","type":"address","internalType":"contract IMultisigWallet"}],"stateMutability":"view"},{"type":"function","name":"name","inputs":[],"outputs":[{"name":"","type":"string","internalType":"string"}],"stateMutability":"view"},{"type":"function","name":"pause","inputs":[],"outputs":[],"stateMutability":"nonpayable"},{"type":"function","name":"priceOracle","inputs":[],"outputs":[{"name":"","type":"address","internalType":"contract IPriceOracle"}],"stateMutability":"view"},{"type":"function","name":"rateLimitManager","inputs":[],"outputs":[{"name":"","type":"address","internalType":"contract IRateLimitManager"}],"stateMutability":"view"},{"type":"function","name":"removeFeeTier","inputs":[{"name":"index","type":"uint256","internalType":"uint256"}],"outputs":[],"stateMutability":"nonpayable"},{"type":"function","name":"roleManager","inputs":[],"outputs":[{"name":"","type":"address","internalType":"contract IRoleManager"}],"stateMutability":"view"},{"type":"function","name":"securityManager","inputs":[],"outputs":[{"name":"","type":"address","internalType":"contract ISecurityManager"}],"stateMutability":"view"},{"type":"function","name":"setFeeManager","inputs":[{"name":"newManager","type":"address","internalType":"address"}],"outputs":[],"stateMutability":"nonpayable"},{"type":"function","name":"setFeeManagerForTesting","inputs":[{"name":"newManager","type":"address","internalType":"address"}],"outputs":[],"stateMutability":"nonpayable"},{"type":"function","name":"setMetadataManager","inputs":[{"name":"newManager","type":"address","internalType":"address"}],"outputs":[],"stateMutability":"nonpayable"},{"type":"function","name":"setMetadataManagerForTesting","inputs":[{"name":"newManager","type":"address","internalType":"address"}],"outputs":[],"stateMutability":"nonpayable"},{"type":"function","name":"setMinTransferAmount","inputs":[{"name":"newMinAmount","type":"uint256","internalType":"uint256"}],"outputs":[],"stateMutability":"nonpayable"},{"type":"function","name":"setMinTransferAmountForTesting","inputs":[{"name":"newMinAmount","type":"uint256","internalType":"uint256"}],"outputs":[],"stateMutability":"nonpayable"},{"type":"function","name":"setMultisigWallet","inputs":[{"name":"newWallet","type":"address","internalType":"address"}],"outputs":[],"stateMutability":"nonpayable"},{"type":"function","name":"setMultisigWalletForTesting","inputs":[{"name":"newWallet","type":"address","internalType":"address"}],"outputs":[],"stateMutability":"nonpayable"},{"type":"function","name":"setPriceOracle","inputs":[{"name":"newOracle","type":"address","internalType":"address"}],"outputs":[],"stateMutability":"nonpayable"},{"type":"function","name":"setRoleManager","inputs":[{"name":"newManager","type":"address","internalType":"address"}],"outputs":[],"stateMutability":"nonpayable"},{"type":"function","name":"setRoleManagerForTesting","inputs":[{"name":"newManager","type":"address","internalType":"address"}],"outputs":[],"stateMutability":"nonpayable"},{"type":"function","name":"setSecurityManager","inputs":[{"name":"newManager","type":"address","internalType":"address"}],"outputs":[],"stateMutability":"nonpayable"},{"type":"function","name":"setSecurityManagerForTesting","inputs":[{"name":"newManager","type":"address","internalType":"address"}],"outputs":[],"stateMutability":"nonpayable"},{"type":"function","name":"setTimelock","inputs":[{"name":"newTimelock","type":"address","internalType":"address"}],"outputs":[],"stateMutability":"nonpayable"},{"type":"function","name":"setTransferCooldown","inputs":[{"name":"newCooldown","type":"uint256","internalType":"uint256"}],"outputs":[],"stateMutability":"nonpayable"},{"type":"function","name":"stakingManager","inputs":[],"outputs":[{"name":"","type":"address","internalType":"contract IStakingManager"}],"stateMutability":"view"},{"type":"function","name":"symbol","inputs":[],"outputs":[{"name":"","type":"string","internalType":"string"}],"stateMutability":"view"},{"type":"function","name":"timelock","inputs":[],"outputs":[{"name":"","type":"address","internalType":"contract ITimelockController"}],"stateMutability":"view"},{"type":"function","name":"toggleDynamicFees","inputs":[],"outputs":[],"stateMutability":"nonpayable"},{"type":"function","name":"toggleDynamicFeesForTesting","inputs":[],"outputs":[],"stateMutability":"nonpayable"},{"type":"function","name":"toggleRateLimiting","inputs":[],"outputs":[],"stateMutability":"nonpayable"},{"type":"function","name":"toggleRateLimitingForTesting","inputs":[],"outputs":[],"stateMutability":"nonpayable"},{"type":"function","name":"tokenState","inputs":[],"outputs":[{"name":"paused","type":"bool","internalType":"bool"},{"name":"emergencyPaused","type":"bool","internalType":"bool"},{"name":"timelockEnabled","type":"bool","internalType":"bool"}],"stateMutability":"view"},{"type":"function","name":"totalSupply","inputs":[],"outputs":[{"name":"","type":"uint256","internalType":"uint256"}],"stateMutability":"view"},{"type":"function","name":"transfer","inputs":[{"name":"to","type":"address","internalType":"address"},{"name":"amount","type":"uint256","internalType":"uint256"}],"outputs":[{"name":"","type":"bool","internalType":"bool"}],"stateMutability":"nonpayable"},{"type":"function","name":"transferForTesting","inputs":[{"name":"to","type":"address","internalType":"address"},{"name":"amount","type":"uint256","internalType":"uint256"}],"outputs":[{"name":"","type":"bool","internalType":"bool"}],"stateMutability":"nonpayable"},{"type":"function","name":"transferFrom","inputs":[{"name":"from","type":"address","internalType":"address"},{"name":"to","type":"address","internalType":"address"},{"name":"amount","type":"uint256","internalType":"uint256"}],"outputs":[{"name":"","type":"bool","internalType":"bool"}],"stateMutability":"nonpayable"},{"type":"function","name":"unpause","inputs":[],"outputs":[],"stateMutability":"nonpayable"},{"type":"function","name":"useEcosystemFund","inputs":[{"name":"recipient","type":"address","internalType":"address"},{"name":"amount","type":"uint256","internalType":"uint256"},{"name":"purpose","type":"string","internalType":"string"}],"outputs":[],"stateMutability":"nonpayable"},{"type":"function","name":"useEcosystemFundForTesting","inputs":[{"name":"recipient","type":"address","internalType":"address"},{"name":"amount","type":"uint256","internalType":"uint256"},{"name":"purpose","type":"string","internalType":"string"}],"outputs":[],"stateMutability":"nonpayable"},{"type":"event","name":"Approval","inputs":[{"name":"owner","type":"address","indexed":true,"internalType":"address"},{"name":"spender","type":"address","indexed":true,"internalType":"address"},{"name":"value","type":"uint256","indexed":false,"internalType":"uint256"}],"anonymous":false},{"type":"event","name":"ReentrancyGuardEntered","inputs":[{"name":"caller","type":"address","indexed":true,"internalType":"address"},{"name":"timestamp","type":"uint256","indexed":false,"internalType":"uint256"}],"anonymous":false},{"type":"event","name":"ReentrancyGuardExited","inputs":[{"name":"caller","type":"address","indexed":true,"internalType":"address"},{"name":"timestamp","type":"uint256","indexed":false,"internalType":"uint256"}],"anonymous":false},{"type":"event","name":"ReentrancyGuardReentrantCall","inputs":[],"anonymous":false},{"type":"event","name":"ReentrancyGuardViolation","inputs":[{"name":"caller","type":"address","indexed":true,"internalType":"address"},{"name":"timestamp","type":"uint256","indexed":false,"internalType":"uint256"}],"anonymous":false},{"type":"event","name":"Transfer","inputs":[{"name":"from","type":"address","indexed":true,"internalType":"address"},{"name":"to","type":"address","indexed":true,"internalType":"address"},{"name":"value","type":"uint256","indexed":false,"internalType":"uint256"}],"anonymous":false}],"bytecode":{"object":"0x6080604052346108db57614fb7610160813803918261001d816108df565b9384928339810103126108db5761003381610904565b61003f60208301610904565b9161004c60408201610904565b61005860608301610904565b61006460808401610904565b9061007160a08501610904565b61007d60c08601610904565b9261008a60e08701610904565b926100986101008801610904565b956100b36101406100ac6101208b01610904565b9901610904565b986100be60406108df565b601081526f15195d1a195c91dc9bdd5b99081554d160821b60208201526100e560406108df565b6005815264555344546760d81b6020820152815190916001600160401b0382116103c95760035490600182811c921680156108d1575b60208310146107d45781601f849311610863575b50602090601f83116001146107fd575f926107f2575b50508160011b915f199060031b1c1916176003555b8051906001600160401b0382116103c95760045490600182811c921680156107e8575b60208310146107d45781601f849311610766575b50602090601f8311600114610700575f926106f5575b50508160011b915f199060031b1c1916176004555b60016005556001600160a01b0316998a156106b0576001600160a01b031690811561066b576001600160a01b0316918215610626576001600160a01b03169283156105e1576001600160a01b031693841561059c576001600160a01b0316948515610564576001600160a01b031696871561051f576001600160a01b03169788156104da576001600160a01b0316988915610495576001600160a01b0316998a1561045057600680546001600160a01b0319908116929092179055600780548216929092179091556008805482169290921790915560098054821692909217909155600a8054821692909217909155600b80549091169190911790556001600160a01b031680610436575b5060018060a01b0319600d541617600d5560018060a01b0319600e541617600e5560018060a01b0319600f541617600f5560018060a01b0319601054161760105533156103f1576002546a295be96e6406697200000081018091116103dd57600255335f525f60205260405f206a295be96e6406697200000081540190556040516a295be96e6406697200000081525f7fddf252ad1be2c89b69c2b068fc378daa952ba7f163c4a11628f55a4df523b3ef60203393a3604051606081016001600160401b038111828210176103c95760019160409182525f81525f602082015201526201000062ffffff19601154161760115560405161469e90816109198239f35b634e487b7160e01b5f52604160045260245ffd5b634e487b7160e01b5f52601160045260245ffd5b60405162461bcd60e51b815260206004820152601f60248201527f45524332303a206d696e7420746f20746865207a65726f2061646472657373006044820152606490fd5b600c80546001600160a01b0319169190911790555f6102c7565b60405162461bcd60e51b815260206004820152601a60248201527f496e76616c69642072617465206c696d6974206d616e616765720000000000006044820152606490fd5b60405162461bcd60e51b815260206004820152601c60248201527f496e76616c696420616476616e63656420666565206d616e61676572000000006044820152606490fd5b60405162461bcd60e51b815260206004820152601560248201527f496e76616c6964206261746368206d616e6167657200000000000000000000006044820152606490fd5b60405162461bcd60e51b815260206004820152601760248201527f496e76616c6964207374616b696e67206d616e616765720000000000000000006044820152606490fd5b60405162461bcd60e51b815260206004820152601060248201526f496e76616c69642074696d656c6f636b60801b6044820152606490fd5b60405162461bcd60e51b815260206004820152601860248201527f496e76616c6964207365637572697479206d616e6167657200000000000000006044820152606490fd5b60405162461bcd60e51b815260206004820152601860248201527f496e76616c6964206d65746164617461206d616e6167657200000000000000006044820152606490fd5b60405162461bcd60e51b815260206004820152601760248201527f496e76616c6964206d756c74697369672077616c6c65740000000000000000006044820152606490fd5b60405162461bcd60e51b815260206004820152601360248201527f496e76616c696420666565206d616e61676572000000000000000000000000006044820152606490fd5b60405162461bcd60e51b815260206004820152601460248201527f496e76616c696420726f6c65206d616e616765720000000000000000000000006044820152606490fd5b015190505f806101a7565b60045f9081528281209350601f198516905b81811061074e5750908460019594939210610736575b505050811b016004556101bc565b01515f1960f88460031b161c191690555f8080610728565b92936020600181928786015181550195019301610712565b60045f529091507f8a35acfbc15ff81a39ae7d344fd709f28e8600b4aa8c65c6b64bfe7fe36bd19b601f840160051c810191602085106107ca575b90601f859493920160051c01905b8181106107bc5750610191565b5f81558493506001016107af565b90915081906107a1565b634e487b7160e01b5f52602260045260245ffd5b91607f169161017d565b015190505f80610145565b60035f9081528281209350601f198516905b81811061084b5750908460019594939210610833575b505050811b0160035561015a565b01515f1960f88460031b161c191690555f8080610825565b9293602060018192878601518155019501930161080f565b60035f529091507fc2575a0e9e593c00f959f8c92f12db2869c3395a3b0502d05e2516446f71f85b601f840160051c810191602085106108c7575b90601f859493920160051c01905b8181106108b9575061012f565b5f81558493506001016108ac565b909150819061089e565b91607f169161011b565b5f80fd5b6040519190601f01601f191682016001600160401b038111838210176103c957604052565b51906001600160a01b03821682036108db5756fe6080806040526004361015610012575f80fd5b5f905f3560e01c90816202eab7146134c257508062435da51461349a57806306fdde03146133a657806308726ed0146132fc578063095ea7b3146132d65780630dbcc88e146132a25780630f5cdd0c146131f1578063124cc0771461318d57806312aa241e1461316857806318160ddd1461314b5780631940ca17146131265780631997eefe14612fed5780631cfe31c2146120a357806320df435914612fc657806322828cc214612f9e57806323b872dd146129685780632630c12f1461293f578063290d10c4146129195780632f359004146128c7578063313ce567146128ab5780633172a4ef1461288e57806332cb6b0c1461286857806339509351146128185780633a1b21f8146127fb5780633f4ba83a1461274157806340c10f191461257557806342966c681461253857806342b53e5f146124b2578063472d35b91461242d57806347404388146123e257806348ed2bfc146123c55780634a4e3bd51461230a5780634bf649c4146122ed5780634c9e91a4146122c45780634dbb15e4146122375780634de4421e1461221f57806351858e2714612160578063530e784f146120f157806358a3a1c3146120a85780635b026ed8146118175780635c473764146120a3578063649134771461204057806364ca7c9514611f7b578063661967e014611f3c5780636857310714611e265780636867eddf146118fb5780636b69e05b1461185457806370a082311461181c578063749696ee1461181757806379cc67901461171b5780637d6a1d4a14611695578063804af83a1461164a5780638456cb591461158d57806388d695b2146114f95780638bb8f4ad146114e05780639075becf146114b757806394dbea661461143257806395d89b4114611329578063983c44d61461130357806399a19a14146112ea578063a217fddf146112ce578063a31c95e214611221578063a457c2d714611173578063a9059cbb14610b6d578063af8e291014610b47578063b187bd2614610b24578063b92e639614610a9e578063bdacb30314610a03578063c0d75442146109dd578063c3f933e4146109b4578063d0fb02031461098b578063d3085c6b1461094c578063d33219b414610923578063d5391393146108fb578063d8438ae8146108da578063dae41293146108b1578063dc7ed75414610896578063dd62ed3e14610832578063de675a6d14610809578063e63ab1e9146107e1578063e90dd9e2146107a4578063e9a4d24f146105f4578063f1d588c51461055c578063f501bbbe1461049b578063f7ebc39a14610477578063f925f41c146104045763fa93433a146103d9575f80fd5b34610401578060031936011261040157600f546040516001600160a01b039091168152602090f35b80fd5b50346104015760203660031901126104015760105481906001600160a01b0316803b1561047457818091602460405180948193633e497d0760e21b835260043560048401525af18015610469576104585750f35b8161046291613737565b6104015780f35b6040513d84823e3d90fd5b50fd5b503461040157602061049161048b3661363e565b91613f6e565b6040519015158152f35b5034610401578060031936011261040157604061014091338152806020522054604051906a52b7d2dcc80cd2e400000082526a295be96e6406697200000060208301526a295be96e6406697200000060408301526a108b2a2c2802909400000060608301526a0c685fa11e01ec6f00000060808301526a084595161401484a00000060a08301526a027b46536c66c8e300000060c083015269d3c21bcecceda100000060e083015269d3c21bcecceda1000000610100830152610120820152f35b5034610401576020366003190112610401576105d461057961359d565b6008546001600160a01b0316331480156105e0575b80156105d7575b61059e90613dc7565b6105b26001600160a01b0382161515613960565b600680546001600160a01b0319166001600160a01b0392909216919091179055565b80f35b50333014610595565b50600b546001600160a01b0316331461058e565b5034610401578060031936011261040157600f5460405163e9a4d24f60e01b8152908290829060049082906001600160a01b03165afa908115610469578291610695575b5090604051918291602083016020845282518091526020604085019301915b818110610665575050500390f35b91935091602060606001926040875180518352848101518584015201516040820152019401910191849392610657565b90503d8083833e6106a68183613737565b81019060208183031261079c578051906001600160401b0382116107a0570181601f8201121561079c578051906001600160401b03821161078857604051926106f560208460051b0185613737565b8284526020606081860194028301019181831161078457602001925b82841061072257505050505f610638565b60608483031261078457604051606081016001600160401b03811182821017610770579160209160609360405286518152828701518382015260408701516040820152815201930192610711565b634e487b7160e01b88526041600452602488fd5b8580fd5b634e487b7160e01b84526041600452602484fd5b8280fd5b8380fd5b5034610401578060031936011261040157606060115460ff6040519181811615158352818160081c161515602084015260101c1615156040820152f35b503461040157806003193601126104015760206040515f5160206146095f395f51905f528152f35b5034610401578060031936011261040157600a546040516001600160a01b039091168152602090f35b50346104015760403660031901126104015761084c61359d565b60243591906001600160a01b0383168303610892579060409160018060a01b031681526001602052209060018060a01b03165f52602052602060405f2054604051908152f35b5080fd5b5034610401576105d46108a8366135b3565b9291909161388d565b5034610401578060031936011261040157600e546040516001600160a01b039091168152602090f35b50346104015780600319360112610401576020600160055414604051908152f35b503461040157806003193601126104015760206040515f5160206146295f395f51905f528152f35b5034610401578060031936011261040157600b546040516001600160a01b039091168152602090f35b5034610401576020366003190112610401576105d461096961359d565b600980546001600160a01b0319166001600160a01b0392909216919091179055565b50346104015780600319360112610401576007546040516001600160a01b039091168152602090f35b50346104015780600319360112610401576010546040516001600160a01b039091168152602090f35b503461040157806003193601126104015760206040516a108b2a2c280290940000008152f35b503461040157602036600319011261040157610a1d61359d565b6008546001600160a01b03163303610a5a576001600160a01b0316610a43811515613960565b600b80546001600160a01b03191691909117905580f35b606460405162461bcd60e51b815260206004820152602060248201527f4f6e6c79206d756c74697369672077616c6c65742063616e20657865637574656044820152fd5b5034610401576020366003190112610401576008546001600160a01b031633148015610b10575b610ace90613906565b60105481906001600160a01b0316803b1561047457818091602460405180948193635c9731cb60e11b835260043560048401525af18015610469576104585750f35b50600b546001600160a01b03163314610ac5565b5034610401578060031936011261040157602060ff601154166040519015158152f35b5034610401578060031936011261040157602060ff60115460101c166040519015158152f35b50346104015760403660031901126104015780610b8861359d565b60243590610baa60ff601154610ba0828216156139ac565b60081c16156139f5565b610bb960026005541415613a4d565b60026005556040514281525f5160206145e95f395f51905f5260203392a2610be2821515613a99565b6001600160a01b038116610bf7811515613adf565b600a546040516353b7d27960e01b81523360048201526001600160a01b0390911691602082602481865afa918215610f72578692611133575b50610c3d60209215613eef565b6024604051809481936353b7d27960e01b835260048301525afa801561101e5784906110f8575b610c6f915015613b26565b60105460405163349a29af60e11b81523360048201526001600160a01b0390911690602081602481855afa8015610ffe5785906110bd575b610cb19150613b6a565b604051630aaad65760e11b8152336004820152602081602481855afa8015610ffe578590611082575b610ce49150613bb1565b604051632396ba3b60e21b815260048101849052602081602481855afa8015610ffe578590611043575b610d189150613bf3565b803b1561102957838091602460405180948193637f314fd960e11b83523360048401525af190811561101e57849161102e575b50506010546001600160a01b0316803b156110295783809160246040518094819362294c5f60e21b83523360048401525af190811561101e578491611009575b505060075460408051633e543e5b60e11b8152926001600160a01b0390921691908380610dbd87853360048501613c48565b0381855afa918215610ffe5785938693610fc7575b50610dde831515613c6a565b610df285610dec8587613cb4565b14613cd5565b610e2c602060018060a01b03600a54163389528882526040892054906040518080958194635cc61d0d60e01b83528c8a3360048601613d19565b03915afa8015610fbc578790610f7d575b610e479150613d43565b83610ef4575b50610e59925033614372565b600a546001600160a01b031690813b15610ef0578291610e9091604051948580948193633dc6baeb60e01b8352336004840161381c565b03925af1801561046957610edb575b60016005556040514281527fcbb7027e83fa144d2fecba46ed5077962bb198f15f094c5c1a278f791394296b60203392a2602060405160018152f35b610ee6828092613737565b6104015780610e9f565b5050fd5b60206004916040519283809263011a412160e61b82525afa908115610f72578691610f2f575b50610e5993610f299133614372565b5f610e4d565b90506020813d602011610f6a575b81610f4a60209383613737565b8101031261078457610e5993610f62610f299261376e565b915093610f1a565b3d9150610f3d565b6040513d88823e3d90fd5b506020813d602011610fb4575b81610f9760209383613737565b81010312610fb057610fab610e4791613782565b610e3d565b8680fd5b3d9150610f8a565b6040513d89823e3d90fd5b909250610fed91935060403d604011610ff7575b610fe58183613737565b810190613c32565b929092915f610dd2565b503d610fdb565b6040513d87823e3d90fd5b8161101391613737565b610ef057825f610d8b565b6040513d86823e3d90fd5b505050fd5b8161103891613737565b610ef057825f610d4b565b506020813d60201161107a575b8161105d60209383613737565b8101031261107657611071610d1891613782565b610d0e565b8480fd5b3d9150611050565b506020813d6020116110b5575b8161109c60209383613737565b81010312611076576110b0610ce491613782565b610cda565b3d915061108f565b506020813d6020116110f0575b816110d760209383613737565b81010312611076576110eb610cb191613782565b610ca7565b3d91506110ca565b506020813d60201161112b575b8161111260209383613737565b8101031261102957611126610c6f91613782565b610c64565b3d9150611105565b91506020823d60201161116b575b8161114e60209383613737565b8101031261078457610c3d611164602093613782565b9250610c30565b3d9150611141565b50346104015760403660031901126104015761118d61359d565b60406024359233815260016020522060018060a01b0382165f5260205260405f2054918083106111ce576111c39203903361426e565b602060405160018152f35b60405162461bcd60e51b815260206004820152602560248201527f45524332303a2064656372656173656420616c6c6f77616e63652062656c6f77604482015264207a65726f60d81b6064820152608490fd5b50346104015760203660031901126104015761123b61359d565b60105460405163518e4af160e11b81526001600160a01b039283166004820152929160209184916024918391165afa9081156112c2578091611285575b6020826040519015158152f35b90506020823d6020116112ba575b816112a060209383613737565b8101031261040157506112b4602091613782565b5f611278565b3d9150611293565b604051903d90823e3d90fd5b5034610401578060031936011261040157602090604051908152f35b50346104015780600319360112610401576105d4613d8f565b503461040157806003193601126104015760206040516a084595161401484a0000008152f35b50346104015780600319360112610401576040519080600454908160011c91600181168015611428575b602084108114611414578386529081156113ed5750600114611390575b61138c8461138081860382613737565b60405191829182613573565b0390f35b600481527f8a35acfbc15ff81a39ae7d344fd709f28e8600b4aa8c65c6b64bfe7fe36bd19b939250905b8082106113d35750909150810160200161138082611370565b9192600181602092548385880101520191019092916113ba565b60ff191660208087019190915292151560051b850190920192506113809150839050611370565b634e487b7160e01b83526022600452602483fd5b92607f1692611353565b5034610401576020366003190112610401576105d461144f61359d565b6008546001600160a01b0316331480156114a3575b61146d90613906565b6114816001600160a01b0382161515613960565b600a80546001600160a01b0319166001600160a01b0392909216919091179055565b50600b546001600160a01b03163314611464565b50346104015780600319360112610401576008546040516001600160a01b039091168152602090f35b50346104015780600319360112610401576105d4613f30565b50346104015780611509366136e7565b9261152160ff601194939454610ba0828216156139ac565b600e546001600160a01b031690813b15610784578561156a9361157c82966040519889978896879563048e7b2360e21b8752336004880152606060248801526064870191613e7b565b84810360031901604486015291613ecb565b03925af18015610469576104585750f35b50346104015780600319360112610401576006546044906020906001600160a01b03166115bb81151561378f565b604051632474521560e21b81525f5160206146095f395f51905f52600482015233602482015292839182905afa801561046957829061160f575b6115ff91506137d2565b600160ff19601154161760115580f35b506020813d602011611642575b8161162960209383613737565b810103126108925761163d6115ff91613782565b6115f5565b3d915061161c565b503461040157806003193601126104015760105481906001600160a01b0316803b15610474578180916004604051809481936340257c1d60e11b83525af18015610469576104585750f35b5034610401576020366003190112610401576008546001600160a01b031633148015611707575b6116c590613906565b60105481906001600160a01b0316803b1561047457818091602460405180948193633eb50ea560e11b835260043560048401525af18015610469576104585750f35b50600b546001600160a01b031633146116bc565b503461040157604036600319011261040157604461173761359d565b60065460243591906020906001600160a01b031661175681151561378f565b604051632474521560e21b81525f5160206146295f395f51905f52600482015233602482015294859182905afa92831561101e5784936117d6575b5061179e6105d4936137d2565b6117b260ff601154610ba0828216156139ac565b6117c66001600160a01b0382161515613960565b6117d1821515613a99565b6144d5565b92506020833d60201161180f575b816117f160209383613737565b810103126107a05761179e6118086105d494613782565b9350611791565b3d91506117e4565b613692565b5034610401576020366003190112610401576020906040906001600160a01b0361184461359d565b1681528083522054604051908152f35b50346104015780600319360112610401576006546044906020906001600160a01b031661188281151561378f565b60405192838092632474521560e21b82528660048301523360248301525afa80156104695782906118c0575b6118b891506137d2565b6105d4613f30565b506020813d6020116118f3575b816118da60209383613737565b81010312610892576118ee6118b891613782565b6118ae565b3d91506118cd565b5034610401576040366003190112610401578061191661359d565b602435906001600160a01b03811661192f811515613adf565b600a546040516353b7d27960e01b81523360048201526001600160a01b0390911691602082602481865afa918215610f72578692611de6575b5061197560209215613eef565b6024604051809481936353b7d27960e01b835260048301525afa801561101e578490611dab575b6119a7915015613b26565b60105460405163349a29af60e11b81523360048201526001600160a01b0390911690602081602481855afa8015610ffe578590611d70575b6119e99150613b6a565b60405163518e4af160e11b8152336004820152602081602481855afa8015610ffe578590611d35575b611a1c9150613bb1565b604051632396ba3b60e21b815260048101849052602081602481855afa8015610ffe578590611cfa575b611a509150613bf3565b803b1561102957838091602460405180948193637f314fd960e11b83523360048401525af190811561101e578491611ce5575b50506010546001600160a01b0316803b156110295783809160246040518094819362294c5f60e21b83523360048401525af190811561101e578491611cd0575b505060075460408051633e543e5b60e11b8152926001600160a01b0390921691908380611af587853360048501613c48565b0381855afa918215610ffe5785938693611ca9575b50611b16831515613c6a565b611b2485610dec8587613cb4565b611b5e602060018060a01b03600a54163389528882526040892054906040518080958194635cc61d0d60e01b83528c8a3360048601613d19565b03915afa8015610fbc578790611c6e575b611b799150613d43565b83611bf0575b50611b8b925033614372565b600a546001600160a01b031690813b15610ef0578291611bc291604051948580948193633dc6baeb60e01b8352336004840161381c565b03925af1801561046957611bdb57602060405160018152f35b611be6828092613737565b61040157806111c3565b60206004916040519283809263011a412160e61b82525afa908115610f72578691611c2b575b50611b8b93611c259133614372565b5f611b7f565b90506020813d602011611c66575b81611c4660209383613737565b8101031261078457611b8b93611c5e611c259261376e565b915093611c16565b3d9150611c39565b506020813d602011611ca1575b81611c8860209383613737565b81010312610fb057611c9c611b7991613782565b611b6f565b3d9150611c7b565b909250611cc691935060403d604011610ff757610fe58183613737565b929092915f611b0a565b81611cda91613737565b610ef057825f611ac3565b81611cef91613737565b610ef057825f611a83565b506020813d602011611d2d575b81611d1460209383613737565b8101031261107657611d28611a5091613782565b611a46565b3d9150611d07565b506020813d602011611d68575b81611d4f60209383613737565b8101031261107657611d63611a1c91613782565b611a12565b3d9150611d42565b506020813d602011611da3575b81611d8a60209383613737565b8101031261107657611d9e6119e991613782565b6119df565b3d9150611d7d565b506020813d602011611dde575b81611dc560209383613737565b8101031261102957611dd96119a791613782565b61199c565b3d9150611db8565b91506020823d602011611e1e575b81611e0160209383613737565b8101031261078457611975611e17602093613782565b9250611968565b3d9150611df4565b50346104015780611e36366136e7565b926044602060018060a09695961b0360065416611e5481151561378f565b604051632474521560e21b81525f5160206146295f395f51905f52600482015233602482015292839182905afa8015610f72578690611f01575b611e9891506137d2565b611eac60ff601154610ba0828216156139ac565b600e546001600160a01b031690813b156107845785611eef9361157c829660405198899788968795636857310760e01b8752604060048801526044870191613e7b565b84810360031901602486015291613ecb565b506020813d602011611f34575b81611f1b60209383613737565b8101031261078457611f2f611e9891613782565b611e8e565b3d9150611f0e565b5034610401576020366003190112610401576105d4611f5961359d565b600880546001600160a01b0319166001600160a01b0392909216919091179055565b5034610401578060031936011261040157600d54604051636a8e2d5760e11b81523360048201529060a090829060249082906001600160a01b03165afa801561046957829183849085928694611fed575b5060a095506040519485526020850152604084015260608301526080820152f35b94505050505060a0813d60a011612038575b8161200c60a09383613737565b8101031261089257805160208201516040830151606084015160809094015160a095509293915f611fcc565b3d9150611fff565b5034610401576020366003190112610401576105d461205d61359d565b6008546001600160a01b03163314801561208f575b61207b90613906565b611f596001600160a01b0382161515613960565b50600b546001600160a01b03163314612072565b61361a565b5034610401576105d46120ba36613678565b9160018060a01b0360085416331480156120dd575b6120d890613906565b613e2f565b50600b546001600160a01b031633146120cf565b50346104015760203660031901126104015761210b61359d565b6008546001600160a01b03163314801561214c575b61212990613906565b600c80546001600160a01b0319166001600160a01b039290921691909117905580f35b50600b546001600160a01b03163314612120565b50346104015780600319360112610401576006546044906020906001600160a01b031661218e81151561378f565b604051632474521560e21b81525f5160206145c95f395f51905f52600482015233602482015292839182905afa80156104695782906121e4575b6121d291506137d2565b61010061ff0019601154161760115580f35b506020813d602011612217575b816121fe60209383613737565b81010312610892576122126121d291613782565b6121c8565b3d91506121f1565b5034610401576105d461223136613678565b91613e2f565b50346104015780600319360112610401576008546001600160a01b0316331480156122b0575b80156122a7575b61226d90613dc7565b60105481906001600160a01b0316803b156104745781809160046040518094819363136ec57960e21b83525af18015610469576104585750f35b50333014612264565b50600b546001600160a01b0316331461225d565b50346104015780600319360112610401576009546040516001600160a01b039091168152602090f35b5034610401576020366003190112610401576105d461148161359d565b50346104015780600319360112610401576006546044906020906001600160a01b031661233881151561378f565b604051632474521560e21b81525f5160206145c95f395f51905f52600482015233602482015292839182905afa801561046957829061238a575b61237c91506137d2565b61ff00196011541660115580f35b506020813d6020116123bd575b816123a460209383613737565b81010312610892576123b861237c91613782565b612372565b3d9150612397565b5034610401576020366003190112610401576105d4600435613837565b50346104015780600319360112610401576008546001600160a01b031633148015612419575b61241190613906565b6105d4613d8f565b50600b546001600160a01b03163314612408565b5034610401576020366003190112610401576105d461244a61359d565b6008546001600160a01b03163314801561249e575b61246890613906565b61247c6001600160a01b0382161515613960565b600780546001600160a01b0319166001600160a01b0392909216919091179055565b50600b546001600160a01b0316331461245f565b5034610401576020366003190112610401576008546001600160a01b031633148015612524575b6124e290613906565b600f5481906001600160a01b0316803b15610474578180916024604051809481936342b53e5f60e01b835260043560048401525af18015610469576104585750f35b50600b546001600160a01b031633146124d9565b5034610401576020366003190112610401576105d460043561256460ff601154610ba0828216156139ac565b61256f811515613a99565b336144d5565b50346104015760403660031901126104015761258f61359d565b60065460243591906044906020906001600160a01b03166125b181151561378f565b604051632474521560e21b81525f5160206146295f395f51905f52600482015233602482015292839182905afa801561101e578490612706575b6125f591506137d2565b61260960ff601154610ba0828216156139ac565b6001600160a01b0316908115906126208215613960565b61262b811515613a99565b600254916a52b7d2dcc80cd2e40000006126458385613cb4565b116126cc576126875760208161266a5f5160206146495f395f51905f52938795613cb4565b60025584845283825260408420818154019055604051908152a380f35b60405162461bcd60e51b815260206004820152601f60248201527f45524332303a206d696e7420746f20746865207a65726f2061646472657373006044820152606490fd5b60405162461bcd60e51b815260206004820152601260248201527145786365656473206d617820737570706c7960701b6044820152606490fd5b506020813d602011612739575b8161272060209383613737565b810103126107a0576127346125f591613782565b6125eb565b3d9150612713565b50346104015780600319360112610401576006546044906020906001600160a01b031661276f81151561378f565b604051632474521560e21b81525f5160206146095f395f51905f52600482015233602482015292839182905afa80156104695782906127c0575b6127b391506137d2565b60ff196011541660115580f35b506020813d6020116127f3575b816127da60209383613737565b81010312610892576127ee6127b391613782565b6127a9565b3d91506127cd565b5034610401576020366003190112610401576105d461247c61359d565b5034610401576040366003190112610401576111c390604061283861359d565b9133815260016020522060018060a01b0382165f5260205261286160405f206024359054613cb4565b903361426e565b503461040157806003193601126104015760206040516a52b7d2dcc80cd2e40000008152f35b5034610401576020366003190112610401576105d46105b261359d565b5034610401578060031936011261040157602060405160128152f35b5034610401578060031936011261040157601054604051630bcd640160e21b81529190602090839060049082906001600160a01b03165afa9081156112c2578091611285576020826040519015158152f35b5034610401578060031936011261040157602060ff60115460081c166040519015158152f35b5034610401578060031936011261040157600c546040516001600160a01b039091168152602090f35b5034612dde576129773661363e565b61298f60ff60119594939554610ba0828216156139ac565b61299e60026005541415613a4d565b60026005556040514281525f5160206145e95f395f51905f5260203392a26129c7811515613a99565b6001600160a01b038416936129dd851515613adf565b600a546040516353b7d27960e01b81526001600160a01b03858116600483018190529792169190602081602481865afa908115612dd3575f91612f64575b50612f24576020906024604051809481936353b7d27960e01b835260048301525afa8015612dd3575f90612ee9575b612a55915015613b26565b5f85815260016020908152604080832033845290915290205494828610612e935760105460405163349a29af60e11b8152600481018390526001600160a01b0390911690602081602481855afa8015612dd3575f90612e58575b612ab99150613b6a565b604051630aaad65760e11b815260048101839052602081602481855afa8015612dd3575f90612e1d575b612aed9150613bb1565b604051632396ba3b60e21b815260048101859052602081602481855afa8015612dd3575f90612de2575b612b219150613bf3565b803b15612dde575f8091602460405180948193637f314fd960e11b83528760048401525af18015612dd357612dbe575b506010546001600160a01b0316803b156107845785809160246040518094819362294c5f60e21b83528760048401525af18015610f7257908691612da9575b505060075460408051633e543e5b60e11b8152939184906001600160a01b03168180612bc189878c60048501613c48565b03915afa918215610f725786938793612d82575b50612be1831515613c6a565b612bef85610dec8587613cb4565b600a5490875260208781526040808920549051635cc61d0d60e01b81529283916001600160a01b039091169082908190612c2f908b898e60048601613d19565b03915afa8015610fbc578790612d47575b612c4a9150613d43565b838703968711612d3357612c638697969596338861426e565b82612ca8575b612c74925085614372565b600a546001600160a01b0316803b1561079c57610e909383604051809681958294633dc6baeb60e01b84526004840161381c565b60075460405163011a412160e61b815290602090829060049082906001600160a01b03165afa908115610f72578691612cf0575b50612c7493612ceb9188614372565b612c69565b90506020813d602011612d2b575b81612d0b60209383613737565b8101031261078457612c7493612d23612ceb9261376e565b915093612cdc565b3d9150612cfe565b634e487b7160e01b86526011600452602486fd5b506020813d602011612d7a575b81612d6160209383613737565b81010312610fb057612d75612c4a91613782565b612c40565b3d9150612d54565b909250612d9f91935060403d604011610ff757610fe58183613737565b929092915f612bd5565b81612db391613737565b61107657845f612b90565b612dcb9195505f90613737565b5f935f612b51565b6040513d5f823e3d90fd5b5f80fd5b506020813d602011612e15575b81612dfc60209383613737565b81010312612dde57612e10612b2191613782565b612b17565b3d9150612def565b506020813d602011612e50575b81612e3760209383613737565b81010312612dde57612e4b612aed91613782565b612ae3565b3d9150612e2a565b506020813d602011612e8b575b81612e7260209383613737565b81010312612dde57612e86612ab991613782565b612aaf565b3d9150612e65565b60405162461bcd60e51b815260206004820152602860248201527f45524332303a207472616e7366657220616d6f756e74206578636565647320616044820152676c6c6f77616e636560c01b6064820152608490fd5b506020813d602011612f1c575b81612f0360209383613737565b81010312612dde57612f17612a5591613782565b612a4a565b3d9150612ef6565b60405162461bcd60e51b8152602060048201526018602482015277119c9bdb481859191c995cdcc8189b1858dadb1a5cdd195960421b6044820152606490fd5b90506020813d602011612f96575b81612f7f60209383613737565b81010312612dde57612f9090613782565b5f612a1b565b3d9150612f72565b34612dde575f366003190112612dde57600d546040516001600160a01b039091168152602090f35b34612dde575f366003190112612dde5760206040515f5160206145c95f395f51905f528152f35b34612dde576020366003190112612dde5761300661359d565b600a54604051634048f1c160e01b81526001600160a01b039283166004820181905292909160a09183916024918391165afa8015612dd3575f915f916130d2575b5060105460405163237d99f760e21b81526004810194909452602090849060249082906001600160a01b03165afa908115612dd3575f9161309d575b606093506040519215158352151560208301526040820152f35b90506020833d6020116130ca575b816130b860209383613737565b81010312612dde576060925190613083565b3d91506130ab565b91505060a0813d60a01161311e575b816130ee60a09383613737565b81010312612dde57613118604061310483613782565b9261311160208201613782565b5001613782565b83613047565b3d91506130e1565b34612dde575f366003190112612dde5760206040516a027b46536c66c8e30000008152f35b34612dde575f366003190112612dde576020600254604051908152f35b34612dde575f366003190112612dde5760206040516a0c685fa11e01ec6f0000008152f35b34612dde576020366003190112612dde576131db6131a961359d565b6008546001600160a01b0316331480156131dd575b6131c790613906565b6109696001600160a01b0382161515613960565b005b50600b546001600160a01b031633146131be565b34612dde576044613201366135b3565b6006549093919291906020906001600160a01b031661322181151561378f565b604051632474521560e21b81525f600482015233602482015296879182905afa948515612dd3575f95613261575b5061325c6131db956137d2565b61388d565b94506020853d60201161329a575b8161327c60209383613737565b81010312612dde5761325c6132936131db96613782565b955061324f565b3d915061326f565b34612dde575f366003190112612dde57604060ff60115460101c1660018060a01b03600b5416825191151582526020820152f35b34612dde576040366003190112612dde576111c36132f261359d565b602435903361426e565b34612dde576020366003190112612dde576006546044906020906001600160a01b031661332a81151561378f565b604051632474521560e21b81525f600482015233602482015292839182905afa8015612dd3575f9061336b575b613360906137d2565b6131db600435613837565b506020813d60201161339e575b8161338560209383613737565b81010312612dde5761339961336091613782565b613357565b3d9150613378565b34612dde575f366003190112612dde576040515f6003548060011c90600181168015613490575b60208310811461347c5782855290811561345857506001146133fa575b61138c8361138081850382613737565b60035f9081527fc2575a0e9e593c00f959f8c92f12db2869c3395a3b0502d05e2516446f71f85b939250905b80821061343e575090915081016020016113806133ea565b919260018160209254838588010152019101909291613426565b60ff191660208086019190915291151560051b8401909101915061138090506133ea565b634e487b7160e01b5f52602260045260245ffd5b91607f16916133cd565b34612dde575f366003190112612dde576006546040516001600160a01b039091168152602090f35b34612dde575f366003190112612dde576007546202eab760e01b8252606090829060049082906001600160a01b03165afa8015612dd3575f905f5f91613523575b6060935060405192835260018060a01b0316602083015215156040820152f35b5050506060813d60601161356b575b8161353f60609383613737565b81010312612dde578060609151613564604061355d6020850161376e565b9301613782565b9091613503565b3d9150613532565b602060409281835280519182918282860152018484015e5f828201840152601f01601f1916010190565b600435906001600160a01b0382168203612dde57565b906060600319830112612dde576004356001600160a01b0381168103612dde5791602435916044356001600160401b038111612dde5782602382011215612dde576004810135926001600160401b038411612dde5760248483010111612dde576024019190565b34612dde575f366003190112612dde57602060405169d3c21bcecceda10000008152f35b6060906003190112612dde576004356001600160a01b0381168103612dde57906024356001600160a01b0381168103612dde579060443590565b6060906003190112612dde57600435906024359060443590565b34612dde575f366003190112612dde5760206040516a295be96e640669720000008152f35b9181601f84011215612dde578235916001600160401b038311612dde576020808501948460051b010111612dde57565b6040600319820112612dde576004356001600160401b038111612dde5781613711916004016136b7565b90929091602435906001600160401b038211612dde57613733916004016136b7565b9091565b601f909101601f19168101906001600160401b0382119082101761375a57604052565b634e487b7160e01b5f52604160045260245ffd5b51906001600160a01b0382168203612dde57565b51908115158203612dde57565b1561379657565b60405162461bcd60e51b8152602060048201526014602482015273149bdb19481b585b9859d95c881b9bdd081cd95d60621b6044820152606490fd5b156137d957565b60405162461bcd60e51b815260206004820152601b60248201527a4163636573732064656e6965643a206d697373696e6720726f6c6560281b6044820152606490fd5b6001600160a01b039091168152602081019190915260400190565b600d546001600160a01b0316803b15612dde57604051631873ec8b60e21b8152915f91839182908490829061387090336004840161381c565b03925af18015612dd3576138815750565b5f61388b91613737565b565b600d549092916001600160a01b0390911690813b15612dde575f6084819587604051988997889687946303d7374360e21b865260018060a01b03166004860152602485015260606044850152816064850152848401378181018301849052601f01601f191681010301925af18015612dd3576138815750565b1561390d57565b60405162461bcd60e51b815260206004820152602560248201527f4f6e6c79206d756c7469736967206f722074696d656c6f636b2063616e206578604482015264656375746560d81b6064820152608490fd5b1561396757565b60405162461bcd60e51b815260206004820152601d60248201527f496e76616c696420616464726573733a207a65726f20616464726573730000006044820152606490fd5b156139b357565b60405162461bcd60e51b815260206004820152601a602482015279151bdad95b881d1c985b9cd9995c9cc8185c99481c185d5cd95960321b6044820152606490fd5b156139fc57565b60405162461bcd60e51b8152602060048201526024808201527f546f6b656e207472616e73666572732061726520656d657267656e63792070616044820152631d5cd95960e21b6064820152608490fd5b15613a5457565b60405162461bcd60e51b815260206004820152601f60248201527f5265656e7472616e637947756172643a207265656e7472616e742063616c6c006044820152606490fd5b15613aa057565b60405162461bcd60e51b8152602060048201526017602482015276416d6f756e74206d75737420626520706f73697469766560481b6044820152606490fd5b15613ae657565b60405162461bcd60e51b81526020600482015260186024820152775472616e7366657220746f207a65726f206164647265737360401b6044820152606490fd5b15613b2d57565b60405162461bcd60e51b8152602060048201526015602482015274149958da5c1a595b9d08189b1858dadb1a5cdd1959605a1b6044820152606490fd5b15613b7157565b60405162461bcd60e51b81526020600482015260186024820152775472616e7366657220636f6f6c646f776e2061637469766560401b6044820152606490fd5b15613bb857565b60405162461bcd60e51b8152602060048201526013602482015272119b185cda081b1bd85b8819195d1958dd1959606a1b6044820152606490fd5b15613bfa57565b60405162461bcd60e51b815260206004820152601060248201526f105b5bdd5b9d081d1bdbc81cdb585b1b60821b6044820152606490fd5b9190826040910312612dde576020825192015190565b6001600160a01b03918216815291166020820152604081019190915260600190565b15613c7157565b60405162461bcd60e51b815260206004820152601b60248201527a4e657420616d6f756e74206d75737420626520706f73697469766560281b6044820152606490fd5b91908201809211613cc157565b634e487b7160e01b5f52601160045260245ffd5b15613cdc57565b60405162461bcd60e51b81526020600482015260156024820152742332b29031b0b631bab630ba34b7b71032b93937b960591b6044820152606490fd5b6001600160a01b039182168152911660208201526040810191909152606081019190915260800190565b15613d4a57565b60405162461bcd60e51b815260206004820152601e60248201527f5472616e73666572207265737472696374696f6e732076696f6c6174656400006044820152606490fd5b600f546001600160a01b0316803b15612dde575f80916004604051809481936308e8087160e31b83525af18015612dd3576138815750565b15613dce57565b60405162461bcd60e51b815260206004820152603360248201527f4f6e6c79206d756c74697369672c2074696d656c6f636b2c206f7220746573746044820152722072756e6e65722063616e206578656375746560681b6064820152608490fd5b600f549091906001600160a01b0316803b15612dde575f928360649260405196879586946358a3a1c360e01b86526004860152602485015260448401525af18015612dd3576138815750565b916020908281520191905f905b808210613e955750505090565b91929091908335906001600160a01b0382168203612dde576001600160a01b039091168152602090810193019160010190613e88565b81835290916001600160fb1b038311612dde5760209260051b809284830137010190565b15613ef657565b60405162461bcd60e51b815260206004820152601260248201527114d95b99195c88189b1858dadb1a5cdd195960721b6044820152606490fd5b600d546001600160a01b0316803b15612dde575f80916024604051809481936396bb1fef60e01b83523360048401525af18015612dd3576138815750565b9160115460ff8116908115614260575b5061425957600a546040516353b7d27960e01b81526001600160a01b03858116600483018190529492169190602081602481865afa908115612dd3575f9161421f575b5080156141ab575b6140ea5760105460405163349a29af60e11b8152600481018690526001600160a01b0390911690602081602481855afa908115612dd3575f91614171575b501561412d57604051630aaad65760e11b815260048101869052602081602481855afa908115612dd3575f91614137575b501561412d57602060249160405192838092632396ba3b60e21b82528860048301525afa908115612dd3575f916140f3575b50156140ea576020935f525f845260405f20549461409e60405196879586948594635cc61d0d60e01b865260048601613d19565b03915afa908115612dd3575f916140b3575090565b90506020813d6020116140e2575b816140ce60209383613737565b81010312612dde576140df90613782565b90565b3d91506140c1565b50505050505f90565b90506020813d602011614125575b8161410e60209383613737565b81010312612dde5761411f90613782565b5f61406a565b3d9150614101565b5050505050505f90565b90506020813d602011614169575b8161415260209383613737565b81010312612dde5761416390613782565b5f614038565b3d9150614145565b90506020813d6020116141a3575b8161418c60209383613737565b81010312612dde5761419d90613782565b5f614007565b3d915061417f565b506040516353b7d27960e01b81526001600160a01b0382166004820152602081602481865afa908115612dd3575f916141e5575b50613fc9565b90506020813d602011614217575b8161420060209383613737565b81010312612dde5761421190613782565b5f6141df565b3d91506141f3565b90506020813d602011614251575b8161423a60209383613737565b81010312612dde5761424b90613782565b5f613fc1565b3d915061422d565b5050505f90565b60ff915060081c165f613f7e565b6001600160a01b0316908115614321576001600160a01b03169182156142d15760207f8c5be1e5ebec7d5bd14f71427d1e84f3dd0314c0f7b2291e5b200ac8c7c3b92591835f526001825260405f20855f5282528060405f2055604051908152a3565b60405162461bcd60e51b815260206004820152602260248201527f45524332303a20617070726f766520746f20746865207a65726f206164647265604482015261737360f01b6064820152608490fd5b60405162461bcd60e51b8152602060048201526024808201527f45524332303a20617070726f76652066726f6d20746865207a65726f206164646044820152637265737360e01b6064820152608490fd5b6001600160a01b0316908115614482576001600160a01b031691821561443157815f525f60205260405f20548181106143dd57815f5160206146495f395f51905f5292602092855f525f84520360405f2055845f525f825260405f20818154019055604051908152a3565b60405162461bcd60e51b815260206004820152602660248201527f45524332303a207472616e7366657220616d6f756e7420657863656564732062604482015265616c616e636560d01b6064820152608490fd5b60405162461bcd60e51b815260206004820152602360248201527f45524332303a207472616e7366657220746f20746865207a65726f206164647260448201526265737360e81b6064820152608490fd5b60405162461bcd60e51b815260206004820152602560248201527f45524332303a207472616e736665722066726f6d20746865207a65726f206164604482015264647265737360d81b6064820152608490fd5b6001600160a01b0316801561457957805f525f60205260405f205491808310614529576020815f5160206146495f395f51905f52925f958587528684520360408620558060025403600255604051908152a3565b60405162461bcd60e51b815260206004820152602260248201527f45524332303a206275726e20616d6f756e7420657863656564732062616c616e604482015261636560f01b6064820152608490fd5b60405162461bcd60e51b815260206004820152602160248201527f45524332303a206275726e2066726f6d20746865207a65726f206164647265736044820152607360f81b6064820152608490fdfebf233dd2aafeb4d50879c4aa5c81e96d92f6e6945c906a58f9f2d1c1631b4b26b775691dfb4ef95eb4624f1ee5507fbdef791994a83e3f1d1769222da2a27bdb65d7a28e3265b37a6474929f336521b332c1681b933f6cb9f3376673440d862a9f2df0fed2c77648de5860a4cc508cd0818c85b8b8a1ab4ceeef8d981c8956a6ddf252ad1be2c89b69c2b068fc378daa952ba7f163c4a11628f55a4df523b3efa2646970667358221220e7bbe7754ae5ce067fb0675f42730a6adef630fa56a054b7db7e75454107553b64736f6c634300081d0033","linkReferences":{}},"methodIdentifiers":{"COLLATERAL_RESERVE()":"5b026ed8","COMMUNITY_REWARDS()":"1cfe31c2","DEFAULT_ADMIN_ROLE()":"a217fddf","ECOSYSTEM_FUND()":"983c44d6","EMERGENCY_ROLE()":"20df4359","INITIAL_DISTRIBUTION()":"749696ee","LIQUIDITY_MINING()":"12aa241e","MAX_SUPPLY()":"32cb6b0c","MINTER_ROLE()":"d5391393","PAUSER_ROLE()":"e63ab1e9","RESERVE_FUND()":"5c473764","TEAM_VESTING()":"1940ca17","TOKEN_SALE()":"c0d75442","_notEntered()":"d8438ae8","addFeeTier(uint256,uint256,uint256)":"58a3a1c3","addFeeTierForTesting(uint256,uint256,uint256)":"4de4421e","addToStakingPool(uint256)":"08726ed0","addToStakingPoolForTesting(uint256)":"48ed2bfc","advancedFeeManager()":"fa93433a","allowance(address,address)":"dd62ed3e","approve(address,uint256)":"095ea7b3","balanceOf(address)":"70a08231","batchManager()":"dae41293","batchMint(address[],uint256[])":"68573107","batchTransfer(address[],uint256[])":"88d695b2","burn(uint256)":"42966c68","burnFrom(address,uint256)":"79cc6790","checkFlashLoanForTesting(address)":"a31c95e2","claimStakingRewards()":"6b69e05b","claimStakingRewardsForTesting()":"8bb8f4ad","decimals()":"313ce567","decreaseAllowance(address,uint256)":"a457c2d7","emergencyPause()":"51858e27","emergencyUnpause()":"4a4e3bd5","feeManager()":"d0fb0203","getFeeInfo()":"0002eab7","getFeeTiers()":"e9a4d24f","getFounderInfo()":"64ca7c95","getSecurityStatus(address)":"1997eefe","getTimelockInfo()":"0dbcc88e","getTokenEconomics()":"f501bbbe","increaseAllowance(address,uint256)":"39509351","isEmergencyPaused()":"290d10c4","isPaused()":"b187bd26","isRateLimitingEnabled()":"2f359004","isTimelockEnabled()":"af8e2910","isTransferAllowed(address,address,uint256)":"f7ebc39a","metadataManager()":"4c9e91a4","mint(address,uint256)":"40c10f19","multisigWallet()":"9075becf","name()":"06fdde03","pause()":"8456cb59","priceOracle()":"2630c12f","rateLimitManager()":"c3f933e4","removeFeeTier(uint256)":"42b53e5f","roleManager()":"00435da5","securityManager()":"de675a6d","setFeeManager(address)":"472d35b9","setFeeManagerForTesting(address)":"3a1b21f8","setMetadataManager(address)":"124cc077","setMetadataManagerForTesting(address)":"d3085c6b","setMinTransferAmount(uint256)":"b92e6396","setMinTransferAmountForTesting(uint256)":"f925f41c","setMultisigWallet(address)":"64913477","setMultisigWalletForTesting(address)":"661967e0","setPriceOracle(address)":"530e784f","setRoleManager(address)":"f1d588c5","setRoleManagerForTesting(address)":"3172a4ef","setSecurityManager(address)":"94dbea66","setSecurityManagerForTesting(address)":"4bf649c4","setTimelock(address)":"bdacb303","setTransferCooldown(uint256)":"7d6a1d4a","stakingManager()":"22828cc2","symbol()":"95d89b41","timelock()":"d33219b4","toggleDynamicFees()":"47404388","toggleDynamicFeesForTesting()":"99a19a14","toggleRateLimiting()":"4dbb15e4","toggleRateLimitingForTesting()":"804af83a","tokenState()":"e90dd9e2","totalSupply()":"18160ddd","transfer(address,uint256)":"a9059cbb","transferForTesting(address,uint256)":"6867eddf","transferFrom(address,address,uint256)":"23b872dd","unpause()":"3f4ba83a","useEcosystemFund(address,uint256,string)":"0f5cdd0c","useEcosystemFundForTesting(address,uint256,string)":"dc7ed754"},"id":0}