{"abi":[{"type":"constructor","inputs":[{"name":"_token","type":"address","internalType":"address"},{"name":"_admin","type":"address","internalType":"address"}],"stateMutability":"nonpayable"},{"type":"function","name":"FOUNDER_ECOSYSTEM_LIMIT","inputs":[],"outputs":[{"name":"","type":"uint256","internalType":"uint256"}],"stateMutability":"view"},{"type":"function","name":"FOUNDER_STAKING_LIMIT","inputs":[],"outputs":[{"name":"","type":"uint256","internalType":"uint256"}],"stateMutability":"view"},{"type":"function","name":"addToStakingPool","inputs":[{"name":"founder","type":"address","internalType":"address"},{"name":"amount","type":"uint256","internalType":"uint256"}],"outputs":[],"stateMutability":"nonpayable"},{"type":"function","name":"addToStakingPoolForTesting","inputs":[{"name":"founder","type":"address","internalType":"address"},{"name":"amount","type":"uint256","internalType":"uint256"}],"outputs":[],"stateMutability":"nonpayable"},{"type":"function","name":"admin","inputs":[],"outputs":[{"name":"","type":"address","internalType":"address"}],"stateMutability":"view"},{"type":"function","name":"claimStakingRewards","inputs":[{"name":"founder","type":"address","internalType":"address"}],"outputs":[],"stateMutability":"nonpayable"},{"type":"function","name":"claimStakingRewardsForTesting","inputs":[{"name":"founder","type":"address","internalType":"address"}],"outputs":[],"stateMutability":"nonpayable"},{"type":"function","name":"founderStakingPool","inputs":[],"outputs":[{"name":"","type":"uint256","internalType":"uint256"}],"stateMutability":"view"},{"type":"function","name":"getFounderInfo","inputs":[{"name":"","type":"address","internalType":"address"}],"outputs":[{"name":"stakingPool","type":"uint256","internalType":"uint256"},{"name":"stakingLimit","type":"uint256","internalType":"uint256"},{"name":"ecosystemLimit","type":"uint256","internalType":"uint256"},{"name":"rewardRate","type":"uint256","internalType":"uint256"},{"name":"pendingRewards","type":"uint256","internalType":"uint256"}],"stateMutability":"view"},{"type":"function","name":"lastStakingRewardTime","inputs":[],"outputs":[{"name":"","type":"uint256","internalType":"uint256"}],"stateMutability":"view"},{"type":"function","name":"stakingRewardRate","inputs":[],"outputs":[{"name":"","type":"uint256","internalType":"uint256"}],"stateMutability":"view"},{"type":"function","name":"token","inputs":[],"outputs":[{"name":"","type":"address","internalType":"address"}],"stateMutability":"view"},{"type":"function","name":"useEcosystemFund","inputs":[{"name":"recipient","type":"address","internalType":"address"},{"name":"amount","type":"uint256","internalType":"uint256"},{"name":"purpose","type":"string","internalType":"string"}],"outputs":[],"stateMutability":"nonpayable"},{"type":"function","name":"useEcosystemFundForTesting","inputs":[{"name":"recipient","type":"address","internalType":"address"},{"name":"amount","type":"uint256","internalType":"uint256"},{"name":"purpose","type":"string","internalType":"string"}],"outputs":[],"stateMutability":"nonpayable"},{"type":"event","name":"EcosystemFundUsed","inputs":[{"name":"recipient","type":"address","indexed":true,"internalType":"address"},{"name":"amount","type":"uint256","indexed":false,"internalType":"uint256"},{"name":"purpose","type":"string","indexed":false,"internalType":"string"}],"anonymous":false},{"type":"event","name":"FounderStakingAdded","inputs":[{"name":"founder","type":"address","indexed":true,"internalType":"address"},{"name":"amount","type":"uint256","indexed":false,"internalType":"uint256"}],"anonymous":false},{"type":"event","name":"FounderStakingRewardClaimed","inputs":[{"name":"founder","type":"address","indexed":true,"internalType":"address"},{"name":"amount","type":"uint256","indexed":false,"internalType":"uint256"}],"anonymous":false}],"bytecode":{"object":"0x6080346100d657601f6109c638819003918201601f19168301916001600160401b038311848410176100da5780849260409485528339810103126100d657610052602061004b836100ee565b92016100ee565b6105dc6002556001600160a01b03169081156100a15760018060a01b031660018060a01b03195f5416175f5560018060a01b03196001541617600155426003556040516108c390816101038239f35b60405162461bcd60e51b815260206004820152600d60248201526c24b73b30b634b21030b236b4b760991b6044820152606490fd5b5f80fd5b634e487b7160e01b5f52604160045260245ffd5b51906001600160a01b03821682036100d65756fe60806040526004361015610011575f80fd5b5f3560e01c80630f5cdd0c146102e9578063208f51a8146102c45780634f3fc2df146102a757806361cfb22c1461027657806396bb1fef14610245578063a59c166714610220578063b39669ea146101fb578063cb7a3f8c146101de578063cf027ff7146101c1578063d51c5aae14610143578063dc7ed75414610129578063f05ff36114610106578063f851a440146100de5763fc0c546a146100b3575f80fd5b346100da575f3660031901126100da575f546040516001600160a01b039091168152602090f35b5f80fd5b346100da575f3660031901126100da576001546040516001600160a01b039091168152602090f35b346100da5760203660031901126100da57610127610122610318565b610748565b005b346100da5761012761013a3661032e565b9291909161047e565b346100da5760203660031901126100da5761015c610318565b5060a061016b60035442610728565b6004549064496cebb80061018b600254926101868486610735565b610735565b04906040519283526a0c685fa11e01ec6f00000060208401526a084595161401484a000000604084015260608301526080820152f35b346100da575f3660031901126100da576020600354604051908152f35b346100da575f3660031901126100da576020600454604051908152f35b346100da5760403660031901126100da57610127610217610318565b6024359061061f565b346100da575f3660031901126100da5760206040516a0c685fa11e01ec6f0000008152f35b346100da5760203660031901126100da57610127610261610318565b61012260018060a01b03600154163314610395565b346100da5760403660031901126100da57610127610292610318565b61021760018060a01b03600154163314610395565b346100da575f3660031901126100da576020600254604051908152f35b346100da575f3660031901126100da5760206040516a084595161401484a0000008152f35b346100da576101276102fa3661032e565b9261031360018060a09594951b03600154163314610395565b61047e565b600435906001600160a01b03821682036100da57565b9060606003198301126100da576004356001600160a01b03811681036100da5791602435916044356001600160401b0381116100da57826023820112156100da576004810135926001600160401b0384116100da57602484830101116100da576024019190565b1561039c57565b60405162461bcd60e51b815260206004820152600a60248201526927b7363c9030b236b4b760b11b6044820152606490fd5b156103d557565b60405162461bcd60e51b8152602060048201526017602482015276416d6f756e74206d75737420626520706f73697469766560481b6044820152606490fd5b601f909101601f19168101906001600160401b0382119082101761043757604052565b634e487b7160e01b5f52604160045260245ffd5b908160209103126100da575180151581036100da5790565b6001600160a01b039091168152602081019190915260400190565b91909261048c8415156103ce565b6a084595161401484a00000084116105ba576001600160a01b038316938415610581575f805460405163a9059cbb60e01b81529560209287926001600160a01b03169183919082906104e390889060048401610463565b03925af1918215610576577fc62ed0aaf8460e415b2b8992b7b58717a1460e90ffe16dbcf0ede2d189d93ff594606093610549575b5080604051948593845260406020850152816040850152848401375f828201840152601f01601f19168101030190a2565b61056a9060203d60201161056f575b6105628183610414565b81019061044b565b610518565b503d610558565b6040513d5f823e3d90fd5b60405162461bcd60e51b8152602060048201526011602482015270125b9d985b1a59081c9958da5c1a595b9d607a1b6044820152606490fd5b60405162461bcd60e51b815260206004820152601c60248201527b115e18d959591cc81958dbdcde5cdd195b48199d5b99081b1a5b5a5d60221b6044820152606490fd5b9190820180921161060b57565b634e487b7160e01b5f52601160045260245ffd5b9061062b8115156103ce565b600454906a0c685fa11e01ec6f00000061064582846105fe565b116106eb57610655815f936105fe565b600455602060018060a01b03835416936064604051809581936323b872dd60e01b835260018060a01b0316978860048401523060248401528660448401525af1908115610576577f9825e8f314748ba844dad2582033dcad3fd6040d8b3937a53dc314ebc799857d926020926106d0575b50604051908152a2565b6106e690833d851161056f576105628183610414565b6106c6565b60405162461bcd60e51b8152602060048201526015602482015274115e18d959591cc81cdd185ada5b99c81b1a5b5a5d605a1b6044820152606490fd5b9190820391821161060b57565b8181029291811591840414171561060b57565b600454801561084c5761077464496cebb8009161018661076a60035442610728565b9160025490610735565b04908115610811574260035560018060a01b035f5416906020604051809363a9059cbb60e01b8252815f816107ad898860048401610463565b03925af1908115610576577f941adec9fdf7223edb386b147817606c0d511abe807340cf414d43769f849d44926020926107f6575b506040519384526001600160a01b031692a2565b61080c90833d851161056f576105628183610414565b6107e2565b60405162461bcd60e51b81526020600482015260136024820152724e6f207265776172647320746f20636c61696d60681b6044820152606490fd5b60405162461bcd60e51b8152602060048201526019602482015278139bc81d1bdad95b9cc81a5b881cdd185ada5b99c81c1bdbdb603a1b6044820152606490fdfea2646970667358221220386a7c8c19d6b73b670012c453ccba663e4a4c2344cac2243849b89df10713e464736f6c634300081d0033","linkReferences":{}},"methodIdentifiers":{"FOUNDER_ECOSYSTEM_LIMIT()":"208f51a8","FOUNDER_STAKING_LIMIT()":"a59c1667","addToStakingPool(address,uint256)":"61cfb22c","addToStakingPoolForTesting(address,uint256)":"b39669ea","admin()":"f851a440","claimStakingRewards(address)":"96bb1fef","claimStakingRewardsForTesting(address)":"f05ff361","founderStakingPool()":"cb7a3f8c","getFounderInfo(address)":"d51c5aae","lastStakingRewardTime()":"cf027ff7","stakingRewardRate()":"4f3fc2df","token()":"fc0c546a","useEcosystemFund(address,uint256,string)":"0f5cdd0c","useEcosystemFundForTesting(address,uint256,string)":"dc7ed754"},"id":15}