{"abi":[{"type":"constructor","inputs":[{"name":"_tokenContract","type":"address","internalType":"address"}],"stateMutability":"nonpayable"},{"type":"function","name":"ADMIN_ROLE","inputs":[],"outputs":[{"name":"","type":"bytes32","internalType":"bytes32"}],"stateMutability":"view"},{"type":"function","name":"DEFAULT_ADMIN_ROLE","inputs":[],"outputs":[{"name":"","type":"bytes32","internalType":"bytes32"}],"stateMutability":"view"},{"type":"function","name":"createVestingWallet","inputs":[{"name":"beneficiary","type":"address","internalType":"address"},{"name":"unlockTime","type":"uint256","internalType":"uint256"}],"outputs":[],"stateMutability":"nonpayable"},{"type":"function","name":"getRoleAdmin","inputs":[{"name":"role","type":"bytes32","internalType":"bytes32"}],"outputs":[{"name":"","type":"bytes32","internalType":"bytes32"}],"stateMutability":"view"},{"type":"function","name":"getVestingWallet","inputs":[{"name":"user","type":"address","internalType":"address"}],"outputs":[{"name":"","type":"uint256","internalType":"uint256"},{"name":"","type":"uint256","internalType":"uint256"},{"name":"","type":"uint256","internalType":"uint256"},{"name":"","type":"uint256","internalType":"uint256"}],"stateMutability":"view"},{"type":"function","name":"grantRole","inputs":[{"name":"role","type":"bytes32","internalType":"bytes32"},{"name":"account","type":"address","internalType":"address"}],"outputs":[],"stateMutability":"nonpayable"},{"type":"function","name":"hasRole","inputs":[{"name":"role","type":"bytes32","internalType":"bytes32"},{"name":"account","type":"address","internalType":"address"}],"outputs":[{"name":"","type":"bool","internalType":"bool"}],"stateMutability":"view"},{"type":"function","name":"renounceRole","inputs":[{"name":"role","type":"bytes32","internalType":"bytes32"},{"name":"account","type":"address","internalType":"address"}],"outputs":[],"stateMutability":"nonpayable"},{"type":"function","name":"revokeRole","inputs":[{"name":"role","type":"bytes32","internalType":"bytes32"},{"name":"account","type":"address","internalType":"address"}],"outputs":[],"stateMutability":"nonpayable"},{"type":"function","name":"supportsInterface","inputs":[{"name":"interfaceId","type":"bytes4","internalType":"bytes4"}],"outputs":[{"name":"","type":"bool","internalType":"bool"}],"stateMutability":"view"},{"type":"function","name":"tokenContract","inputs":[],"outputs":[{"name":"","type":"address","internalType":"address"}],"stateMutability":"view"},{"type":"function","name":"transferToVesting","inputs":[{"name":"beneficiary","type":"address","internalType":"address"},{"name":"amount","type":"uint256","internalType":"uint256"}],"outputs":[],"stateMutability":"nonpayable"},{"type":"function","name":"vestingContracts","inputs":[{"name":"","type":"address","internalType":"address"}],"outputs":[{"name":"","type":"address","internalType":"address"}],"stateMutability":"view"},{"type":"event","name":"RoleAdminChanged","inputs":[{"name":"role","type":"bytes32","indexed":true,"internalType":"bytes32"},{"name":"previousAdminRole","type":"bytes32","indexed":true,"internalType":"bytes32"},{"name":"newAdminRole","type":"bytes32","indexed":true,"internalType":"bytes32"}],"anonymous":false},{"type":"event","name":"RoleGranted","inputs":[{"name":"role","type":"bytes32","indexed":true,"internalType":"bytes32"},{"name":"account","type":"address","indexed":true,"internalType":"address"},{"name":"sender","type":"address","indexed":true,"internalType":"address"}],"anonymous":false},{"type":"event","name":"RoleRevoked","inputs":[{"name":"role","type":"bytes32","indexed":true,"internalType":"bytes32"},{"name":"account","type":"address","indexed":true,"internalType":"address"},{"name":"sender","type":"address","indexed":true,"internalType":"address"}],"anonymous":false},{"type":"event","name":"VestingCreated","inputs":[{"name":"beneficiary","type":"address","indexed":true,"internalType":"address"},{"name":"vestingContract","type":"address","indexed":false,"internalType":"address"}],"anonymous":false}],"bytecode":{"object":"0x60803461015857601f6117df38819003918201601f19168301916001600160401b0383118484101761015c5780849260209460405283398101031261015857516001600160a01b0381169081900361015857600280546001600160a01b031916919091179055335f9081525f5160206117bf5f395f51905f52602052604090205460ff161561011b575b335f9081525f51602061179f5f395f51905f52602052604090205460ff16156100bc575b60405161160e90816101718239f35b335f8181525f51602061179f5f395f51905f5260205260408120805460ff1916600117905581907fa49807205ce4d355092ef5a8a18f56e8913cf4a201fbe287825b095693c21775905f51602061177f5f395f51905f529080a46100ad565b335f8181525f5160206117bf5f395f51905f5260205260408120805460ff1916600117905581905f51602061177f5f395f51905f528180a4610089565b5f80fd5b634e487b7160e01b5f52604160045260245ffdfe6080806040526004361015610012575f80fd5b5f3560e01c90816301ffc9a71461082457508063248a9ca3146107fe5780632f2ff15d1461075357806336568abe146106c15780633791587414610681578063426e04b61461053757806355a373d61461050f57806375b238fc146104e857806391d14854146104a0578063a217fddf14610486578063ce106ed714610310578063d547741f146102d85763fd70f8b7146100ab575f80fd5b346102d45760403660031901126102d4576100c461088d565b335f9081527f7d7ffb7a348e1c6a02869081a26547b49160dd3df72d1d75a570eb9b698292ec602052604090205460ff1615610203576001600160a01b031680156101cc57604051610a06808201906001600160401b038211838310176101b8576060918391610bb383398481526001600160401b0342811660208301526024351660408201520301905ff080156101ad575f8281526001602090815260409182902080546001600160a01b0319166001600160a01b03909416938417905590519182527f2ee44d821b06c9aa990927d787f4adf9d8d3eb9bf798ef5c80415cd7a396560291a2005b6040513d5f823e3d90fd5b634e487b7160e01b5f52604160045260245ffd5b60405162461bcd60e51b815260206004820152600f60248201526e496e76616c6964206164647265737360881b6044820152606490fd5b61020c33610a16565b6044602061029c601161022b5f5160206115b95f395f51905f52610b10565b6037604051948592818085019976020b1b1b2b9b9a1b7b73a3937b61d1030b1b1b7bab73a1604d1b8b528051918291018587015e8401907001034b99036b4b9b9b4b733903937b6329607d1b84830152805192839101604883015e01015f838201520301601f1981018352826108f6565b60405192839162461bcd60e51b8352602060048401525180918160248501528484015e5f828201840152601f01601f19168101030190fd5b5f80fd5b346102d45760403660031901126102d45761030e6004356102f7610877565b90610309610304826108a3565b610919565b610956565b005b346102d45760203660031901126102d4576001600160a01b0361033161088d565b165f908152600160205260409020546001600160a01b03166103548115156108b4565b604051632614965760e21b8152306004820152602081602481855afa9081156101ad575f91610454575b5060405163be9a655560e01b815291803190602084600481845afa9384156101ad575f9461041f575b50926020600494604051958680926303ed69ad60e21b82525afa9182156101ad575f926103ea575b60809450604051938452602084015260408301526060820152f35b91506020843d602011610417575b81610405602093836108f6565b810103126102d45760809351916103cf565b3d91506103f8565b93506020843d60201161044c575b8161043a602093836108f6565b810103126102d45792519260206103a7565b3d915061042d565b90506020813d60201161047e575b8161046f602093836108f6565b810103126102d457518261037e565b3d9150610462565b346102d4575f3660031901126102d45760206040515f8152f35b346102d45760403660031901126102d4576104b9610877565b6004355f525f60205260405f209060018060a01b03165f52602052602060ff60405f2054166040519015158152f35b346102d4575f3660031901126102d45760206040515f5160206115b95f395f51905f528152f35b346102d4575f3660031901126102d4576002546040516001600160a01b039091168152602090f35b346102d45760403660031901126102d45761055061088d565b6002546001600160a01b03169033829003610646575f9160209160018060a01b0316835260018252604460018060a01b036040852054166105928115156108b4565b604051948593849263a9059cbb60e01b8452600484015260243560248401525af19081156101ad575f9161060b575b50156105c957005b60405162461bcd60e51b815260206004820152601a602482015279151c985b9cd9995c881d1bc81d995cdd1a5b99c819985a5b195960321b6044820152606490fd5b90506020813d60201161063e575b81610626602093836108f6565b810103126102d4575180151581036102d457816105c1565b3d9150610619565b60405162461bcd60e51b815260206004820152601360248201527213db9b1e481d1bdad95b8818dbdb9d1c9858dd606a1b6044820152606490fd5b346102d45760203660031901126102d4576001600160a01b036106a261088d565b165f526001602052602060018060a01b0360405f205416604051908152f35b346102d45760403660031901126102d4576106da610877565b336001600160a01b038216036106f65761030e90600435610956565b60405162461bcd60e51b815260206004820152602f60248201527f416363657373436f6e74726f6c3a2063616e206f6e6c792072656e6f756e636560448201526e103937b632b9903337b91039b2b63360891b6064820152608490fd5b346102d45760403660031901126102d45760043561076f610877565b9061077c610304826108a3565b5f818152602081815260408083206001600160a01b038616845290915290205460ff16156107a657005b5f818152602081815260408083206001600160a01b0395909516808452949091528120805460ff19166001179055339291907f2f8788117e7eff1d82e926ec794901d17c78024a50270940304540a733656f0d9080a4005b346102d45760203660031901126102d457602061081c6004356108a3565b604051908152f35b346102d45760203660031901126102d4576004359063ffffffff60e01b82168092036102d457602091637965db0b60e01b8114908115610866575b5015158152f35b6301ffc9a760e01b1490508361085f565b602435906001600160a01b03821682036102d457565b600435906001600160a01b03821682036102d457565b5f525f602052600160405f20015490565b156108bb57565b60405162461bcd60e51b8152602060048201526013602482015272139bc81d995cdd1a5b99c818dbdb9d1c9858dd606a1b6044820152606490fd5b601f909101601f19168101906001600160401b038211908210176101b857604052565b5f8181526020818152604080832033845290915290205460ff161561093b5750565b6044602061029c601161022b61095033610a16565b95610b10565b5f818152602081815260408083206001600160a01b038616845290915290205460ff16610981575050565b5f818152602081815260408083206001600160a01b0395909516808452949091528120805460ff19169055339291907ff6391f5c32d9c69d2a47ea670b442974b53935d1edc7fd64eb21e047a839171b9080a4565b6001600160401b0381116101b857601f01601f191660200190565b908151811015610a02570160200190565b634e487b7160e01b5f52603260045260245ffd5b610a20602a6109d6565b90610a2e60405192836108f6565b602a8252610a3c602a6109d6565b6020830190601f1901368237825115610a025760309053815160011015610a02576078602183015360295b60018111610abb5750610a775790565b606460405162461bcd60e51b815260206004820152602060248201527f537472696e67733a20686578206c656e67746820696e73756666696369656e746044820152fd5b90600f81166010811015610a02576f181899199a1a9b1b9c1cb0b131b232b360811b901a610ae983856109f1565b5360041c908015610afc575f1901610a67565b634e487b7160e01b5f52601160045260245ffd5b610b1a60426109d6565b90610b2860405192836108f6565b60428252610b3660426109d6565b6020830190601f1901368237825115610a025760309053815160011015610a02576078602183015360415b60018111610b715750610a775790565b90600f81166010811015610a02576f181899199a1a9b1b9c1cb0b131b232b360811b901a610b9f83856109f1565b5360041c908015610afc575f1901610b6156fe60e0601f610a0638819003918201601f19168301916001600160401b03831184841017610116578084926060946040528339810103126101125780516001600160a01b038116919082810361011257610066604061005f6020850161012a565b930161012a565b92156100ba5760805260a05260c0526040516108c7908161013f823960805181818161021b01528181610350015261040f015260a05181818160f701526106f4015260c05181818161053b01526107250152f35b60405162461bcd60e51b815260206004820152602a60248201527f56657374696e6757616c6c65743a2062656e6566696369617279206973207a65604482015269726f206164647265737360b01b6064820152608490fd5b5f80fd5b634e487b7160e01b5f52604160045260245ffd5b51906001600160401b03821682036101125756fe6080604052600436101561001a575b3615610018575f80fd5b005b5f3560e01c80630a17b06b1461056a5780630fb5a6b414610526578063191655871461037f57806338af3eed1461033b578063810ec23b1461030257806386d1a69f1461019d57806396132521146101815780639852595c14610149578063a3f8eace14610126578063be9a6555146100e25763fbccedae0361000e57346100de575f3660031901126100de575f546020906100d6906100ce90426001600160401b0316906100c990476105b6565b6106e6565b5f54906106a3565b604051908152f35b5f80fd5b346100de575f3660031901126100de576040517f00000000000000000000000000000000000000000000000000000000000000006001600160401b03168152602090f35b346100de5760203660031901126100de5760206100d66101446105a0565b6106b0565b346100de5760203660031901126100de576001600160a01b0361016a6105a0565b165f526001602052602060405f2054604051908152f35b346100de575f3660031901126100de5760205f54604051908152f35b346100de575f3660031901126100de575f546101c890426001600160401b0316906100c990476105b6565b6101de6101d75f5480936106a3565b80926105b6565b5f557fda9d4e5f101b8b9b1c5b76d0c5a9f7923571acfc02376aa076b75a8c080c956b6020604051838152a18047106102bd575f908190819081907f00000000000000000000000000000000000000000000000000000000000000006001600160a01b03165af161024d61079f565b501561025557005b60405162461bcd60e51b815260206004820152603a60248201527f416464726573733a20756e61626c6520746f2073656e642076616c75652c20726044820152791958da5c1a595b9d081b585e481a185d99481c995d995c9d195960321b6064820152608490fd5b60405162461bcd60e51b815260206004820152601d60248201527f416464726573733a20696e73756666696369656e742062616c616e63650000006044820152606490fd5b346100de5760403660031901126100de5761031b6105a0565b602435906001600160401b03821682036100de576020916100d69161060e565b346100de575f3660031901126100de576040517f00000000000000000000000000000000000000000000000000000000000000006001600160a01b03168152602090f35b346100de5760203660031901126100de5761049561039b6105a0565b6103a4816106b0565b9060018060a01b0316805f52600160205260405f206103c48382546105b6565b9055807fc0e523490dd523c33b1878c9eb14ff46991e3f5b2cd33710918618f2a39cba1b6020604051858152a25f8060405193602085019063a9059cbb60e01b825260018060a01b037f00000000000000000000000000000000000000000000000000000000000000001660248701526044860152604485526104486064866105d7565b604051946104576040876105d7565b602086527f5361666545524332303a206c6f772d6c6576656c2063616c6c206661696c65646020870152519082855af161048f61079f565b916107dd565b8051908115918215610503575b5050156104ab57005b60405162461bcd60e51b815260206004820152602a60248201527f5361666545524332303a204552433230206f7065726174696f6e20646964206e6044820152691bdd081cdd58d8d9595960b21b6064820152608490fd5b81925090602091810103126100de576020015180151581036100de5781806104a2565b346100de575f3660031901126100de576040517f00000000000000000000000000000000000000000000000000000000000000006001600160401b03168152602090f35b346100de5760203660031901126100de576004356001600160401b03811681036100de576100d66020916100c9475f54906105b6565b600435906001600160a01b03821682036100de57565b919082018092116105c357565b634e487b7160e01b5f52601160045260245ffd5b601f909101601f19168101906001600160401b038211908210176105fa57604052565b634e487b7160e01b5f52604160045260245ffd5b6040516370a0823160e01b81523060048201526001600160a01b03919091169190602081602481865afa908115610698575f91610664575b506100c990610661935f52600160205260405f2054906105b6565b90565b90506020813d602011610690575b8161067f602093836105d7565b810103126100de5751610661610646565b3d9150610672565b6040513d5f823e3d90fd5b919082039182116105c357565b610661906106c7426001600160401b03168261060e565b6001600160a01b039091165f90815260016020526040902054906106a3565b6001600160401b03918216917f00000000000000000000000000000000000000000000000000000000000000001680831015610723575050505f90565b7f00000000000000000000000000000000000000000000000000000000000000006001600160401b03169261075884836105b6565b811115610766575050905090565b90610770916106a3565b908181029181830414901517156105c357811561078b570490565b634e487b7160e01b5f52601260045260245ffd5b3d156107d8573d906001600160401b0382116105fa57604051916107cd601f8201601f1916602001846105d7565b82523d5f602084013e565b606090565b9192901561083f57508151156107f1575090565b3b156107fa5790565b60405162461bcd60e51b815260206004820152601d60248201527f416464726573733a2063616c6c20746f206e6f6e2d636f6e74726163740000006044820152606490fd5b8251909150156108525750805190602001fd5b604460209160405192839162461bcd60e51b83528160048401528051918291826024860152018484015e5f828201840152601f01601f19168101030190fdfea264697066735822122063bb885725ade8738a09689af5e87e5981298b1023617b3cf50817aa4f2f28f264736f6c634300081d0033a49807205ce4d355092ef5a8a18f56e8913cf4a201fbe287825b095693c21775a264697066735822122001883816f150810596269bef054cd3b69805967156120f868f366262d911ae0b64736f6c634300081d00332f8788117e7eff1d82e926ec794901d17c78024a50270940304540a733656f0d7d7ffb7a348e1c6a02869081a26547b49160dd3df72d1d75a570eb9b698292ecad3228b676f7d3cd4284a5443f17f1962b36e491b30a40b2405849e597ba5fb5","linkReferences":{}},"methodIdentifiers":{"ADMIN_ROLE()":"75b238fc","DEFAULT_ADMIN_ROLE()":"a217fddf","createVestingWallet(address,uint256)":"fd70f8b7","getRoleAdmin(bytes32)":"248a9ca3","getVestingWallet(address)":"ce106ed7","grantRole(bytes32,address)":"2f2ff15d","hasRole(bytes32,address)":"91d14854","renounceRole(bytes32,address)":"36568abe","revokeRole(bytes32,address)":"d547741f","supportsInterface(bytes4)":"01ffc9a7","tokenContract()":"55a373d6","transferToVesting(address,uint256)":"426e04b6","vestingContracts(address)":"37915874"},"id":27}