{"abi":[{"type":"constructor","inputs":[{"name":"beneficiaryAddress","type":"address","internalType":"address"},{"name":"startTimestamp","type":"uint64","internalType":"uint64"},{"name":"durationSeconds","type":"uint64","internalType":"uint64"}],"stateMutability":"payable"},{"type":"receive","stateMutability":"payable"},{"type":"function","name":"beneficiary","inputs":[],"outputs":[{"name":"","type":"address","internalType":"address"}],"stateMutability":"view"},{"type":"function","name":"duration","inputs":[],"outputs":[{"name":"","type":"uint256","internalType":"uint256"}],"stateMutability":"view"},{"type":"function","name":"releasable","inputs":[{"name":"token","type":"address","internalType":"address"}],"outputs":[{"name":"","type":"uint256","internalType":"uint256"}],"stateMutability":"view"},{"type":"function","name":"releasable","inputs":[],"outputs":[{"name":"","type":"uint256","internalType":"uint256"}],"stateMutability":"view"},{"type":"function","name":"release","inputs":[{"name":"token","type":"address","internalType":"address"}],"outputs":[],"stateMutability":"nonpayable"},{"type":"function","name":"release","inputs":[],"outputs":[],"stateMutability":"nonpayable"},{"type":"function","name":"released","inputs":[],"outputs":[{"name":"","type":"uint256","internalType":"uint256"}],"stateMutability":"view"},{"type":"function","name":"released","inputs":[{"name":"token","type":"address","internalType":"address"}],"outputs":[{"name":"","type":"uint256","internalType":"uint256"}],"stateMutability":"view"},{"type":"function","name":"start","inputs":[],"outputs":[{"name":"","type":"uint256","internalType":"uint256"}],"stateMutability":"view"},{"type":"function","name":"vestedAmount","inputs":[{"name":"timestamp","type":"uint64","internalType":"uint64"}],"outputs":[{"name":"","type":"uint256","internalType":"uint256"}],"stateMutability":"view"},{"type":"function","name":"vestedAmount","inputs":[{"name":"token","type":"address","internalType":"address"},{"name":"timestamp","type":"uint64","internalType":"uint64"}],"outputs":[{"name":"","type":"uint256","internalType":"uint256"}],"stateMutability":"view"},{"type":"event","name":"ERC20Released","inputs":[{"name":"token","type":"address","indexed":true,"internalType":"address"},{"name":"amount","type":"uint256","indexed":false,"internalType":"uint256"}],"anonymous":false},{"type":"event","name":"EtherReleased","inputs":[{"name":"amount","type":"uint256","indexed":false,"internalType":"uint256"}],"anonymous":false}],"bytecode":{"object":"0x60e0601f610a0638819003918201601f19168301916001600160401b03831184841017610116578084926060946040528339810103126101125780516001600160a01b038116919082810361011257610066604061005f6020850161012a565b930161012a565b92156100ba5760805260a05260c0526040516108c7908161013f823960805181818161021b01528181610350015261040f015260a05181818160f701526106f4015260c05181818161053b01526107250152f35b60405162461bcd60e51b815260206004820152602a60248201527f56657374696e6757616c6c65743a2062656e6566696369617279206973207a65604482015269726f206164647265737360b01b6064820152608490fd5b5f80fd5b634e487b7160e01b5f52604160045260245ffd5b51906001600160401b03821682036101125756fe6080604052600436101561001a575b3615610018575f80fd5b005b5f3560e01c80630a17b06b1461056a5780630fb5a6b414610526578063191655871461037f57806338af3eed1461033b578063810ec23b1461030257806386d1a69f1461019d57806396132521146101815780639852595c14610149578063a3f8eace14610126578063be9a6555146100e25763fbccedae0361000e57346100de575f3660031901126100de575f546020906100d6906100ce90426001600160401b0316906100c990476105b6565b6106e6565b5f54906106a3565b604051908152f35b5f80fd5b346100de575f3660031901126100de576040517f00000000000000000000000000000000000000000000000000000000000000006001600160401b03168152602090f35b346100de5760203660031901126100de5760206100d66101446105a0565b6106b0565b346100de5760203660031901126100de576001600160a01b0361016a6105a0565b165f526001602052602060405f2054604051908152f35b346100de575f3660031901126100de5760205f54604051908152f35b346100de575f3660031901126100de575f546101c890426001600160401b0316906100c990476105b6565b6101de6101d75f5480936106a3565b80926105b6565b5f557fda9d4e5f101b8b9b1c5b76d0c5a9f7923571acfc02376aa076b75a8c080c956b6020604051838152a18047106102bd575f908190819081907f00000000000000000000000000000000000000000000000000000000000000006001600160a01b03165af161024d61079f565b501561025557005b60405162461bcd60e51b815260206004820152603a60248201527f416464726573733a20756e61626c6520746f2073656e642076616c75652c20726044820152791958da5c1a595b9d081b585e481a185d99481c995d995c9d195960321b6064820152608490fd5b60405162461bcd60e51b815260206004820152601d60248201527f416464726573733a20696e73756666696369656e742062616c616e63650000006044820152606490fd5b346100de5760403660031901126100de5761031b6105a0565b602435906001600160401b03821682036100de576020916100d69161060e565b346100de575f3660031901126100de576040517f00000000000000000000000000000000000000000000000000000000000000006001600160a01b03168152602090f35b346100de5760203660031901126100de5761049561039b6105a0565b6103a4816106b0565b9060018060a01b0316805f52600160205260405f206103c48382546105b6565b9055807fc0e523490dd523c33b1878c9eb14ff46991e3f5b2cd33710918618f2a39cba1b6020604051858152a25f8060405193602085019063a9059cbb60e01b825260018060a01b037f00000000000000000000000000000000000000000000000000000000000000001660248701526044860152604485526104486064866105d7565b604051946104576040876105d7565b602086527f5361666545524332303a206c6f772d6c6576656c2063616c6c206661696c65646020870152519082855af161048f61079f565b916107dd565b8051908115918215610503575b5050156104ab57005b60405162461bcd60e51b815260206004820152602a60248201527f5361666545524332303a204552433230206f7065726174696f6e20646964206e6044820152691bdd081cdd58d8d9595960b21b6064820152608490fd5b81925090602091810103126100de576020015180151581036100de5781806104a2565b346100de575f3660031901126100de576040517f00000000000000000000000000000000000000000000000000000000000000006001600160401b03168152602090f35b346100de5760203660031901126100de576004356001600160401b03811681036100de576100d66020916100c9475f54906105b6565b600435906001600160a01b03821682036100de57565b919082018092116105c357565b634e487b7160e01b5f52601160045260245ffd5b601f909101601f19168101906001600160401b038211908210176105fa57604052565b634e487b7160e01b5f52604160045260245ffd5b6040516370a0823160e01b81523060048201526001600160a01b03919091169190602081602481865afa908115610698575f91610664575b506100c990610661935f52600160205260405f2054906105b6565b90565b90506020813d602011610690575b8161067f602093836105d7565b810103126100de5751610661610646565b3d9150610672565b6040513d5f823e3d90fd5b919082039182116105c357565b610661906106c7426001600160401b03168261060e565b6001600160a01b039091165f90815260016020526040902054906106a3565b6001600160401b03918216917f00000000000000000000000000000000000000000000000000000000000000001680831015610723575050505f90565b7f00000000000000000000000000000000000000000000000000000000000000006001600160401b03169261075884836105b6565b811115610766575050905090565b90610770916106a3565b908181029181830414901517156105c357811561078b570490565b634e487b7160e01b5f52601260045260245ffd5b3d156107d8573d906001600160401b0382116105fa57604051916107cd601f8201601f1916602001846105d7565b82523d5f602084013e565b606090565b9192901561083f57508151156107f1575090565b3b156107fa5790565b60405162461bcd60e51b815260206004820152601d60248201527f416464726573733a2063616c6c20746f206e6f6e2d636f6e74726163740000006044820152606490fd5b8251909150156108525750805190602001fd5b604460209160405192839162461bcd60e51b83528160048401528051918291826024860152018484015e5f828201840152601f01601f19168101030190fdfea264697066735822122063bb885725ade8738a09689af5e87e5981298b1023617b3cf50817aa4f2f28f264736f6c634300081d0033","linkReferences":{}},"methodIdentifiers":{"beneficiary()":"38af3eed","duration()":"0fb5a6b4","releasable()":"fbccedae","releasable(address)":"a3f8eace","release()":"86d1a69f","release(address)":"19165587","released()":"96132521","released(address)":"9852595c","start()":"be9a6555","vestedAmount(address,uint64)":"810ec23b","vestedAmount(uint64)":"0a17b06b"},"id":51}